{"contracts/mocks/MockUSDY.sol":{"MockUSDY":{"abi":[{"inputs":[],"stateMutability":"nonpayable","type":"constructor"},{"anonymous":false,"inputs":[{"indexed":true,"internalType":"address","name":"owner","type":"address"},{"indexed":true,"internalType":"address","name":"spender","type":"address"},{"indexed":false,"internalType":"uint256","name":"value","type":"uint256"}],"name":"Approval","type":"event"},{"anonymous":false,"inputs":[{"indexed":true,"internalType":"address","name":"minter","type":"address"}],"name":"AuthorizedMinterAdded","type":"event"},{"anonymous":false,"inputs":[{"indexed":true,"internalType":"address","name":"minter","type":"address"}],"name":"AuthorizedMinterRemoved","type":"event"},{"anonymous":false,"inputs":[{"indexed":true,"internalType":"address","name":"previousOwner","type":"address"},{"indexed":true,"internalType":"address","name":"newOwner","type":"address"}],"name":"OwnershipTransferred","type":"event"},{"anonymous":false,"inputs":[{"indexed":true,"internalType":"address","name":"from","type":"address"},{"indexed":true,"internalType":"address","name":"to","type":"address"},{"indexed":false,"internalType":"uint256","name":"value","type":"uint256"}],"name":"Transfer","type":"event"},{"anonymous":false,"inputs":[{"indexed":true,"internalType":"address","name":"user","type":"address"},{"indexed":false,"internalType":"uint256","name":"yield","type":"uint256"}],"name":"YieldAccrued","type":"event"},{"inputs":[],"name":"ANNUAL_YIELD_RATE","outputs":[{"internalType":"uint256","name":"","type":"uint256"}],"stateMutability":"view","type":"function"},{"inputs":[],"name":"BASIS_POINTS","outputs":[{"internalType":"uint256","name":"","type":"uint256"}],"stateMutability":"view","type":"function"},{"inputs":[],"name":"SECONDS_PER_YEAR","outputs":[{"internalType":"uint256","name":"","type":"uint256"}],"stateMutability":"view","type":"function"},{"inputs":[{"internalType":"address","name":"minter","type":"address"}],"name":"addAuthorizedMinter","outputs":[],"stateMutability":"nonpayable","type":"function"},{"inputs":[{"internalType":"address","name":"owner","type":"address"},{"internalType":"address","name":"spender","type":"address"}],"name":"allowance","outputs":[{"internalType":"uint256","name":"","type":"uint256"}],"stateMutability":"view","type":"function"},{"inputs":[{"internalType":"address","name":"spender","type":"address"},{"internalType":"uint256","name":"amount","type":"uint256"}],"name":"approve","outputs":[{"internalType":"bool","name":"","type":"bool"}],"stateMutability":"nonpayable","type":"function"},{"inputs":[{"internalType":"address","name":"","type":"address"}],"name":"authorizedMinters","outputs":[{"internalType":"bool","name":"","type":"bool"}],"stateMutability":"view","type":"function"},{"inputs":[{"internalType":"address","name":"account","type":"address"}],"name":"balanceOf","outputs":[{"internalType":"uint256","name":"","type":"uint256"}],"stateMutability":"view","type":"function"},{"inputs":[{"internalType":"address","name":"from","type":"address"},{"internalType":"uint256","name":"amount","type":"uint256"}],"name":"burn","outputs":[],"stateMutability":"nonpayable","type":"function"},{"inputs":[],"name":"claimYield","outputs":[],"stateMutability":"nonpayable","type":"function"},{"inputs":[],"name":"decimals","outputs":[{"internalType":"uint8","name":"","type":"uint8"}],"stateMutability":"view","type":"function"},{"inputs":[{"internalType":"address","name":"spender","type":"address"},{"internalType":"uint256","name":"subtractedValue","type":"uint256"}],"name":"decreaseAllowance","outputs":[{"internalType":"bool","name":"","type":"bool"}],"stateMutability":"nonpayable","type":"function"},{"inputs":[],"name":"faucet","outputs":[],"stateMutability":"nonpayable","type":"function"},{"inputs":[{"internalType":"address","name":"user","type":"address"}],"name":"getYieldInfo","outputs":[{"internalType":"uint256","name":"balance","type":"uint256"},{"internalType":"uint256","name":"pendingYieldAmount","type":"uint256"},{"internalType":"uint256","name":"lastUpdate","type":"uint256"}],"stateMutability":"view","type":"function"},{"inputs":[{"internalType":"address","name":"spender","type":"address"},{"internalType":"uint256","name":"addedValue","type":"uint256"}],"name":"increaseAllowance","outputs":[{"internalType":"bool","name":"","type":"bool"}],"stateMutability":"nonpayable","type":"function"},{"inputs":[{"internalType":"address","name":"to","type":"address"},{"internalType":"uint256","name":"amount","type":"uint256"}],"name":"mint","outputs":[],"stateMutability":"nonpayable","type":"function"},{"inputs":[],"name":"name","outputs":[{"internalType":"string","name":"","type":"string"}],"stateMutability":"view","type":"function"},{"inputs":[],"name":"owner","outputs":[{"internalType":"address","name":"","type":"address"}],"stateMutability":"view","type":"function"},{"inputs":[{"internalType":"address","name":"user","type":"address"}],"name":"pendingYield","outputs":[{"internalType":"uint256","name":"","type":"uint256"}],"stateMutability":"view","type":"function"},{"inputs":[{"internalType":"address","name":"minter","type":"address"}],"name":"removeAuthorizedMinter","outputs":[],"stateMutability":"nonpayable","type":"function"},{"inputs":[],"name":"renounceOwnership","outputs":[],"stateMutability":"nonpayable","type":"function"},{"inputs":[],"name":"symbol","outputs":[{"internalType":"string","name":"","type":"string"}],"stateMutability":"view","type":"function"},{"inputs":[],"name":"totalSupply","outputs":[{"internalType":"uint256","name":"","type":"uint256"}],"stateMutability":"view","type":"function"},{"inputs":[{"internalType":"address","name":"to","type":"address"},{"internalType":"uint256","name":"amount","type":"uint256"}],"name":"transfer","outputs":[{"internalType":"bool","name":"","type":"bool"}],"stateMutability":"nonpayable","type":"function"},{"inputs":[{"internalType":"address","name":"from","type":"address"},{"internalType":"address","name":"to","type":"address"},{"internalType":"uint256","name":"amount","type":"uint256"}],"name":"transferFrom","outputs":[{"internalType":"bool","name":"","type":"bool"}],"stateMutability":"nonpayable","type":"function"},{"inputs":[{"internalType":"address","name":"newOwner","type":"address"}],"name":"transferOwnership","outputs":[],"stateMutability":"nonpayable","type":"function"},{"inputs":[{"internalType":"address","name":"","type":"address"}],"name":"yieldInfo","outputs":[{"internalType":"uint256","name":"balance","type":"uint256"},{"internalType":"uint256","name":"lastUpdateTime","type":"uint256"},{"internalType":"uint256","name":"accruedYield","type":"uint256"}],"stateMutability":"view","type":"function"}],"evm":{"bytecode":{"linkReferences":{},"object":"60803462000447576040906001600160401b03908083018281118282101762000431578352601981526020907f4d6f636b204f6e646f20555320446f6c6c6172205969656c6400000000000000828201528351908482018281108582111762000431578552600493848352635553445960e01b848401528151928184116200041c576003908154946001948587811c9716801562000411575b88881014620003fc578190601f97888111620003a6575b5088908883116001146200033f5760009262000333575b505060001982851b1c191690851b1782555b80519283116200031e5786548481811c9116801562000313575b87821014620002fe57858111620002b3575b50859085841160011462000248579383949184926000956200023c575b50501b92600019911b1c19161783555b60058054336001600160a01b03198216811790925585519291906001600160a01b03167f8be0079c531659141344cd1fd0a4f28419497f9722a3daafe3b4186f6b6457e0600080a33315620001ff57505060025469d3c21bcecceda100000092838201809211620001ea57506000917fddf252ad1be2c89b69c2b068fc378daa952ba7f163c4a11628f55a4df523b3ef9160025533835282815284832084815401905584519384523393a3516114bf90816200044d8239f35b601190634e487b7160e01b6000525260246000fd5b6064928462461bcd60e51b845283015260248201527f45524332303a206d696e7420746f20746865207a65726f2061646472657373006044820152fd5b01519350388062000121565b9190601f198416928860005284886000209460005b8a898383106200029b575050501062000280575b50505050811b01835562000131565b01519060f884600019921b161c191690553880808062000271565b8686015189559097019694850194889350016200025d565b87600052866000208680860160051c820192898710620002f4575b0160051c019085905b828110620002e757505062000104565b60008155018590620002d7565b92508192620002ce565b602288634e487b7160e01b6000525260246000fd5b90607f1690620000f2565b604187634e487b7160e01b6000525260246000fd5b015190503880620000c6565b90879350601f19831691866000528a6000209260005b8c8282106200038f575050841162000376575b505050811b018255620000d8565b015160001983871b60f8161c1916905538808062000368565b8385015186558b9790950194938401930162000355565b90915084600052886000208880850160051c8201928b8610620003f2575b918991869594930160051c01915b828110620003e2575050620000af565b60008155859450899101620003d2565b92508192620003c4565b602289634e487b7160e01b6000525260246000fd5b96607f169662000098565b604186634e487b7160e01b6000525260246000fd5b634e487b7160e01b600052604160045260246000fd5b600080fdfe6080604081815260048036101561001557600080fd5b600092833560e01c90816306fdde0314610dc757508063095ea7b314610d9d5780630c5f54dc14610d1a5780631616669b14610cbe57806318160ddd14610c9f57806323b872dd14610b6b578063313ce56714610b4f5780633950935114610aff578063406cf22914610a5057806340c10f19146109e3578063475ae0391461097d5780635f710f5c1461091457806370a08231146108dd578063715018a6146108805780638da5cb5b1461085757806395d89b41146107515780639dc29fac146105a7578063a457c2d7146104f9578063a9059cbb14610467578063aa2fe91b14610429578063c7bf1980146103fc578063d3def507146103df578063dd62ed3e14610396578063de5f72fd1461025a578063e1f1c4a71461023d578063e6a69ab81461021a5763f2fde38b1461014c57600080fd5b3461021657602036600319011261021657610165610f06565b9061016e6112b5565b6001600160a01b039182169283156101c4575050600554826bffffffffffffffffffffffff60a01b821617600555167f8be0079c531659141344cd1fd0a4f28419497f9722a3daafe3b4186f6b6457e08380a380f35b906020608492519162461bcd60e51b8352820152602660248201527f4f776e61626c653a206e6577206f776e657220697320746865207a65726f206160448201526564647265737360d01b6064820152fd5b8280fd5b505034610239578160031936011261023957602090516301e133808152f35b5080fd5b505034610239578160031936011261023957602090516127108152f35b50919034610239578160031936011261023957338252602082815269021e19e0c9bab24000008284205410156103545733156103125760025469010f0cf064dd59200000908181018091116102ff5760025533845283825282842081815401905582518181528460008051602061146a833981519152843393a33384526006825282842080549182018092116102ff5790600692915533845252600142918320015580f35b634e487b7160e01b855260118652602485fd5b8390606492519162461bcd60e51b8352820152601f60248201527f45524332303a206d696e7420746f20746865207a65726f2061646472657373006044820152fd5b8390606492519162461bcd60e51b8352820152601860248201527f416c7265616479206861766520656e6f756768205553445900000000000000006044820152fd5b505034610239578060031936011261023957806020926103b4610f06565b6103bc610f21565b6001600160a01b0391821683526001865283832091168252845220549051908152f35b505034610239578160031936011261023957602090516101c28152f35b5050346102395760203660031901126102395760209061042261041d610f06565b610fff565b9051908152f35b5050346102395760203660031901126102395760209160ff9082906001600160a01b03610454610f06565b1681526007855220541690519015158152f35b5050346102395780600319360112610239576020916104e882610488610f06565b9260243593610496336111c1565b61049f816111c1565b6104aa85823361130d565b338252600687528282205485808211156104f1576104c791610f8b565b33835260068852838320556001600160a01b03168152208054909290610fae565b90555160018152f35b5050816104c7565b5082346105a457826003193601126105a457610513610f06565b918360243592338152600160205281812060018060a01b03861682526020522054908282106105535760208561054c85850387336110bf565b5160018152f35b608490602086519162461bcd60e51b8352820152602560248201527f45524332303a2064656372656173656420616c6c6f77616e63652062656c6f77604482015264207a65726f60d81b6064820152fd5b80fd5b5090346102165780600319360112610216576105c1610f06565b602435338552602091600783526105dd60ff8588205416610fbb565b6105e6816111c1565b6001600160a01b03168086528583528386205490949082116107175784156106ca57848652858352838620549082821061067c575090806006939286885287845203848720558060025403600255858560008051602061146a833981519152848751858152a38486528282528386205490808211156106735761066891610f8b565b935b85525282205580f35b5050849361066a565b845162461bcd60e51b8152908101849052602260248201527f45524332303a206275726e20616d6f756e7420657863656564732062616c616e604482015261636560f01b6064820152608490fd5b835162461bcd60e51b8152908101839052602160248201527f45524332303a206275726e2066726f6d20746865207a65726f206164647265736044820152607360f81b6064820152608490fd5b835162461bcd60e51b81529081018390526014602482015273496e73756666696369656e742062616c616e636560601b6044820152606490fd5b5091903461023957816003193601126102395780519180938054916001908360011c926001851694851561084d575b602095868610811461083a5785895290811561081657506001146107be575b6107ba87876107b0828c0383610f69565b5191829182610ebd565b0390f35b81529295507f8a35acfbc15ff81a39ae7d344fd709f28e8600b4aa8c65c6b64bfe7fe36bd19b5b82841061080357505050826107ba946107b09282010194388061079f565b80548685018801529286019281016107e5565b60ff19168887015250505050151560051b83010192506107b0826107ba388061079f565b634e487b7160e01b845260228352602484fd5b93607f1693610780565b50503461023957816003193601126102395760055490516001600160a01b039091168152602090f35b83346105a457806003193601126105a4576108996112b5565b600580546001600160a01b0319811690915581906001600160a01b03167f8be0079c531659141344cd1fd0a4f28419497f9722a3daafe3b4186f6b6457e08280a380f35b5050346102395760203660031901126102395760209181906001600160a01b03610905610f06565b16815280845220549051908152f35b5050346102395760203660031901126102395761092f610f06565b6109376112b5565b6001600160a01b03168083526007602052908220805460ff191660011790557fe6be4d6cc04eb0219337b22db08c688969a9ec8e34d9a0a2ba38a114e050f1ae8280a280f35b50503461023957602036600319011261023957610998610f06565b6109a06112b5565b6001600160a01b03168083526007602052908220805460ff191690557fc6711413797b8a562634e98c95d50e7619d39702ed5b82ce335dc93546c3a88c8280a280f35b505034610239578060031936011261023957610a4b610a00610f06565b91602435923385526007602052610a1c60ff8387205416610fbb565b610a25816111c1565b610a2f8482611224565b6001600160a01b03168452600660205283208054909290610fae565b905580f35b509034610216578260031936011261021657610a6b336111c1565b338352600660205260028184200154918215610ac9575033835260066020528260028282200155610a9c8233611224565b519081527f8258a59886e03bdb78e5ddb9566b8ad4957a1747e8d15fd0b4a24274f35cf31760203392a280f35b6020606492519162461bcd60e51b835282015260116024820152704e6f207969656c6420746f20636c61696d60781b6044820152fd5b50503461023957806003193601126102395761054c602092610b48610b22610f06565b338352600186528483206001600160a01b03821684528652918490205460243590610fae565b90336110bf565b5050346102395781600319360112610239576020905160128152f35b5091346105a45760603660031901126105a457610b86610f06565b9082610b90610f21565b91604435938493610ba0826111c1565b610ba9816111c1565b6001600160a01b0382811680855260016020818152878720338852815287872054909b9395929390918201610c27575b50506104e89683610be99261130d565b80845260068952848420548780821115610c1e57610c0691610f8b565b905b8452600689528484205516815220918254610fae565b50508390610c08565b9193959790809395975010610c5c575091610be987856104e8989694610c52838d9a980333836110bf565b9250819850610bd9565b885162461bcd60e51b81529081018a9052601d60248201527f45524332303a20696e73756666696369656e7420616c6c6f77616e63650000006044820152606490fd5b5050346102395781600319360112610239576020906002549051908152f35b505034610239576020366003190112610239579081906001600160a01b03610ce4610f06565b168152600660205220906107ba825491600260018501549401549051938493846040919493926060820195825260208201520152565b8284346105a45760203660031901126105a4576107ba82610d39610f06565b6001600160a01b038116845260066020529220835190939092610d7f90610d5f85610f37565b85549485815283600260018901549860208401998a520154910152610fff565b93519051938493846040919493926060820195825260208201520152565b50503461023957806003193601126102395760209061054c610dbd610f06565b60243590336110bf565b9291905034610eb95783600319360112610eb957600354600181811c9186908281168015610eaf575b6020958686108214610e9c5750848852908115610e7a5750600114610e21575b6107ba86866107b0828b0383610f69565b929550600383527fc2575a0e9e593c00f959f8c92f12db2869c3395a3b0502d05e2516446f71f85b5b828410610e6757505050826107ba946107b0928201019438610e10565b8054868501880152928601928101610e4a565b60ff191687860152505050151560051b83010192506107b0826107ba38610e10565b634e487b7160e01b845260229052602483fd5b93607f1693610df0565b8380fd5b6020808252825181830181905290939260005b828110610ef257505060409293506000838284010152601f8019910116010190565b818101860151848201604001528501610ed0565b600435906001600160a01b0382168203610f1c57565b600080fd5b602435906001600160a01b0382168203610f1c57565b6060810190811067ffffffffffffffff821117610f5357604052565b634e487b7160e01b600052604160045260246000fd5b90601f8019910116810190811067ffffffffffffffff821117610f5357604052565b91908203918211610f9857565b634e487b7160e01b600052601160045260246000fd5b91908201809211610f9857565b15610fc257565b60405162461bcd60e51b81526020600482015260156024820152742737ba1030baba3437b934bd32b21036b4b73a32b960591b6044820152606490fd5b6001600160a01b03166000908152600660205260408082209051909161102482610f37565b825492838352600260018201549182602086015201546040840194818652156110b757506110529042610f8b565b91516101c2808202918083048214811517156110a35784020292818404149015171561108f57509064496cebb80061108c92049051610fae565b90565b634e487b7160e01b81526011600452602490fd5b634e487b7160e01b84526011600452602484fd5b935050505090565b6001600160a01b0390811691821561117057169182156111205760207f8c5be1e5ebec7d5bd14f71427d1e84f3dd0314c0f7b2291e5b200ac8c7c3b925918360005260018252604060002085600052825280604060002055604051908152a3565b60405162461bcd60e51b815260206004820152602260248201527f45524332303a20617070726f766520746f20746865207a65726f206164647265604482015261737360f01b6064820152608490fd5b60405162461bcd60e51b8152602060048201526024808201527f45524332303a20617070726f76652066726f6d20746865207a65726f206164646044820152637265737360e01b6064820152608490fd5b6111ca81610fff565b9060018060a01b0316908160005260066020526040600020816002820155600142910155806111f7575050565b60207f8258a59886e03bdb78e5ddb9566b8ad4957a1747e8d15fd0b4a24274f35cf31791604051908152a2565b6001600160a01b03169081156112705760008051602061146a833981519152602082611254600094600254610fae565b60025584845283825260408420818154019055604051908152a3565b60405162461bcd60e51b815260206004820152601f60248201527f45524332303a206d696e7420746f20746865207a65726f2061646472657373006044820152606490fd5b6005546001600160a01b031633036112c957565b606460405162461bcd60e51b815260206004820152602060248201527f4f776e61626c653a2063616c6c6572206973206e6f7420746865206f776e65726044820152fd5b6001600160a01b0390811691821561141657169182156113c557600082815280602052604081205491808310611371576040828260008051602061146a833981519152958760209652828652038282205586815220818154019055604051908152a3565b60405162461bcd60e51b815260206004820152602660248201527f45524332303a207472616e7366657220616d6f756e7420657863656564732062604482015265616c616e636560d01b6064820152608490fd5b60405162461bcd60e51b815260206004820152602360248201527f45524332303a207472616e7366657220746f20746865207a65726f206164647260448201526265737360e81b6064820152608490fd5b60405162461bcd60e51b815260206004820152602560248201527f45524332303a207472616e736665722066726f6d20746865207a65726f206164604482015264647265737360d81b6064820152608490fdfeddf252ad1be2c89b69c2b068fc378daa952ba7f163c4a11628f55a4df523b3efa2646970667358221220b406d14c8c2a9bc564ad24c8f8b7f41ef8837c78aab0929eb173b6207b35da2164736f6c63430008180033","opcodes":"PUSH1 0x80 CALLVALUE PUSH3 0x447 JUMPI PUSH1 0x40 SWAP1 PUSH1 0x1 PUSH1 0x1 PUSH1 0x40 SHL SUB SWAP1 DUP1 DUP4 ADD DUP3 DUP2 GT DUP3 DUP3 LT OR PUSH3 0x431 JUMPI DUP4 MSTORE PUSH1 0x19 DUP2 MSTORE PUSH1 0x20 SWAP1 PUSH32 0x4D6F636B204F6E646F20555320446F6C6C6172205969656C6400000000000000 DUP3 DUP3 ADD MSTORE DUP4 MLOAD SWAP1 DUP5 DUP3 ADD DUP3 DUP2 LT DUP6 DUP3 GT OR PUSH3 0x431 JUMPI DUP6 MSTORE PUSH1 0x4 SWAP4 DUP5 DUP4 MSTORE PUSH4 0x55534459 PUSH1 0xE0 SHL DUP5 DUP5 ADD MSTORE DUP2 MLOAD SWAP3 DUP2 DUP5 GT PUSH3 0x41C JUMPI PUSH1 0x3 SWAP1 DUP2 SLOAD SWAP5 PUSH1 0x1 SWAP5 DUP6 DUP8 DUP2 SHR SWAP8 AND DUP1 ISZERO PUSH3 0x411 JUMPI JUMPDEST DUP9 DUP9 LT EQ PUSH3 0x3FC JUMPI DUP2 SWAP1 PUSH1 0x1F SWAP8 DUP9 DUP2 GT PUSH3 0x3A6 JUMPI JUMPDEST POP DUP9 SWAP1 DUP9 DUP4 GT PUSH1 0x1 EQ PUSH3 0x33F JUMPI PUSH1 0x0 SWAP3 PUSH3 0x333 JUMPI JUMPDEST POP POP PUSH1 0x0 NOT DUP3 DUP6 SHL SHR NOT AND SWAP1 DUP6 SHL OR DUP3 SSTORE JUMPDEST DUP1 MLOAD SWAP3 DUP4 GT PUSH3 0x31E JUMPI DUP7 SLOAD DUP5 DUP2 DUP2 SHR SWAP2 AND DUP1 ISZERO PUSH3 0x313 JUMPI JUMPDEST DUP8 DUP3 LT EQ PUSH3 0x2FE JUMPI DUP6 DUP2 GT PUSH3 0x2B3 JUMPI JUMPDEST POP DUP6 SWAP1 DUP6 DUP5 GT PUSH1 0x1 EQ PUSH3 0x248 JUMPI SWAP4 DUP4 SWAP5 SWAP2 DUP5 SWAP3 PUSH1 0x0 SWAP6 PUSH3 0x23C JUMPI JUMPDEST POP POP SHL SWAP3 PUSH1 0x0 NOT SWAP2 SHL SHR NOT AND OR DUP4 SSTORE JUMPDEST PUSH1 0x5 DUP1 SLOAD CALLER PUSH1 0x1 PUSH1 0x1 PUSH1 0xA0 SHL SUB NOT DUP3 AND DUP2 OR SWAP1 SWAP3 SSTORE DUP6 MLOAD SWAP3 SWAP2 SWAP1 PUSH1 0x1 PUSH1 0x1 PUSH1 0xA0 SHL SUB AND PUSH32 0x8BE0079C531659141344CD1FD0A4F28419497F9722A3DAAFE3B4186F6B6457E0 PUSH1 0x0 DUP1 LOG3 CALLER ISZERO PUSH3 0x1FF JUMPI POP POP PUSH1 0x2 SLOAD PUSH10 0xD3C21BCECCEDA1000000 SWAP3 DUP4 DUP3 ADD DUP1 SWAP3 GT PUSH3 0x1EA JUMPI POP PUSH1 0x0 SWAP2 PUSH32 0xDDF252AD1BE2C89B69C2B068FC378DAA952BA7F163C4A11628F55A4DF523B3EF SWAP2 PUSH1 0x2 SSTORE CALLER DUP4 MSTORE DUP3 DUP2 MSTORE DUP5 DUP4 KECCAK256 DUP5 DUP2 SLOAD ADD SWAP1 SSTORE DUP5 MLOAD SWAP4 DUP5 MSTORE CALLER SWAP4 LOG3 MLOAD PUSH2 0x14BF SWAP1 DUP2 PUSH3 0x44D DUP3 CODECOPY RETURN JUMPDEST PUSH1 0x11 SWAP1 PUSH4 0x4E487B71 PUSH1 0xE0 SHL PUSH1 0x0 MSTORE MSTORE PUSH1 0x24 PUSH1 0x0 REVERT JUMPDEST PUSH1 0x64 SWAP3 DUP5 PUSH3 0x461BCD PUSH1 0xE5 SHL DUP5 MSTORE DUP4 ADD MSTORE PUSH1 0x24 DUP3 ADD MSTORE PUSH32 0x45524332303A206D696E7420746F20746865207A65726F206164647265737300 PUSH1 0x44 DUP3 ADD MSTORE REVERT JUMPDEST ADD MLOAD SWAP4 POP CODESIZE DUP1 PUSH3 0x121 JUMP JUMPDEST SWAP2 SWAP1 PUSH1 0x1F NOT DUP5 AND SWAP3 DUP9 PUSH1 0x0 MSTORE DUP5 DUP9 PUSH1 0x0 KECCAK256 SWAP5 PUSH1 0x0 JUMPDEST DUP11 DUP10 DUP4 DUP4 LT PUSH3 0x29B JUMPI POP POP POP LT PUSH3 0x280 JUMPI JUMPDEST POP POP POP POP DUP2 SHL ADD DUP4 SSTORE PUSH3 0x131 JUMP JUMPDEST ADD MLOAD SWAP1 PUSH1 0xF8 DUP5 PUSH1 0x0 NOT SWAP3 SHL AND SHR NOT AND SWAP1 SSTORE CODESIZE DUP1 DUP1 DUP1 PUSH3 0x271 JUMP JUMPDEST DUP7 DUP7 ADD MLOAD DUP10 SSTORE SWAP1 SWAP8 ADD SWAP7 SWAP5 DUP6 ADD SWAP5 DUP9 SWAP4 POP ADD PUSH3 0x25D JUMP JUMPDEST DUP8 PUSH1 0x0 MSTORE DUP7 PUSH1 0x0 KECCAK256 DUP7 DUP1 DUP7 ADD PUSH1 0x5 SHR DUP3 ADD SWAP3 DUP10 DUP8 LT PUSH3 0x2F4 JUMPI JUMPDEST ADD PUSH1 0x5 SHR ADD SWAP1 DUP6 SWAP1 JUMPDEST DUP3 DUP2 LT PUSH3 0x2E7 JUMPI POP POP PUSH3 0x104 JUMP JUMPDEST PUSH1 0x0 DUP2 SSTORE ADD DUP6 SWAP1 PUSH3 0x2D7 JUMP JUMPDEST SWAP3 POP DUP2 SWAP3 PUSH3 0x2CE JUMP JUMPDEST PUSH1 0x22 DUP9 PUSH4 0x4E487B71 PUSH1 0xE0 SHL PUSH1 0x0 MSTORE MSTORE PUSH1 0x24 PUSH1 0x0 REVERT JUMPDEST SWAP1 PUSH1 0x7F AND SWAP1 PUSH3 0xF2 JUMP JUMPDEST PUSH1 0x41 DUP8 PUSH4 0x4E487B71 PUSH1 0xE0 SHL PUSH1 0x0 MSTORE MSTORE PUSH1 0x24 PUSH1 0x0 REVERT JUMPDEST ADD MLOAD SWAP1 POP CODESIZE DUP1 PUSH3 0xC6 JUMP JUMPDEST SWAP1 DUP8 SWAP4 POP PUSH1 0x1F NOT DUP4 AND SWAP2 DUP7 PUSH1 0x0 MSTORE DUP11 PUSH1 0x0 KECCAK256 SWAP3 PUSH1 0x0 JUMPDEST DUP13 DUP3 DUP3 LT PUSH3 0x38F JUMPI POP POP DUP5 GT PUSH3 0x376 JUMPI JUMPDEST POP POP POP DUP2 SHL ADD DUP3 SSTORE PUSH3 0xD8 JUMP JUMPDEST ADD MLOAD PUSH1 0x0 NOT DUP4 DUP8 SHL PUSH1 0xF8 AND SHR NOT AND SWAP1 SSTORE CODESIZE DUP1 DUP1 PUSH3 0x368 JUMP JUMPDEST DUP4 DUP6 ADD MLOAD DUP7 SSTORE DUP12 SWAP8 SWAP1 SWAP6 ADD SWAP5 SWAP4 DUP5 ADD SWAP4 ADD PUSH3 0x355 JUMP JUMPDEST SWAP1 SWAP2 POP DUP5 PUSH1 0x0 MSTORE DUP9 PUSH1 0x0 KECCAK256 DUP9 DUP1 DUP6 ADD PUSH1 0x5 SHR DUP3 ADD SWAP3 DUP12 DUP7 LT PUSH3 0x3F2 JUMPI JUMPDEST SWAP2 DUP10 SWAP2 DUP7 SWAP6 SWAP5 SWAP4 ADD PUSH1 0x5 SHR ADD SWAP2 JUMPDEST DUP3 DUP2 LT PUSH3 0x3E2 JUMPI POP POP PUSH3 0xAF JUMP JUMPDEST PUSH1 0x0 DUP2 SSTORE DUP6 SWAP5 POP DUP10 SWAP2 ADD PUSH3 0x3D2 JUMP JUMPDEST SWAP3 POP DUP2 SWAP3 PUSH3 0x3C4 JUMP JUMPDEST PUSH1 0x22 DUP10 PUSH4 0x4E487B71 PUSH1 0xE0 SHL PUSH1 0x0 MSTORE MSTORE PUSH1 0x24 PUSH1 0x0 REVERT JUMPDEST SWAP7 PUSH1 0x7F AND SWAP7 PUSH3 0x98 JUMP JUMPDEST PUSH1 0x41 DUP7 PUSH4 0x4E487B71 PUSH1 0xE0 SHL PUSH1 0x0 MSTORE MSTORE PUSH1 0x24 PUSH1 0x0 REVERT JUMPDEST PUSH4 0x4E487B71 PUSH1 0xE0 SHL PUSH1 0x0 MSTORE PUSH1 0x41 PUSH1 0x4 MSTORE PUSH1 0x24 PUSH1 0x0 REVERT JUMPDEST PUSH1 0x0 DUP1 REVERT INVALID PUSH1 0x80 PUSH1 0x40 DUP2 DUP2 MSTORE PUSH1 0x4 DUP1 CALLDATASIZE LT ISZERO PUSH2 0x15 JUMPI PUSH1 0x0 DUP1 REVERT JUMPDEST PUSH1 0x0 SWAP3 DUP4 CALLDATALOAD PUSH1 0xE0 SHR SWAP1 DUP2 PUSH4 0x6FDDE03 EQ PUSH2 0xDC7 JUMPI POP DUP1 PUSH4 0x95EA7B3 EQ PUSH2 0xD9D JUMPI DUP1 PUSH4 0xC5F54DC EQ PUSH2 0xD1A JUMPI DUP1 PUSH4 0x1616669B EQ PUSH2 0xCBE JUMPI DUP1 PUSH4 0x18160DDD EQ PUSH2 0xC9F JUMPI DUP1 PUSH4 0x23B872DD EQ PUSH2 0xB6B JUMPI DUP1 PUSH4 0x313CE567 EQ PUSH2 0xB4F JUMPI DUP1 PUSH4 0x39509351 EQ PUSH2 0xAFF JUMPI DUP1 PUSH4 0x406CF229 EQ PUSH2 0xA50 JUMPI DUP1 PUSH4 0x40C10F19 EQ PUSH2 0x9E3 JUMPI DUP1 PUSH4 0x475AE039 EQ PUSH2 0x97D JUMPI DUP1 PUSH4 0x5F710F5C EQ PUSH2 0x914 JUMPI DUP1 PUSH4 0x70A08231 EQ PUSH2 0x8DD JUMPI DUP1 PUSH4 0x715018A6 EQ PUSH2 0x880 JUMPI DUP1 PUSH4 0x8DA5CB5B EQ PUSH2 0x857 JUMPI DUP1 PUSH4 0x95D89B41 EQ PUSH2 0x751 JUMPI DUP1 PUSH4 0x9DC29FAC EQ PUSH2 0x5A7 JUMPI DUP1 PUSH4 0xA457C2D7 EQ PUSH2 0x4F9 JUMPI DUP1 PUSH4 0xA9059CBB EQ PUSH2 0x467 JUMPI DUP1 PUSH4 0xAA2FE91B EQ PUSH2 0x429 JUMPI DUP1 PUSH4 0xC7BF1980 EQ PUSH2 0x3FC JUMPI DUP1 PUSH4 0xD3DEF507 EQ PUSH2 0x3DF JUMPI DUP1 PUSH4 0xDD62ED3E EQ PUSH2 0x396 JUMPI DUP1 PUSH4 0xDE5F72FD EQ PUSH2 0x25A JUMPI DUP1 PUSH4 0xE1F1C4A7 EQ PUSH2 0x23D JUMPI DUP1 PUSH4 0xE6A69AB8 EQ PUSH2 0x21A JUMPI PUSH4 0xF2FDE38B EQ PUSH2 0x14C JUMPI PUSH1 0x0 DUP1 REVERT JUMPDEST CALLVALUE PUSH2 0x216 JUMPI PUSH1 0x20 CALLDATASIZE PUSH1 0x3 NOT ADD SLT PUSH2 0x216 JUMPI PUSH2 0x165 PUSH2 0xF06 JUMP JUMPDEST SWAP1 PUSH2 0x16E PUSH2 0x12B5 JUMP JUMPDEST PUSH1 0x1 PUSH1 0x1 PUSH1 0xA0 SHL SUB SWAP2 DUP3 AND SWAP3 DUP4 ISZERO PUSH2 0x1C4 JUMPI POP POP PUSH1 0x5 SLOAD DUP3 PUSH12 0xFFFFFFFFFFFFFFFFFFFFFFFF PUSH1 0xA0 SHL DUP3 AND OR PUSH1 0x5 SSTORE AND PUSH32 0x8BE0079C531659141344CD1FD0A4F28419497F9722A3DAAFE3B4186F6B6457E0 DUP4 DUP1 LOG3 DUP1 RETURN JUMPDEST SWAP1 PUSH1 0x20 PUSH1 0x84 SWAP3 MLOAD SWAP2 PUSH3 0x461BCD PUSH1 0xE5 SHL DUP4 MSTORE DUP3 ADD MSTORE PUSH1 0x26 PUSH1 0x24 DUP3 ADD MSTORE PUSH32 0x4F776E61626C653A206E6577206F776E657220697320746865207A65726F2061 PUSH1 0x44 DUP3 ADD MSTORE PUSH6 0x646472657373 PUSH1 0xD0 SHL PUSH1 0x64 DUP3 ADD MSTORE REVERT JUMPDEST DUP3 DUP1 REVERT JUMPDEST POP POP CALLVALUE PUSH2 0x239 JUMPI DUP2 PUSH1 0x3 NOT CALLDATASIZE ADD SLT PUSH2 0x239 JUMPI PUSH1 0x20 SWAP1 MLOAD PUSH4 0x1E13380 DUP2 MSTORE RETURN JUMPDEST POP DUP1 REVERT JUMPDEST POP POP CALLVALUE PUSH2 0x239 JUMPI DUP2 PUSH1 0x3 NOT CALLDATASIZE ADD SLT PUSH2 0x239 JUMPI PUSH1 0x20 SWAP1 MLOAD PUSH2 0x2710 DUP2 MSTORE RETURN JUMPDEST POP SWAP2 SWAP1 CALLVALUE PUSH2 0x239 JUMPI DUP2 PUSH1 0x3 NOT CALLDATASIZE ADD SLT PUSH2 0x239 JUMPI CALLER DUP3 MSTORE PUSH1 0x20 DUP3 DUP2 MSTORE PUSH10 0x21E19E0C9BAB2400000 DUP3 DUP5 KECCAK256 SLOAD LT ISZERO PUSH2 0x354 JUMPI CALLER ISZERO PUSH2 0x312 JUMPI PUSH1 0x2 SLOAD PUSH10 0x10F0CF064DD59200000 SWAP1 DUP2 DUP2 ADD DUP1 SWAP2 GT PUSH2 0x2FF JUMPI PUSH1 0x2 SSTORE CALLER DUP5 MSTORE DUP4 DUP3 MSTORE DUP3 DUP5 KECCAK256 DUP2 DUP2 SLOAD ADD SWAP1 SSTORE DUP3 MLOAD DUP2 DUP2 MSTORE DUP5 PUSH1 0x0 DUP1 MLOAD PUSH1 0x20 PUSH2 0x146A DUP4 CODECOPY DUP2 MLOAD SWAP2 MSTORE DUP5 CALLER SWAP4 LOG3 CALLER DUP5 MSTORE PUSH1 0x6 DUP3 MSTORE DUP3 DUP5 KECCAK256 DUP1 SLOAD SWAP2 DUP3 ADD DUP1 SWAP3 GT PUSH2 0x2FF JUMPI SWAP1 PUSH1 0x6 SWAP3 SWAP2 SSTORE CALLER DUP5 MSTORE MSTORE PUSH1 0x1 TIMESTAMP SWAP2 DUP4 KECCAK256 ADD SSTORE DUP1 RETURN JUMPDEST PUSH4 0x4E487B71 PUSH1 0xE0 SHL DUP6 MSTORE PUSH1 0x11 DUP7 MSTORE PUSH1 0x24 DUP6 REVERT JUMPDEST DUP4 SWAP1 PUSH1 0x64 SWAP3 MLOAD SWAP2 PUSH3 0x461BCD PUSH1 0xE5 SHL DUP4 MSTORE DUP3 ADD MSTORE PUSH1 0x1F PUSH1 0x24 DUP3 ADD MSTORE PUSH32 0x45524332303A206D696E7420746F20746865207A65726F206164647265737300 PUSH1 0x44 DUP3 ADD MSTORE REVERT JUMPDEST DUP4 SWAP1 PUSH1 0x64 SWAP3 MLOAD SWAP2 PUSH3 0x461BCD PUSH1 0xE5 SHL DUP4 MSTORE DUP3 ADD MSTORE PUSH1 0x18 PUSH1 0x24 DUP3 ADD MSTORE PUSH32 0x416C7265616479206861766520656E6F75676820555344590000000000000000 PUSH1 0x44 DUP3 ADD MSTORE REVERT JUMPDEST POP POP CALLVALUE PUSH2 0x239 JUMPI DUP1 PUSH1 0x3 NOT CALLDATASIZE ADD SLT PUSH2 0x239 JUMPI DUP1 PUSH1 0x20 SWAP3 PUSH2 0x3B4 PUSH2 0xF06 JUMP JUMPDEST PUSH2 0x3BC PUSH2 0xF21 JUMP JUMPDEST PUSH1 0x1 PUSH1 0x1 PUSH1 0xA0 SHL SUB SWAP2 DUP3 AND DUP4 MSTORE PUSH1 0x1 DUP7 MSTORE DUP4 DUP4 KECCAK256 SWAP2 AND DUP3 MSTORE DUP5 MSTORE KECCAK256 SLOAD SWAP1 MLOAD SWAP1 DUP2 MSTORE RETURN JUMPDEST POP POP CALLVALUE PUSH2 0x239 JUMPI DUP2 PUSH1 0x3 NOT CALLDATASIZE ADD SLT PUSH2 0x239 JUMPI PUSH1 0x20 SWAP1 MLOAD PUSH2 0x1C2 DUP2 MSTORE RETURN JUMPDEST POP POP CALLVALUE PUSH2 0x239 JUMPI PUSH1 0x20 CALLDATASIZE PUSH1 0x3 NOT ADD SLT PUSH2 0x239 JUMPI PUSH1 0x20 SWAP1 PUSH2 0x422 PUSH2 0x41D PUSH2 0xF06 JUMP JUMPDEST PUSH2 0xFFF JUMP JUMPDEST SWAP1 MLOAD SWAP1 DUP2 MSTORE RETURN JUMPDEST POP POP CALLVALUE PUSH2 0x239 JUMPI PUSH1 0x20 CALLDATASIZE PUSH1 0x3 NOT ADD SLT PUSH2 0x239 JUMPI PUSH1 0x20 SWAP2 PUSH1 0xFF SWAP1 DUP3 SWAP1 PUSH1 0x1 PUSH1 0x1 PUSH1 0xA0 SHL SUB PUSH2 0x454 PUSH2 0xF06 JUMP JUMPDEST AND DUP2 MSTORE PUSH1 0x7 DUP6 MSTORE KECCAK256 SLOAD AND SWAP1 MLOAD SWAP1 ISZERO ISZERO DUP2 MSTORE RETURN JUMPDEST POP POP CALLVALUE PUSH2 0x239 JUMPI DUP1 PUSH1 0x3 NOT CALLDATASIZE ADD SLT PUSH2 0x239 JUMPI PUSH1 0x20 SWAP2 PUSH2 0x4E8 DUP3 PUSH2 0x488 PUSH2 0xF06 JUMP JUMPDEST SWAP3 PUSH1 0x24 CALLDATALOAD SWAP4 PUSH2 0x496 CALLER PUSH2 0x11C1 JUMP JUMPDEST PUSH2 0x49F DUP2 PUSH2 0x11C1 JUMP JUMPDEST PUSH2 0x4AA DUP6 DUP3 CALLER PUSH2 0x130D JUMP JUMPDEST CALLER DUP3 MSTORE PUSH1 0x6 DUP8 MSTORE DUP3 DUP3 KECCAK256 SLOAD DUP6 DUP1 DUP3 GT ISZERO PUSH2 0x4F1 JUMPI PUSH2 0x4C7 SWAP2 PUSH2 0xF8B JUMP JUMPDEST CALLER DUP4 MSTORE PUSH1 0x6 DUP9 MSTORE DUP4 DUP4 KECCAK256 SSTORE PUSH1 0x1 PUSH1 0x1 PUSH1 0xA0 SHL SUB AND DUP2 MSTORE KECCAK256 DUP1 SLOAD SWAP1 SWAP3 SWAP1 PUSH2 0xFAE JUMP JUMPDEST SWAP1 SSTORE MLOAD PUSH1 0x1 DUP2 MSTORE RETURN JUMPDEST POP POP DUP2 PUSH2 0x4C7 JUMP JUMPDEST POP DUP3 CALLVALUE PUSH2 0x5A4 JUMPI DUP3 PUSH1 0x3 NOT CALLDATASIZE ADD SLT PUSH2 0x5A4 JUMPI PUSH2 0x513 PUSH2 0xF06 JUMP JUMPDEST SWAP2 DUP4 PUSH1 0x24 CALLDATALOAD SWAP3 CALLER DUP2 MSTORE PUSH1 0x1 PUSH1 0x20 MSTORE DUP2 DUP2 KECCAK256 PUSH1 0x1 DUP1 PUSH1 0xA0 SHL SUB DUP7 AND DUP3 MSTORE PUSH1 0x20 MSTORE KECCAK256 SLOAD SWAP1 DUP3 DUP3 LT PUSH2 0x553 JUMPI PUSH1 0x20 DUP6 PUSH2 0x54C DUP6 DUP6 SUB DUP8 CALLER PUSH2 0x10BF JUMP JUMPDEST MLOAD PUSH1 0x1 DUP2 MSTORE RETURN JUMPDEST PUSH1 0x84 SWAP1 PUSH1 0x20 DUP7 MLOAD SWAP2 PUSH3 0x461BCD PUSH1 0xE5 SHL DUP4 MSTORE DUP3 ADD MSTORE PUSH1 0x25 PUSH1 0x24 DUP3 ADD MSTORE PUSH32 0x45524332303A2064656372656173656420616C6C6F77616E63652062656C6F77 PUSH1 0x44 DUP3 ADD MSTORE PUSH5 0x207A65726F PUSH1 0xD8 SHL PUSH1 0x64 DUP3 ADD MSTORE REVERT JUMPDEST DUP1 REVERT JUMPDEST POP SWAP1 CALLVALUE PUSH2 0x216 JUMPI DUP1 PUSH1 0x3 NOT CALLDATASIZE ADD SLT PUSH2 0x216 JUMPI PUSH2 0x5C1 PUSH2 0xF06 JUMP JUMPDEST PUSH1 0x24 CALLDATALOAD CALLER DUP6 MSTORE PUSH1 0x20 SWAP2 PUSH1 0x7 DUP4 MSTORE PUSH2 0x5DD PUSH1 0xFF DUP6 DUP9 KECCAK256 SLOAD AND PUSH2 0xFBB JUMP JUMPDEST PUSH2 0x5E6 DUP2 PUSH2 0x11C1 JUMP JUMPDEST PUSH1 0x1 PUSH1 0x1 PUSH1 0xA0 SHL SUB AND DUP1 DUP7 MSTORE DUP6 DUP4 MSTORE DUP4 DUP7 KECCAK256 SLOAD SWAP1 SWAP5 SWAP1 DUP3 GT PUSH2 0x717 JUMPI DUP5 ISZERO PUSH2 0x6CA JUMPI DUP5 DUP7 MSTORE DUP6 DUP4 MSTORE DUP4 DUP7 KECCAK256 SLOAD SWAP1 DUP3 DUP3 LT PUSH2 0x67C JUMPI POP SWAP1 DUP1 PUSH1 0x6 SWAP4 SWAP3 DUP7 DUP9 MSTORE DUP8 DUP5 MSTORE SUB DUP5 DUP8 KECCAK256 SSTORE DUP1 PUSH1 0x2 SLOAD SUB PUSH1 0x2 SSTORE DUP6 DUP6 PUSH1 0x0 DUP1 MLOAD PUSH1 0x20 PUSH2 0x146A DUP4 CODECOPY DUP2 MLOAD SWAP2 MSTORE DUP5 DUP8 MLOAD DUP6 DUP2 MSTORE LOG3 DUP5 DUP7 MSTORE DUP3 DUP3 MSTORE DUP4 DUP7 KECCAK256 SLOAD SWAP1 DUP1 DUP3 GT ISZERO PUSH2 0x673 JUMPI PUSH2 0x668 SWAP2 PUSH2 0xF8B JUMP JUMPDEST SWAP4 JUMPDEST DUP6 MSTORE MSTORE DUP3 KECCAK256 SSTORE DUP1 RETURN JUMPDEST POP POP DUP5 SWAP4 PUSH2 0x66A JUMP JUMPDEST DUP5 MLOAD PUSH3 0x461BCD PUSH1 0xE5 SHL DUP2 MSTORE SWAP1 DUP2 ADD DUP5 SWAP1 MSTORE PUSH1 0x22 PUSH1 0x24 DUP3 ADD MSTORE PUSH32 0x45524332303A206275726E20616D6F756E7420657863656564732062616C616E PUSH1 0x44 DUP3 ADD MSTORE PUSH2 0x6365 PUSH1 0xF0 SHL PUSH1 0x64 DUP3 ADD MSTORE PUSH1 0x84 SWAP1 REVERT JUMPDEST DUP4 MLOAD PUSH3 0x461BCD PUSH1 0xE5 SHL DUP2 MSTORE SWAP1 DUP2 ADD DUP4 SWAP1 MSTORE PUSH1 0x21 PUSH1 0x24 DUP3 ADD MSTORE PUSH32 0x45524332303A206275726E2066726F6D20746865207A65726F20616464726573 PUSH1 0x44 DUP3 ADD MSTORE PUSH1 0x73 PUSH1 0xF8 SHL PUSH1 0x64 DUP3 ADD MSTORE PUSH1 0x84 SWAP1 REVERT JUMPDEST DUP4 MLOAD PUSH3 0x461BCD PUSH1 0xE5 SHL DUP2 MSTORE SWAP1 DUP2 ADD DUP4 SWAP1 MSTORE PUSH1 0x14 PUSH1 0x24 DUP3 ADD MSTORE PUSH20 0x496E73756666696369656E742062616C616E6365 PUSH1 0x60 SHL PUSH1 0x44 DUP3 ADD MSTORE PUSH1 0x64 SWAP1 REVERT JUMPDEST POP SWAP2 SWAP1 CALLVALUE PUSH2 0x239 JUMPI DUP2 PUSH1 0x3 NOT CALLDATASIZE ADD SLT PUSH2 0x239 JUMPI DUP1 MLOAD SWAP2 DUP1 SWAP4 DUP1 SLOAD SWAP2 PUSH1 0x1 SWAP1 DUP4 PUSH1 0x1 SHR SWAP3 PUSH1 0x1 DUP6 AND SWAP5 DUP6 ISZERO PUSH2 0x84D JUMPI JUMPDEST PUSH1 0x20 SWAP6 DUP7 DUP7 LT DUP2 EQ PUSH2 0x83A JUMPI DUP6 DUP10 MSTORE SWAP1 DUP2 ISZERO PUSH2 0x816 JUMPI POP PUSH1 0x1 EQ PUSH2 0x7BE JUMPI JUMPDEST PUSH2 0x7BA DUP8 DUP8 PUSH2 0x7B0 DUP3 DUP13 SUB DUP4 PUSH2 0xF69 JUMP JUMPDEST MLOAD SWAP2 DUP3 SWAP2 DUP3 PUSH2 0xEBD JUMP JUMPDEST SUB SWAP1 RETURN JUMPDEST DUP2 MSTORE SWAP3 SWAP6 POP PUSH32 0x8A35ACFBC15FF81A39AE7D344FD709F28E8600B4AA8C65C6B64BFE7FE36BD19B JUMPDEST DUP3 DUP5 LT PUSH2 0x803 JUMPI POP POP POP DUP3 PUSH2 0x7BA SWAP5 PUSH2 0x7B0 SWAP3 DUP3 ADD ADD SWAP5 CODESIZE DUP1 PUSH2 0x79F JUMP JUMPDEST DUP1 SLOAD DUP7 DUP6 ADD DUP9 ADD MSTORE SWAP3 DUP7 ADD SWAP3 DUP2 ADD PUSH2 0x7E5 JUMP JUMPDEST PUSH1 0xFF NOT AND DUP9 DUP8 ADD MSTORE POP POP POP POP ISZERO ISZERO PUSH1 0x5 SHL DUP4 ADD ADD SWAP3 POP PUSH2 0x7B0 DUP3 PUSH2 0x7BA CODESIZE DUP1 PUSH2 0x79F JUMP JUMPDEST PUSH4 0x4E487B71 PUSH1 0xE0 SHL DUP5 MSTORE PUSH1 0x22 DUP4 MSTORE PUSH1 0x24 DUP5 REVERT JUMPDEST SWAP4 PUSH1 0x7F AND SWAP4 PUSH2 0x780 JUMP JUMPDEST POP POP CALLVALUE PUSH2 0x239 JUMPI DUP2 PUSH1 0x3 NOT CALLDATASIZE ADD SLT PUSH2 0x239 JUMPI PUSH1 0x5 SLOAD SWAP1 MLOAD PUSH1 0x1 PUSH1 0x1 PUSH1 0xA0 SHL SUB SWAP1 SWAP2 AND DUP2 MSTORE PUSH1 0x20 SWAP1 RETURN JUMPDEST DUP4 CALLVALUE PUSH2 0x5A4 JUMPI DUP1 PUSH1 0x3 NOT CALLDATASIZE ADD SLT PUSH2 0x5A4 JUMPI PUSH2 0x899 PUSH2 0x12B5 JUMP JUMPDEST PUSH1 0x5 DUP1 SLOAD PUSH1 0x1 PUSH1 0x1 PUSH1 0xA0 SHL SUB NOT DUP2 AND SWAP1 SWAP2 SSTORE DUP2 SWAP1 PUSH1 0x1 PUSH1 0x1 PUSH1 0xA0 SHL SUB AND PUSH32 0x8BE0079C531659141344CD1FD0A4F28419497F9722A3DAAFE3B4186F6B6457E0 DUP3 DUP1 LOG3 DUP1 RETURN JUMPDEST POP POP CALLVALUE PUSH2 0x239 JUMPI PUSH1 0x20 CALLDATASIZE PUSH1 0x3 NOT ADD SLT PUSH2 0x239 JUMPI PUSH1 0x20 SWAP2 DUP2 SWAP1 PUSH1 0x1 PUSH1 0x1 PUSH1 0xA0 SHL SUB PUSH2 0x905 PUSH2 0xF06 JUMP JUMPDEST AND DUP2 MSTORE DUP1 DUP5 MSTORE KECCAK256 SLOAD SWAP1 MLOAD SWAP1 DUP2 MSTORE RETURN JUMPDEST POP POP CALLVALUE PUSH2 0x239 JUMPI PUSH1 0x20 CALLDATASIZE PUSH1 0x3 NOT ADD SLT PUSH2 0x239 JUMPI PUSH2 0x92F PUSH2 0xF06 JUMP JUMPDEST PUSH2 0x937 PUSH2 0x12B5 JUMP JUMPDEST PUSH1 0x1 PUSH1 0x1 PUSH1 0xA0 SHL SUB AND DUP1 DUP4 MSTORE PUSH1 0x7 PUSH1 0x20 MSTORE SWAP1 DUP3 KECCAK256 DUP1 SLOAD PUSH1 0xFF NOT AND PUSH1 0x1 OR SWAP1 SSTORE PUSH32 0xE6BE4D6CC04EB0219337B22DB08C688969A9EC8E34D9A0A2BA38A114E050F1AE DUP3 DUP1 LOG2 DUP1 RETURN JUMPDEST POP POP CALLVALUE PUSH2 0x239 JUMPI PUSH1 0x20 CALLDATASIZE PUSH1 0x3 NOT ADD SLT PUSH2 0x239 JUMPI PUSH2 0x998 PUSH2 0xF06 JUMP JUMPDEST PUSH2 0x9A0 PUSH2 0x12B5 JUMP JUMPDEST PUSH1 0x1 PUSH1 0x1 PUSH1 0xA0 SHL SUB AND DUP1 DUP4 MSTORE PUSH1 0x7 PUSH1 0x20 MSTORE SWAP1 DUP3 KECCAK256 DUP1 SLOAD PUSH1 0xFF NOT AND SWAP1 SSTORE PUSH32 0xC6711413797B8A562634E98C95D50E7619D39702ED5B82CE335DC93546C3A88C DUP3 DUP1 LOG2 DUP1 RETURN JUMPDEST POP POP CALLVALUE PUSH2 0x239 JUMPI DUP1 PUSH1 0x3 NOT CALLDATASIZE ADD SLT PUSH2 0x239 JUMPI PUSH2 0xA4B PUSH2 0xA00 PUSH2 0xF06 JUMP JUMPDEST SWAP2 PUSH1 0x24 CALLDATALOAD SWAP3 CALLER DUP6 MSTORE PUSH1 0x7 PUSH1 0x20 MSTORE PUSH2 0xA1C PUSH1 0xFF DUP4 DUP8 KECCAK256 SLOAD AND PUSH2 0xFBB JUMP JUMPDEST PUSH2 0xA25 DUP2 PUSH2 0x11C1 JUMP JUMPDEST PUSH2 0xA2F DUP5 DUP3 PUSH2 0x1224 JUMP JUMPDEST PUSH1 0x1 PUSH1 0x1 PUSH1 0xA0 SHL SUB AND DUP5 MSTORE PUSH1 0x6 PUSH1 0x20 MSTORE DUP4 KECCAK256 DUP1 SLOAD SWAP1 SWAP3 SWAP1 PUSH2 0xFAE JUMP JUMPDEST SWAP1 SSTORE DUP1 RETURN JUMPDEST POP SWAP1 CALLVALUE PUSH2 0x216 JUMPI DUP3 PUSH1 0x3 NOT CALLDATASIZE ADD SLT PUSH2 0x216 JUMPI PUSH2 0xA6B CALLER PUSH2 0x11C1 JUMP JUMPDEST CALLER DUP4 MSTORE PUSH1 0x6 PUSH1 0x20 MSTORE PUSH1 0x2 DUP2 DUP5 KECCAK256 ADD SLOAD SWAP2 DUP3 ISZERO PUSH2 0xAC9 JUMPI POP CALLER DUP4 MSTORE PUSH1 0x6 PUSH1 0x20 MSTORE DUP3 PUSH1 0x2 DUP3 DUP3 KECCAK256 ADD SSTORE PUSH2 0xA9C DUP3 CALLER PUSH2 0x1224 JUMP JUMPDEST MLOAD SWAP1 DUP2 MSTORE PUSH32 0x8258A59886E03BDB78E5DDB9566B8AD4957A1747E8D15FD0B4A24274F35CF317 PUSH1 0x20 CALLER SWAP3 LOG2 DUP1 RETURN JUMPDEST PUSH1 0x20 PUSH1 0x64 SWAP3 MLOAD SWAP2 PUSH3 0x461BCD PUSH1 0xE5 SHL DUP4 MSTORE DUP3 ADD MSTORE PUSH1 0x11 PUSH1 0x24 DUP3 ADD MSTORE PUSH17 0x4E6F207969656C6420746F20636C61696D PUSH1 0x78 SHL PUSH1 0x44 DUP3 ADD MSTORE REVERT JUMPDEST POP POP CALLVALUE PUSH2 0x239 JUMPI DUP1 PUSH1 0x3 NOT CALLDATASIZE ADD SLT PUSH2 0x239 JUMPI PUSH2 0x54C PUSH1 0x20 SWAP3 PUSH2 0xB48 PUSH2 0xB22 PUSH2 0xF06 JUMP JUMPDEST CALLER DUP4 MSTORE PUSH1 0x1 DUP7 MSTORE DUP5 DUP4 KECCAK256 PUSH1 0x1 PUSH1 0x1 PUSH1 0xA0 SHL SUB DUP3 AND DUP5 MSTORE DUP7 MSTORE SWAP2 DUP5 SWAP1 KECCAK256 SLOAD PUSH1 0x24 CALLDATALOAD SWAP1 PUSH2 0xFAE JUMP JUMPDEST SWAP1 CALLER PUSH2 0x10BF JUMP JUMPDEST POP POP CALLVALUE PUSH2 0x239 JUMPI DUP2 PUSH1 0x3 NOT CALLDATASIZE ADD SLT PUSH2 0x239 JUMPI PUSH1 0x20 SWAP1 MLOAD PUSH1 0x12 DUP2 MSTORE RETURN JUMPDEST POP SWAP2 CALLVALUE PUSH2 0x5A4 JUMPI PUSH1 0x60 CALLDATASIZE PUSH1 0x3 NOT ADD SLT PUSH2 0x5A4 JUMPI PUSH2 0xB86 PUSH2 0xF06 JUMP JUMPDEST SWAP1 DUP3 PUSH2 0xB90 PUSH2 0xF21 JUMP JUMPDEST SWAP2 PUSH1 0x44 CALLDATALOAD SWAP4 DUP5 SWAP4 PUSH2 0xBA0 DUP3 PUSH2 0x11C1 JUMP JUMPDEST PUSH2 0xBA9 DUP2 PUSH2 0x11C1 JUMP JUMPDEST PUSH1 0x1 PUSH1 0x1 PUSH1 0xA0 SHL SUB DUP3 DUP2 AND DUP1 DUP6 MSTORE PUSH1 0x1 PUSH1 0x20 DUP2 DUP2 MSTORE DUP8 DUP8 KECCAK256 CALLER DUP9 MSTORE DUP2 MSTORE DUP8 DUP8 KECCAK256 SLOAD SWAP1 SWAP12 SWAP4 SWAP6 SWAP3 SWAP4 SWAP1 SWAP2 DUP3 ADD PUSH2 0xC27 JUMPI JUMPDEST POP POP PUSH2 0x4E8 SWAP7 DUP4 PUSH2 0xBE9 SWAP3 PUSH2 0x130D JUMP JUMPDEST DUP1 DUP5 MSTORE PUSH1 0x6 DUP10 MSTORE DUP5 DUP5 KECCAK256 SLOAD DUP8 DUP1 DUP3 GT ISZERO PUSH2 0xC1E JUMPI PUSH2 0xC06 SWAP2 PUSH2 0xF8B JUMP JUMPDEST SWAP1 JUMPDEST DUP5 MSTORE PUSH1 0x6 DUP10 MSTORE DUP5 DUP5 KECCAK256 SSTORE AND DUP2 MSTORE KECCAK256 SWAP2 DUP3 SLOAD PUSH2 0xFAE JUMP JUMPDEST POP POP DUP4 SWAP1 PUSH2 0xC08 JUMP JUMPDEST SWAP2 SWAP4 SWAP6 SWAP8 SWAP1 DUP1 SWAP4 SWAP6 SWAP8 POP LT PUSH2 0xC5C JUMPI POP SWAP2 PUSH2 0xBE9 DUP8 DUP6 PUSH2 0x4E8 SWAP9 SWAP7 SWAP5 PUSH2 0xC52 DUP4 DUP14 SWAP11 SWAP9 SUB CALLER DUP4 PUSH2 0x10BF JUMP JUMPDEST SWAP3 POP DUP2 SWAP9 POP PUSH2 0xBD9 JUMP JUMPDEST DUP9 MLOAD PUSH3 0x461BCD PUSH1 0xE5 SHL DUP2 MSTORE SWAP1 DUP2 ADD DUP11 SWAP1 MSTORE PUSH1 0x1D PUSH1 0x24 DUP3 ADD MSTORE PUSH32 0x45524332303A20696E73756666696369656E7420616C6C6F77616E6365000000 PUSH1 0x44 DUP3 ADD MSTORE PUSH1 0x64 SWAP1 REVERT JUMPDEST POP POP CALLVALUE PUSH2 0x239 JUMPI DUP2 PUSH1 0x3 NOT CALLDATASIZE ADD SLT PUSH2 0x239 JUMPI PUSH1 0x20 SWAP1 PUSH1 0x2 SLOAD SWAP1 MLOAD SWAP1 DUP2 MSTORE RETURN JUMPDEST POP POP CALLVALUE PUSH2 0x239 JUMPI PUSH1 0x20 CALLDATASIZE PUSH1 0x3 NOT ADD SLT PUSH2 0x239 JUMPI SWAP1 DUP2 SWAP1 PUSH1 0x1 PUSH1 0x1 PUSH1 0xA0 SHL SUB PUSH2 0xCE4 PUSH2 0xF06 JUMP JUMPDEST AND DUP2 MSTORE PUSH1 0x6 PUSH1 0x20 MSTORE KECCAK256 SWAP1 PUSH2 0x7BA DUP3 SLOAD SWAP2 PUSH1 0x2 PUSH1 0x1 DUP6 ADD SLOAD SWAP5 ADD SLOAD SWAP1 MLOAD SWAP4 DUP5 SWAP4 DUP5 PUSH1 0x40 SWAP2 SWAP5 SWAP4 SWAP3 PUSH1 0x60 DUP3 ADD SWAP6 DUP3 MSTORE PUSH1 0x20 DUP3 ADD MSTORE ADD MSTORE JUMP JUMPDEST DUP3 DUP5 CALLVALUE PUSH2 0x5A4 JUMPI PUSH1 0x20 CALLDATASIZE PUSH1 0x3 NOT ADD SLT PUSH2 0x5A4 JUMPI PUSH2 0x7BA DUP3 PUSH2 0xD39 PUSH2 0xF06 JUMP JUMPDEST PUSH1 0x1 PUSH1 0x1 PUSH1 0xA0 SHL SUB DUP2 AND DUP5 MSTORE PUSH1 0x6 PUSH1 0x20 MSTORE SWAP3 KECCAK256 DUP4 MLOAD SWAP1 SWAP4 SWAP1 SWAP3 PUSH2 0xD7F SWAP1 PUSH2 0xD5F DUP6 PUSH2 0xF37 JUMP JUMPDEST DUP6 SLOAD SWAP5 DUP6 DUP2 MSTORE DUP4 PUSH1 0x2 PUSH1 0x1 DUP10 ADD SLOAD SWAP9 PUSH1 0x20 DUP5 ADD SWAP10 DUP11 MSTORE ADD SLOAD SWAP2 ADD MSTORE PUSH2 0xFFF JUMP JUMPDEST SWAP4 MLOAD SWAP1 MLOAD SWAP4 DUP5 SWAP4 DUP5 PUSH1 0x40 SWAP2 SWAP5 SWAP4 SWAP3 PUSH1 0x60 DUP3 ADD SWAP6 DUP3 MSTORE PUSH1 0x20 DUP3 ADD MSTORE ADD MSTORE JUMP JUMPDEST POP POP CALLVALUE PUSH2 0x239 JUMPI DUP1 PUSH1 0x3 NOT CALLDATASIZE ADD SLT PUSH2 0x239 JUMPI PUSH1 0x20 SWAP1 PUSH2 0x54C PUSH2 0xDBD PUSH2 0xF06 JUMP JUMPDEST PUSH1 0x24 CALLDATALOAD SWAP1 CALLER PUSH2 0x10BF JUMP JUMPDEST SWAP3 SWAP2 SWAP1 POP CALLVALUE PUSH2 0xEB9 JUMPI DUP4 PUSH1 0x3 NOT CALLDATASIZE ADD SLT PUSH2 0xEB9 JUMPI PUSH1 0x3 SLOAD PUSH1 0x1 DUP2 DUP2 SHR SWAP2 DUP7 SWAP1 DUP3 DUP2 AND DUP1 ISZERO PUSH2 0xEAF JUMPI JUMPDEST PUSH1 0x20 SWAP6 DUP7 DUP7 LT DUP3 EQ PUSH2 0xE9C JUMPI POP DUP5 DUP9 MSTORE SWAP1 DUP2 ISZERO PUSH2 0xE7A JUMPI POP PUSH1 0x1 EQ PUSH2 0xE21 JUMPI JUMPDEST PUSH2 0x7BA DUP7 DUP7 PUSH2 0x7B0 DUP3 DUP12 SUB DUP4 PUSH2 0xF69 JUMP JUMPDEST SWAP3 SWAP6 POP PUSH1 0x3 DUP4 MSTORE PUSH32 0xC2575A0E9E593C00F959F8C92F12DB2869C3395A3B0502D05E2516446F71F85B JUMPDEST DUP3 DUP5 LT PUSH2 0xE67 JUMPI POP POP POP DUP3 PUSH2 0x7BA SWAP5 PUSH2 0x7B0 SWAP3 DUP3 ADD ADD SWAP5 CODESIZE PUSH2 0xE10 JUMP JUMPDEST DUP1 SLOAD DUP7 DUP6 ADD DUP9 ADD MSTORE SWAP3 DUP7 ADD SWAP3 DUP2 ADD PUSH2 0xE4A JUMP JUMPDEST PUSH1 0xFF NOT AND DUP8 DUP7 ADD MSTORE POP POP POP ISZERO ISZERO PUSH1 0x5 SHL DUP4 ADD ADD SWAP3 POP PUSH2 0x7B0 DUP3 PUSH2 0x7BA CODESIZE PUSH2 0xE10 JUMP JUMPDEST PUSH4 0x4E487B71 PUSH1 0xE0 SHL DUP5 MSTORE PUSH1 0x22 SWAP1 MSTORE PUSH1 0x24 DUP4 REVERT JUMPDEST SWAP4 PUSH1 0x7F AND SWAP4 PUSH2 0xDF0 JUMP JUMPDEST DUP4 DUP1 REVERT JUMPDEST PUSH1 0x20 DUP1 DUP3 MSTORE DUP3 MLOAD DUP2 DUP4 ADD DUP2 SWAP1 MSTORE SWAP1 SWAP4 SWAP3 PUSH1 0x0 JUMPDEST DUP3 DUP2 LT PUSH2 0xEF2 JUMPI POP POP PUSH1 0x40 SWAP3 SWAP4 POP PUSH1 0x0 DUP4 DUP3 DUP5 ADD ADD MSTORE PUSH1 0x1F DUP1 NOT SWAP2 ADD AND ADD ADD SWAP1 JUMP JUMPDEST DUP2 DUP2 ADD DUP7 ADD MLOAD DUP5 DUP3 ADD PUSH1 0x40 ADD MSTORE DUP6 ADD PUSH2 0xED0 JUMP JUMPDEST PUSH1 0x4 CALLDATALOAD SWAP1 PUSH1 0x1 PUSH1 0x1 PUSH1 0xA0 SHL SUB DUP3 AND DUP3 SUB PUSH2 0xF1C JUMPI JUMP JUMPDEST PUSH1 0x0 DUP1 REVERT JUMPDEST PUSH1 0x24 CALLDATALOAD SWAP1 PUSH1 0x1 PUSH1 0x1 PUSH1 0xA0 SHL SUB DUP3 AND DUP3 SUB PUSH2 0xF1C JUMPI JUMP JUMPDEST PUSH1 0x60 DUP2 ADD SWAP1 DUP2 LT PUSH8 0xFFFFFFFFFFFFFFFF DUP3 GT OR PUSH2 0xF53 JUMPI PUSH1 0x40 MSTORE JUMP JUMPDEST PUSH4 0x4E487B71 PUSH1 0xE0 SHL PUSH1 0x0 MSTORE PUSH1 0x41 PUSH1 0x4 MSTORE PUSH1 0x24 PUSH1 0x0 REVERT JUMPDEST SWAP1 PUSH1 0x1F DUP1 NOT SWAP2 ADD AND DUP2 ADD SWAP1 DUP2 LT PUSH8 0xFFFFFFFFFFFFFFFF DUP3 GT OR PUSH2 0xF53 JUMPI PUSH1 0x40 MSTORE JUMP JUMPDEST SWAP2 SWAP1 DUP3 SUB SWAP2 DUP3 GT PUSH2 0xF98 JUMPI JUMP JUMPDEST PUSH4 0x4E487B71 PUSH1 0xE0 SHL PUSH1 0x0 MSTORE PUSH1 0x11 PUSH1 0x4 MSTORE PUSH1 0x24 PUSH1 0x0 REVERT JUMPDEST SWAP2 SWAP1 DUP3 ADD DUP1 SWAP3 GT PUSH2 0xF98 JUMPI JUMP JUMPDEST ISZERO PUSH2 0xFC2 JUMPI JUMP JUMPDEST PUSH1 0x40 MLOAD PUSH3 0x461BCD PUSH1 0xE5 SHL DUP2 MSTORE PUSH1 0x20 PUSH1 0x4 DUP3 ADD MSTORE PUSH1 0x15 PUSH1 0x24 DUP3 ADD MSTORE PUSH21 0x2737BA1030BABA3437B934BD32B21036B4B73A32B9 PUSH1 0x59 SHL PUSH1 0x44 DUP3 ADD MSTORE PUSH1 0x64 SWAP1 REVERT JUMPDEST PUSH1 0x1 PUSH1 0x1 PUSH1 0xA0 SHL SUB AND PUSH1 0x0 SWAP1 DUP2 MSTORE PUSH1 0x6 PUSH1 0x20 MSTORE PUSH1 0x40 DUP1 DUP3 KECCAK256 SWAP1 MLOAD SWAP1 SWAP2 PUSH2 0x1024 DUP3 PUSH2 0xF37 JUMP JUMPDEST DUP3 SLOAD SWAP3 DUP4 DUP4 MSTORE PUSH1 0x2 PUSH1 0x1 DUP3 ADD SLOAD SWAP2 DUP3 PUSH1 0x20 DUP7 ADD MSTORE ADD SLOAD PUSH1 0x40 DUP5 ADD SWAP5 DUP2 DUP7 MSTORE ISZERO PUSH2 0x10B7 JUMPI POP PUSH2 0x1052 SWAP1 TIMESTAMP PUSH2 0xF8B JUMP JUMPDEST SWAP2 MLOAD PUSH2 0x1C2 DUP1 DUP3 MUL SWAP2 DUP1 DUP4 DIV DUP3 EQ DUP2 ISZERO OR ISZERO PUSH2 0x10A3 JUMPI DUP5 MUL MUL SWAP3 DUP2 DUP5 DIV EQ SWAP1 ISZERO OR ISZERO PUSH2 0x108F JUMPI POP SWAP1 PUSH5 0x496CEBB800 PUSH2 0x108C SWAP3 DIV SWAP1 MLOAD PUSH2 0xFAE JUMP JUMPDEST SWAP1 JUMP JUMPDEST PUSH4 0x4E487B71 PUSH1 0xE0 SHL DUP2 MSTORE PUSH1 0x11 PUSH1 0x4 MSTORE PUSH1 0x24 SWAP1 REVERT JUMPDEST PUSH4 0x4E487B71 PUSH1 0xE0 SHL DUP5 MSTORE PUSH1 0x11 PUSH1 0x4 MSTORE PUSH1 0x24 DUP5 REVERT JUMPDEST SWAP4 POP POP POP POP SWAP1 JUMP JUMPDEST PUSH1 0x1 PUSH1 0x1 PUSH1 0xA0 SHL SUB SWAP1 DUP2 AND SWAP2 DUP3 ISZERO PUSH2 0x1170 JUMPI AND SWAP2 DUP3 ISZERO PUSH2 0x1120 JUMPI PUSH1 0x20 PUSH32 0x8C5BE1E5EBEC7D5BD14F71427D1E84F3DD0314C0F7B2291E5B200AC8C7C3B925 SWAP2 DUP4 PUSH1 0x0 MSTORE PUSH1 0x1 DUP3 MSTORE PUSH1 0x40 PUSH1 0x0 KECCAK256 DUP6 PUSH1 0x0 MSTORE DUP3 MSTORE DUP1 PUSH1 0x40 PUSH1 0x0 KECCAK256 SSTORE PUSH1 0x40 MLOAD SWAP1 DUP2 MSTORE LOG3 JUMP JUMPDEST PUSH1 0x40 MLOAD PUSH3 0x461BCD PUSH1 0xE5 SHL DUP2 MSTORE PUSH1 0x20 PUSH1 0x4 DUP3 ADD MSTORE PUSH1 0x22 PUSH1 0x24 DUP3 ADD MSTORE PUSH32 0x45524332303A20617070726F766520746F20746865207A65726F206164647265 PUSH1 0x44 DUP3 ADD MSTORE PUSH2 0x7373 PUSH1 0xF0 SHL PUSH1 0x64 DUP3 ADD MSTORE PUSH1 0x84 SWAP1 REVERT JUMPDEST PUSH1 0x40 MLOAD PUSH3 0x461BCD PUSH1 0xE5 SHL DUP2 MSTORE PUSH1 0x20 PUSH1 0x4 DUP3 ADD MSTORE PUSH1 0x24 DUP1 DUP3 ADD MSTORE PUSH32 0x45524332303A20617070726F76652066726F6D20746865207A65726F20616464 PUSH1 0x44 DUP3 ADD MSTORE PUSH4 0x72657373 PUSH1 0xE0 SHL PUSH1 0x64 DUP3 ADD MSTORE PUSH1 0x84 SWAP1 REVERT JUMPDEST PUSH2 0x11CA DUP2 PUSH2 0xFFF JUMP JUMPDEST SWAP1 PUSH1 0x1 DUP1 PUSH1 0xA0 SHL SUB AND SWAP1 DUP2 PUSH1 0x0 MSTORE PUSH1 0x6 PUSH1 0x20 MSTORE PUSH1 0x40 PUSH1 0x0 KECCAK256 DUP2 PUSH1 0x2 DUP3 ADD SSTORE PUSH1 0x1 TIMESTAMP SWAP2 ADD SSTORE DUP1 PUSH2 0x11F7 JUMPI POP POP JUMP JUMPDEST PUSH1 0x20 PUSH32 0x8258A59886E03BDB78E5DDB9566B8AD4957A1747E8D15FD0B4A24274F35CF317 SWAP2 PUSH1 0x40 MLOAD SWAP1 DUP2 MSTORE LOG2 JUMP JUMPDEST PUSH1 0x1 PUSH1 0x1 PUSH1 0xA0 SHL SUB AND SWAP1 DUP2 ISZERO PUSH2 0x1270 JUMPI PUSH1 0x0 DUP1 MLOAD PUSH1 0x20 PUSH2 0x146A DUP4 CODECOPY DUP2 MLOAD SWAP2 MSTORE PUSH1 0x20 DUP3 PUSH2 0x1254 PUSH1 0x0 SWAP5 PUSH1 0x2 SLOAD PUSH2 0xFAE JUMP JUMPDEST PUSH1 0x2 SSTORE DUP5 DUP5 MSTORE DUP4 DUP3 MSTORE PUSH1 0x40 DUP5 KECCAK256 DUP2 DUP2 SLOAD ADD SWAP1 SSTORE PUSH1 0x40 MLOAD SWAP1 DUP2 MSTORE LOG3 JUMP JUMPDEST PUSH1 0x40 MLOAD PUSH3 0x461BCD PUSH1 0xE5 SHL DUP2 MSTORE PUSH1 0x20 PUSH1 0x4 DUP3 ADD MSTORE PUSH1 0x1F PUSH1 0x24 DUP3 ADD MSTORE PUSH32 0x45524332303A206D696E7420746F20746865207A65726F206164647265737300 PUSH1 0x44 DUP3 ADD MSTORE PUSH1 0x64 SWAP1 REVERT JUMPDEST PUSH1 0x5 SLOAD PUSH1 0x1 PUSH1 0x1 PUSH1 0xA0 SHL SUB AND CALLER SUB PUSH2 0x12C9 JUMPI JUMP JUMPDEST PUSH1 0x64 PUSH1 0x40 MLOAD PUSH3 0x461BCD PUSH1 0xE5 SHL DUP2 MSTORE PUSH1 0x20 PUSH1 0x4 DUP3 ADD MSTORE PUSH1 0x20 PUSH1 0x24 DUP3 ADD MSTORE PUSH32 0x4F776E61626C653A2063616C6C6572206973206E6F7420746865206F776E6572 PUSH1 0x44 DUP3 ADD MSTORE REVERT JUMPDEST PUSH1 0x1 PUSH1 0x1 PUSH1 0xA0 SHL SUB SWAP1 DUP2 AND SWAP2 DUP3 ISZERO PUSH2 0x1416 JUMPI AND SWAP2 DUP3 ISZERO PUSH2 0x13C5 JUMPI PUSH1 0x0 DUP3 DUP2 MSTORE DUP1 PUSH1 0x20 MSTORE PUSH1 0x40 DUP2 KECCAK256 SLOAD SWAP2 DUP1 DUP4 LT PUSH2 0x1371 JUMPI PUSH1 0x40 DUP3 DUP3 PUSH1 0x0 DUP1 MLOAD PUSH1 0x20 PUSH2 0x146A DUP4 CODECOPY DUP2 MLOAD SWAP2 MSTORE SWAP6 DUP8 PUSH1 0x20 SWAP7 MSTORE DUP3 DUP7 MSTORE SUB DUP3 DUP3 KECCAK256 SSTORE DUP7 DUP2 MSTORE KECCAK256 DUP2 DUP2 SLOAD ADD SWAP1 SSTORE PUSH1 0x40 MLOAD SWAP1 DUP2 MSTORE LOG3 JUMP JUMPDEST PUSH1 0x40 MLOAD PUSH3 0x461BCD PUSH1 0xE5 SHL DUP2 MSTORE PUSH1 0x20 PUSH1 0x4 DUP3 ADD MSTORE PUSH1 0x26 PUSH1 0x24 DUP3 ADD MSTORE PUSH32 0x45524332303A207472616E7366657220616D6F756E7420657863656564732062 PUSH1 0x44 DUP3 ADD MSTORE PUSH6 0x616C616E6365 PUSH1 0xD0 SHL PUSH1 0x64 DUP3 ADD MSTORE PUSH1 0x84 SWAP1 REVERT JUMPDEST PUSH1 0x40 MLOAD PUSH3 0x461BCD PUSH1 0xE5 SHL DUP2 MSTORE PUSH1 0x20 PUSH1 0x4 DUP3 ADD MSTORE PUSH1 0x23 PUSH1 0x24 DUP3 ADD MSTORE PUSH32 0x45524332303A207472616E7366657220746F20746865207A65726F2061646472 PUSH1 0x44 DUP3 ADD MSTORE PUSH3 0x657373 PUSH1 0xE8 SHL PUSH1 0x64 DUP3 ADD MSTORE PUSH1 0x84 SWAP1 REVERT JUMPDEST PUSH1 0x40 MLOAD PUSH3 0x461BCD PUSH1 0xE5 SHL DUP2 MSTORE PUSH1 0x20 PUSH1 0x4 DUP3 ADD MSTORE PUSH1 0x25 PUSH1 0x24 DUP3 ADD MSTORE PUSH32 0x45524332303A207472616E736665722066726F6D20746865207A65726F206164 PUSH1 0x44 DUP3 ADD MSTORE PUSH5 0x6472657373 PUSH1 0xD8 SHL PUSH1 0x64 DUP3 ADD MSTORE PUSH1 0x84 SWAP1 REVERT INVALID 0xDD CALLCODE MSTORE 0xAD SHL 0xE2 0xC8 SWAP12 PUSH10 0xC2B068FC378DAA952BA7 CALL PUSH4 0xC4A11628 CREATE2 GAS 0x4D CREATE2 0x23 0xB3 0xEF LOG2 PUSH5 0x6970667358 0x22 SLT KECCAK256 0xB4 MOD 0xD1 0x4C DUP13 0x2A SWAP12 0xC5 PUSH5 0xAD24C8F8B7 DELEGATECALL 0x1E 0xF8 DUP4 PUSH29 0x78AAB0929EB173B6207B35DA2164736F6C634300081800330000000000 "},"methodIdentifiers":{"ANNUAL_YIELD_RATE()":"d3def507","BASIS_POINTS()":"e1f1c4a7","SECONDS_PER_YEAR()":"e6a69ab8","addAuthorizedMinter(address)":"5f710f5c","allowance(address,address)":"dd62ed3e","approve(address,uint256)":"095ea7b3","authorizedMinters(address)":"aa2fe91b","balanceOf(address)":"70a08231","burn(address,uint256)":"9dc29fac","claimYield()":"406cf229","decimals()":"313ce567","decreaseAllowance(address,uint256)":"a457c2d7","faucet()":"de5f72fd","getYieldInfo(address)":"0c5f54dc","increaseAllowance(address,uint256)":"39509351","mint(address,uint256)":"40c10f19","name()":"06fdde03","owner()":"8da5cb5b","pendingYield(address)":"c7bf1980","removeAuthorizedMinter(address)":"475ae039","renounceOwnership()":"715018a6","symbol()":"95d89b41","totalSupply()":"18160ddd","transfer(address,uint256)":"a9059cbb","transferFrom(address,address,uint256)":"23b872dd","transferOwnership(address)":"f2fde38b","yieldInfo(address)":"1616669b"}}}}}