{"contracts/simplified/MantleStakingVault.sol":{"MantleStakingVault":{"abi":[{"inputs":[],"stateMutability":"nonpayable","type":"constructor"},{"anonymous":false,"inputs":[{"indexed":true,"internalType":"address","name":"previousOwner","type":"address"},{"indexed":true,"internalType":"address","name":"newOwner","type":"address"}],"name":"OwnershipTransferred","type":"event"},{"anonymous":false,"inputs":[{"indexed":true,"internalType":"address","name":"user","type":"address"},{"indexed":false,"internalType":"uint256","name":"amount","type":"uint256"}],"name":"Staked","type":"event"},{"anonymous":false,"inputs":[{"indexed":true,"internalType":"address","name":"user","type":"address"},{"indexed":false,"internalType":"uint256","name":"amount","type":"uint256"}],"name":"Unstaked","type":"event"},{"anonymous":false,"inputs":[{"indexed":true,"internalType":"address","name":"user","type":"address"},{"indexed":false,"internalType":"uint256","name":"yield","type":"uint256"}],"name":"YieldClaimed","type":"event"},{"inputs":[],"name":"BASIS_POINTS","outputs":[{"internalType":"uint256","name":"","type":"uint256"}],"stateMutability":"view","type":"function"},{"inputs":[],"name":"SECONDS_PER_YEAR","outputs":[{"internalType":"uint256","name":"","type":"uint256"}],"stateMutability":"view","type":"function"},{"inputs":[],"name":"STAKING_APY","outputs":[{"internalType":"uint256","name":"","type":"uint256"}],"stateMutability":"view","type":"function"},{"inputs":[],"name":"claimYield","outputs":[],"stateMutability":"nonpayable","type":"function"},{"inputs":[],"name":"emergencyWithdraw","outputs":[],"stateMutability":"nonpayable","type":"function"},{"inputs":[],"name":"fundYieldPool","outputs":[],"stateMutability":"payable","type":"function"},{"inputs":[{"internalType":"address","name":"user","type":"address"}],"name":"getStakeInfo","outputs":[{"internalType":"uint256","name":"stakedAmount","type":"uint256"},{"internalType":"uint256","name":"pendingYieldAmount","type":"uint256"},{"internalType":"uint256","name":"lastUpdate","type":"uint256"}],"stateMutability":"view","type":"function"},{"inputs":[],"name":"getYieldPool","outputs":[{"internalType":"uint256","name":"","type":"uint256"}],"stateMutability":"view","type":"function"},{"inputs":[],"name":"owner","outputs":[{"internalType":"address","name":"","type":"address"}],"stateMutability":"view","type":"function"},{"inputs":[{"internalType":"address","name":"user","type":"address"}],"name":"pendingYield","outputs":[{"internalType":"uint256","name":"","type":"uint256"}],"stateMutability":"view","type":"function"},{"inputs":[],"name":"renounceOwnership","outputs":[],"stateMutability":"nonpayable","type":"function"},{"inputs":[],"name":"stake","outputs":[],"stateMutability":"payable","type":"function"},{"inputs":[{"internalType":"address","name":"","type":"address"}],"name":"stakes","outputs":[{"internalType":"uint256","name":"stakedAmount","type":"uint256"},{"internalType":"uint256","name":"lastUpdateTime","type":"uint256"},{"internalType":"uint256","name":"accruedYield","type":"uint256"}],"stateMutability":"view","type":"function"},{"inputs":[],"name":"totalStaked","outputs":[{"internalType":"uint256","name":"","type":"uint256"}],"stateMutability":"view","type":"function"},{"inputs":[{"internalType":"address","name":"newOwner","type":"address"}],"name":"transferOwnership","outputs":[],"stateMutability":"nonpayable","type":"function"},{"inputs":[{"internalType":"uint256","name":"amount","type":"uint256"}],"name":"unstake","outputs":[],"stateMutability":"nonpayable","type":"function"}],"evm":{"bytecode":{"linkReferences":{},"object":"6080806040523461005e57600160008181558154336001600160a01b0319821681179093556001600160a01b0316907f8be0079c531659141344cd1fd0a4f28419497f9722a3daafe3b4186f6b6457e09080a361098890816100648239f35b600080fdfe60406080815260048036101561001457600080fd5b600091823560e01c806313901cf61461074b57806316934fc4146106f65780632e17de78146105dc5780633a4b66f114610518578063406cf22914610407578063715018a6146103aa578063817b1cd21461038b5780638da5cb5b146103625780638e1d518b14610340578063c34531531461028d578063c7bf198014610252578063d6fd1c5214610235578063db2e21bc146101e5578063e1f1c4a7146101c8578063e6a69ab8146101a55763f2fde38b146100d057600080fd5b346101a15760203660031901126101a1576001600160a01b0382358181169391929084900361019d57610101610877565b831561014b575050600154826bffffffffffffffffffffffff60a01b821617600155167f8be0079c531659141344cd1fd0a4f28419497f9722a3daafe3b4186f6b6457e08380a380f35b906020608492519162461bcd60e51b8352820152602660248201527f4f776e61626c653a206e6577206f776e657220697320746865207a65726f206160448201526564647265737360d01b6064820152fd5b8480fd5b8280fd5b8382346101c457816003193601126101c457602090516301e133808152f35b5080fd5b8382346101c457816003193601126101c457602090516127108152f35b8382346101c457816003193601126101c4576101ff610877565b8180808060018060a01b0360015416479082821561022c575bf115610222575080f35b51903d90823e3d90fd5b506108fc610218565b8382346101c457816003193601126101c457602090516101a48152f35b5090346101a15760203660031901126101a15735916001600160a01b038316830361028a5750610283602092610792565b9051908152f35b80fd5b508290346101c45760203660031901126101c45782356001600160a01b03811680820361033c578352600260205281832093825193606085019185831067ffffffffffffffff841117610329575050829161030791610325945285549485815283600260018901549860208401998a520154910152610792565b93519051938493846040919493926060820195825260208201520152565b0390f35b634e487b7160e01b825260419052602490fd5b8380fd5b8382346101c457816003193601126101c4576020906102834760035490610762565b8382346101c457816003193601126101c45760015490516001600160a01b039091168152602090f35b8382346101c457816003193601126101c4576020906003549051908152f35b833461028a578060031936011261028a576103c3610877565b600180546001600160a01b0319811690915581906001600160a01b03167f8be0079c531659141344cd1fd0a4f28419497f9722a3daafe3b4186f6b6457e08280a380f35b50346101a157826003193601126101a1576104206108cf565b61042933610925565b3383526002602052600281842001549182156104e257338452600260205283600283822001558247106104a0575082808080853382f11561049557519081527fc04825ba3f383b602255d2a13065a68e325c65c9e0ed5d031ea2b06f641873af60203392a26001815580f35b51913d9150823e3d90fd5b6020606492519162461bcd60e51b8352820152601760248201527f496e73756666696369656e74207969656c6420706f6f6c0000000000000000006044820152fd5b6020606492519162461bcd60e51b835282015260116024820152704e6f207969656c6420746f20636c61696d60781b6044820152fd5b5090826003193601126101a15761052d6108cf565b34156105a5575061053d33610925565b3382526002602052808220610553348254610785565b90553382526002602052426001828420015561057134600354610785565b600355513481527f9e71bc8eea02a63969f509818f2dafb9254532904319f9dbda79b67bd34a5f3d60203392a26001815580f35b6020606492519162461bcd60e51b8352820152601260248201527110d85b9b9bdd081cdd185ad9480c0813539560721b6044820152fd5b5090346101a15760208060031936011261033c578135916105fb6108cf565b82156106c2573385526002825282848620541061068c575061061c33610925565b33845260028152828420610631838254610762565b905561063f82600354610762565b60035583808080853382f115610680577f0f5bb82176feb1b5e747e28471aa92156a04d9f3ab9f45f28e2d704232b93f759192519283523392a26001815580f35b505051903d90823e3d90fd5b60649184519162461bcd60e51b83528201526012602482015271496e73756666696369656e74207374616b6560701b6044820152fd5b60649184519162461bcd60e51b8352820152601060248201526f043616e6e6f7420756e7374616b6520360841b6044820152fd5b5090346101a15760203660031901126101a157356001600160a01b038116908190036101a157825260026020818152928290208054600182015491909201549251918252928101929092526040820152606090f35b838060031936011261028a5761075f610877565b80f35b9190820391821161076f57565b634e487b7160e01b600052601160045260246000fd5b9190820180921161076f57565b6001600160a01b0316600090815260026020526040808220905190916060820167ffffffffffffffff811183821017610863576040528254928383526002600182015491826020860152015460408401948186521561085b57506107f69042610762565b91516101a4808202918083048214811517156108475784020292818404149015171561083357509064496cebb80061083092049051610785565b90565b634e487b7160e01b81526011600452602490fd5b634e487b7160e01b84526011600452602484fd5b935050505090565b634e487b7160e01b82526041600452602482fd5b6001546001600160a01b0316330361088b57565b606460405162461bcd60e51b815260206004820152602060248201527f4f776e61626c653a2063616c6c6572206973206e6f7420746865206f776e65726044820152fd5b6002600054146108e0576002600055565b60405162461bcd60e51b815260206004820152601f60248201527f5265656e7472616e637947756172643a207265656e7472616e742063616c6c006044820152606490fd5b61092e81610792565b9060018060a01b03166000526002602052604060002090600282015560014291015556fea26469706673582212207a6bd916e2de2ea2911457a3a219665e4fd38ddd6cb14139738328bbad20e81464736f6c63430008180033","opcodes":"PUSH1 0x80 DUP1 PUSH1 0x40 MSTORE CALLVALUE PUSH2 0x5E JUMPI PUSH1 0x1 PUSH1 0x0 DUP2 DUP2 SSTORE DUP2 SLOAD CALLER PUSH1 0x1 PUSH1 0x1 PUSH1 0xA0 SHL SUB NOT DUP3 AND DUP2 OR SWAP1 SWAP4 SSTORE PUSH1 0x1 PUSH1 0x1 PUSH1 0xA0 SHL SUB AND SWAP1 PUSH32 0x8BE0079C531659141344CD1FD0A4F28419497F9722A3DAAFE3B4186F6B6457E0 SWAP1 DUP1 LOG3 PUSH2 0x988 SWAP1 DUP2 PUSH2 0x64 DUP3 CODECOPY RETURN JUMPDEST PUSH1 0x0 DUP1 REVERT INVALID PUSH1 0x40 PUSH1 0x80 DUP2 MSTORE PUSH1 0x4 DUP1 CALLDATASIZE LT ISZERO PUSH2 0x14 JUMPI PUSH1 0x0 DUP1 REVERT JUMPDEST PUSH1 0x0 SWAP2 DUP3 CALLDATALOAD PUSH1 0xE0 SHR DUP1 PUSH4 0x13901CF6 EQ PUSH2 0x74B JUMPI DUP1 PUSH4 0x16934FC4 EQ PUSH2 0x6F6 JUMPI DUP1 PUSH4 0x2E17DE78 EQ PUSH2 0x5DC JUMPI DUP1 PUSH4 0x3A4B66F1 EQ PUSH2 0x518 JUMPI DUP1 PUSH4 0x406CF229 EQ PUSH2 0x407 JUMPI DUP1 PUSH4 0x715018A6 EQ PUSH2 0x3AA JUMPI DUP1 PUSH4 0x817B1CD2 EQ PUSH2 0x38B JUMPI DUP1 PUSH4 0x8DA5CB5B EQ PUSH2 0x362 JUMPI DUP1 PUSH4 0x8E1D518B EQ PUSH2 0x340 JUMPI DUP1 PUSH4 0xC3453153 EQ PUSH2 0x28D JUMPI DUP1 PUSH4 0xC7BF1980 EQ PUSH2 0x252 JUMPI DUP1 PUSH4 0xD6FD1C52 EQ PUSH2 0x235 JUMPI DUP1 PUSH4 0xDB2E21BC EQ PUSH2 0x1E5 JUMPI DUP1 PUSH4 0xE1F1C4A7 EQ PUSH2 0x1C8 JUMPI DUP1 PUSH4 0xE6A69AB8 EQ PUSH2 0x1A5 JUMPI PUSH4 0xF2FDE38B EQ PUSH2 0xD0 JUMPI PUSH1 0x0 DUP1 REVERT JUMPDEST CALLVALUE PUSH2 0x1A1 JUMPI PUSH1 0x20 CALLDATASIZE PUSH1 0x3 NOT ADD SLT PUSH2 0x1A1 JUMPI PUSH1 0x1 PUSH1 0x1 PUSH1 0xA0 SHL SUB DUP3 CALLDATALOAD DUP2 DUP2 AND SWAP4 SWAP2 SWAP3 SWAP1 DUP5 SWAP1 SUB PUSH2 0x19D JUMPI PUSH2 0x101 PUSH2 0x877 JUMP JUMPDEST DUP4 ISZERO PUSH2 0x14B JUMPI POP POP PUSH1 0x1 SLOAD DUP3 PUSH12 0xFFFFFFFFFFFFFFFFFFFFFFFF PUSH1 0xA0 SHL DUP3 AND OR PUSH1 0x1 SSTORE AND PUSH32 0x8BE0079C531659141344CD1FD0A4F28419497F9722A3DAAFE3B4186F6B6457E0 DUP4 DUP1 LOG3 DUP1 RETURN JUMPDEST SWAP1 PUSH1 0x20 PUSH1 0x84 SWAP3 MLOAD SWAP2 PUSH3 0x461BCD PUSH1 0xE5 SHL DUP4 MSTORE DUP3 ADD MSTORE PUSH1 0x26 PUSH1 0x24 DUP3 ADD MSTORE PUSH32 0x4F776E61626C653A206E6577206F776E657220697320746865207A65726F2061 PUSH1 0x44 DUP3 ADD MSTORE PUSH6 0x646472657373 PUSH1 0xD0 SHL PUSH1 0x64 DUP3 ADD MSTORE REVERT JUMPDEST DUP5 DUP1 REVERT JUMPDEST DUP3 DUP1 REVERT JUMPDEST DUP4 DUP3 CALLVALUE PUSH2 0x1C4 JUMPI DUP2 PUSH1 0x3 NOT CALLDATASIZE ADD SLT PUSH2 0x1C4 JUMPI PUSH1 0x20 SWAP1 MLOAD PUSH4 0x1E13380 DUP2 MSTORE RETURN JUMPDEST POP DUP1 REVERT JUMPDEST DUP4 DUP3 CALLVALUE PUSH2 0x1C4 JUMPI DUP2 PUSH1 0x3 NOT CALLDATASIZE ADD SLT PUSH2 0x1C4 JUMPI PUSH1 0x20 SWAP1 MLOAD PUSH2 0x2710 DUP2 MSTORE RETURN JUMPDEST DUP4 DUP3 CALLVALUE PUSH2 0x1C4 JUMPI DUP2 PUSH1 0x3 NOT CALLDATASIZE ADD SLT PUSH2 0x1C4 JUMPI PUSH2 0x1FF PUSH2 0x877 JUMP JUMPDEST DUP2 DUP1 DUP1 DUP1 PUSH1 0x1 DUP1 PUSH1 0xA0 SHL SUB PUSH1 0x1 SLOAD AND SELFBALANCE SWAP1 DUP3 DUP3 ISZERO PUSH2 0x22C JUMPI JUMPDEST CALL ISZERO PUSH2 0x222 JUMPI POP DUP1 RETURN JUMPDEST MLOAD SWAP1 RETURNDATASIZE SWAP1 DUP3 RETURNDATACOPY RETURNDATASIZE SWAP1 REVERT JUMPDEST POP PUSH2 0x8FC PUSH2 0x218 JUMP JUMPDEST DUP4 DUP3 CALLVALUE PUSH2 0x1C4 JUMPI DUP2 PUSH1 0x3 NOT CALLDATASIZE ADD SLT PUSH2 0x1C4 JUMPI PUSH1 0x20 SWAP1 MLOAD PUSH2 0x1A4 DUP2 MSTORE RETURN JUMPDEST POP SWAP1 CALLVALUE PUSH2 0x1A1 JUMPI PUSH1 0x20 CALLDATASIZE PUSH1 0x3 NOT ADD SLT PUSH2 0x1A1 JUMPI CALLDATALOAD SWAP2 PUSH1 0x1 PUSH1 0x1 PUSH1 0xA0 SHL SUB DUP4 AND DUP4 SUB PUSH2 0x28A JUMPI POP PUSH2 0x283 PUSH1 0x20 SWAP3 PUSH2 0x792 JUMP JUMPDEST SWAP1 MLOAD SWAP1 DUP2 MSTORE RETURN JUMPDEST DUP1 REVERT JUMPDEST POP DUP3 SWAP1 CALLVALUE PUSH2 0x1C4 JUMPI PUSH1 0x20 CALLDATASIZE PUSH1 0x3 NOT ADD SLT PUSH2 0x1C4 JUMPI DUP3 CALLDATALOAD PUSH1 0x1 PUSH1 0x1 PUSH1 0xA0 SHL SUB DUP2 AND DUP1 DUP3 SUB PUSH2 0x33C JUMPI DUP4 MSTORE PUSH1 0x2 PUSH1 0x20 MSTORE DUP2 DUP4 KECCAK256 SWAP4 DUP3 MLOAD SWAP4 PUSH1 0x60 DUP6 ADD SWAP2 DUP6 DUP4 LT PUSH8 0xFFFFFFFFFFFFFFFF DUP5 GT OR PUSH2 0x329 JUMPI POP POP DUP3 SWAP2 PUSH2 0x307 SWAP2 PUSH2 0x325 SWAP5 MSTORE DUP6 SLOAD SWAP5 DUP6 DUP2 MSTORE DUP4 PUSH1 0x2 PUSH1 0x1 DUP10 ADD SLOAD SWAP9 PUSH1 0x20 DUP5 ADD SWAP10 DUP11 MSTORE ADD SLOAD SWAP2 ADD MSTORE PUSH2 0x792 JUMP JUMPDEST SWAP4 MLOAD SWAP1 MLOAD SWAP4 DUP5 SWAP4 DUP5 PUSH1 0x40 SWAP2 SWAP5 SWAP4 SWAP3 PUSH1 0x60 DUP3 ADD SWAP6 DUP3 MSTORE PUSH1 0x20 DUP3 ADD MSTORE ADD MSTORE JUMP JUMPDEST SUB SWAP1 RETURN JUMPDEST PUSH4 0x4E487B71 PUSH1 0xE0 SHL DUP3 MSTORE PUSH1 0x41 SWAP1 MSTORE PUSH1 0x24 SWAP1 REVERT JUMPDEST DUP4 DUP1 REVERT JUMPDEST DUP4 DUP3 CALLVALUE PUSH2 0x1C4 JUMPI DUP2 PUSH1 0x3 NOT CALLDATASIZE ADD SLT PUSH2 0x1C4 JUMPI PUSH1 0x20 SWAP1 PUSH2 0x283 SELFBALANCE PUSH1 0x3 SLOAD SWAP1 PUSH2 0x762 JUMP JUMPDEST DUP4 DUP3 CALLVALUE PUSH2 0x1C4 JUMPI DUP2 PUSH1 0x3 NOT CALLDATASIZE ADD SLT PUSH2 0x1C4 JUMPI PUSH1 0x1 SLOAD SWAP1 MLOAD PUSH1 0x1 PUSH1 0x1 PUSH1 0xA0 SHL SUB SWAP1 SWAP2 AND DUP2 MSTORE PUSH1 0x20 SWAP1 RETURN JUMPDEST DUP4 DUP3 CALLVALUE PUSH2 0x1C4 JUMPI DUP2 PUSH1 0x3 NOT CALLDATASIZE ADD SLT PUSH2 0x1C4 JUMPI PUSH1 0x20 SWAP1 PUSH1 0x3 SLOAD SWAP1 MLOAD SWAP1 DUP2 MSTORE RETURN JUMPDEST DUP4 CALLVALUE PUSH2 0x28A JUMPI DUP1 PUSH1 0x3 NOT CALLDATASIZE ADD SLT PUSH2 0x28A JUMPI PUSH2 0x3C3 PUSH2 0x877 JUMP JUMPDEST PUSH1 0x1 DUP1 SLOAD PUSH1 0x1 PUSH1 0x1 PUSH1 0xA0 SHL SUB NOT DUP2 AND SWAP1 SWAP2 SSTORE DUP2 SWAP1 PUSH1 0x1 PUSH1 0x1 PUSH1 0xA0 SHL SUB AND PUSH32 0x8BE0079C531659141344CD1FD0A4F28419497F9722A3DAAFE3B4186F6B6457E0 DUP3 DUP1 LOG3 DUP1 RETURN JUMPDEST POP CALLVALUE PUSH2 0x1A1 JUMPI DUP3 PUSH1 0x3 NOT CALLDATASIZE ADD SLT PUSH2 0x1A1 JUMPI PUSH2 0x420 PUSH2 0x8CF JUMP JUMPDEST PUSH2 0x429 CALLER PUSH2 0x925 JUMP JUMPDEST CALLER DUP4 MSTORE PUSH1 0x2 PUSH1 0x20 MSTORE PUSH1 0x2 DUP2 DUP5 KECCAK256 ADD SLOAD SWAP2 DUP3 ISZERO PUSH2 0x4E2 JUMPI CALLER DUP5 MSTORE PUSH1 0x2 PUSH1 0x20 MSTORE DUP4 PUSH1 0x2 DUP4 DUP3 KECCAK256 ADD SSTORE DUP3 SELFBALANCE LT PUSH2 0x4A0 JUMPI POP DUP3 DUP1 DUP1 DUP1 DUP6 CALLER DUP3 CALL ISZERO PUSH2 0x495 JUMPI MLOAD SWAP1 DUP2 MSTORE PUSH32 0xC04825BA3F383B602255D2A13065A68E325C65C9E0ED5D031EA2B06F641873AF PUSH1 0x20 CALLER SWAP3 LOG2 PUSH1 0x1 DUP2 SSTORE DUP1 RETURN JUMPDEST MLOAD SWAP2 RETURNDATASIZE SWAP2 POP DUP3 RETURNDATACOPY RETURNDATASIZE SWAP1 REVERT JUMPDEST PUSH1 0x20 PUSH1 0x64 SWAP3 MLOAD SWAP2 PUSH3 0x461BCD PUSH1 0xE5 SHL DUP4 MSTORE DUP3 ADD MSTORE PUSH1 0x17 PUSH1 0x24 DUP3 ADD MSTORE PUSH32 0x496E73756666696369656E74207969656C6420706F6F6C000000000000000000 PUSH1 0x44 DUP3 ADD MSTORE REVERT JUMPDEST PUSH1 0x20 PUSH1 0x64 SWAP3 MLOAD SWAP2 PUSH3 0x461BCD PUSH1 0xE5 SHL DUP4 MSTORE DUP3 ADD MSTORE PUSH1 0x11 PUSH1 0x24 DUP3 ADD MSTORE PUSH17 0x4E6F207969656C6420746F20636C61696D PUSH1 0x78 SHL PUSH1 0x44 DUP3 ADD MSTORE REVERT JUMPDEST POP SWAP1 DUP3 PUSH1 0x3 NOT CALLDATASIZE ADD SLT PUSH2 0x1A1 JUMPI PUSH2 0x52D PUSH2 0x8CF JUMP JUMPDEST CALLVALUE ISZERO PUSH2 0x5A5 JUMPI POP PUSH2 0x53D CALLER PUSH2 0x925 JUMP JUMPDEST CALLER DUP3 MSTORE PUSH1 0x2 PUSH1 0x20 MSTORE DUP1 DUP3 KECCAK256 PUSH2 0x553 CALLVALUE DUP3 SLOAD PUSH2 0x785 JUMP JUMPDEST SWAP1 SSTORE CALLER DUP3 MSTORE PUSH1 0x2 PUSH1 0x20 MSTORE TIMESTAMP PUSH1 0x1 DUP3 DUP5 KECCAK256 ADD SSTORE PUSH2 0x571 CALLVALUE PUSH1 0x3 SLOAD PUSH2 0x785 JUMP JUMPDEST PUSH1 0x3 SSTORE MLOAD CALLVALUE DUP2 MSTORE PUSH32 0x9E71BC8EEA02A63969F509818F2DAFB9254532904319F9DBDA79B67BD34A5F3D PUSH1 0x20 CALLER SWAP3 LOG2 PUSH1 0x1 DUP2 SSTORE DUP1 RETURN JUMPDEST PUSH1 0x20 PUSH1 0x64 SWAP3 MLOAD SWAP2 PUSH3 0x461BCD PUSH1 0xE5 SHL DUP4 MSTORE DUP3 ADD MSTORE PUSH1 0x12 PUSH1 0x24 DUP3 ADD MSTORE PUSH18 0x10D85B9B9BDD081CDD185AD9480C08135395 PUSH1 0x72 SHL PUSH1 0x44 DUP3 ADD MSTORE REVERT JUMPDEST POP SWAP1 CALLVALUE PUSH2 0x1A1 JUMPI PUSH1 0x20 DUP1 PUSH1 0x3 NOT CALLDATASIZE ADD SLT PUSH2 0x33C JUMPI DUP2 CALLDATALOAD SWAP2 PUSH2 0x5FB PUSH2 0x8CF JUMP JUMPDEST DUP3 ISZERO PUSH2 0x6C2 JUMPI CALLER DUP6 MSTORE PUSH1 0x2 DUP3 MSTORE DUP3 DUP5 DUP7 KECCAK256 SLOAD LT PUSH2 0x68C JUMPI POP PUSH2 0x61C CALLER PUSH2 0x925 JUMP JUMPDEST CALLER DUP5 MSTORE PUSH1 0x2 DUP2 MSTORE DUP3 DUP5 KECCAK256 PUSH2 0x631 DUP4 DUP3 SLOAD PUSH2 0x762 JUMP JUMPDEST SWAP1 SSTORE PUSH2 0x63F DUP3 PUSH1 0x3 SLOAD PUSH2 0x762 JUMP JUMPDEST PUSH1 0x3 SSTORE DUP4 DUP1 DUP1 DUP1 DUP6 CALLER DUP3 CALL ISZERO PUSH2 0x680 JUMPI PUSH32 0xF5BB82176FEB1B5E747E28471AA92156A04D9F3AB9F45F28E2D704232B93F75 SWAP2 SWAP3 MLOAD SWAP3 DUP4 MSTORE CALLER SWAP3 LOG2 PUSH1 0x1 DUP2 SSTORE DUP1 RETURN JUMPDEST POP POP MLOAD SWAP1 RETURNDATASIZE SWAP1 DUP3 RETURNDATACOPY RETURNDATASIZE SWAP1 REVERT JUMPDEST PUSH1 0x64 SWAP2 DUP5 MLOAD SWAP2 PUSH3 0x461BCD PUSH1 0xE5 SHL DUP4 MSTORE DUP3 ADD MSTORE PUSH1 0x12 PUSH1 0x24 DUP3 ADD MSTORE PUSH18 0x496E73756666696369656E74207374616B65 PUSH1 0x70 SHL PUSH1 0x44 DUP3 ADD MSTORE REVERT JUMPDEST PUSH1 0x64 SWAP2 DUP5 MLOAD SWAP2 PUSH3 0x461BCD PUSH1 0xE5 SHL DUP4 MSTORE DUP3 ADD MSTORE PUSH1 0x10 PUSH1 0x24 DUP3 ADD MSTORE PUSH16 0x43616E6E6F7420756E7374616B65203 PUSH1 0x84 SHL PUSH1 0x44 DUP3 ADD MSTORE REVERT JUMPDEST POP SWAP1 CALLVALUE PUSH2 0x1A1 JUMPI PUSH1 0x20 CALLDATASIZE PUSH1 0x3 NOT ADD SLT PUSH2 0x1A1 JUMPI CALLDATALOAD PUSH1 0x1 PUSH1 0x1 PUSH1 0xA0 SHL SUB DUP2 AND SWAP1 DUP2 SWAP1 SUB PUSH2 0x1A1 JUMPI DUP3 MSTORE PUSH1 0x2 PUSH1 0x20 DUP2 DUP2 MSTORE SWAP3 DUP3 SWAP1 KECCAK256 DUP1 SLOAD PUSH1 0x1 DUP3 ADD SLOAD SWAP2 SWAP1 SWAP3 ADD SLOAD SWAP3 MLOAD SWAP2 DUP3 MSTORE SWAP3 DUP2 ADD SWAP3 SWAP1 SWAP3 MSTORE PUSH1 0x40 DUP3 ADD MSTORE PUSH1 0x60 SWAP1 RETURN JUMPDEST DUP4 DUP1 PUSH1 0x3 NOT CALLDATASIZE ADD SLT PUSH2 0x28A JUMPI PUSH2 0x75F PUSH2 0x877 JUMP JUMPDEST DUP1 RETURN JUMPDEST SWAP2 SWAP1 DUP3 SUB SWAP2 DUP3 GT PUSH2 0x76F JUMPI JUMP JUMPDEST PUSH4 0x4E487B71 PUSH1 0xE0 SHL PUSH1 0x0 MSTORE PUSH1 0x11 PUSH1 0x4 MSTORE PUSH1 0x24 PUSH1 0x0 REVERT JUMPDEST SWAP2 SWAP1 DUP3 ADD DUP1 SWAP3 GT PUSH2 0x76F JUMPI JUMP JUMPDEST PUSH1 0x1 PUSH1 0x1 PUSH1 0xA0 SHL SUB AND PUSH1 0x0 SWAP1 DUP2 MSTORE PUSH1 0x2 PUSH1 0x20 MSTORE PUSH1 0x40 DUP1 DUP3 KECCAK256 SWAP1 MLOAD SWAP1 SWAP2 PUSH1 0x60 DUP3 ADD PUSH8 0xFFFFFFFFFFFFFFFF DUP2 GT DUP4 DUP3 LT OR PUSH2 0x863 JUMPI PUSH1 0x40 MSTORE DUP3 SLOAD SWAP3 DUP4 DUP4 MSTORE PUSH1 0x2 PUSH1 0x1 DUP3 ADD SLOAD SWAP2 DUP3 PUSH1 0x20 DUP7 ADD MSTORE ADD SLOAD PUSH1 0x40 DUP5 ADD SWAP5 DUP2 DUP7 MSTORE ISZERO PUSH2 0x85B JUMPI POP PUSH2 0x7F6 SWAP1 TIMESTAMP PUSH2 0x762 JUMP JUMPDEST SWAP2 MLOAD PUSH2 0x1A4 DUP1 DUP3 MUL SWAP2 DUP1 DUP4 DIV DUP3 EQ DUP2 ISZERO OR ISZERO PUSH2 0x847 JUMPI DUP5 MUL MUL SWAP3 DUP2 DUP5 DIV EQ SWAP1 ISZERO OR ISZERO PUSH2 0x833 JUMPI POP SWAP1 PUSH5 0x496CEBB800 PUSH2 0x830 SWAP3 DIV SWAP1 MLOAD PUSH2 0x785 JUMP JUMPDEST SWAP1 JUMP JUMPDEST PUSH4 0x4E487B71 PUSH1 0xE0 SHL DUP2 MSTORE PUSH1 0x11 PUSH1 0x4 MSTORE PUSH1 0x24 SWAP1 REVERT JUMPDEST PUSH4 0x4E487B71 PUSH1 0xE0 SHL DUP5 MSTORE PUSH1 0x11 PUSH1 0x4 MSTORE PUSH1 0x24 DUP5 REVERT JUMPDEST SWAP4 POP POP POP POP SWAP1 JUMP JUMPDEST PUSH4 0x4E487B71 PUSH1 0xE0 SHL DUP3 MSTORE PUSH1 0x41 PUSH1 0x4 MSTORE PUSH1 0x24 DUP3 REVERT JUMPDEST PUSH1 0x1 SLOAD PUSH1 0x1 PUSH1 0x1 PUSH1 0xA0 SHL SUB AND CALLER SUB PUSH2 0x88B JUMPI JUMP JUMPDEST PUSH1 0x64 PUSH1 0x40 MLOAD PUSH3 0x461BCD PUSH1 0xE5 SHL DUP2 MSTORE PUSH1 0x20 PUSH1 0x4 DUP3 ADD MSTORE PUSH1 0x20 PUSH1 0x24 DUP3 ADD MSTORE PUSH32 0x4F776E61626C653A2063616C6C6572206973206E6F7420746865206F776E6572 PUSH1 0x44 DUP3 ADD MSTORE REVERT JUMPDEST PUSH1 0x2 PUSH1 0x0 SLOAD EQ PUSH2 0x8E0 JUMPI PUSH1 0x2 PUSH1 0x0 SSTORE JUMP JUMPDEST PUSH1 0x40 MLOAD PUSH3 0x461BCD PUSH1 0xE5 SHL DUP2 MSTORE PUSH1 0x20 PUSH1 0x4 DUP3 ADD MSTORE PUSH1 0x1F PUSH1 0x24 DUP3 ADD MSTORE PUSH32 0x5265656E7472616E637947756172643A207265656E7472616E742063616C6C00 PUSH1 0x44 DUP3 ADD MSTORE PUSH1 0x64 SWAP1 REVERT JUMPDEST PUSH2 0x92E DUP2 PUSH2 0x792 JUMP JUMPDEST SWAP1 PUSH1 0x1 DUP1 PUSH1 0xA0 SHL SUB AND PUSH1 0x0 MSTORE PUSH1 0x2 PUSH1 0x20 MSTORE PUSH1 0x40 PUSH1 0x0 KECCAK256 SWAP1 PUSH1 0x2 DUP3 ADD SSTORE PUSH1 0x1 TIMESTAMP SWAP2 ADD SSTORE JUMP INVALID LOG2 PUSH5 0x6970667358 0x22 SLT KECCAK256 PUSH27 0x6BD916E2DE2EA2911457A3A219665E4FD38DDD6CB14139738328BB 0xAD KECCAK256 0xE8 EQ PUSH5 0x736F6C6343 STOP ADDMOD XOR STOP CALLER "},"methodIdentifiers":{"BASIS_POINTS()":"e1f1c4a7","SECONDS_PER_YEAR()":"e6a69ab8","STAKING_APY()":"d6fd1c52","claimYield()":"406cf229","emergencyWithdraw()":"db2e21bc","fundYieldPool()":"13901cf6","getStakeInfo(address)":"c3453153","getYieldPool()":"8e1d518b","owner()":"8da5cb5b","pendingYield(address)":"c7bf1980","renounceOwnership()":"715018a6","stake()":"3a4b66f1","stakes(address)":"16934fc4","totalStaked()":"817b1cd2","transferOwnership(address)":"f2fde38b","unstake(uint256)":"2e17de78"}}}}}