{"contracts/PrimeVault.sol":{"PrimeVault":{"abi":[{"inputs":[{"internalType":"address","name":"_mETH","type":"address"}],"stateMutability":"nonpayable","type":"constructor"},{"anonymous":false,"inputs":[{"indexed":true,"internalType":"address","name":"user","type":"address"},{"indexed":false,"internalType":"uint256","name":"newCollateral","type":"uint256"}],"name":"CollateralUpdated","type":"event"},{"anonymous":false,"inputs":[{"indexed":true,"internalType":"address","name":"user","type":"address"},{"indexed":false,"internalType":"uint256","name":"creditAmount","type":"uint256"}],"name":"CreditUpdated","type":"event"},{"anonymous":false,"inputs":[{"indexed":true,"internalType":"address","name":"user","type":"address"},{"indexed":false,"internalType":"uint256","name":"amount","type":"uint256"}],"name":"Deposited","type":"event"},{"anonymous":false,"inputs":[{"indexed":true,"internalType":"address","name":"previousOwner","type":"address"},{"indexed":true,"internalType":"address","name":"newOwner","type":"address"}],"name":"OwnershipTransferred","type":"event"},{"anonymous":false,"inputs":[{"indexed":false,"internalType":"address","name":"account","type":"address"}],"name":"Paused","type":"event"},{"anonymous":false,"inputs":[{"indexed":false,"internalType":"address","name":"account","type":"address"}],"name":"Unpaused","type":"event"},{"anonymous":false,"inputs":[{"indexed":true,"internalType":"address","name":"user","type":"address"},{"indexed":false,"internalType":"uint256","name":"amount","type":"uint256"}],"name":"Withdrawn","type":"event"},{"inputs":[],"name":"COLLATERAL_RATIO","outputs":[{"internalType":"uint256","name":"","type":"uint256"}],"stateMutability":"view","type":"function"},{"inputs":[],"name":"MAX_LTV","outputs":[{"internalType":"uint256","name":"","type":"uint256"}],"stateMutability":"view","type":"function"},{"inputs":[{"internalType":"address","name":"","type":"address"}],"name":"creditUsed","outputs":[{"internalType":"uint256","name":"","type":"uint256"}],"stateMutability":"view","type":"function"},{"inputs":[{"internalType":"uint256","name":"amount","type":"uint256"}],"name":"deposit","outputs":[],"stateMutability":"nonpayable","type":"function"},{"inputs":[{"internalType":"address","name":"user","type":"address"}],"name":"getAvailableCollateral","outputs":[{"internalType":"uint256","name":"","type":"uint256"}],"stateMutability":"view","type":"function"},{"inputs":[{"internalType":"address","name":"user","type":"address"}],"name":"getHealthFactor","outputs":[{"internalType":"uint256","name":"","type":"uint256"}],"stateMutability":"view","type":"function"},{"inputs":[{"internalType":"address","name":"user","type":"address"}],"name":"getMaxBorrowCapacity","outputs":[{"internalType":"uint256","name":"","type":"uint256"}],"stateMutability":"view","type":"function"},{"inputs":[],"name":"mETH","outputs":[{"internalType":"contract IERC20","name":"","type":"address"}],"stateMutability":"view","type":"function"},{"inputs":[],"name":"owner","outputs":[{"internalType":"address","name":"","type":"address"}],"stateMutability":"view","type":"function"},{"inputs":[],"name":"pause","outputs":[],"stateMutability":"nonpayable","type":"function"},{"inputs":[],"name":"paused","outputs":[{"internalType":"bool","name":"","type":"bool"}],"stateMutability":"view","type":"function"},{"inputs":[],"name":"renounceOwnership","outputs":[],"stateMutability":"nonpayable","type":"function"},{"inputs":[],"name":"totalCollateral","outputs":[{"internalType":"uint256","name":"","type":"uint256"}],"stateMutability":"view","type":"function"},{"inputs":[],"name":"totalDeposited","outputs":[{"internalType":"uint256","name":"","type":"uint256"}],"stateMutability":"view","type":"function"},{"inputs":[{"internalType":"address","name":"newOwner","type":"address"}],"name":"transferOwnership","outputs":[],"stateMutability":"nonpayable","type":"function"},{"inputs":[],"name":"unpause","outputs":[],"stateMutability":"nonpayable","type":"function"},{"inputs":[{"internalType":"address","name":"user","type":"address"},{"internalType":"uint256","name":"creditAmount","type":"uint256"}],"name":"updateCreditUsage","outputs":[],"stateMutability":"nonpayable","type":"function"},{"inputs":[{"internalType":"address","name":"","type":"address"}],"name":"userCollateral","outputs":[{"internalType":"uint256","name":"","type":"uint256"}],"stateMutability":"view","type":"function"},{"inputs":[{"internalType":"address","name":"","type":"address"}],"name":"userDeposits","outputs":[{"internalType":"uint256","name":"","type":"uint256"}],"stateMutability":"view","type":"function"},{"inputs":[{"internalType":"uint256","name":"amount","type":"uint256"}],"name":"withdraw","outputs":[],"stateMutability":"nonpayable","type":"function"}],"evm":{"bytecode":{"linkReferences":{},"object":"60a03461011c57601f61103d38819003918201601f19168301916001600160401b038311848410176101215780849260209460405283398101031261011c57516001600160a01b038082169182900361011c576001600081815581546001600160a81b0319811633600881811b610100600160a81b0316929092179094556040519491901c16907f8be0079c531659141344cd1fd0a4f28419497f9722a3daafe3b4186f6b6457e09080a381156100da5750608052604051610f05908161013882396080518181816104a2015281816108ff01526109a60152f35b62461bcd60e51b815260206004820152601460248201527f496e76616c6964206d45544820616464726573730000000000000000000000006044820152606490fd5b600080fd5b634e487b7160e01b600052604160045260246000fdfe608060408181526004918236101561001657600080fd5b600092833560e01c9182630ba36dcd146109d55750816329e84867146109915781632e1a7d4d146107cf5781633f4ba83a14610739578163432cd18e146106d55781634ac8eb5f146106b65781635c975abb14610692578163638458971461065c578163715018a6146105fb57816381bf8d3d146105df5781638456cb59146105855781638da5cb5b14610558578163b6b55f251461042d578163bb69bc71146103a0578163d9e69a0514610384578163e8e2160514610262578163f2fde38b1461018557508063f69f1e4a1461014e578063fe6bcd7c146101225763ff50abdc1461010157600080fd5b3461011e578160031936011261011e576020906005549051908152f35b5080fd5b503461011e57602036600319011261011e57602090610147610142610a09565b610b01565b9051908152f35b503461011e57602036600319011261011e5760209181906001600160a01b03610175610a09565b1681526003845220549051908152f35b90503461025e57602036600319011261025e576101a0610a09565b6101a8610c10565b6001600160a01b0381811693909290841561020c57505060018054610100600160a81b03198116600893841b610100600160a81b031617909155901c167f8be0079c531659141344cd1fd0a4f28419497f9722a3daafe3b4186f6b6457e08380a380f35b906020608492519162461bcd60e51b8352820152602660248201527f4f776e61626c653a206e6577206f776e657220697320746865207a65726f206160448201526564647265737360d01b6064820152fd5b8280fd5b90503461025e578160031936011261025e5761027c610a09565b9160243590610289610c10565b60968202928215948385046096148617156103685760018060a01b0316948587526102c260646020966003885204848920541015610aa8565b85875260038552828720541561037b5760648402908482046064141715610368576102fa605091878952600387528489205490610a88565b11610335578486528352808520829055519081527fb8b17c68dbe6cd120dd338473bf86b84c67e766feac2b583d29be17f3259599a9190a280f35b83606492519162461bcd60e51b8352820152600f60248201526e22bc31b2b2b2399036b0bc10262a2b60891b6044820152fd5b634e487b7160e01b875260118252602487fd5b506050866102fa565b50503461011e578160031936011261011e576020905160968152f35b82843461042a57602036600319011261042a576001600160a01b036103c3610a09565b168082528360205282822054609681029080820460961490151715610417576020945060649004908252600384528282205481811160001461040f576101479250610a65565b51908152f35b505090610409565b634e487b7160e01b835260118552602483fd5b80fd5b83833461011e57602036600319011261011e5782359061044b610b76565b610453610bcc565b61045e821515610a24565b80516323b872dd60e01b60208201523360248201523060448201526064808201849052815260a0810167ffffffffffffffff8111828210176105455782526104c6907f0000000000000000000000000000000000000000000000000000000000000000610c6b565b33835260026020528083206104dc838254610af4565b905533835260036020528083206104f4838254610af4565b905561050282600554610af4565b60055561051182600654610af4565b600655519081527f2da466a7b24304f47e87fa2e1e5a81b9831ce54fec19055ce277ca2f39ba42c460203392a26001815580f35b634e487b7160e01b855260418652602485fd5b50503461011e578160031936011261011e57600154905160089190911c6001600160a01b03168152602090f35b50503461011e578160031936011261011e5760207f62e78cea01bee320cd4e420270b5ea74000d11b0c9f74754ebdbfc544b05a258916105c3610c10565b6105cb610bcc565b600160ff198154161760015551338152a180f35b50503461011e578160031936011261011e576020905160508152f35b833461042a578060031936011261042a57610614610c10565b60018054610100600160a81b03198116909155819060081c6001600160a01b03167f8be0079c531659141344cd1fd0a4f28419497f9722a3daafe3b4186f6b6457e08280a380f35b90503461025e57602036600319011261025e5760209282916001600160a01b03610684610a09565b168252845220549051908152f35b50503461011e578160031936011261011e5760209060ff6001541690519015158152f35b50503461011e578160031936011261011e576020906006549051908152f35b9050823461042a57602036600319011261042a576001600160a01b036106f9610a09565b16815260036020528281205491605083029280840460501490151715610726576020836064865191048152f35b634e487b7160e01b825260119052602490fd5b90503461025e578260031936011261025e57610753610c10565b6001549060ff821615610795575060ff1916600155513381527f5db9ee0a495bf2e6ff9c91a7834c1ba4fdd244a5e8aa4e537bd38aeae4b073aa90602090a180f35b606490602084519162461bcd60e51b8352820152601460248201527314185d5cd8589b194e881b9bdd081c185d5cd95960621b6044820152fd5b83833461011e5760208060031936011261025e578335916107ee610b76565b6107f6610bcc565b610801831515610a24565b3384526002825282818520541061095757338452600382526108268382862054610a65565b338552858352818520546096810290808204609614901517156109445790606461085292041115610aa8565b33845260028252808420610867848254610a65565b90553384526003825280842061087e848254610a65565b905561088c83600554610a65565b60055561089b83600654610a65565b600655805163a9059cbb60e01b83820152336024820152604480820185905281526080810167ffffffffffffffff811182821017610931578291610923917f7084f5476618d8e60b11ef0d7d3f06914655adb8793e28ff7f018d4c76d505d59594527f0000000000000000000000000000000000000000000000000000000000000000610c6b565b519283523392a26001815580f35b634e487b7160e01b865260418752602486fd5b634e487b7160e01b865260118752602486fd5b5162461bcd60e51b8152808501919091526014602482015273496e73756666696369656e742062616c616e636560601b6044820152606490fd5b50503461011e578160031936011261011e57517f00000000000000000000000000000000000000000000000000000000000000006001600160a01b03168152602090f35b8490843461025e57602036600319011261025e576020926001600160a01b036109fc610a09565b1681526002845220548152f35b600435906001600160a01b0382168203610a1f57565b600080fd5b15610a2b57565b60405162461bcd60e51b81526020600482015260126024820152710416d6f756e74206d757374206265203e20360741b6044820152606490fd5b91908203918211610a7257565b634e487b7160e01b600052601160045260246000fd5b8115610a92570490565b634e487b7160e01b600052601260045260246000fd5b15610aaf57565b60405162461bcd60e51b815260206004820152601760248201527f496e73756666696369656e7420636f6c6c61746572616c0000000000000000006044820152606490fd5b91908201809211610a7257565b6001600160a01b03166000818152600460205260408120549092919015610b6e576003602052604083205490606482029180830460641490151715610b5a5783604091610b579495526004602052205490610a88565b90565b634e487b7160e01b84526011600452602484fd5b506000199150565b600260005414610b87576002600055565b60405162461bcd60e51b815260206004820152601f60248201527f5265656e7472616e637947756172643a207265656e7472616e742063616c6c006044820152606490fd5b60ff60015416610bd857565b60405162461bcd60e51b815260206004820152601060248201526f14185d5cd8589b194e881c185d5cd95960821b6044820152606490fd5b60015460081c6001600160a01b03163303610c2757565b606460405162461bcd60e51b815260206004820152602060248201527f4f776e61626c653a2063616c6c6572206973206e6f7420746865206f776e65726044820152fd5b6040805167ffffffffffffffff94936001600160a01b03909316929080830186811182821017610de55783526020938482527f5361666545524332303a206c6f772d6c6576656c2063616c6c206661696c6564858301526000808487829651910182855af13d15610dd4573d91888311610dc057601f1992865193603f81601f8401160116840199848b10908b1117610dac5786979899610d1696975283528286893d92013e610dfb565b805191821591858315610d88575b505050905015610d32575050565b60849250519062461bcd60e51b82526004820152602a60248201527f5361666545524332303a204552433230206f7065726174696f6e20646964206e6044820152691bdd081cdd58d8d9595960b21b6064820152fd5b91938180945001031261011e5783015190811515820361042a575080388085610d24565b634e487b7160e01b86526041600452602486fd5b634e487b7160e01b85526041600452602485fd5b610d16939495969750606091610dfb565b634e487b7160e01b600052604160045260246000fd5b91929015610e5d5750815115610e0f575090565b3b15610e185790565b60405162461bcd60e51b815260206004820152601d60248201527f416464726573733a2063616c6c20746f206e6f6e2d636f6e74726163740000006044820152606490fd5b825190915015610e705750805190602001fd5b6040519062461bcd60e51b82528160208060048301528251908160248401526000935b828510610eb6575050604492506000838284010152601f80199101168101030190fd5b8481018201518686016044015293810193859350610e9356fea26469706673582212204beaa927a94351e728d1fdb8f7113910e197f3cb92a113a1901df493c6b37d7164736f6c63430008180033","opcodes":"PUSH1 0xA0 CALLVALUE PUSH2 0x11C JUMPI PUSH1 0x1F PUSH2 0x103D CODESIZE DUP2 SWAP1 SUB SWAP2 DUP3 ADD PUSH1 0x1F NOT AND DUP4 ADD SWAP2 PUSH1 0x1 PUSH1 0x1 PUSH1 0x40 SHL SUB DUP4 GT DUP5 DUP5 LT OR PUSH2 0x121 JUMPI DUP1 DUP5 SWAP3 PUSH1 0x20 SWAP5 PUSH1 0x40 MSTORE DUP4 CODECOPY DUP2 ADD SUB SLT PUSH2 0x11C JUMPI MLOAD PUSH1 0x1 PUSH1 0x1 PUSH1 0xA0 SHL SUB DUP1 DUP3 AND SWAP2 DUP3 SWAP1 SUB PUSH2 0x11C JUMPI PUSH1 0x1 PUSH1 0x0 DUP2 DUP2 SSTORE DUP2 SLOAD PUSH1 0x1 PUSH1 0x1 PUSH1 0xA8 SHL SUB NOT DUP2 AND CALLER PUSH1 0x8 DUP2 DUP2 SHL PUSH2 0x100 PUSH1 0x1 PUSH1 0xA8 SHL SUB AND SWAP3 SWAP1 SWAP3 OR SWAP1 SWAP5 SSTORE PUSH1 0x40 MLOAD SWAP5 SWAP2 SWAP1 SHR AND SWAP1 PUSH32 0x8BE0079C531659141344CD1FD0A4F28419497F9722A3DAAFE3B4186F6B6457E0 SWAP1 DUP1 LOG3 DUP2 ISZERO PUSH2 0xDA JUMPI POP PUSH1 0x80 MSTORE PUSH1 0x40 MLOAD PUSH2 0xF05 SWAP1 DUP2 PUSH2 0x138 DUP3 CODECOPY PUSH1 0x80 MLOAD DUP2 DUP2 DUP2 PUSH2 0x4A2 ADD MSTORE DUP2 DUP2 PUSH2 0x8FF ADD MSTORE PUSH2 0x9A6 ADD MSTORE RETURN JUMPDEST PUSH3 0x461BCD PUSH1 0xE5 SHL DUP2 MSTORE PUSH1 0x20 PUSH1 0x4 DUP3 ADD MSTORE PUSH1 0x14 PUSH1 0x24 DUP3 ADD MSTORE PUSH32 0x496E76616C6964206D4554482061646472657373000000000000000000000000 PUSH1 0x44 DUP3 ADD MSTORE PUSH1 0x64 SWAP1 REVERT JUMPDEST PUSH1 0x0 DUP1 REVERT JUMPDEST PUSH4 0x4E487B71 PUSH1 0xE0 SHL PUSH1 0x0 MSTORE PUSH1 0x41 PUSH1 0x4 MSTORE PUSH1 0x24 PUSH1 0x0 REVERT INVALID PUSH1 0x80 PUSH1 0x40 DUP2 DUP2 MSTORE PUSH1 0x4 SWAP2 DUP3 CALLDATASIZE LT ISZERO PUSH2 0x16 JUMPI PUSH1 0x0 DUP1 REVERT JUMPDEST PUSH1 0x0 SWAP3 DUP4 CALLDATALOAD PUSH1 0xE0 SHR SWAP2 DUP3 PUSH4 0xBA36DCD EQ PUSH2 0x9D5 JUMPI POP DUP2 PUSH4 0x29E84867 EQ PUSH2 0x991 JUMPI DUP2 PUSH4 0x2E1A7D4D EQ PUSH2 0x7CF JUMPI DUP2 PUSH4 0x3F4BA83A EQ PUSH2 0x739 JUMPI DUP2 PUSH4 0x432CD18E EQ PUSH2 0x6D5 JUMPI DUP2 PUSH4 0x4AC8EB5F EQ PUSH2 0x6B6 JUMPI DUP2 PUSH4 0x5C975ABB EQ PUSH2 0x692 JUMPI DUP2 PUSH4 0x63845897 EQ PUSH2 0x65C JUMPI DUP2 PUSH4 0x715018A6 EQ PUSH2 0x5FB JUMPI DUP2 PUSH4 0x81BF8D3D EQ PUSH2 0x5DF JUMPI DUP2 PUSH4 0x8456CB59 EQ PUSH2 0x585 JUMPI DUP2 PUSH4 0x8DA5CB5B EQ PUSH2 0x558 JUMPI DUP2 PUSH4 0xB6B55F25 EQ PUSH2 0x42D JUMPI DUP2 PUSH4 0xBB69BC71 EQ PUSH2 0x3A0 JUMPI DUP2 PUSH4 0xD9E69A05 EQ PUSH2 0x384 JUMPI DUP2 PUSH4 0xE8E21605 EQ PUSH2 0x262 JUMPI DUP2 PUSH4 0xF2FDE38B EQ PUSH2 0x185 JUMPI POP DUP1 PUSH4 0xF69F1E4A EQ PUSH2 0x14E JUMPI DUP1 PUSH4 0xFE6BCD7C EQ PUSH2 0x122 JUMPI PUSH4 0xFF50ABDC EQ PUSH2 0x101 JUMPI PUSH1 0x0 DUP1 REVERT JUMPDEST CALLVALUE PUSH2 0x11E JUMPI DUP2 PUSH1 0x3 NOT CALLDATASIZE ADD SLT PUSH2 0x11E JUMPI PUSH1 0x20 SWAP1 PUSH1 0x5 SLOAD SWAP1 MLOAD SWAP1 DUP2 MSTORE RETURN JUMPDEST POP DUP1 REVERT JUMPDEST POP CALLVALUE PUSH2 0x11E JUMPI PUSH1 0x20 CALLDATASIZE PUSH1 0x3 NOT ADD SLT PUSH2 0x11E JUMPI PUSH1 0x20 SWAP1 PUSH2 0x147 PUSH2 0x142 PUSH2 0xA09 JUMP JUMPDEST PUSH2 0xB01 JUMP JUMPDEST SWAP1 MLOAD SWAP1 DUP2 MSTORE RETURN JUMPDEST POP CALLVALUE PUSH2 0x11E JUMPI PUSH1 0x20 CALLDATASIZE PUSH1 0x3 NOT ADD SLT PUSH2 0x11E JUMPI PUSH1 0x20 SWAP2 DUP2 SWAP1 PUSH1 0x1 PUSH1 0x1 PUSH1 0xA0 SHL SUB PUSH2 0x175 PUSH2 0xA09 JUMP JUMPDEST AND DUP2 MSTORE PUSH1 0x3 DUP5 MSTORE KECCAK256 SLOAD SWAP1 MLOAD SWAP1 DUP2 MSTORE RETURN JUMPDEST SWAP1 POP CALLVALUE PUSH2 0x25E JUMPI PUSH1 0x20 CALLDATASIZE PUSH1 0x3 NOT ADD SLT PUSH2 0x25E JUMPI PUSH2 0x1A0 PUSH2 0xA09 JUMP JUMPDEST PUSH2 0x1A8 PUSH2 0xC10 JUMP JUMPDEST PUSH1 0x1 PUSH1 0x1 PUSH1 0xA0 SHL SUB DUP2 DUP2 AND SWAP4 SWAP1 SWAP3 SWAP1 DUP5 ISZERO PUSH2 0x20C JUMPI POP POP PUSH1 0x1 DUP1 SLOAD PUSH2 0x100 PUSH1 0x1 PUSH1 0xA8 SHL SUB NOT DUP2 AND PUSH1 0x8 SWAP4 DUP5 SHL PUSH2 0x100 PUSH1 0x1 PUSH1 0xA8 SHL SUB AND OR SWAP1 SWAP2 SSTORE SWAP1 SHR AND PUSH32 0x8BE0079C531659141344CD1FD0A4F28419497F9722A3DAAFE3B4186F6B6457E0 DUP4 DUP1 LOG3 DUP1 RETURN JUMPDEST SWAP1 PUSH1 0x20 PUSH1 0x84 SWAP3 MLOAD SWAP2 PUSH3 0x461BCD PUSH1 0xE5 SHL DUP4 MSTORE DUP3 ADD MSTORE PUSH1 0x26 PUSH1 0x24 DUP3 ADD MSTORE PUSH32 0x4F776E61626C653A206E6577206F776E657220697320746865207A65726F2061 PUSH1 0x44 DUP3 ADD MSTORE PUSH6 0x646472657373 PUSH1 0xD0 SHL PUSH1 0x64 DUP3 ADD MSTORE REVERT JUMPDEST DUP3 DUP1 REVERT JUMPDEST SWAP1 POP CALLVALUE PUSH2 0x25E JUMPI DUP2 PUSH1 0x3 NOT CALLDATASIZE ADD SLT PUSH2 0x25E JUMPI PUSH2 0x27C PUSH2 0xA09 JUMP JUMPDEST SWAP2 PUSH1 0x24 CALLDATALOAD SWAP1 PUSH2 0x289 PUSH2 0xC10 JUMP JUMPDEST PUSH1 0x96 DUP3 MUL SWAP3 DUP3 ISZERO SWAP5 DUP4 DUP6 DIV PUSH1 0x96 EQ DUP7 OR ISZERO PUSH2 0x368 JUMPI PUSH1 0x1 DUP1 PUSH1 0xA0 SHL SUB AND SWAP5 DUP6 DUP8 MSTORE PUSH2 0x2C2 PUSH1 0x64 PUSH1 0x20 SWAP7 PUSH1 0x3 DUP9 MSTORE DIV DUP5 DUP10 KECCAK256 SLOAD LT ISZERO PUSH2 0xAA8 JUMP JUMPDEST DUP6 DUP8 MSTORE PUSH1 0x3 DUP6 MSTORE DUP3 DUP8 KECCAK256 SLOAD ISZERO PUSH2 0x37B JUMPI PUSH1 0x64 DUP5 MUL SWAP1 DUP5 DUP3 DIV PUSH1 0x64 EQ OR ISZERO PUSH2 0x368 JUMPI PUSH2 0x2FA PUSH1 0x50 SWAP2 DUP8 DUP10 MSTORE PUSH1 0x3 DUP8 MSTORE DUP5 DUP10 KECCAK256 SLOAD SWAP1 PUSH2 0xA88 JUMP JUMPDEST GT PUSH2 0x335 JUMPI DUP5 DUP7 MSTORE DUP4 MSTORE DUP1 DUP6 KECCAK256 DUP3 SWAP1 SSTORE MLOAD SWAP1 DUP2 MSTORE PUSH32 0xB8B17C68DBE6CD120DD338473BF86B84C67E766FEAC2B583D29BE17F3259599A SWAP2 SWAP1 LOG2 DUP1 RETURN JUMPDEST DUP4 PUSH1 0x64 SWAP3 MLOAD SWAP2 PUSH3 0x461BCD PUSH1 0xE5 SHL DUP4 MSTORE DUP3 ADD MSTORE PUSH1 0xF PUSH1 0x24 DUP3 ADD MSTORE PUSH15 0x22BC31B2B2B2399036B0BC10262A2B PUSH1 0x89 SHL PUSH1 0x44 DUP3 ADD MSTORE REVERT JUMPDEST PUSH4 0x4E487B71 PUSH1 0xE0 SHL DUP8 MSTORE PUSH1 0x11 DUP3 MSTORE PUSH1 0x24 DUP8 REVERT JUMPDEST POP PUSH1 0x50 DUP7 PUSH2 0x2FA JUMP JUMPDEST POP POP CALLVALUE PUSH2 0x11E JUMPI DUP2 PUSH1 0x3 NOT CALLDATASIZE ADD SLT PUSH2 0x11E JUMPI PUSH1 0x20 SWAP1 MLOAD PUSH1 0x96 DUP2 MSTORE RETURN JUMPDEST DUP3 DUP5 CALLVALUE PUSH2 0x42A JUMPI PUSH1 0x20 CALLDATASIZE PUSH1 0x3 NOT ADD SLT PUSH2 0x42A JUMPI PUSH1 0x1 PUSH1 0x1 PUSH1 0xA0 SHL SUB PUSH2 0x3C3 PUSH2 0xA09 JUMP JUMPDEST AND DUP1 DUP3 MSTORE DUP4 PUSH1 0x20 MSTORE DUP3 DUP3 KECCAK256 SLOAD PUSH1 0x96 DUP2 MUL SWAP1 DUP1 DUP3 DIV PUSH1 0x96 EQ SWAP1 ISZERO OR ISZERO PUSH2 0x417 JUMPI PUSH1 0x20 SWAP5 POP PUSH1 0x64 SWAP1 DIV SWAP1 DUP3 MSTORE PUSH1 0x3 DUP5 MSTORE DUP3 DUP3 KECCAK256 SLOAD DUP2 DUP2 GT PUSH1 0x0 EQ PUSH2 0x40F JUMPI PUSH2 0x147 SWAP3 POP PUSH2 0xA65 JUMP JUMPDEST MLOAD SWAP1 DUP2 MSTORE RETURN JUMPDEST POP POP SWAP1 PUSH2 0x409 JUMP JUMPDEST PUSH4 0x4E487B71 PUSH1 0xE0 SHL DUP4 MSTORE PUSH1 0x11 DUP6 MSTORE PUSH1 0x24 DUP4 REVERT JUMPDEST DUP1 REVERT JUMPDEST DUP4 DUP4 CALLVALUE PUSH2 0x11E JUMPI PUSH1 0x20 CALLDATASIZE PUSH1 0x3 NOT ADD SLT PUSH2 0x11E JUMPI DUP3 CALLDATALOAD SWAP1 PUSH2 0x44B PUSH2 0xB76 JUMP JUMPDEST PUSH2 0x453 PUSH2 0xBCC JUMP JUMPDEST PUSH2 0x45E DUP3 ISZERO ISZERO PUSH2 0xA24 JUMP JUMPDEST DUP1 MLOAD PUSH4 0x23B872DD PUSH1 0xE0 SHL PUSH1 0x20 DUP3 ADD MSTORE CALLER PUSH1 0x24 DUP3 ADD MSTORE ADDRESS PUSH1 0x44 DUP3 ADD MSTORE PUSH1 0x64 DUP1 DUP3 ADD DUP5 SWAP1 MSTORE DUP2 MSTORE PUSH1 0xA0 DUP2 ADD PUSH8 0xFFFFFFFFFFFFFFFF DUP2 GT DUP3 DUP3 LT OR PUSH2 0x545 JUMPI DUP3 MSTORE PUSH2 0x4C6 SWAP1 PUSH32 0x0 PUSH2 0xC6B JUMP JUMPDEST CALLER DUP4 MSTORE PUSH1 0x2 PUSH1 0x20 MSTORE DUP1 DUP4 KECCAK256 PUSH2 0x4DC DUP4 DUP3 SLOAD PUSH2 0xAF4 JUMP JUMPDEST SWAP1 SSTORE CALLER DUP4 MSTORE PUSH1 0x3 PUSH1 0x20 MSTORE DUP1 DUP4 KECCAK256 PUSH2 0x4F4 DUP4 DUP3 SLOAD PUSH2 0xAF4 JUMP JUMPDEST SWAP1 SSTORE PUSH2 0x502 DUP3 PUSH1 0x5 SLOAD PUSH2 0xAF4 JUMP JUMPDEST PUSH1 0x5 SSTORE PUSH2 0x511 DUP3 PUSH1 0x6 SLOAD PUSH2 0xAF4 JUMP JUMPDEST PUSH1 0x6 SSTORE MLOAD SWAP1 DUP2 MSTORE PUSH32 0x2DA466A7B24304F47E87FA2E1E5A81B9831CE54FEC19055CE277CA2F39BA42C4 PUSH1 0x20 CALLER SWAP3 LOG2 PUSH1 0x1 DUP2 SSTORE DUP1 RETURN JUMPDEST PUSH4 0x4E487B71 PUSH1 0xE0 SHL DUP6 MSTORE PUSH1 0x41 DUP7 MSTORE PUSH1 0x24 DUP6 REVERT JUMPDEST POP POP CALLVALUE PUSH2 0x11E JUMPI DUP2 PUSH1 0x3 NOT CALLDATASIZE ADD SLT PUSH2 0x11E JUMPI PUSH1 0x1 SLOAD SWAP1 MLOAD PUSH1 0x8 SWAP2 SWAP1 SWAP2 SHR PUSH1 0x1 PUSH1 0x1 PUSH1 0xA0 SHL SUB AND DUP2 MSTORE PUSH1 0x20 SWAP1 RETURN JUMPDEST POP POP CALLVALUE PUSH2 0x11E JUMPI DUP2 PUSH1 0x3 NOT CALLDATASIZE ADD SLT PUSH2 0x11E JUMPI PUSH1 0x20 PUSH32 0x62E78CEA01BEE320CD4E420270B5EA74000D11B0C9F74754EBDBFC544B05A258 SWAP2 PUSH2 0x5C3 PUSH2 0xC10 JUMP JUMPDEST PUSH2 0x5CB PUSH2 0xBCC JUMP JUMPDEST PUSH1 0x1 PUSH1 0xFF NOT DUP2 SLOAD AND OR PUSH1 0x1 SSTORE MLOAD CALLER DUP2 MSTORE LOG1 DUP1 RETURN JUMPDEST POP POP CALLVALUE PUSH2 0x11E JUMPI DUP2 PUSH1 0x3 NOT CALLDATASIZE ADD SLT PUSH2 0x11E JUMPI PUSH1 0x20 SWAP1 MLOAD PUSH1 0x50 DUP2 MSTORE RETURN JUMPDEST DUP4 CALLVALUE PUSH2 0x42A JUMPI DUP1 PUSH1 0x3 NOT CALLDATASIZE ADD SLT PUSH2 0x42A JUMPI PUSH2 0x614 PUSH2 0xC10 JUMP JUMPDEST PUSH1 0x1 DUP1 SLOAD PUSH2 0x100 PUSH1 0x1 PUSH1 0xA8 SHL SUB NOT DUP2 AND SWAP1 SWAP2 SSTORE DUP2 SWAP1 PUSH1 0x8 SHR PUSH1 0x1 PUSH1 0x1 PUSH1 0xA0 SHL SUB AND PUSH32 0x8BE0079C531659141344CD1FD0A4F28419497F9722A3DAAFE3B4186F6B6457E0 DUP3 DUP1 LOG3 DUP1 RETURN JUMPDEST SWAP1 POP CALLVALUE PUSH2 0x25E JUMPI PUSH1 0x20 CALLDATASIZE PUSH1 0x3 NOT ADD SLT PUSH2 0x25E JUMPI PUSH1 0x20 SWAP3 DUP3 SWAP2 PUSH1 0x1 PUSH1 0x1 PUSH1 0xA0 SHL SUB PUSH2 0x684 PUSH2 0xA09 JUMP JUMPDEST AND DUP3 MSTORE DUP5 MSTORE KECCAK256 SLOAD SWAP1 MLOAD SWAP1 DUP2 MSTORE RETURN JUMPDEST POP POP CALLVALUE PUSH2 0x11E JUMPI DUP2 PUSH1 0x3 NOT CALLDATASIZE ADD SLT PUSH2 0x11E JUMPI PUSH1 0x20 SWAP1 PUSH1 0xFF PUSH1 0x1 SLOAD AND SWAP1 MLOAD SWAP1 ISZERO ISZERO DUP2 MSTORE RETURN JUMPDEST POP POP CALLVALUE PUSH2 0x11E JUMPI DUP2 PUSH1 0x3 NOT CALLDATASIZE ADD SLT PUSH2 0x11E JUMPI PUSH1 0x20 SWAP1 PUSH1 0x6 SLOAD SWAP1 MLOAD SWAP1 DUP2 MSTORE RETURN JUMPDEST SWAP1 POP DUP3 CALLVALUE PUSH2 0x42A JUMPI PUSH1 0x20 CALLDATASIZE PUSH1 0x3 NOT ADD SLT PUSH2 0x42A JUMPI PUSH1 0x1 PUSH1 0x1 PUSH1 0xA0 SHL SUB PUSH2 0x6F9 PUSH2 0xA09 JUMP JUMPDEST AND DUP2 MSTORE PUSH1 0x3 PUSH1 0x20 MSTORE DUP3 DUP2 KECCAK256 SLOAD SWAP2 PUSH1 0x50 DUP4 MUL SWAP3 DUP1 DUP5 DIV PUSH1 0x50 EQ SWAP1 ISZERO OR ISZERO PUSH2 0x726 JUMPI PUSH1 0x20 DUP4 PUSH1 0x64 DUP7 MLOAD SWAP2 DIV DUP2 MSTORE RETURN JUMPDEST PUSH4 0x4E487B71 PUSH1 0xE0 SHL DUP3 MSTORE PUSH1 0x11 SWAP1 MSTORE PUSH1 0x24 SWAP1 REVERT JUMPDEST SWAP1 POP CALLVALUE PUSH2 0x25E JUMPI DUP3 PUSH1 0x3 NOT CALLDATASIZE ADD SLT PUSH2 0x25E JUMPI PUSH2 0x753 PUSH2 0xC10 JUMP JUMPDEST PUSH1 0x1 SLOAD SWAP1 PUSH1 0xFF DUP3 AND ISZERO PUSH2 0x795 JUMPI POP PUSH1 0xFF NOT AND PUSH1 0x1 SSTORE MLOAD CALLER DUP2 MSTORE PUSH32 0x5DB9EE0A495BF2E6FF9C91A7834C1BA4FDD244A5E8AA4E537BD38AEAE4B073AA SWAP1 PUSH1 0x20 SWAP1 LOG1 DUP1 RETURN JUMPDEST PUSH1 0x64 SWAP1 PUSH1 0x20 DUP5 MLOAD SWAP2 PUSH3 0x461BCD PUSH1 0xE5 SHL DUP4 MSTORE DUP3 ADD MSTORE PUSH1 0x14 PUSH1 0x24 DUP3 ADD MSTORE PUSH20 0x14185D5CD8589B194E881B9BDD081C185D5CD959 PUSH1 0x62 SHL PUSH1 0x44 DUP3 ADD MSTORE REVERT JUMPDEST DUP4 DUP4 CALLVALUE PUSH2 0x11E JUMPI PUSH1 0x20 DUP1 PUSH1 0x3 NOT CALLDATASIZE ADD SLT PUSH2 0x25E JUMPI DUP4 CALLDATALOAD SWAP2 PUSH2 0x7EE PUSH2 0xB76 JUMP JUMPDEST PUSH2 0x7F6 PUSH2 0xBCC JUMP JUMPDEST PUSH2 0x801 DUP4 ISZERO ISZERO PUSH2 0xA24 JUMP JUMPDEST CALLER DUP5 MSTORE PUSH1 0x2 DUP3 MSTORE DUP3 DUP2 DUP6 KECCAK256 SLOAD LT PUSH2 0x957 JUMPI CALLER DUP5 MSTORE PUSH1 0x3 DUP3 MSTORE PUSH2 0x826 DUP4 DUP3 DUP7 KECCAK256 SLOAD PUSH2 0xA65 JUMP JUMPDEST CALLER DUP6 MSTORE DUP6 DUP4 MSTORE DUP2 DUP6 KECCAK256 SLOAD PUSH1 0x96 DUP2 MUL SWAP1 DUP1 DUP3 DIV PUSH1 0x96 EQ SWAP1 ISZERO OR ISZERO PUSH2 0x944 JUMPI SWAP1 PUSH1 0x64 PUSH2 0x852 SWAP3 DIV GT ISZERO PUSH2 0xAA8 JUMP JUMPDEST CALLER DUP5 MSTORE PUSH1 0x2 DUP3 MSTORE DUP1 DUP5 KECCAK256 PUSH2 0x867 DUP5 DUP3 SLOAD PUSH2 0xA65 JUMP JUMPDEST SWAP1 SSTORE CALLER DUP5 MSTORE PUSH1 0x3 DUP3 MSTORE DUP1 DUP5 KECCAK256 PUSH2 0x87E DUP5 DUP3 SLOAD PUSH2 0xA65 JUMP JUMPDEST SWAP1 SSTORE PUSH2 0x88C DUP4 PUSH1 0x5 SLOAD PUSH2 0xA65 JUMP JUMPDEST PUSH1 0x5 SSTORE PUSH2 0x89B DUP4 PUSH1 0x6 SLOAD PUSH2 0xA65 JUMP JUMPDEST PUSH1 0x6 SSTORE DUP1 MLOAD PUSH4 0xA9059CBB PUSH1 0xE0 SHL DUP4 DUP3 ADD MSTORE CALLER PUSH1 0x24 DUP3 ADD MSTORE PUSH1 0x44 DUP1 DUP3 ADD DUP6 SWAP1 MSTORE DUP2 MSTORE PUSH1 0x80 DUP2 ADD PUSH8 0xFFFFFFFFFFFFFFFF DUP2 GT DUP3 DUP3 LT OR PUSH2 0x931 JUMPI DUP3 SWAP2 PUSH2 0x923 SWAP2 PUSH32 0x7084F5476618D8E60B11EF0D7D3F06914655ADB8793E28FF7F018D4C76D505D5 SWAP6 SWAP5 MSTORE PUSH32 0x0 PUSH2 0xC6B JUMP JUMPDEST MLOAD SWAP3 DUP4 MSTORE CALLER SWAP3 LOG2 PUSH1 0x1 DUP2 SSTORE DUP1 RETURN JUMPDEST PUSH4 0x4E487B71 PUSH1 0xE0 SHL DUP7 MSTORE PUSH1 0x41 DUP8 MSTORE PUSH1 0x24 DUP7 REVERT JUMPDEST PUSH4 0x4E487B71 PUSH1 0xE0 SHL DUP7 MSTORE PUSH1 0x11 DUP8 MSTORE PUSH1 0x24 DUP7 REVERT JUMPDEST MLOAD PUSH3 0x461BCD PUSH1 0xE5 SHL DUP2 MSTORE DUP1 DUP6 ADD SWAP2 SWAP1 SWAP2 MSTORE PUSH1 0x14 PUSH1 0x24 DUP3 ADD MSTORE PUSH20 0x496E73756666696369656E742062616C616E6365 PUSH1 0x60 SHL PUSH1 0x44 DUP3 ADD MSTORE PUSH1 0x64 SWAP1 REVERT JUMPDEST POP POP CALLVALUE PUSH2 0x11E JUMPI DUP2 PUSH1 0x3 NOT CALLDATASIZE ADD SLT PUSH2 0x11E JUMPI MLOAD PUSH32 0x0 PUSH1 0x1 PUSH1 0x1 PUSH1 0xA0 SHL SUB AND DUP2 MSTORE PUSH1 0x20 SWAP1 RETURN JUMPDEST DUP5 SWAP1 DUP5 CALLVALUE PUSH2 0x25E JUMPI PUSH1 0x20 CALLDATASIZE PUSH1 0x3 NOT ADD SLT PUSH2 0x25E JUMPI PUSH1 0x20 SWAP3 PUSH1 0x1 PUSH1 0x1 PUSH1 0xA0 SHL SUB PUSH2 0x9FC PUSH2 0xA09 JUMP JUMPDEST AND DUP2 MSTORE PUSH1 0x2 DUP5 MSTORE KECCAK256 SLOAD DUP2 MSTORE RETURN JUMPDEST PUSH1 0x4 CALLDATALOAD SWAP1 PUSH1 0x1 PUSH1 0x1 PUSH1 0xA0 SHL SUB DUP3 AND DUP3 SUB PUSH2 0xA1F JUMPI JUMP JUMPDEST PUSH1 0x0 DUP1 REVERT JUMPDEST ISZERO PUSH2 0xA2B JUMPI JUMP JUMPDEST PUSH1 0x40 MLOAD PUSH3 0x461BCD PUSH1 0xE5 SHL DUP2 MSTORE PUSH1 0x20 PUSH1 0x4 DUP3 ADD MSTORE PUSH1 0x12 PUSH1 0x24 DUP3 ADD MSTORE PUSH18 0x416D6F756E74206D757374206265203E203 PUSH1 0x74 SHL PUSH1 0x44 DUP3 ADD MSTORE PUSH1 0x64 SWAP1 REVERT JUMPDEST SWAP2 SWAP1 DUP3 SUB SWAP2 DUP3 GT PUSH2 0xA72 JUMPI JUMP JUMPDEST PUSH4 0x4E487B71 PUSH1 0xE0 SHL PUSH1 0x0 MSTORE PUSH1 0x11 PUSH1 0x4 MSTORE PUSH1 0x24 PUSH1 0x0 REVERT JUMPDEST DUP2 ISZERO PUSH2 0xA92 JUMPI DIV SWAP1 JUMP JUMPDEST PUSH4 0x4E487B71 PUSH1 0xE0 SHL PUSH1 0x0 MSTORE PUSH1 0x12 PUSH1 0x4 MSTORE PUSH1 0x24 PUSH1 0x0 REVERT JUMPDEST ISZERO PUSH2 0xAAF JUMPI JUMP JUMPDEST PUSH1 0x40 MLOAD PUSH3 0x461BCD PUSH1 0xE5 SHL DUP2 MSTORE PUSH1 0x20 PUSH1 0x4 DUP3 ADD MSTORE PUSH1 0x17 PUSH1 0x24 DUP3 ADD MSTORE PUSH32 0x496E73756666696369656E7420636F6C6C61746572616C000000000000000000 PUSH1 0x44 DUP3 ADD MSTORE PUSH1 0x64 SWAP1 REVERT JUMPDEST SWAP2 SWAP1 DUP3 ADD DUP1 SWAP3 GT PUSH2 0xA72 JUMPI JUMP JUMPDEST PUSH1 0x1 PUSH1 0x1 PUSH1 0xA0 SHL SUB AND PUSH1 0x0 DUP2 DUP2 MSTORE PUSH1 0x4 PUSH1 0x20 MSTORE PUSH1 0x40 DUP2 KECCAK256 SLOAD SWAP1 SWAP3 SWAP2 SWAP1 ISZERO PUSH2 0xB6E JUMPI PUSH1 0x3 PUSH1 0x20 MSTORE PUSH1 0x40 DUP4 KECCAK256 SLOAD SWAP1 PUSH1 0x64 DUP3 MUL SWAP2 DUP1 DUP4 DIV PUSH1 0x64 EQ SWAP1 ISZERO OR ISZERO PUSH2 0xB5A JUMPI DUP4 PUSH1 0x40 SWAP2 PUSH2 0xB57 SWAP5 SWAP6 MSTORE PUSH1 0x4 PUSH1 0x20 MSTORE KECCAK256 SLOAD SWAP1 PUSH2 0xA88 JUMP JUMPDEST SWAP1 JUMP JUMPDEST PUSH4 0x4E487B71 PUSH1 0xE0 SHL DUP5 MSTORE PUSH1 0x11 PUSH1 0x4 MSTORE PUSH1 0x24 DUP5 REVERT JUMPDEST POP PUSH1 0x0 NOT SWAP2 POP JUMP JUMPDEST PUSH1 0x2 PUSH1 0x0 SLOAD EQ PUSH2 0xB87 JUMPI PUSH1 0x2 PUSH1 0x0 SSTORE JUMP JUMPDEST PUSH1 0x40 MLOAD PUSH3 0x461BCD PUSH1 0xE5 SHL DUP2 MSTORE PUSH1 0x20 PUSH1 0x4 DUP3 ADD MSTORE PUSH1 0x1F PUSH1 0x24 DUP3 ADD MSTORE PUSH32 0x5265656E7472616E637947756172643A207265656E7472616E742063616C6C00 PUSH1 0x44 DUP3 ADD MSTORE PUSH1 0x64 SWAP1 REVERT JUMPDEST PUSH1 0xFF PUSH1 0x1 SLOAD AND PUSH2 0xBD8 JUMPI JUMP JUMPDEST PUSH1 0x40 MLOAD PUSH3 0x461BCD PUSH1 0xE5 SHL DUP2 MSTORE PUSH1 0x20 PUSH1 0x4 DUP3 ADD MSTORE PUSH1 0x10 PUSH1 0x24 DUP3 ADD MSTORE PUSH16 0x14185D5CD8589B194E881C185D5CD959 PUSH1 0x82 SHL PUSH1 0x44 DUP3 ADD MSTORE PUSH1 0x64 SWAP1 REVERT JUMPDEST PUSH1 0x1 SLOAD PUSH1 0x8 SHR PUSH1 0x1 PUSH1 0x1 PUSH1 0xA0 SHL SUB AND CALLER SUB PUSH2 0xC27 JUMPI JUMP JUMPDEST PUSH1 0x64 PUSH1 0x40 MLOAD PUSH3 0x461BCD PUSH1 0xE5 SHL DUP2 MSTORE PUSH1 0x20 PUSH1 0x4 DUP3 ADD MSTORE PUSH1 0x20 PUSH1 0x24 DUP3 ADD MSTORE PUSH32 0x4F776E61626C653A2063616C6C6572206973206E6F7420746865206F776E6572 PUSH1 0x44 DUP3 ADD MSTORE REVERT JUMPDEST PUSH1 0x40 DUP1 MLOAD PUSH8 0xFFFFFFFFFFFFFFFF SWAP5 SWAP4 PUSH1 0x1 PUSH1 0x1 PUSH1 0xA0 SHL SUB SWAP1 SWAP4 AND SWAP3 SWAP1 DUP1 DUP4 ADD DUP7 DUP2 GT DUP3 DUP3 LT OR PUSH2 0xDE5 JUMPI DUP4 MSTORE PUSH1 0x20 SWAP4 DUP5 DUP3 MSTORE PUSH32 0x5361666545524332303A206C6F772D6C6576656C2063616C6C206661696C6564 DUP6 DUP4 ADD MSTORE PUSH1 0x0 DUP1 DUP5 DUP8 DUP3 SWAP7 MLOAD SWAP2 ADD DUP3 DUP6 GAS CALL RETURNDATASIZE ISZERO PUSH2 0xDD4 JUMPI RETURNDATASIZE SWAP2 DUP9 DUP4 GT PUSH2 0xDC0 JUMPI PUSH1 0x1F NOT SWAP3 DUP7 MLOAD SWAP4 PUSH1 0x3F DUP2 PUSH1 0x1F DUP5 ADD AND ADD AND DUP5 ADD SWAP10 DUP5 DUP12 LT SWAP1 DUP12 GT OR PUSH2 0xDAC JUMPI DUP7 SWAP8 SWAP9 SWAP10 PUSH2 0xD16 SWAP7 SWAP8 MSTORE DUP4 MSTORE DUP3 DUP7 DUP10 RETURNDATASIZE SWAP3 ADD RETURNDATACOPY PUSH2 0xDFB JUMP JUMPDEST DUP1 MLOAD SWAP2 DUP3 ISZERO SWAP2 DUP6 DUP4 ISZERO PUSH2 0xD88 JUMPI JUMPDEST POP POP POP SWAP1 POP ISZERO PUSH2 0xD32 JUMPI POP POP JUMP JUMPDEST PUSH1 0x84 SWAP3 POP MLOAD SWAP1 PUSH3 0x461BCD PUSH1 0xE5 SHL DUP3 MSTORE PUSH1 0x4 DUP3 ADD MSTORE PUSH1 0x2A PUSH1 0x24 DUP3 ADD MSTORE PUSH32 0x5361666545524332303A204552433230206F7065726174696F6E20646964206E PUSH1 0x44 DUP3 ADD MSTORE PUSH10 0x1BDD081CDD58D8D95959 PUSH1 0xB2 SHL PUSH1 0x64 DUP3 ADD MSTORE REVERT JUMPDEST SWAP2 SWAP4 DUP2 DUP1 SWAP5 POP ADD SUB SLT PUSH2 0x11E JUMPI DUP4 ADD MLOAD SWAP1 DUP2 ISZERO ISZERO DUP3 SUB PUSH2 0x42A JUMPI POP DUP1 CODESIZE DUP1 DUP6 PUSH2 0xD24 JUMP JUMPDEST PUSH4 0x4E487B71 PUSH1 0xE0 SHL DUP7 MSTORE PUSH1 0x41 PUSH1 0x4 MSTORE PUSH1 0x24 DUP7 REVERT JUMPDEST PUSH4 0x4E487B71 PUSH1 0xE0 SHL DUP6 MSTORE PUSH1 0x41 PUSH1 0x4 MSTORE PUSH1 0x24 DUP6 REVERT JUMPDEST PUSH2 0xD16 SWAP4 SWAP5 SWAP6 SWAP7 SWAP8 POP PUSH1 0x60 SWAP2 PUSH2 0xDFB JUMP JUMPDEST PUSH4 0x4E487B71 PUSH1 0xE0 SHL PUSH1 0x0 MSTORE PUSH1 0x41 PUSH1 0x4 MSTORE PUSH1 0x24 PUSH1 0x0 REVERT JUMPDEST SWAP2 SWAP3 SWAP1 ISZERO PUSH2 0xE5D JUMPI POP DUP2 MLOAD ISZERO PUSH2 0xE0F JUMPI POP SWAP1 JUMP JUMPDEST EXTCODESIZE ISZERO PUSH2 0xE18 JUMPI SWAP1 JUMP JUMPDEST PUSH1 0x40 MLOAD PUSH3 0x461BCD PUSH1 0xE5 SHL DUP2 MSTORE PUSH1 0x20 PUSH1 0x4 DUP3 ADD MSTORE PUSH1 0x1D PUSH1 0x24 DUP3 ADD MSTORE PUSH32 0x416464726573733A2063616C6C20746F206E6F6E2D636F6E7472616374000000 PUSH1 0x44 DUP3 ADD MSTORE PUSH1 0x64 SWAP1 REVERT JUMPDEST DUP3 MLOAD SWAP1 SWAP2 POP ISZERO PUSH2 0xE70 JUMPI POP DUP1 MLOAD SWAP1 PUSH1 0x20 ADD REVERT JUMPDEST PUSH1 0x40 MLOAD SWAP1 PUSH3 0x461BCD PUSH1 0xE5 SHL DUP3 MSTORE DUP2 PUSH1 0x20 DUP1 PUSH1 0x4 DUP4 ADD MSTORE DUP3 MLOAD SWAP1 DUP2 PUSH1 0x24 DUP5 ADD MSTORE PUSH1 0x0 SWAP4 JUMPDEST DUP3 DUP6 LT PUSH2 0xEB6 JUMPI POP POP PUSH1 0x44 SWAP3 POP PUSH1 0x0 DUP4 DUP3 DUP5 ADD ADD MSTORE PUSH1 0x1F DUP1 NOT SWAP2 ADD AND DUP2 ADD SUB ADD SWAP1 REVERT JUMPDEST DUP5 DUP2 ADD DUP3 ADD MLOAD DUP7 DUP7 ADD PUSH1 0x44 ADD MSTORE SWAP4 DUP2 ADD SWAP4 DUP6 SWAP4 POP PUSH2 0xE93 JUMP INVALID LOG2 PUSH5 0x6970667358 0x22 SLT KECCAK256 0x4B 0xEA 0xA9 0x27 0xA9 NUMBER MLOAD 0xE7 0x28 0xD1 REVERT 0xB8 0xF7 GT CODECOPY LT 0xE1 SWAP8 RETURN 0xCB SWAP3 LOG1 SGT LOG1 SWAP1 SAR DELEGATECALL SWAP4 0xC6 0xB3 PUSH30 0x7164736F6C63430008180033000000000000000000000000000000000000 "},"methodIdentifiers":{"COLLATERAL_RATIO()":"d9e69a05","MAX_LTV()":"81bf8d3d","creditUsed(address)":"63845897","deposit(uint256)":"b6b55f25","getAvailableCollateral(address)":"bb69bc71","getHealthFactor(address)":"fe6bcd7c","getMaxBorrowCapacity(address)":"432cd18e","mETH()":"29e84867","owner()":"8da5cb5b","pause()":"8456cb59","paused()":"5c975abb","renounceOwnership()":"715018a6","totalCollateral()":"4ac8eb5f","totalDeposited()":"ff50abdc","transferOwnership(address)":"f2fde38b","unpause()":"3f4ba83a","updateCreditUsage(address,uint256)":"e8e21605","userCollateral(address)":"f69f1e4a","userDeposits(address)":"0ba36dcd","withdraw(uint256)":"2e1a7d4d"}}}}}