{"contracts/CreditIssuer.sol":{"CreditIssuer":{"abi":[{"inputs":[{"internalType":"address","name":"_vault","type":"address"},{"internalType":"address","name":"_usdy","type":"address"},{"internalType":"address","name":"_usdt0","type":"address"}],"stateMutability":"nonpayable","type":"constructor"},{"anonymous":false,"inputs":[{"indexed":true,"internalType":"address","name":"user","type":"address"},{"indexed":false,"internalType":"uint256","name":"amount","type":"uint256"},{"indexed":false,"internalType":"uint256","name":"fee","type":"uint256"}],"name":"CreditIssued","type":"event"},{"anonymous":false,"inputs":[{"indexed":true,"internalType":"address","name":"user","type":"address"},{"indexed":false,"internalType":"uint256","name":"amount","type":"uint256"},{"indexed":false,"internalType":"uint256","name":"interest","type":"uint256"}],"name":"CreditRepaid","type":"event"},{"anonymous":false,"inputs":[{"indexed":true,"internalType":"address","name":"user","type":"address"},{"indexed":false,"internalType":"uint256","name":"interest","type":"uint256"}],"name":"InterestAccrued","type":"event"},{"anonymous":false,"inputs":[{"indexed":true,"internalType":"address","name":"previousOwner","type":"address"},{"indexed":true,"internalType":"address","name":"newOwner","type":"address"}],"name":"OwnershipTransferred","type":"event"},{"anonymous":false,"inputs":[{"indexed":false,"internalType":"address","name":"account","type":"address"}],"name":"Paused","type":"event"},{"anonymous":false,"inputs":[{"indexed":false,"internalType":"address","name":"account","type":"address"}],"name":"Unpaused","type":"event"},{"inputs":[],"name":"RATE_DENOMINATOR","outputs":[{"internalType":"uint256","name":"","type":"uint256"}],"stateMutability":"view","type":"function"},{"inputs":[],"name":"SECONDS_PER_YEAR","outputs":[{"internalType":"uint256","name":"","type":"uint256"}],"stateMutability":"view","type":"function"},{"inputs":[{"internalType":"address","name":"","type":"address"}],"name":"creditIssued","outputs":[{"internalType":"uint256","name":"","type":"uint256"}],"stateMutability":"view","type":"function"},{"inputs":[{"internalType":"address","name":"user","type":"address"}],"name":"getTotalDebt","outputs":[{"internalType":"uint256","name":"","type":"uint256"}],"stateMutability":"view","type":"function"},{"inputs":[{"internalType":"address","name":"","type":"address"}],"name":"interestAccrued","outputs":[{"internalType":"uint256","name":"","type":"uint256"}],"stateMutability":"view","type":"function"},{"inputs":[],"name":"interestRate","outputs":[{"internalType":"uint256","name":"","type":"uint256"}],"stateMutability":"view","type":"function"},{"inputs":[{"internalType":"uint256","name":"amount","type":"uint256"}],"name":"issueCredit","outputs":[],"stateMutability":"nonpayable","type":"function"},{"inputs":[{"internalType":"address","name":"","type":"address"}],"name":"lastUpdate","outputs":[{"internalType":"uint256","name":"","type":"uint256"}],"stateMutability":"view","type":"function"},{"inputs":[],"name":"originationFee","outputs":[{"internalType":"uint256","name":"","type":"uint256"}],"stateMutability":"view","type":"function"},{"inputs":[],"name":"owner","outputs":[{"internalType":"address","name":"","type":"address"}],"stateMutability":"view","type":"function"},{"inputs":[],"name":"pause","outputs":[],"stateMutability":"nonpayable","type":"function"},{"inputs":[],"name":"paused","outputs":[{"internalType":"bool","name":"","type":"bool"}],"stateMutability":"view","type":"function"},{"inputs":[],"name":"renounceOwnership","outputs":[],"stateMutability":"nonpayable","type":"function"},{"inputs":[{"internalType":"uint256","name":"amount","type":"uint256"}],"name":"repayCredit","outputs":[],"stateMutability":"nonpayable","type":"function"},{"inputs":[],"name":"totalCreditIssued","outputs":[{"internalType":"uint256","name":"","type":"uint256"}],"stateMutability":"view","type":"function"},{"inputs":[],"name":"totalInterestCollected","outputs":[{"internalType":"uint256","name":"","type":"uint256"}],"stateMutability":"view","type":"function"},{"inputs":[{"internalType":"address","name":"newOwner","type":"address"}],"name":"transferOwnership","outputs":[],"stateMutability":"nonpayable","type":"function"},{"inputs":[],"name":"unpause","outputs":[],"stateMutability":"nonpayable","type":"function"},{"inputs":[{"internalType":"address","name":"user","type":"address"}],"name":"updateInterest","outputs":[],"stateMutability":"nonpayable","type":"function"},{"inputs":[{"internalType":"uint256","name":"_interestRate","type":"uint256"},{"internalType":"uint256","name":"_originationFee","type":"uint256"}],"name":"updateRates","outputs":[],"stateMutability":"nonpayable","type":"function"},{"inputs":[],"name":"usdt0","outputs":[{"internalType":"contract IERC20","name":"","type":"address"}],"stateMutability":"view","type":"function"},{"inputs":[],"name":"usdy","outputs":[{"internalType":"contract IERC20","name":"","type":"address"}],"stateMutability":"view","type":"function"},{"inputs":[],"name":"vault","outputs":[{"internalType":"contract PrimeVault","name":"","type":"address"}],"stateMutability":"view","type":"function"}],"evm":{"bytecode":{"linkReferences":{},"object":"60e03461016d57601f61122b38819003918201601f19168301916001600160401b038311848410176101725780849260609460405283398101031261016d5761004781610188565b90610060604061005960208401610188565b9201610188565b90600160005560015460018060a01b038094610100600160a81b033360081b1660018060a81b03198416176001556040519282339160081c167f8be0079c531659141344cd1fd0a4f28419497f9722a3daafe3b4186f6b6457e0600080a361012c600755601e600855169081151580610162575b1561012c5750608052821660a0521660c05260405161108e908161019d8239608051818181610133015281816101b60152610a26015260a0518181816102f10152818161061a0152610af9015260c051816105d60152f35b62461bcd60e51b8152602060048201526011602482015270496e76616c69642061646472657373657360781b6044820152606490fd5b5084831615156100d4565b600080fd5b634e487b7160e01b600052604160045260246000fd5b51906001600160a01b038216820361016d5756fe6040608081526004908136101561001557600080fd5b600091823560e01c90816305713ae51461093a5781633abb7a49146109005781633f4ba83a1461086a5781634d44ac4f1461081e5781634f3f1958146107e45781635c975abb146107c05781636f783313146107a1578163715018a61461073c5781637b3c5da71461070c5781637c3a00fd146106ed5781637efad8e0146106d05781638456cb59146106765781638da5cb5b1461064957816398d506e914610605578163a9d3c87f146105c1578163b5aca570146105a2578163b8bb5c4214610583578163cb03fb1e14610549578163e6a69ab81461052a578163f1469382146104ad578163f2fde38b146103ce578163f754848314610166575063fbfa77cf1461012057600080fd5b34610162578160031936011261016257517f00000000000000000000000000000000000000000000000000000000000000006001600160a01b03168152602090f35b5080fd5b919050346103ca576020908160031936011261034957823592610187610c6a565b61018f610cc0565b61019a841515610b9a565b6101a333610d04565b815163219668c760e11b815233828201527f00000000000000000000000000000000000000000000000000000000000000006001600160a01b0316908481602481855afa9081156103c057879161038f575b503387526002855261020a8685892054610bdb565b1161034d57859061271061022060085488610c57565b049261024f61022f8589610bfe565b9733855260028852868520610245828254610bdb565b9055600554610bdb565b6005553383526002865284832054823b1561034957855163e8e2160560e01b815233928101928352602083019190915291839183919082908490829060400103925af1801561033f57610327575b5050815163a9059cbb60e01b84820152336024820152604480820186905281527ff8cddf2eaf16af6f7a9735a8bed50968cabcef91b322eecbde3805d8d8377da49390610315906102ef606482610c35565b7f0000000000000000000000000000000000000000000000000000000000000000610e34565b82519485528401523392a26001815580f35b61033090610c0b565b61033b57843861029d565b8480fd5b84513d84823e3d90fd5b8380fd5b5082606492519162461bcd60e51b8352820152601760248201527f4578636565647320626f72726f772063617061636974790000000000000000006044820152fd5b90508481813d83116103b9575b6103a68183610c35565b810103126103b55751386101f5565b8680fd5b503d61039c565b84513d89823e3d90fd5b8280fd5b9050346103ca5760203660031901126103ca5780356001600160a01b03818116939092908483036104a957610401610dd9565b841561045757505060018054610100600160a81b03198116600893841b610100600160a81b031617909155901c167f8be0079c531659141344cd1fd0a4f28419497f9722a3daafe3b4186f6b6457e0600080a380f35b906020608492519162461bcd60e51b8352820152602660248201527f4f776e61626c653a206e6577206f776e657220697320746865207a65726f206160448201526564647265737360d01b6064820152fd5b8580fd5b9050346103ca57816003193601126103ca57803590602435926104ce610dd9565b6107d08311158061051e575b156104ea57505060075560085580f35b906020606492519162461bcd60e51b8352820152600e60248201526d0a4c2e8cae640e8dede40d0d2ced60931b6044820152fd5b506101f48411156104da565b505034610162578160031936011261016257602090516301e133808152f35b9050346103ca5760203660031901126103ca5780356001600160a01b03811690819003610349579282916020948252845220549051908152f35b5050346101625781600319360112610162576020906008549051908152f35b5050346101625781600319360112610162576020906005549051908152f35b505034610162578160031936011261016257517f00000000000000000000000000000000000000000000000000000000000000006001600160a01b03168152602090f35b505034610162578160031936011261016257517f00000000000000000000000000000000000000000000000000000000000000006001600160a01b03168152602090f35b505034610162578160031936011261016257600154905160089190911c6001600160a01b03168152602090f35b50503461016257816003193601126101625760207f62e78cea01bee320cd4e420270b5ea74000d11b0c9f74754ebdbfc544b05a258916106b4610dd9565b6106bc610cc0565b600160ff198154161760015551338152a180f35b505034610162578160031936011261016257602090516127108152f35b5050346101625781600319360112610162576020906007549051908152f35b83903461016257602036600319011261016257356001600160a01b03811681036101625761073990610d04565b80f35b833461079e578060031936011261079e57610755610dd9565b60018054610100600160a81b0319811690915560009060081c6001600160a01b03167f8be0079c531659141344cd1fd0a4f28419497f9722a3daafe3b4186f6b6457e08280a380f35b80fd5b5050346101625781600319360112610162576020906006549051908152f35b50503461016257816003193601126101625760209060ff6001541690519015158152f35b9050346103ca5760203660031901126103ca57356001600160a01b038116908190036103ca57828291602094526002845220549051908152f35b9050346103ca5760203660031901126103ca57356001600160a01b038116908190036103ca578261086391602094526002845282808220549160038652205490610bdb565b9051908152f35b9050346103ca57826003193601126103ca57610884610dd9565b6001549060ff8216156108c6575060ff1916600155513381527f5db9ee0a495bf2e6ff9c91a7834c1ba4fdd244a5e8aa4e537bd38aeae4b073aa90602090a180f35b606490602084519162461bcd60e51b8352820152601460248201527314185d5cd8589b194e881b9bdd081c185d5cd95960621b6044820152fd5b9050346103ca5760203660031901126103ca57356001600160a01b038116908190036103ca57828291602094526003845220549051908152f35b8391503461016257602092836003193601126103ca5781359361095b610c6a565b610963610cc0565b8461096f811515610b9a565b338552600282528285205415610b635761098833610d04565b338552600282526109a483862054600384528487205490610bdb565b809111610b5b575b50338452600381528184205480861115610b5357905b6109cc8287610bfe565b93338652600382528386206109e2848254610bfe565b9055338652600282528386206109f9868254610bfe565b9055610a0785600554610bfe565b600555610a1683600654610bdb565b60065533865260028252838620547f00000000000000000000000000000000000000000000000000000000000000006001600160a01b031690813b15610b4f57855163e8e2160560e01b815233848201908152602081019290925291889183919082908490829060400103925af18015610b4557610b32575b508351966323b872dd60e01b8389015233602489015230604489015260648801526064875260a087019087821067ffffffffffffffff831117610b1d57507fb95876ab9ace5646b4685d6b36bc4806a5f9a96bd381783fed703c8f3e6d292c9495966103159185527f0000000000000000000000000000000000000000000000000000000000000000610e34565b604190634e487b7160e01b6000525260246000fd5b610b3e90969196610c0b565b9487610a8f565b85513d89823e3d90fd5b8780fd5b5084906109c2565b9450856109ac565b50905162461bcd60e51b81529182015260126024820152714e6f2063726564697420746f20726570617960701b6044820152606490fd5b15610ba157565b60405162461bcd60e51b81526020600482015260126024820152710416d6f756e74206d757374206265203e20360741b6044820152606490fd5b91908201809211610be857565b634e487b7160e01b600052601160045260246000fd5b91908203918211610be857565b67ffffffffffffffff8111610c1f57604052565b634e487b7160e01b600052604160045260246000fd5b90601f8019910116810190811067ffffffffffffffff821117610c1f57604052565b81810292918115918404141715610be857565b600260005414610c7b576002600055565b60405162461bcd60e51b815260206004820152601f60248201527f5265656e7472616e637947756172643a207265656e7472616e742063616c6c006044820152606490fd5b60ff60015416610ccc57565b60405162461bcd60e51b815260206004820152601060248201526f14185d5cd8589b194e881c185d5cd95960821b6044820152606490fd5b6001600160a01b031660008181526004602090815260408083208054919391908115610dcf5750610d359042610bfe565b9283158015610dbd575b610db65764496cebb800610d8a7f5e804d42ae3b860f881d11cb44a4bb1f2f0d5b3d081f5539a32d6f97b629d9789587855260028652610d858486205460075490610c57565b610c57565b049185815260038452818120610da1848254610bdb565b905585815260048452814291205551908152a2565b5050505050565b50848252600283528082205415610d3f565b4290555050505050565b60015460081c6001600160a01b03163303610df057565b606460405162461bcd60e51b815260206004820152602060248201527f4f776e61626c653a2063616c6c6572206973206e6f7420746865206f776e65726044820152fd5b60018060a01b0316906040516040810167ffffffffffffffff9082811082821117610c1f576040526020938483527f5361666545524332303a206c6f772d6c6576656c2063616c6c206661696c6564858401526000808587829751910182855af1903d15610f79573d928311610f655790610ecf93929160405192610ec288601f19601f8401160185610c35565b83523d868885013e610f84565b805191821591848315610f41575b505050905015610eea5750565b6084906040519062461bcd60e51b82526004820152602a60248201527f5361666545524332303a204552433230206f7065726174696f6e20646964206e6044820152691bdd081cdd58d8d9595960b21b6064820152fd5b9193818094500103126101625782015190811515820361079e575080388084610edd565b634e487b7160e01b85526041600452602485fd5b90610ecf9392506060915b91929015610fe65750815115610f98575090565b3b15610fa15790565b60405162461bcd60e51b815260206004820152601d60248201527f416464726573733a2063616c6c20746f206e6f6e2d636f6e74726163740000006044820152606490fd5b825190915015610ff95750805190602001fd5b6040519062461bcd60e51b82528160208060048301528251908160248401526000935b82851061103f575050604492506000838284010152601f80199101168101030190fd5b848101820151868601604401529381019385935061101c56fea2646970667358221220e07820d372a3484ce66338299a1fbf7998afdbeba6e359ded90dbe052823a1b464736f6c63430008180033","opcodes":"PUSH1 0xE0 CALLVALUE PUSH2 0x16D JUMPI PUSH1 0x1F PUSH2 0x122B CODESIZE DUP2 SWAP1 SUB SWAP2 DUP3 ADD PUSH1 0x1F NOT AND DUP4 ADD SWAP2 PUSH1 0x1 PUSH1 0x1 PUSH1 0x40 SHL SUB DUP4 GT DUP5 DUP5 LT OR PUSH2 0x172 JUMPI DUP1 DUP5 SWAP3 PUSH1 0x60 SWAP5 PUSH1 0x40 MSTORE DUP4 CODECOPY DUP2 ADD SUB SLT PUSH2 0x16D JUMPI PUSH2 0x47 DUP2 PUSH2 0x188 JUMP JUMPDEST SWAP1 PUSH2 0x60 PUSH1 0x40 PUSH2 0x59 PUSH1 0x20 DUP5 ADD PUSH2 0x188 JUMP JUMPDEST SWAP3 ADD PUSH2 0x188 JUMP JUMPDEST SWAP1 PUSH1 0x1 PUSH1 0x0 SSTORE PUSH1 0x1 SLOAD PUSH1 0x1 DUP1 PUSH1 0xA0 SHL SUB DUP1 SWAP5 PUSH2 0x100 PUSH1 0x1 PUSH1 0xA8 SHL SUB CALLER PUSH1 0x8 SHL AND PUSH1 0x1 DUP1 PUSH1 0xA8 SHL SUB NOT DUP5 AND OR PUSH1 0x1 SSTORE PUSH1 0x40 MLOAD SWAP3 DUP3 CALLER SWAP2 PUSH1 0x8 SHR AND PUSH32 0x8BE0079C531659141344CD1FD0A4F28419497F9722A3DAAFE3B4186F6B6457E0 PUSH1 0x0 DUP1 LOG3 PUSH2 0x12C PUSH1 0x7 SSTORE PUSH1 0x1E PUSH1 0x8 SSTORE AND SWAP1 DUP2 ISZERO ISZERO DUP1 PUSH2 0x162 JUMPI JUMPDEST ISZERO PUSH2 0x12C JUMPI POP PUSH1 0x80 MSTORE DUP3 AND PUSH1 0xA0 MSTORE AND PUSH1 0xC0 MSTORE PUSH1 0x40 MLOAD PUSH2 0x108E SWAP1 DUP2 PUSH2 0x19D DUP3 CODECOPY PUSH1 0x80 MLOAD DUP2 DUP2 DUP2 PUSH2 0x133 ADD MSTORE DUP2 DUP2 PUSH2 0x1B6 ADD MSTORE PUSH2 0xA26 ADD MSTORE PUSH1 0xA0 MLOAD DUP2 DUP2 DUP2 PUSH2 0x2F1 ADD MSTORE DUP2 DUP2 PUSH2 0x61A ADD MSTORE PUSH2 0xAF9 ADD MSTORE PUSH1 0xC0 MLOAD DUP2 PUSH2 0x5D6 ADD MSTORE RETURN JUMPDEST PUSH3 0x461BCD PUSH1 0xE5 SHL DUP2 MSTORE PUSH1 0x20 PUSH1 0x4 DUP3 ADD MSTORE PUSH1 0x11 PUSH1 0x24 DUP3 ADD MSTORE PUSH17 0x496E76616C696420616464726573736573 PUSH1 0x78 SHL PUSH1 0x44 DUP3 ADD MSTORE PUSH1 0x64 SWAP1 REVERT JUMPDEST POP DUP5 DUP4 AND ISZERO ISZERO PUSH2 0xD4 JUMP JUMPDEST PUSH1 0x0 DUP1 REVERT JUMPDEST PUSH4 0x4E487B71 PUSH1 0xE0 SHL PUSH1 0x0 MSTORE PUSH1 0x41 PUSH1 0x4 MSTORE PUSH1 0x24 PUSH1 0x0 REVERT JUMPDEST MLOAD SWAP1 PUSH1 0x1 PUSH1 0x1 PUSH1 0xA0 SHL SUB DUP3 AND DUP3 SUB PUSH2 0x16D JUMPI JUMP INVALID PUSH1 0x40 PUSH1 0x80 DUP2 MSTORE PUSH1 0x4 SWAP1 DUP2 CALLDATASIZE LT ISZERO PUSH2 0x15 JUMPI PUSH1 0x0 DUP1 REVERT JUMPDEST PUSH1 0x0 SWAP2 DUP3 CALLDATALOAD PUSH1 0xE0 SHR SWAP1 DUP2 PUSH4 0x5713AE5 EQ PUSH2 0x93A JUMPI DUP2 PUSH4 0x3ABB7A49 EQ PUSH2 0x900 JUMPI DUP2 PUSH4 0x3F4BA83A EQ PUSH2 0x86A JUMPI DUP2 PUSH4 0x4D44AC4F EQ PUSH2 0x81E JUMPI DUP2 PUSH4 0x4F3F1958 EQ PUSH2 0x7E4 JUMPI DUP2 PUSH4 0x5C975ABB EQ PUSH2 0x7C0 JUMPI DUP2 PUSH4 0x6F783313 EQ PUSH2 0x7A1 JUMPI DUP2 PUSH4 0x715018A6 EQ PUSH2 0x73C JUMPI DUP2 PUSH4 0x7B3C5DA7 EQ PUSH2 0x70C JUMPI DUP2 PUSH4 0x7C3A00FD EQ PUSH2 0x6ED JUMPI DUP2 PUSH4 0x7EFAD8E0 EQ PUSH2 0x6D0 JUMPI DUP2 PUSH4 0x8456CB59 EQ PUSH2 0x676 JUMPI DUP2 PUSH4 0x8DA5CB5B EQ PUSH2 0x649 JUMPI DUP2 PUSH4 0x98D506E9 EQ PUSH2 0x605 JUMPI DUP2 PUSH4 0xA9D3C87F EQ PUSH2 0x5C1 JUMPI DUP2 PUSH4 0xB5ACA570 EQ PUSH2 0x5A2 JUMPI DUP2 PUSH4 0xB8BB5C42 EQ PUSH2 0x583 JUMPI DUP2 PUSH4 0xCB03FB1E EQ PUSH2 0x549 JUMPI DUP2 PUSH4 0xE6A69AB8 EQ PUSH2 0x52A JUMPI DUP2 PUSH4 0xF1469382 EQ PUSH2 0x4AD JUMPI DUP2 PUSH4 0xF2FDE38B EQ PUSH2 0x3CE JUMPI DUP2 PUSH4 0xF7548483 EQ PUSH2 0x166 JUMPI POP PUSH4 0xFBFA77CF EQ PUSH2 0x120 JUMPI PUSH1 0x0 DUP1 REVERT JUMPDEST CALLVALUE PUSH2 0x162 JUMPI DUP2 PUSH1 0x3 NOT CALLDATASIZE ADD SLT PUSH2 0x162 JUMPI MLOAD PUSH32 0x0 PUSH1 0x1 PUSH1 0x1 PUSH1 0xA0 SHL SUB AND DUP2 MSTORE PUSH1 0x20 SWAP1 RETURN JUMPDEST POP DUP1 REVERT JUMPDEST SWAP2 SWAP1 POP CALLVALUE PUSH2 0x3CA JUMPI PUSH1 0x20 SWAP1 DUP2 PUSH1 0x3 NOT CALLDATASIZE ADD SLT PUSH2 0x349 JUMPI DUP3 CALLDATALOAD SWAP3 PUSH2 0x187 PUSH2 0xC6A JUMP JUMPDEST PUSH2 0x18F PUSH2 0xCC0 JUMP JUMPDEST PUSH2 0x19A DUP5 ISZERO ISZERO PUSH2 0xB9A JUMP JUMPDEST PUSH2 0x1A3 CALLER PUSH2 0xD04 JUMP JUMPDEST DUP2 MLOAD PUSH4 0x219668C7 PUSH1 0xE1 SHL DUP2 MSTORE CALLER DUP3 DUP3 ADD MSTORE PUSH32 0x0 PUSH1 0x1 PUSH1 0x1 PUSH1 0xA0 SHL SUB AND SWAP1 DUP5 DUP2 PUSH1 0x24 DUP2 DUP6 GAS STATICCALL SWAP1 DUP2 ISZERO PUSH2 0x3C0 JUMPI DUP8 SWAP2 PUSH2 0x38F JUMPI JUMPDEST POP CALLER DUP8 MSTORE PUSH1 0x2 DUP6 MSTORE PUSH2 0x20A DUP7 DUP6 DUP10 KECCAK256 SLOAD PUSH2 0xBDB JUMP JUMPDEST GT PUSH2 0x34D JUMPI DUP6 SWAP1 PUSH2 0x2710 PUSH2 0x220 PUSH1 0x8 SLOAD DUP9 PUSH2 0xC57 JUMP JUMPDEST DIV SWAP3 PUSH2 0x24F PUSH2 0x22F DUP6 DUP10 PUSH2 0xBFE JUMP JUMPDEST SWAP8 CALLER DUP6 MSTORE PUSH1 0x2 DUP9 MSTORE DUP7 DUP6 KECCAK256 PUSH2 0x245 DUP3 DUP3 SLOAD PUSH2 0xBDB JUMP JUMPDEST SWAP1 SSTORE PUSH1 0x5 SLOAD PUSH2 0xBDB JUMP JUMPDEST PUSH1 0x5 SSTORE CALLER DUP4 MSTORE PUSH1 0x2 DUP7 MSTORE DUP5 DUP4 KECCAK256 SLOAD DUP3 EXTCODESIZE ISZERO PUSH2 0x349 JUMPI DUP6 MLOAD PUSH4 0xE8E21605 PUSH1 0xE0 SHL DUP2 MSTORE CALLER SWAP3 DUP2 ADD SWAP3 DUP4 MSTORE PUSH1 0x20 DUP4 ADD SWAP2 SWAP1 SWAP2 MSTORE SWAP2 DUP4 SWAP2 DUP4 SWAP2 SWAP1 DUP3 SWAP1 DUP5 SWAP1 DUP3 SWAP1 PUSH1 0x40 ADD SUB SWAP3 GAS CALL DUP1 ISZERO PUSH2 0x33F JUMPI PUSH2 0x327 JUMPI JUMPDEST POP POP DUP2 MLOAD PUSH4 0xA9059CBB PUSH1 0xE0 SHL DUP5 DUP3 ADD MSTORE CALLER PUSH1 0x24 DUP3 ADD MSTORE PUSH1 0x44 DUP1 DUP3 ADD DUP7 SWAP1 MSTORE DUP2 MSTORE PUSH32 0xF8CDDF2EAF16AF6F7A9735A8BED50968CABCEF91B322EECBDE3805D8D8377DA4 SWAP4 SWAP1 PUSH2 0x315 SWAP1 PUSH2 0x2EF PUSH1 0x64 DUP3 PUSH2 0xC35 JUMP JUMPDEST PUSH32 0x0 PUSH2 0xE34 JUMP JUMPDEST DUP3 MLOAD SWAP5 DUP6 MSTORE DUP5 ADD MSTORE CALLER SWAP3 LOG2 PUSH1 0x1 DUP2 SSTORE DUP1 RETURN JUMPDEST PUSH2 0x330 SWAP1 PUSH2 0xC0B JUMP JUMPDEST PUSH2 0x33B JUMPI DUP5 CODESIZE PUSH2 0x29D JUMP JUMPDEST DUP5 DUP1 REVERT JUMPDEST DUP5 MLOAD RETURNDATASIZE DUP5 DUP3 RETURNDATACOPY RETURNDATASIZE SWAP1 REVERT JUMPDEST DUP4 DUP1 REVERT JUMPDEST POP DUP3 PUSH1 0x64 SWAP3 MLOAD SWAP2 PUSH3 0x461BCD PUSH1 0xE5 SHL DUP4 MSTORE DUP3 ADD MSTORE PUSH1 0x17 PUSH1 0x24 DUP3 ADD MSTORE PUSH32 0x4578636565647320626F72726F77206361706163697479000000000000000000 PUSH1 0x44 DUP3 ADD MSTORE REVERT JUMPDEST SWAP1 POP DUP5 DUP2 DUP2 RETURNDATASIZE DUP4 GT PUSH2 0x3B9 JUMPI JUMPDEST PUSH2 0x3A6 DUP2 DUP4 PUSH2 0xC35 JUMP JUMPDEST DUP2 ADD SUB SLT PUSH2 0x3B5 JUMPI MLOAD CODESIZE PUSH2 0x1F5 JUMP JUMPDEST DUP7 DUP1 REVERT JUMPDEST POP RETURNDATASIZE PUSH2 0x39C JUMP JUMPDEST DUP5 MLOAD RETURNDATASIZE DUP10 DUP3 RETURNDATACOPY RETURNDATASIZE SWAP1 REVERT JUMPDEST DUP3 DUP1 REVERT JUMPDEST SWAP1 POP CALLVALUE PUSH2 0x3CA JUMPI PUSH1 0x20 CALLDATASIZE PUSH1 0x3 NOT ADD SLT PUSH2 0x3CA JUMPI DUP1 CALLDATALOAD PUSH1 0x1 PUSH1 0x1 PUSH1 0xA0 SHL SUB DUP2 DUP2 AND SWAP4 SWAP1 SWAP3 SWAP1 DUP5 DUP4 SUB PUSH2 0x4A9 JUMPI PUSH2 0x401 PUSH2 0xDD9 JUMP JUMPDEST DUP5 ISZERO PUSH2 0x457 JUMPI POP POP PUSH1 0x1 DUP1 SLOAD PUSH2 0x100 PUSH1 0x1 PUSH1 0xA8 SHL SUB NOT DUP2 AND PUSH1 0x8 SWAP4 DUP5 SHL PUSH2 0x100 PUSH1 0x1 PUSH1 0xA8 SHL SUB AND OR SWAP1 SWAP2 SSTORE SWAP1 SHR AND PUSH32 0x8BE0079C531659141344CD1FD0A4F28419497F9722A3DAAFE3B4186F6B6457E0 PUSH1 0x0 DUP1 LOG3 DUP1 RETURN JUMPDEST SWAP1 PUSH1 0x20 PUSH1 0x84 SWAP3 MLOAD SWAP2 PUSH3 0x461BCD PUSH1 0xE5 SHL DUP4 MSTORE DUP3 ADD MSTORE PUSH1 0x26 PUSH1 0x24 DUP3 ADD MSTORE PUSH32 0x4F776E61626C653A206E6577206F776E657220697320746865207A65726F2061 PUSH1 0x44 DUP3 ADD MSTORE PUSH6 0x646472657373 PUSH1 0xD0 SHL PUSH1 0x64 DUP3 ADD MSTORE REVERT JUMPDEST DUP6 DUP1 REVERT JUMPDEST SWAP1 POP CALLVALUE PUSH2 0x3CA JUMPI DUP2 PUSH1 0x3 NOT CALLDATASIZE ADD SLT PUSH2 0x3CA JUMPI DUP1 CALLDATALOAD SWAP1 PUSH1 0x24 CALLDATALOAD SWAP3 PUSH2 0x4CE PUSH2 0xDD9 JUMP JUMPDEST PUSH2 0x7D0 DUP4 GT ISZERO DUP1 PUSH2 0x51E JUMPI JUMPDEST ISZERO PUSH2 0x4EA JUMPI POP POP PUSH1 0x7 SSTORE PUSH1 0x8 SSTORE DUP1 RETURN JUMPDEST SWAP1 PUSH1 0x20 PUSH1 0x64 SWAP3 MLOAD SWAP2 PUSH3 0x461BCD PUSH1 0xE5 SHL DUP4 MSTORE DUP3 ADD MSTORE PUSH1 0xE PUSH1 0x24 DUP3 ADD MSTORE PUSH14 0xA4C2E8CAE640E8DEDE40D0D2CED PUSH1 0x93 SHL PUSH1 0x44 DUP3 ADD MSTORE REVERT JUMPDEST POP PUSH2 0x1F4 DUP5 GT ISZERO PUSH2 0x4DA JUMP JUMPDEST POP POP CALLVALUE PUSH2 0x162 JUMPI DUP2 PUSH1 0x3 NOT CALLDATASIZE ADD SLT PUSH2 0x162 JUMPI PUSH1 0x20 SWAP1 MLOAD PUSH4 0x1E13380 DUP2 MSTORE RETURN JUMPDEST SWAP1 POP CALLVALUE PUSH2 0x3CA JUMPI PUSH1 0x20 CALLDATASIZE PUSH1 0x3 NOT ADD SLT PUSH2 0x3CA JUMPI DUP1 CALLDATALOAD PUSH1 0x1 PUSH1 0x1 PUSH1 0xA0 SHL SUB DUP2 AND SWAP1 DUP2 SWAP1 SUB PUSH2 0x349 JUMPI SWAP3 DUP3 SWAP2 PUSH1 0x20 SWAP5 DUP3 MSTORE DUP5 MSTORE KECCAK256 SLOAD SWAP1 MLOAD SWAP1 DUP2 MSTORE RETURN JUMPDEST POP POP CALLVALUE PUSH2 0x162 JUMPI DUP2 PUSH1 0x3 NOT CALLDATASIZE ADD SLT PUSH2 0x162 JUMPI PUSH1 0x20 SWAP1 PUSH1 0x8 SLOAD SWAP1 MLOAD SWAP1 DUP2 MSTORE RETURN JUMPDEST POP POP CALLVALUE PUSH2 0x162 JUMPI DUP2 PUSH1 0x3 NOT CALLDATASIZE ADD SLT PUSH2 0x162 JUMPI PUSH1 0x20 SWAP1 PUSH1 0x5 SLOAD SWAP1 MLOAD SWAP1 DUP2 MSTORE RETURN JUMPDEST POP POP CALLVALUE PUSH2 0x162 JUMPI DUP2 PUSH1 0x3 NOT CALLDATASIZE ADD SLT PUSH2 0x162 JUMPI MLOAD PUSH32 0x0 PUSH1 0x1 PUSH1 0x1 PUSH1 0xA0 SHL SUB AND DUP2 MSTORE PUSH1 0x20 SWAP1 RETURN JUMPDEST POP POP CALLVALUE PUSH2 0x162 JUMPI DUP2 PUSH1 0x3 NOT CALLDATASIZE ADD SLT PUSH2 0x162 JUMPI MLOAD PUSH32 0x0 PUSH1 0x1 PUSH1 0x1 PUSH1 0xA0 SHL SUB AND DUP2 MSTORE PUSH1 0x20 SWAP1 RETURN JUMPDEST POP POP CALLVALUE PUSH2 0x162 JUMPI DUP2 PUSH1 0x3 NOT CALLDATASIZE ADD SLT PUSH2 0x162 JUMPI PUSH1 0x1 SLOAD SWAP1 MLOAD PUSH1 0x8 SWAP2 SWAP1 SWAP2 SHR PUSH1 0x1 PUSH1 0x1 PUSH1 0xA0 SHL SUB AND DUP2 MSTORE PUSH1 0x20 SWAP1 RETURN JUMPDEST POP POP CALLVALUE PUSH2 0x162 JUMPI DUP2 PUSH1 0x3 NOT CALLDATASIZE ADD SLT PUSH2 0x162 JUMPI PUSH1 0x20 PUSH32 0x62E78CEA01BEE320CD4E420270B5EA74000D11B0C9F74754EBDBFC544B05A258 SWAP2 PUSH2 0x6B4 PUSH2 0xDD9 JUMP JUMPDEST PUSH2 0x6BC PUSH2 0xCC0 JUMP JUMPDEST PUSH1 0x1 PUSH1 0xFF NOT DUP2 SLOAD AND OR PUSH1 0x1 SSTORE MLOAD CALLER DUP2 MSTORE LOG1 DUP1 RETURN JUMPDEST POP POP CALLVALUE PUSH2 0x162 JUMPI DUP2 PUSH1 0x3 NOT CALLDATASIZE ADD SLT PUSH2 0x162 JUMPI PUSH1 0x20 SWAP1 MLOAD PUSH2 0x2710 DUP2 MSTORE RETURN JUMPDEST POP POP CALLVALUE PUSH2 0x162 JUMPI DUP2 PUSH1 0x3 NOT CALLDATASIZE ADD SLT PUSH2 0x162 JUMPI PUSH1 0x20 SWAP1 PUSH1 0x7 SLOAD SWAP1 MLOAD SWAP1 DUP2 MSTORE RETURN JUMPDEST DUP4 SWAP1 CALLVALUE PUSH2 0x162 JUMPI PUSH1 0x20 CALLDATASIZE PUSH1 0x3 NOT ADD SLT PUSH2 0x162 JUMPI CALLDATALOAD PUSH1 0x1 PUSH1 0x1 PUSH1 0xA0 SHL SUB DUP2 AND DUP2 SUB PUSH2 0x162 JUMPI PUSH2 0x739 SWAP1 PUSH2 0xD04 JUMP JUMPDEST DUP1 RETURN JUMPDEST DUP4 CALLVALUE PUSH2 0x79E JUMPI DUP1 PUSH1 0x3 NOT CALLDATASIZE ADD SLT PUSH2 0x79E JUMPI PUSH2 0x755 PUSH2 0xDD9 JUMP JUMPDEST PUSH1 0x1 DUP1 SLOAD PUSH2 0x100 PUSH1 0x1 PUSH1 0xA8 SHL SUB NOT DUP2 AND SWAP1 SWAP2 SSTORE PUSH1 0x0 SWAP1 PUSH1 0x8 SHR PUSH1 0x1 PUSH1 0x1 PUSH1 0xA0 SHL SUB AND PUSH32 0x8BE0079C531659141344CD1FD0A4F28419497F9722A3DAAFE3B4186F6B6457E0 DUP3 DUP1 LOG3 DUP1 RETURN JUMPDEST DUP1 REVERT JUMPDEST POP POP CALLVALUE PUSH2 0x162 JUMPI DUP2 PUSH1 0x3 NOT CALLDATASIZE ADD SLT PUSH2 0x162 JUMPI PUSH1 0x20 SWAP1 PUSH1 0x6 SLOAD SWAP1 MLOAD SWAP1 DUP2 MSTORE RETURN JUMPDEST POP POP CALLVALUE PUSH2 0x162 JUMPI DUP2 PUSH1 0x3 NOT CALLDATASIZE ADD SLT PUSH2 0x162 JUMPI PUSH1 0x20 SWAP1 PUSH1 0xFF PUSH1 0x1 SLOAD AND SWAP1 MLOAD SWAP1 ISZERO ISZERO DUP2 MSTORE RETURN JUMPDEST SWAP1 POP CALLVALUE PUSH2 0x3CA JUMPI PUSH1 0x20 CALLDATASIZE PUSH1 0x3 NOT ADD SLT PUSH2 0x3CA JUMPI CALLDATALOAD PUSH1 0x1 PUSH1 0x1 PUSH1 0xA0 SHL SUB DUP2 AND SWAP1 DUP2 SWAP1 SUB PUSH2 0x3CA JUMPI DUP3 DUP3 SWAP2 PUSH1 0x20 SWAP5 MSTORE PUSH1 0x2 DUP5 MSTORE KECCAK256 SLOAD SWAP1 MLOAD SWAP1 DUP2 MSTORE RETURN JUMPDEST SWAP1 POP CALLVALUE PUSH2 0x3CA JUMPI PUSH1 0x20 CALLDATASIZE PUSH1 0x3 NOT ADD SLT PUSH2 0x3CA JUMPI CALLDATALOAD PUSH1 0x1 PUSH1 0x1 PUSH1 0xA0 SHL SUB DUP2 AND SWAP1 DUP2 SWAP1 SUB PUSH2 0x3CA JUMPI DUP3 PUSH2 0x863 SWAP2 PUSH1 0x20 SWAP5 MSTORE PUSH1 0x2 DUP5 MSTORE DUP3 DUP1 DUP3 KECCAK256 SLOAD SWAP2 PUSH1 0x3 DUP7 MSTORE KECCAK256 SLOAD SWAP1 PUSH2 0xBDB JUMP JUMPDEST SWAP1 MLOAD SWAP1 DUP2 MSTORE RETURN JUMPDEST SWAP1 POP CALLVALUE PUSH2 0x3CA JUMPI DUP3 PUSH1 0x3 NOT CALLDATASIZE ADD SLT PUSH2 0x3CA JUMPI PUSH2 0x884 PUSH2 0xDD9 JUMP JUMPDEST PUSH1 0x1 SLOAD SWAP1 PUSH1 0xFF DUP3 AND ISZERO PUSH2 0x8C6 JUMPI POP PUSH1 0xFF NOT AND PUSH1 0x1 SSTORE MLOAD CALLER DUP2 MSTORE PUSH32 0x5DB9EE0A495BF2E6FF9C91A7834C1BA4FDD244A5E8AA4E537BD38AEAE4B073AA SWAP1 PUSH1 0x20 SWAP1 LOG1 DUP1 RETURN JUMPDEST PUSH1 0x64 SWAP1 PUSH1 0x20 DUP5 MLOAD SWAP2 PUSH3 0x461BCD PUSH1 0xE5 SHL DUP4 MSTORE DUP3 ADD MSTORE PUSH1 0x14 PUSH1 0x24 DUP3 ADD MSTORE PUSH20 0x14185D5CD8589B194E881B9BDD081C185D5CD959 PUSH1 0x62 SHL PUSH1 0x44 DUP3 ADD MSTORE REVERT JUMPDEST SWAP1 POP CALLVALUE PUSH2 0x3CA JUMPI PUSH1 0x20 CALLDATASIZE PUSH1 0x3 NOT ADD SLT PUSH2 0x3CA JUMPI CALLDATALOAD PUSH1 0x1 PUSH1 0x1 PUSH1 0xA0 SHL SUB DUP2 AND SWAP1 DUP2 SWAP1 SUB PUSH2 0x3CA JUMPI DUP3 DUP3 SWAP2 PUSH1 0x20 SWAP5 MSTORE PUSH1 0x3 DUP5 MSTORE KECCAK256 SLOAD SWAP1 MLOAD SWAP1 DUP2 MSTORE RETURN JUMPDEST DUP4 SWAP2 POP CALLVALUE PUSH2 0x162 JUMPI PUSH1 0x20 SWAP3 DUP4 PUSH1 0x3 NOT CALLDATASIZE ADD SLT PUSH2 0x3CA JUMPI DUP2 CALLDATALOAD SWAP4 PUSH2 0x95B PUSH2 0xC6A JUMP JUMPDEST PUSH2 0x963 PUSH2 0xCC0 JUMP JUMPDEST DUP5 PUSH2 0x96F DUP2 ISZERO ISZERO PUSH2 0xB9A JUMP JUMPDEST CALLER DUP6 MSTORE PUSH1 0x2 DUP3 MSTORE DUP3 DUP6 KECCAK256 SLOAD ISZERO PUSH2 0xB63 JUMPI PUSH2 0x988 CALLER PUSH2 0xD04 JUMP JUMPDEST CALLER DUP6 MSTORE PUSH1 0x2 DUP3 MSTORE PUSH2 0x9A4 DUP4 DUP7 KECCAK256 SLOAD PUSH1 0x3 DUP5 MSTORE DUP5 DUP8 KECCAK256 SLOAD SWAP1 PUSH2 0xBDB JUMP JUMPDEST DUP1 SWAP2 GT PUSH2 0xB5B JUMPI JUMPDEST POP CALLER DUP5 MSTORE PUSH1 0x3 DUP2 MSTORE DUP2 DUP5 KECCAK256 SLOAD DUP1 DUP7 GT ISZERO PUSH2 0xB53 JUMPI SWAP1 JUMPDEST PUSH2 0x9CC DUP3 DUP8 PUSH2 0xBFE JUMP JUMPDEST SWAP4 CALLER DUP7 MSTORE PUSH1 0x3 DUP3 MSTORE DUP4 DUP7 KECCAK256 PUSH2 0x9E2 DUP5 DUP3 SLOAD PUSH2 0xBFE JUMP JUMPDEST SWAP1 SSTORE CALLER DUP7 MSTORE PUSH1 0x2 DUP3 MSTORE DUP4 DUP7 KECCAK256 PUSH2 0x9F9 DUP7 DUP3 SLOAD PUSH2 0xBFE JUMP JUMPDEST SWAP1 SSTORE PUSH2 0xA07 DUP6 PUSH1 0x5 SLOAD PUSH2 0xBFE JUMP JUMPDEST PUSH1 0x5 SSTORE PUSH2 0xA16 DUP4 PUSH1 0x6 SLOAD PUSH2 0xBDB JUMP JUMPDEST PUSH1 0x6 SSTORE CALLER DUP7 MSTORE PUSH1 0x2 DUP3 MSTORE DUP4 DUP7 KECCAK256 SLOAD PUSH32 0x0 PUSH1 0x1 PUSH1 0x1 PUSH1 0xA0 SHL SUB AND SWAP1 DUP2 EXTCODESIZE ISZERO PUSH2 0xB4F JUMPI DUP6 MLOAD PUSH4 0xE8E21605 PUSH1 0xE0 SHL DUP2 MSTORE CALLER DUP5 DUP3 ADD SWAP1 DUP2 MSTORE PUSH1 0x20 DUP2 ADD SWAP3 SWAP1 SWAP3 MSTORE SWAP2 DUP9 SWAP2 DUP4 SWAP2 SWAP1 DUP3 SWAP1 DUP5 SWAP1 DUP3 SWAP1 PUSH1 0x40 ADD SUB SWAP3 GAS CALL DUP1 ISZERO PUSH2 0xB45 JUMPI PUSH2 0xB32 JUMPI JUMPDEST POP DUP4 MLOAD SWAP7 PUSH4 0x23B872DD PUSH1 0xE0 SHL DUP4 DUP10 ADD MSTORE CALLER PUSH1 0x24 DUP10 ADD MSTORE ADDRESS PUSH1 0x44 DUP10 ADD MSTORE PUSH1 0x64 DUP9 ADD MSTORE PUSH1 0x64 DUP8 MSTORE PUSH1 0xA0 DUP8 ADD SWAP1 DUP8 DUP3 LT PUSH8 0xFFFFFFFFFFFFFFFF DUP4 GT OR PUSH2 0xB1D JUMPI POP PUSH32 0xB95876AB9ACE5646B4685D6B36BC4806A5F9A96BD381783FED703C8F3E6D292C SWAP5 SWAP6 SWAP7 PUSH2 0x315 SWAP2 DUP6 MSTORE PUSH32 0x0 PUSH2 0xE34 JUMP JUMPDEST PUSH1 0x41 SWAP1 PUSH4 0x4E487B71 PUSH1 0xE0 SHL PUSH1 0x0 MSTORE MSTORE PUSH1 0x24 PUSH1 0x0 REVERT JUMPDEST PUSH2 0xB3E SWAP1 SWAP7 SWAP2 SWAP7 PUSH2 0xC0B JUMP JUMPDEST SWAP5 DUP8 PUSH2 0xA8F JUMP JUMPDEST DUP6 MLOAD RETURNDATASIZE DUP10 DUP3 RETURNDATACOPY RETURNDATASIZE SWAP1 REVERT JUMPDEST DUP8 DUP1 REVERT JUMPDEST POP DUP5 SWAP1 PUSH2 0x9C2 JUMP JUMPDEST SWAP5 POP DUP6 PUSH2 0x9AC JUMP JUMPDEST POP SWAP1 MLOAD PUSH3 0x461BCD PUSH1 0xE5 SHL DUP2 MSTORE SWAP2 DUP3 ADD MSTORE PUSH1 0x12 PUSH1 0x24 DUP3 ADD MSTORE PUSH18 0x4E6F2063726564697420746F207265706179 PUSH1 0x70 SHL PUSH1 0x44 DUP3 ADD MSTORE PUSH1 0x64 SWAP1 REVERT JUMPDEST ISZERO PUSH2 0xBA1 JUMPI JUMP JUMPDEST PUSH1 0x40 MLOAD PUSH3 0x461BCD PUSH1 0xE5 SHL DUP2 MSTORE PUSH1 0x20 PUSH1 0x4 DUP3 ADD MSTORE PUSH1 0x12 PUSH1 0x24 DUP3 ADD MSTORE PUSH18 0x416D6F756E74206D757374206265203E203 PUSH1 0x74 SHL PUSH1 0x44 DUP3 ADD MSTORE PUSH1 0x64 SWAP1 REVERT JUMPDEST SWAP2 SWAP1 DUP3 ADD DUP1 SWAP3 GT PUSH2 0xBE8 JUMPI JUMP JUMPDEST PUSH4 0x4E487B71 PUSH1 0xE0 SHL PUSH1 0x0 MSTORE PUSH1 0x11 PUSH1 0x4 MSTORE PUSH1 0x24 PUSH1 0x0 REVERT JUMPDEST SWAP2 SWAP1 DUP3 SUB SWAP2 DUP3 GT PUSH2 0xBE8 JUMPI JUMP JUMPDEST PUSH8 0xFFFFFFFFFFFFFFFF DUP2 GT PUSH2 0xC1F JUMPI PUSH1 0x40 MSTORE JUMP JUMPDEST PUSH4 0x4E487B71 PUSH1 0xE0 SHL PUSH1 0x0 MSTORE PUSH1 0x41 PUSH1 0x4 MSTORE PUSH1 0x24 PUSH1 0x0 REVERT JUMPDEST SWAP1 PUSH1 0x1F DUP1 NOT SWAP2 ADD AND DUP2 ADD SWAP1 DUP2 LT PUSH8 0xFFFFFFFFFFFFFFFF DUP3 GT OR PUSH2 0xC1F JUMPI PUSH1 0x40 MSTORE JUMP JUMPDEST DUP2 DUP2 MUL SWAP3 SWAP2 DUP2 ISZERO SWAP2 DUP5 DIV EQ OR ISZERO PUSH2 0xBE8 JUMPI JUMP JUMPDEST PUSH1 0x2 PUSH1 0x0 SLOAD EQ PUSH2 0xC7B JUMPI PUSH1 0x2 PUSH1 0x0 SSTORE JUMP JUMPDEST PUSH1 0x40 MLOAD PUSH3 0x461BCD PUSH1 0xE5 SHL DUP2 MSTORE PUSH1 0x20 PUSH1 0x4 DUP3 ADD MSTORE PUSH1 0x1F PUSH1 0x24 DUP3 ADD MSTORE PUSH32 0x5265656E7472616E637947756172643A207265656E7472616E742063616C6C00 PUSH1 0x44 DUP3 ADD MSTORE PUSH1 0x64 SWAP1 REVERT JUMPDEST PUSH1 0xFF PUSH1 0x1 SLOAD AND PUSH2 0xCCC JUMPI JUMP JUMPDEST PUSH1 0x40 MLOAD PUSH3 0x461BCD PUSH1 0xE5 SHL DUP2 MSTORE PUSH1 0x20 PUSH1 0x4 DUP3 ADD MSTORE PUSH1 0x10 PUSH1 0x24 DUP3 ADD MSTORE PUSH16 0x14185D5CD8589B194E881C185D5CD959 PUSH1 0x82 SHL PUSH1 0x44 DUP3 ADD MSTORE PUSH1 0x64 SWAP1 REVERT JUMPDEST PUSH1 0x1 PUSH1 0x1 PUSH1 0xA0 SHL SUB AND PUSH1 0x0 DUP2 DUP2 MSTORE PUSH1 0x4 PUSH1 0x20 SWAP1 DUP2 MSTORE PUSH1 0x40 DUP1 DUP4 KECCAK256 DUP1 SLOAD SWAP2 SWAP4 SWAP2 SWAP1 DUP2 ISZERO PUSH2 0xDCF JUMPI POP PUSH2 0xD35 SWAP1 TIMESTAMP PUSH2 0xBFE JUMP JUMPDEST SWAP3 DUP4 ISZERO DUP1 ISZERO PUSH2 0xDBD JUMPI JUMPDEST PUSH2 0xDB6 JUMPI PUSH5 0x496CEBB800 PUSH2 0xD8A PUSH32 0x5E804D42AE3B860F881D11CB44A4BB1F2F0D5B3D081F5539A32D6F97B629D978 SWAP6 DUP8 DUP6 MSTORE PUSH1 0x2 DUP7 MSTORE PUSH2 0xD85 DUP5 DUP7 KECCAK256 SLOAD PUSH1 0x7 SLOAD SWAP1 PUSH2 0xC57 JUMP JUMPDEST PUSH2 0xC57 JUMP JUMPDEST DIV SWAP2 DUP6 DUP2 MSTORE PUSH1 0x3 DUP5 MSTORE DUP2 DUP2 KECCAK256 PUSH2 0xDA1 DUP5 DUP3 SLOAD PUSH2 0xBDB JUMP JUMPDEST SWAP1 SSTORE DUP6 DUP2 MSTORE PUSH1 0x4 DUP5 MSTORE DUP2 TIMESTAMP SWAP2 KECCAK256 SSTORE MLOAD SWAP1 DUP2 MSTORE LOG2 JUMP JUMPDEST POP POP POP POP POP JUMP JUMPDEST POP DUP5 DUP3 MSTORE PUSH1 0x2 DUP4 MSTORE DUP1 DUP3 KECCAK256 SLOAD ISZERO PUSH2 0xD3F JUMP JUMPDEST TIMESTAMP SWAP1 SSTORE POP POP POP POP POP JUMP JUMPDEST PUSH1 0x1 SLOAD PUSH1 0x8 SHR PUSH1 0x1 PUSH1 0x1 PUSH1 0xA0 SHL SUB AND CALLER SUB PUSH2 0xDF0 JUMPI JUMP JUMPDEST PUSH1 0x64 PUSH1 0x40 MLOAD PUSH3 0x461BCD PUSH1 0xE5 SHL DUP2 MSTORE PUSH1 0x20 PUSH1 0x4 DUP3 ADD MSTORE PUSH1 0x20 PUSH1 0x24 DUP3 ADD MSTORE PUSH32 0x4F776E61626C653A2063616C6C6572206973206E6F7420746865206F776E6572 PUSH1 0x44 DUP3 ADD MSTORE REVERT JUMPDEST PUSH1 0x1 DUP1 PUSH1 0xA0 SHL SUB AND SWAP1 PUSH1 0x40 MLOAD PUSH1 0x40 DUP2 ADD PUSH8 0xFFFFFFFFFFFFFFFF SWAP1 DUP3 DUP2 LT DUP3 DUP3 GT OR PUSH2 0xC1F JUMPI PUSH1 0x40 MSTORE PUSH1 0x20 SWAP4 DUP5 DUP4 MSTORE PUSH32 0x5361666545524332303A206C6F772D6C6576656C2063616C6C206661696C6564 DUP6 DUP5 ADD MSTORE PUSH1 0x0 DUP1 DUP6 DUP8 DUP3 SWAP8 MLOAD SWAP2 ADD DUP3 DUP6 GAS CALL SWAP1 RETURNDATASIZE ISZERO PUSH2 0xF79 JUMPI RETURNDATASIZE SWAP3 DUP4 GT PUSH2 0xF65 JUMPI SWAP1 PUSH2 0xECF SWAP4 SWAP3 SWAP2 PUSH1 0x40 MLOAD SWAP3 PUSH2 0xEC2 DUP9 PUSH1 0x1F NOT PUSH1 0x1F DUP5 ADD AND ADD DUP6 PUSH2 0xC35 JUMP JUMPDEST DUP4 MSTORE RETURNDATASIZE DUP7 DUP9 DUP6 ADD RETURNDATACOPY PUSH2 0xF84 JUMP JUMPDEST DUP1 MLOAD SWAP2 DUP3 ISZERO SWAP2 DUP5 DUP4 ISZERO PUSH2 0xF41 JUMPI JUMPDEST POP POP POP SWAP1 POP ISZERO PUSH2 0xEEA JUMPI POP JUMP JUMPDEST PUSH1 0x84 SWAP1 PUSH1 0x40 MLOAD SWAP1 PUSH3 0x461BCD PUSH1 0xE5 SHL DUP3 MSTORE PUSH1 0x4 DUP3 ADD MSTORE PUSH1 0x2A PUSH1 0x24 DUP3 ADD MSTORE PUSH32 0x5361666545524332303A204552433230206F7065726174696F6E20646964206E PUSH1 0x44 DUP3 ADD MSTORE PUSH10 0x1BDD081CDD58D8D95959 PUSH1 0xB2 SHL PUSH1 0x64 DUP3 ADD MSTORE REVERT JUMPDEST SWAP2 SWAP4 DUP2 DUP1 SWAP5 POP ADD SUB SLT PUSH2 0x162 JUMPI DUP3 ADD MLOAD SWAP1 DUP2 ISZERO ISZERO DUP3 SUB PUSH2 0x79E JUMPI POP DUP1 CODESIZE DUP1 DUP5 PUSH2 0xEDD JUMP JUMPDEST PUSH4 0x4E487B71 PUSH1 0xE0 SHL DUP6 MSTORE PUSH1 0x41 PUSH1 0x4 MSTORE PUSH1 0x24 DUP6 REVERT JUMPDEST SWAP1 PUSH2 0xECF SWAP4 SWAP3 POP PUSH1 0x60 SWAP2 JUMPDEST SWAP2 SWAP3 SWAP1 ISZERO PUSH2 0xFE6 JUMPI POP DUP2 MLOAD ISZERO PUSH2 0xF98 JUMPI POP SWAP1 JUMP JUMPDEST EXTCODESIZE ISZERO PUSH2 0xFA1 JUMPI SWAP1 JUMP JUMPDEST PUSH1 0x40 MLOAD PUSH3 0x461BCD PUSH1 0xE5 SHL DUP2 MSTORE PUSH1 0x20 PUSH1 0x4 DUP3 ADD MSTORE PUSH1 0x1D PUSH1 0x24 DUP3 ADD MSTORE PUSH32 0x416464726573733A2063616C6C20746F206E6F6E2D636F6E7472616374000000 PUSH1 0x44 DUP3 ADD MSTORE PUSH1 0x64 SWAP1 REVERT JUMPDEST DUP3 MLOAD SWAP1 SWAP2 POP ISZERO PUSH2 0xFF9 JUMPI POP DUP1 MLOAD SWAP1 PUSH1 0x20 ADD REVERT JUMPDEST PUSH1 0x40 MLOAD SWAP1 PUSH3 0x461BCD PUSH1 0xE5 SHL DUP3 MSTORE DUP2 PUSH1 0x20 DUP1 PUSH1 0x4 DUP4 ADD MSTORE DUP3 MLOAD SWAP1 DUP2 PUSH1 0x24 DUP5 ADD MSTORE PUSH1 0x0 SWAP4 JUMPDEST DUP3 DUP6 LT PUSH2 0x103F JUMPI POP POP PUSH1 0x44 SWAP3 POP PUSH1 0x0 DUP4 DUP3 DUP5 ADD ADD MSTORE PUSH1 0x1F DUP1 NOT SWAP2 ADD AND DUP2 ADD SUB ADD SWAP1 REVERT JUMPDEST DUP5 DUP2 ADD DUP3 ADD MLOAD DUP7 DUP7 ADD PUSH1 0x44 ADD MSTORE SWAP4 DUP2 ADD SWAP4 DUP6 SWAP4 POP PUSH2 0x101C JUMP INVALID LOG2 PUSH5 0x6970667358 0x22 SLT KECCAK256 0xE0 PUSH25 0x20D372A3484CE66338299A1FBF7998AFDBEBA6E359DED90DBE SDIV 0x28 0x23 LOG1 0xB4 PUSH5 0x736F6C6343 STOP ADDMOD XOR STOP CALLER "},"methodIdentifiers":{"RATE_DENOMINATOR()":"7efad8e0","SECONDS_PER_YEAR()":"e6a69ab8","creditIssued(address)":"4f3f1958","getTotalDebt(address)":"4d44ac4f","interestAccrued(address)":"3abb7a49","interestRate()":"7c3a00fd","issueCredit(uint256)":"f7548483","lastUpdate(address)":"cb03fb1e","originationFee()":"b8bb5c42","owner()":"8da5cb5b","pause()":"8456cb59","paused()":"5c975abb","renounceOwnership()":"715018a6","repayCredit(uint256)":"05713ae5","totalCreditIssued()":"b5aca570","totalInterestCollected()":"6f783313","transferOwnership(address)":"f2fde38b","unpause()":"3f4ba83a","updateInterest(address)":"7b3c5da7","updateRates(uint256,uint256)":"f1469382","usdt0()":"a9d3c87f","usdy()":"98d506e9","vault()":"fbfa77cf"}}}}}