{"contracts/ComplianceModule.sol":{"ComplianceModule":{"abi":[{"inputs":[],"stateMutability":"nonpayable","type":"constructor"},{"anonymous":false,"inputs":[{"indexed":true,"internalType":"address","name":"previousOwner","type":"address"},{"indexed":true,"internalType":"address","name":"newOwner","type":"address"}],"name":"OwnershipTransferred","type":"event"},{"anonymous":false,"inputs":[{"indexed":false,"internalType":"address","name":"account","type":"address"}],"name":"Paused","type":"event"},{"anonymous":false,"inputs":[{"indexed":false,"internalType":"address","name":"account","type":"address"}],"name":"Unpaused","type":"event"},{"anonymous":false,"inputs":[{"indexed":true,"internalType":"address","name":"user","type":"address"}],"name":"UserRemoved","type":"event"},{"anonymous":false,"inputs":[{"indexed":true,"internalType":"address","name":"user","type":"address"},{"indexed":false,"internalType":"string","name":"tier","type":"string"}],"name":"UserWhitelisted","type":"event"},{"anonymous":false,"inputs":[{"indexed":true,"internalType":"address","name":"user","type":"address"},{"indexed":false,"internalType":"bytes32","name":"proofHash","type":"bytes32"}],"name":"ZKProofSubmitted","type":"event"},{"inputs":[{"internalType":"address","name":"user","type":"address"},{"internalType":"string","name":"tier","type":"string"}],"name":"addToWhitelist","outputs":[],"stateMutability":"nonpayable","type":"function"},{"inputs":[{"internalType":"bytes32","name":"proofHash","type":"bytes32"}],"name":"addValidProofHash","outputs":[],"stateMutability":"nonpayable","type":"function"},{"inputs":[{"internalType":"address[]","name":"users","type":"address[]"},{"internalType":"string","name":"tier","type":"string"}],"name":"batchAddToWhitelist","outputs":[],"stateMutability":"nonpayable","type":"function"},{"inputs":[{"internalType":"address","name":"user","type":"address"}],"name":"getUserKYCInfo","outputs":[{"internalType":"bool","name":"whitelisted","type":"bool"},{"internalType":"string","name":"tier","type":"string"},{"internalType":"uint256","name":"timestamp","type":"uint256"},{"internalType":"uint256","name":"expiresAt","type":"uint256"}],"stateMutability":"view","type":"function"},{"inputs":[{"internalType":"address","name":"user","type":"address"}],"name":"hasValidKYC","outputs":[{"internalType":"bool","name":"","type":"bool"}],"stateMutability":"view","type":"function"},{"inputs":[{"internalType":"address","name":"","type":"address"}],"name":"isWhitelisted","outputs":[{"internalType":"bool","name":"","type":"bool"}],"stateMutability":"view","type":"function"},{"inputs":[],"name":"kycExpiryDuration","outputs":[{"internalType":"uint256","name":"","type":"uint256"}],"stateMutability":"view","type":"function"},{"inputs":[{"internalType":"address","name":"","type":"address"}],"name":"kycTier","outputs":[{"internalType":"string","name":"","type":"string"}],"stateMutability":"view","type":"function"},{"inputs":[{"internalType":"address","name":"","type":"address"}],"name":"kycTimestamp","outputs":[{"internalType":"uint256","name":"","type":"uint256"}],"stateMutability":"view","type":"function"},{"inputs":[{"internalType":"address","name":"user","type":"address"},{"internalType":"string","name":"requiredTier","type":"string"}],"name":"meetsKYCTier","outputs":[{"internalType":"bool","name":"","type":"bool"}],"stateMutability":"view","type":"function"},{"inputs":[],"name":"owner","outputs":[{"internalType":"address","name":"","type":"address"}],"stateMutability":"view","type":"function"},{"inputs":[],"name":"pause","outputs":[],"stateMutability":"nonpayable","type":"function"},{"inputs":[],"name":"paused","outputs":[{"internalType":"bool","name":"","type":"bool"}],"stateMutability":"view","type":"function"},{"inputs":[{"internalType":"address","name":"user","type":"address"}],"name":"removeFromWhitelist","outputs":[],"stateMutability":"nonpayable","type":"function"},{"inputs":[],"name":"renounceOwnership","outputs":[],"stateMutability":"nonpayable","type":"function"},{"inputs":[],"name":"requireZKProof","outputs":[{"internalType":"bool","name":"","type":"bool"}],"stateMutability":"view","type":"function"},{"inputs":[{"internalType":"uint256","name":"duration","type":"uint256"}],"name":"setKYCExpiryDuration","outputs":[],"stateMutability":"nonpayable","type":"function"},{"inputs":[{"internalType":"bool","name":"required","type":"bool"}],"name":"setZKProofRequirement","outputs":[],"stateMutability":"nonpayable","type":"function"},{"inputs":[{"internalType":"bytes","name":"zkProof","type":"bytes"}],"name":"submitZKProof","outputs":[{"internalType":"bool","name":"","type":"bool"}],"stateMutability":"nonpayable","type":"function"},{"inputs":[{"internalType":"address","name":"newOwner","type":"address"}],"name":"transferOwnership","outputs":[],"stateMutability":"nonpayable","type":"function"},{"inputs":[],"name":"unpause","outputs":[],"stateMutability":"nonpayable","type":"function"},{"inputs":[{"internalType":"bytes32","name":"","type":"bytes32"}],"name":"validProofHashes","outputs":[{"internalType":"bool","name":"","type":"bool"}],"stateMutability":"view","type":"function"},{"inputs":[{"internalType":"address","name":"user","type":"address"},{"internalType":"bytes","name":"zkProof","type":"bytes"}],"name":"verifyKYC","outputs":[{"internalType":"bool","name":"","type":"bool"}],"stateMutability":"view","type":"function"}],"evm":{"bytecode":{"linkReferences":{},"object":"60808060405234610070576000543360018060a01b0382167f8be0079c531659141344cd1fd0a4f28419497f9722a3daafe3b4186f6b6457e0600080a36001600160a81b0319163360ff60a01b1916176000556005805460ff191690556301e133806006556112a890816100768239f35b600080fdfe6040608081526004908136101561001557600080fd5b600091823560e01c80622e21a714610cbc5780631a533daa14610af65780631cad695414610abe57806334bf39d614610a9a5780633af32abf14610a5c5780633f4ba83a146109c35780633f6462b8146109a45780635c975abb1461097f57806366d6d4d21461089c578063674c87e81461081557806368272ecc146107de578063715018a61461078457806371f8f4e71461070957806380d2b847146106ed5780638456cb591461068e5780638ab1d681146105c45780638da5cb5b1461059c578063ac970e2d1461054c578063aff353e8146102a8578063b6c69e381461023e578063c150cf041461020d578063c442e205146101e25763f2fde38b1461011d57600080fd5b346101de5760203660031901126101de57610136610d0e565b9061013f6111d3565b6001600160a01b0391821692831561018c57505082546001600160a01b0319811683178455167f8be0079c531659141344cd1fd0a4f28419497f9722a3daafe3b4186f6b6457e08380a380f35b906020608492519162461bcd60e51b8352820152602660248201527f4f776e61626c653a206e6577206f776e657220697320746865207a65726f206160448201526564647265737360d01b6064820152fd5b8280fd5b50346101de5760203660031901126101de57816020938260ff93358252855220541690519015158152f35b50346101de5760203660031901126101de576102276111d3565b803583526020528120805460ff1916600117905580f35b5050346102a45760203660031901126102a457602091906001600160a01b03610265610d0e565b1682526001835260ff81832054169182610283575b50519015158152f35b8192509061029a9160038552205460065490610f86565b421115903861027a565b5080fd5b5090346101de57806003193601126101de5781359267ffffffffffffffff9081851161054957366023860112156105495784840135602491838211610536576005958260051b976020988751946103018b830187610d95565b855260248a8601918301019136831161053257602401905b82821061050f575050506024358581116101de5761033a9036908301610ee3565b946103436111d3565b825b845181101561050b576001600160a01b038061036183886111a9565b511685526001808c52898620805460ff1916821790558161038284896111a9565b5116865260028c52898620908951908582116104f9579082918e6103a98f97969554610d29565b96601f978881116104c3575b505080968311600114610457575050806103e7916001968a9161044c575b508160011b916000199060031b1c19161790565b90555b806103f583896111a9565b5116865260038c52428a87205561040c82886111a9565b51167f7bbcc406088422f0dc6c8e376b2eef6bd61cb55fb34224a12af7fe2d897e383c6104438d8c5191818392835282018d610e5c565b0390a201610345565b90508c0151386103d3565b9092939495601f198316858b528d838c20938c915b8383106104ac57505050908360019897969594939210610493575b5050811b0190556103ea565b8d015160001960f88460031b161c191690553880610487565b84015185559386019392830192908101908f61046c565b6104e991868d52838d20908a808801821c8301938689106104f0575b01901c0190610f6f565b8e386103b5565b935082936104df565b634e487b7160e01b8852604187528988fd5b8380f35b81356001600160a01b038116810361052e578152908a01908a01610319565b8580fd5b8480fd5b634e487b7160e01b815260418652602490fd5b80fd5b50346101de57816003193601126101de57610565610d0e565b926024359067ffffffffffffffff821161054957509261058d61059392602095369101610f41565b91611115565b90519015158152f35b5050346102a457816003193601126102a457905490516001600160a01b039091168152602090f35b5050346102a45760203660031901126102a457816105e0610d0e565b6105e86111d3565b60018060a01b031691828252600160205280822060ff1981541690556002602052818181206106178154610d29565b80610651575b505083905260036020528120557fe9dce8c992623ce791725b21e857e33248d1f190a25b5168313420eebdaae99d8280a280f35b82601f8211600114610669575050555b81388061061d565b9091808252610687601f60208420940160051c840160018501610f6f565b5555610661565b5050346102a457816003193601126102a45760207f62e78cea01bee320cd4e420270b5ea74000d11b0c9f74754ebdbfc544b05a258916106cc6111d3565b6106d461122b565b835460ff60a01b1916600160a01b17845551338152a180f35b5050346102a45760209061059361070336610f01565b90610ff8565b50346101de5760203660031901126101de578035916107266111d3565b62278d0083101580610776575b1561074057505060065580f35b906020606492519162461bcd60e51b8352820152601060248201526f24b73b30b634b210323ab930ba34b7b760811b6044820152fd5b506305a39a80831115610733565b833461054957806003193601126105495761079d6111d3565b80546001600160a01b03198116825581906001600160a01b03167f8be0079c531659141344cd1fd0a4f28419497f9722a3daafe3b4186f6b6457e08280a380f35b8382346102a45760203660031901126102a457358015158091036102a4576108046111d3565b60ff80196005541691161760055580f35b828434610549576020366003190112610549576001600160a01b03610838610d0e565b169182825260016020528060ff818420541692600260205261085b828220610db7565b9481526003602052205461087160065482610f86565b9061088f835195869515158652608060208701526080860190610e5c565b9284015260608301520390f35b5090346101de576020928360031936011261054957823567ffffffffffffffff81116102a4576108cf9036908501610f41565b91906108d961122b565b821561094c5790856108ee8593853691610e9c565b8181519101209310159485610908575b5050505051908152f35b838252865220600160ff1982541617905581519081527f9a7c779d96184c9ea44434a43c52dff1ba8973f4294d19cc22c3906c41858f7f843392a2388181806108fe565b835162461bcd60e51b8152808601879052600d60248201526c24b73b30b634b210383937b7b360991b6044820152606490fd5b5050346102a457816003193601126102a45760ff6020925460a01c1690519015158152f35b5050346102a457816003193601126102a4576020906006549051908152f35b50346101de57826003193601126101de576109dc6111d3565b82549060ff8260a01c1615610a22575060ff60a01b19168255513381527f5db9ee0a495bf2e6ff9c91a7834c1ba4fdd244a5e8aa4e537bd38aeae4b073aa90602090a180f35b606490602084519162461bcd60e51b8352820152601460248201527314185d5cd8589b194e881b9bdd081c185d5cd95960621b6044820152fd5b5050346102a45760203660031901126102a45760209160ff9082906001600160a01b03610a87610d0e565b1681526001855220541690519015158152f35b5050346102a457816003193601126102a45760209060ff6005541690519015158152f35b5050346102a45760203660031901126102a45760209181906001600160a01b03610ae6610d0e565b1681526003845220549051908152f35b50346101de57610b0536610f01565b9190610b0f6111d3565b60018060a01b031692838552600160209260018452828720600160ff19825416179055600284528287209185519167ffffffffffffffff8311610ca95750610b578354610d29565b601f8111610c70575b508490601f8311600114610be6575091610bb7827f7bbcc406088422f0dc6c8e376b2eef6bd61cb55fb34224a12af7fe2d897e383c97969593610bd5958b91610bdb57508160011b916000199060031b1c19161790565b90555b85875260038352428188205551928284938452830190610e5c565b0390a280f35b9050870151386103d3565b90601f198316848a52868a20928a905b828210610c5957505092610bd59492600192827f7bbcc406088422f0dc6c8e376b2eef6bd61cb55fb34224a12af7fe2d897e383c9a99989610610c40575b5050811b019055610bba565b88015160001960f88460031b161c191690553880610c34565b898401518555938401939288019290880190610bf6565b610c9990848a52868a20601f850160051c810191888610610c9f575b601f0160051c0190610f6f565b38610b60565b9091508190610c8c565b634e487b7160e01b895260419052602488fd5b5050346102a45760203660031901126102a457610d0a91610cf79082906001600160a01b03610ce9610d0e565b168152600260205220610db7565b9051918291602083526020830190610e5c565b0390f35b600435906001600160a01b0382168203610d2457565b600080fd5b90600182811c92168015610d59575b6020831014610d4357565b634e487b7160e01b600052602260045260246000fd5b91607f1691610d38565b6040810190811067ffffffffffffffff821117610d7f57604052565b634e487b7160e01b600052604160045260246000fd5b90601f8019910116810190811067ffffffffffffffff821117610d7f57604052565b90604051918260008254610dca81610d29565b90818452602094600191600181169081600014610e3a5750600114610dfb575b505050610df992500383610d95565b565b600090815285812095935091905b818310610e22575050610df99350820101388080610dea565b85548884018501529485019487945091830191610e09565b92505050610df994925060ff191682840152151560051b820101388080610dea565b919082519283825260005b848110610e88575050826000602080949584010152601f8019910116010190565b602081830181015184830182015201610e67565b92919267ffffffffffffffff8211610d7f5760405191610ec6601f8201601f191660200184610d95565b829481845281830111610d24578281602093846000960137010152565b9080601f83011215610d2457816020610efe93359101610e9c565b90565b906040600319830112610d24576004356001600160a01b0381168103610d2457916024359067ffffffffffffffff8211610d2457610efe91600401610ee3565b9181601f84011215610d245782359167ffffffffffffffff8311610d245760208381860195010111610d2457565b818110610f7a575050565b60008155600101610f6f565b91908201809211610f9357565b634e487b7160e01b600052601160045260246000fd5b60405190610fb682610d63565b600a8252691858d8dc99591a5d195960b21b6020830152565b60405190610fdc82610d63565b600d82526c1a5b9cdd1a5d1d5d1a5bdb985b609a1b6020830152565b60018060a01b03166000526020906001825260ff604060002054161561110e57600282526110296040600020610db7565b908051907fa5d86f0953c385ec886a62429aa968eb4ecb555f168f43ef1e9b73593b04825f848201928320651c995d185a5b60d21b8660405161106b81610d63565b6006815201520361107f5750505050600190565b8051822061108b610fa9565b805190860120036110d95750509081518183019081206110a9610fa9565b838151910120149283156110be575b50505090565b51902091506110cb610fcf565b8051910120143880806110b8565b5190206110e4610fcf565b838151910120146110f6575050600090565b81815191012090611105610fcf565b80519101201490565b5050600090565b6001600160a01b03166000908152600160205260408120549092919060ff16156111a457600360205261114f604084205460065490610f86565b42116111a45760ff600554168061119b575b61116e575b505050600190565b611179913691610e9c565b602081519101208152600460205260ff60408220541615610efe578080611166565b50811515611161565b505090565b80518210156111bd5760209160051b010190565b634e487b7160e01b600052603260045260246000fd5b6000546001600160a01b031633036111e757565b606460405162461bcd60e51b815260206004820152602060248201527f4f776e61626c653a2063616c6c6572206973206e6f7420746865206f776e65726044820152fd5b60ff60005460a01c1661123a57565b60405162461bcd60e51b815260206004820152601060248201526f14185d5cd8589b194e881c185d5cd95960821b6044820152606490fdfea2646970667358221220148af8ca8e0c6809e4553d43b0c7610d0ea12013e18730ffcf474015a3775ba064736f6c63430008180033","opcodes":"PUSH1 0x80 DUP1 PUSH1 0x40 MSTORE CALLVALUE PUSH2 0x70 JUMPI PUSH1 0x0 SLOAD CALLER PUSH1 0x1 DUP1 PUSH1 0xA0 SHL SUB DUP3 AND PUSH32 0x8BE0079C531659141344CD1FD0A4F28419497F9722A3DAAFE3B4186F6B6457E0 PUSH1 0x0 DUP1 LOG3 PUSH1 0x1 PUSH1 0x1 PUSH1 0xA8 SHL SUB NOT AND CALLER PUSH1 0xFF PUSH1 0xA0 SHL NOT AND OR PUSH1 0x0 SSTORE PUSH1 0x5 DUP1 SLOAD PUSH1 0xFF NOT AND SWAP1 SSTORE PUSH4 0x1E13380 PUSH1 0x6 SSTORE PUSH2 0x12A8 SWAP1 DUP2 PUSH2 0x76 DUP3 CODECOPY RETURN JUMPDEST PUSH1 0x0 DUP1 REVERT INVALID PUSH1 0x40 PUSH1 0x80 DUP2 MSTORE PUSH1 0x4 SWAP1 DUP2 CALLDATASIZE LT ISZERO PUSH2 0x15 JUMPI PUSH1 0x0 DUP1 REVERT JUMPDEST PUSH1 0x0 SWAP2 DUP3 CALLDATALOAD PUSH1 0xE0 SHR DUP1 PUSH3 0x2E21A7 EQ PUSH2 0xCBC JUMPI DUP1 PUSH4 0x1A533DAA EQ PUSH2 0xAF6 JUMPI DUP1 PUSH4 0x1CAD6954 EQ PUSH2 0xABE JUMPI DUP1 PUSH4 0x34BF39D6 EQ PUSH2 0xA9A JUMPI DUP1 PUSH4 0x3AF32ABF EQ PUSH2 0xA5C JUMPI DUP1 PUSH4 0x3F4BA83A EQ PUSH2 0x9C3 JUMPI DUP1 PUSH4 0x3F6462B8 EQ PUSH2 0x9A4 JUMPI DUP1 PUSH4 0x5C975ABB EQ PUSH2 0x97F JUMPI DUP1 PUSH4 0x66D6D4D2 EQ PUSH2 0x89C JUMPI DUP1 PUSH4 0x674C87E8 EQ PUSH2 0x815 JUMPI DUP1 PUSH4 0x68272ECC EQ PUSH2 0x7DE JUMPI DUP1 PUSH4 0x715018A6 EQ PUSH2 0x784 JUMPI DUP1 PUSH4 0x71F8F4E7 EQ PUSH2 0x709 JUMPI DUP1 PUSH4 0x80D2B847 EQ PUSH2 0x6ED JUMPI DUP1 PUSH4 0x8456CB59 EQ PUSH2 0x68E JUMPI DUP1 PUSH4 0x8AB1D681 EQ PUSH2 0x5C4 JUMPI DUP1 PUSH4 0x8DA5CB5B EQ PUSH2 0x59C JUMPI DUP1 PUSH4 0xAC970E2D EQ PUSH2 0x54C JUMPI DUP1 PUSH4 0xAFF353E8 EQ PUSH2 0x2A8 JUMPI DUP1 PUSH4 0xB6C69E38 EQ PUSH2 0x23E JUMPI DUP1 PUSH4 0xC150CF04 EQ PUSH2 0x20D JUMPI DUP1 PUSH4 0xC442E205 EQ PUSH2 0x1E2 JUMPI PUSH4 0xF2FDE38B EQ PUSH2 0x11D JUMPI PUSH1 0x0 DUP1 REVERT JUMPDEST CALLVALUE PUSH2 0x1DE JUMPI PUSH1 0x20 CALLDATASIZE PUSH1 0x3 NOT ADD SLT PUSH2 0x1DE JUMPI PUSH2 0x136 PUSH2 0xD0E JUMP JUMPDEST SWAP1 PUSH2 0x13F PUSH2 0x11D3 JUMP JUMPDEST PUSH1 0x1 PUSH1 0x1 PUSH1 0xA0 SHL SUB SWAP2 DUP3 AND SWAP3 DUP4 ISZERO PUSH2 0x18C JUMPI POP POP DUP3 SLOAD PUSH1 0x1 PUSH1 0x1 PUSH1 0xA0 SHL SUB NOT DUP2 AND DUP4 OR DUP5 SSTORE AND PUSH32 0x8BE0079C531659141344CD1FD0A4F28419497F9722A3DAAFE3B4186F6B6457E0 DUP4 DUP1 LOG3 DUP1 RETURN JUMPDEST SWAP1 PUSH1 0x20 PUSH1 0x84 SWAP3 MLOAD SWAP2 PUSH3 0x461BCD PUSH1 0xE5 SHL DUP4 MSTORE DUP3 ADD MSTORE PUSH1 0x26 PUSH1 0x24 DUP3 ADD MSTORE PUSH32 0x4F776E61626C653A206E6577206F776E657220697320746865207A65726F2061 PUSH1 0x44 DUP3 ADD MSTORE PUSH6 0x646472657373 PUSH1 0xD0 SHL PUSH1 0x64 DUP3 ADD MSTORE REVERT JUMPDEST DUP3 DUP1 REVERT JUMPDEST POP CALLVALUE PUSH2 0x1DE JUMPI PUSH1 0x20 CALLDATASIZE PUSH1 0x3 NOT ADD SLT PUSH2 0x1DE JUMPI DUP2 PUSH1 0x20 SWAP4 DUP3 PUSH1 0xFF SWAP4 CALLDATALOAD DUP3 MSTORE DUP6 MSTORE KECCAK256 SLOAD AND SWAP1 MLOAD SWAP1 ISZERO ISZERO DUP2 MSTORE RETURN JUMPDEST POP CALLVALUE PUSH2 0x1DE JUMPI PUSH1 0x20 CALLDATASIZE PUSH1 0x3 NOT ADD SLT PUSH2 0x1DE JUMPI PUSH2 0x227 PUSH2 0x11D3 JUMP JUMPDEST DUP1 CALLDATALOAD DUP4 MSTORE PUSH1 0x20 MSTORE DUP2 KECCAK256 DUP1 SLOAD PUSH1 0xFF NOT AND PUSH1 0x1 OR SWAP1 SSTORE DUP1 RETURN JUMPDEST POP POP CALLVALUE PUSH2 0x2A4 JUMPI PUSH1 0x20 CALLDATASIZE PUSH1 0x3 NOT ADD SLT PUSH2 0x2A4 JUMPI PUSH1 0x20 SWAP2 SWAP1 PUSH1 0x1 PUSH1 0x1 PUSH1 0xA0 SHL SUB PUSH2 0x265 PUSH2 0xD0E JUMP JUMPDEST AND DUP3 MSTORE PUSH1 0x1 DUP4 MSTORE PUSH1 0xFF DUP2 DUP4 KECCAK256 SLOAD AND SWAP2 DUP3 PUSH2 0x283 JUMPI JUMPDEST POP MLOAD SWAP1 ISZERO ISZERO DUP2 MSTORE RETURN JUMPDEST DUP2 SWAP3 POP SWAP1 PUSH2 0x29A SWAP2 PUSH1 0x3 DUP6 MSTORE KECCAK256 SLOAD PUSH1 0x6 SLOAD SWAP1 PUSH2 0xF86 JUMP JUMPDEST TIMESTAMP GT ISZERO SWAP1 CODESIZE PUSH2 0x27A JUMP JUMPDEST POP DUP1 REVERT JUMPDEST POP SWAP1 CALLVALUE PUSH2 0x1DE JUMPI DUP1 PUSH1 0x3 NOT CALLDATASIZE ADD SLT PUSH2 0x1DE JUMPI DUP2 CALLDATALOAD SWAP3 PUSH8 0xFFFFFFFFFFFFFFFF SWAP1 DUP2 DUP6 GT PUSH2 0x549 JUMPI CALLDATASIZE PUSH1 0x23 DUP7 ADD SLT ISZERO PUSH2 0x549 JUMPI DUP5 DUP5 ADD CALLDATALOAD PUSH1 0x24 SWAP2 DUP4 DUP3 GT PUSH2 0x536 JUMPI PUSH1 0x5 SWAP6 DUP3 PUSH1 0x5 SHL SWAP8 PUSH1 0x20 SWAP9 DUP8 MLOAD SWAP5 PUSH2 0x301 DUP12 DUP4 ADD DUP8 PUSH2 0xD95 JUMP JUMPDEST DUP6 MSTORE PUSH1 0x24 DUP11 DUP7 ADD SWAP2 DUP4 ADD ADD SWAP2 CALLDATASIZE DUP4 GT PUSH2 0x532 JUMPI PUSH1 0x24 ADD SWAP1 JUMPDEST DUP3 DUP3 LT PUSH2 0x50F JUMPI POP POP POP PUSH1 0x24 CALLDATALOAD DUP6 DUP2 GT PUSH2 0x1DE JUMPI PUSH2 0x33A SWAP1 CALLDATASIZE SWAP1 DUP4 ADD PUSH2 0xEE3 JUMP JUMPDEST SWAP5 PUSH2 0x343 PUSH2 0x11D3 JUMP JUMPDEST DUP3 JUMPDEST DUP5 MLOAD DUP2 LT ISZERO PUSH2 0x50B JUMPI PUSH1 0x1 PUSH1 0x1 PUSH1 0xA0 SHL SUB DUP1 PUSH2 0x361 DUP4 DUP9 PUSH2 0x11A9 JUMP JUMPDEST MLOAD AND DUP6 MSTORE PUSH1 0x1 DUP1 DUP13 MSTORE DUP10 DUP7 KECCAK256 DUP1 SLOAD PUSH1 0xFF NOT AND DUP3 OR SWAP1 SSTORE DUP2 PUSH2 0x382 DUP5 DUP10 PUSH2 0x11A9 JUMP JUMPDEST MLOAD AND DUP7 MSTORE PUSH1 0x2 DUP13 MSTORE DUP10 DUP7 KECCAK256 SWAP1 DUP10 MLOAD SWAP1 DUP6 DUP3 GT PUSH2 0x4F9 JUMPI SWAP1 DUP3 SWAP2 DUP15 PUSH2 0x3A9 DUP16 SWAP8 SWAP7 SWAP6 SLOAD PUSH2 0xD29 JUMP JUMPDEST SWAP7 PUSH1 0x1F SWAP8 DUP9 DUP2 GT PUSH2 0x4C3 JUMPI JUMPDEST POP POP DUP1 SWAP7 DUP4 GT PUSH1 0x1 EQ PUSH2 0x457 JUMPI POP POP DUP1 PUSH2 0x3E7 SWAP2 PUSH1 0x1 SWAP7 DUP11 SWAP2 PUSH2 0x44C JUMPI JUMPDEST POP DUP2 PUSH1 0x1 SHL SWAP2 PUSH1 0x0 NOT SWAP1 PUSH1 0x3 SHL SHR NOT AND OR SWAP1 JUMP JUMPDEST SWAP1 SSTORE JUMPDEST DUP1 PUSH2 0x3F5 DUP4 DUP10 PUSH2 0x11A9 JUMP JUMPDEST MLOAD AND DUP7 MSTORE PUSH1 0x3 DUP13 MSTORE TIMESTAMP DUP11 DUP8 KECCAK256 SSTORE PUSH2 0x40C DUP3 DUP9 PUSH2 0x11A9 JUMP JUMPDEST MLOAD AND PUSH32 0x7BBCC406088422F0DC6C8E376B2EEF6BD61CB55FB34224A12AF7FE2D897E383C PUSH2 0x443 DUP14 DUP13 MLOAD SWAP2 DUP2 DUP4 SWAP3 DUP4 MSTORE DUP3 ADD DUP14 PUSH2 0xE5C JUMP JUMPDEST SUB SWAP1 LOG2 ADD PUSH2 0x345 JUMP JUMPDEST SWAP1 POP DUP13 ADD MLOAD CODESIZE PUSH2 0x3D3 JUMP JUMPDEST SWAP1 SWAP3 SWAP4 SWAP5 SWAP6 PUSH1 0x1F NOT DUP4 AND DUP6 DUP12 MSTORE DUP14 DUP4 DUP13 KECCAK256 SWAP4 DUP13 SWAP2 JUMPDEST DUP4 DUP4 LT PUSH2 0x4AC JUMPI POP POP POP SWAP1 DUP4 PUSH1 0x1 SWAP9 SWAP8 SWAP7 SWAP6 SWAP5 SWAP4 SWAP3 LT PUSH2 0x493 JUMPI JUMPDEST POP POP DUP2 SHL ADD SWAP1 SSTORE PUSH2 0x3EA JUMP JUMPDEST DUP14 ADD MLOAD PUSH1 0x0 NOT PUSH1 0xF8 DUP5 PUSH1 0x3 SHL AND SHR NOT AND SWAP1 SSTORE CODESIZE DUP1 PUSH2 0x487 JUMP JUMPDEST DUP5 ADD MLOAD DUP6 SSTORE SWAP4 DUP7 ADD SWAP4 SWAP3 DUP4 ADD SWAP3 SWAP1 DUP2 ADD SWAP1 DUP16 PUSH2 0x46C JUMP JUMPDEST PUSH2 0x4E9 SWAP2 DUP7 DUP14 MSTORE DUP4 DUP14 KECCAK256 SWAP1 DUP11 DUP1 DUP9 ADD DUP3 SHR DUP4 ADD SWAP4 DUP7 DUP10 LT PUSH2 0x4F0 JUMPI JUMPDEST ADD SWAP1 SHR ADD SWAP1 PUSH2 0xF6F JUMP JUMPDEST DUP15 CODESIZE PUSH2 0x3B5 JUMP JUMPDEST SWAP4 POP DUP3 SWAP4 PUSH2 0x4DF JUMP JUMPDEST PUSH4 0x4E487B71 PUSH1 0xE0 SHL DUP9 MSTORE PUSH1 0x41 DUP8 MSTORE DUP10 DUP9 REVERT JUMPDEST DUP4 DUP1 RETURN JUMPDEST DUP2 CALLDATALOAD PUSH1 0x1 PUSH1 0x1 PUSH1 0xA0 SHL SUB DUP2 AND DUP2 SUB PUSH2 0x52E JUMPI DUP2 MSTORE SWAP1 DUP11 ADD SWAP1 DUP11 ADD PUSH2 0x319 JUMP JUMPDEST DUP6 DUP1 REVERT JUMPDEST DUP5 DUP1 REVERT JUMPDEST PUSH4 0x4E487B71 PUSH1 0xE0 SHL DUP2 MSTORE PUSH1 0x41 DUP7 MSTORE PUSH1 0x24 SWAP1 REVERT JUMPDEST DUP1 REVERT JUMPDEST POP CALLVALUE PUSH2 0x1DE JUMPI DUP2 PUSH1 0x3 NOT CALLDATASIZE ADD SLT PUSH2 0x1DE JUMPI PUSH2 0x565 PUSH2 0xD0E JUMP JUMPDEST SWAP3 PUSH1 0x24 CALLDATALOAD SWAP1 PUSH8 0xFFFFFFFFFFFFFFFF DUP3 GT PUSH2 0x549 JUMPI POP SWAP3 PUSH2 0x58D PUSH2 0x593 SWAP3 PUSH1 0x20 SWAP6 CALLDATASIZE SWAP2 ADD PUSH2 0xF41 JUMP JUMPDEST SWAP2 PUSH2 0x1115 JUMP JUMPDEST SWAP1 MLOAD SWAP1 ISZERO ISZERO DUP2 MSTORE RETURN JUMPDEST POP POP CALLVALUE PUSH2 0x2A4 JUMPI DUP2 PUSH1 0x3 NOT CALLDATASIZE ADD SLT PUSH2 0x2A4 JUMPI SWAP1 SLOAD SWAP1 MLOAD PUSH1 0x1 PUSH1 0x1 PUSH1 0xA0 SHL SUB SWAP1 SWAP2 AND DUP2 MSTORE PUSH1 0x20 SWAP1 RETURN JUMPDEST POP POP CALLVALUE PUSH2 0x2A4 JUMPI PUSH1 0x20 CALLDATASIZE PUSH1 0x3 NOT ADD SLT PUSH2 0x2A4 JUMPI DUP2 PUSH2 0x5E0 PUSH2 0xD0E JUMP JUMPDEST PUSH2 0x5E8 PUSH2 0x11D3 JUMP JUMPDEST PUSH1 0x1 DUP1 PUSH1 0xA0 SHL SUB AND SWAP2 DUP3 DUP3 MSTORE PUSH1 0x1 PUSH1 0x20 MSTORE DUP1 DUP3 KECCAK256 PUSH1 0xFF NOT DUP2 SLOAD AND SWAP1 SSTORE PUSH1 0x2 PUSH1 0x20 MSTORE DUP2 DUP2 DUP2 KECCAK256 PUSH2 0x617 DUP2 SLOAD PUSH2 0xD29 JUMP JUMPDEST DUP1 PUSH2 0x651 JUMPI JUMPDEST POP POP DUP4 SWAP1 MSTORE PUSH1 0x3 PUSH1 0x20 MSTORE DUP2 KECCAK256 SSTORE PUSH32 0xE9DCE8C992623CE791725B21E857E33248D1F190A25B5168313420EEBDAAE99D DUP3 DUP1 LOG2 DUP1 RETURN JUMPDEST DUP3 PUSH1 0x1F DUP3 GT PUSH1 0x1 EQ PUSH2 0x669 JUMPI POP POP SSTORE JUMPDEST DUP2 CODESIZE DUP1 PUSH2 0x61D JUMP JUMPDEST SWAP1 SWAP2 DUP1 DUP3 MSTORE PUSH2 0x687 PUSH1 0x1F PUSH1 0x20 DUP5 KECCAK256 SWAP5 ADD PUSH1 0x5 SHR DUP5 ADD PUSH1 0x1 DUP6 ADD PUSH2 0xF6F JUMP JUMPDEST SSTORE SSTORE PUSH2 0x661 JUMP JUMPDEST POP POP CALLVALUE PUSH2 0x2A4 JUMPI DUP2 PUSH1 0x3 NOT CALLDATASIZE ADD SLT PUSH2 0x2A4 JUMPI PUSH1 0x20 PUSH32 0x62E78CEA01BEE320CD4E420270B5EA74000D11B0C9F74754EBDBFC544B05A258 SWAP2 PUSH2 0x6CC PUSH2 0x11D3 JUMP JUMPDEST PUSH2 0x6D4 PUSH2 0x122B JUMP JUMPDEST DUP4 SLOAD PUSH1 0xFF PUSH1 0xA0 SHL NOT AND PUSH1 0x1 PUSH1 0xA0 SHL OR DUP5 SSTORE MLOAD CALLER DUP2 MSTORE LOG1 DUP1 RETURN JUMPDEST POP POP CALLVALUE PUSH2 0x2A4 JUMPI PUSH1 0x20 SWAP1 PUSH2 0x593 PUSH2 0x703 CALLDATASIZE PUSH2 0xF01 JUMP JUMPDEST SWAP1 PUSH2 0xFF8 JUMP JUMPDEST POP CALLVALUE PUSH2 0x1DE JUMPI PUSH1 0x20 CALLDATASIZE PUSH1 0x3 NOT ADD SLT PUSH2 0x1DE JUMPI DUP1 CALLDATALOAD SWAP2 PUSH2 0x726 PUSH2 0x11D3 JUMP JUMPDEST PUSH3 0x278D00 DUP4 LT ISZERO DUP1 PUSH2 0x776 JUMPI JUMPDEST ISZERO PUSH2 0x740 JUMPI POP POP PUSH1 0x6 SSTORE DUP1 RETURN JUMPDEST SWAP1 PUSH1 0x20 PUSH1 0x64 SWAP3 MLOAD SWAP2 PUSH3 0x461BCD PUSH1 0xE5 SHL DUP4 MSTORE DUP3 ADD MSTORE PUSH1 0x10 PUSH1 0x24 DUP3 ADD MSTORE PUSH16 0x24B73B30B634B210323AB930BA34B7B7 PUSH1 0x81 SHL PUSH1 0x44 DUP3 ADD MSTORE REVERT JUMPDEST POP PUSH4 0x5A39A80 DUP4 GT ISZERO PUSH2 0x733 JUMP JUMPDEST DUP4 CALLVALUE PUSH2 0x549 JUMPI DUP1 PUSH1 0x3 NOT CALLDATASIZE ADD SLT PUSH2 0x549 JUMPI PUSH2 0x79D PUSH2 0x11D3 JUMP JUMPDEST DUP1 SLOAD PUSH1 0x1 PUSH1 0x1 PUSH1 0xA0 SHL SUB NOT DUP2 AND DUP3 SSTORE DUP2 SWAP1 PUSH1 0x1 PUSH1 0x1 PUSH1 0xA0 SHL SUB AND PUSH32 0x8BE0079C531659141344CD1FD0A4F28419497F9722A3DAAFE3B4186F6B6457E0 DUP3 DUP1 LOG3 DUP1 RETURN JUMPDEST DUP4 DUP3 CALLVALUE PUSH2 0x2A4 JUMPI PUSH1 0x20 CALLDATASIZE PUSH1 0x3 NOT ADD SLT PUSH2 0x2A4 JUMPI CALLDATALOAD DUP1 ISZERO ISZERO DUP1 SWAP2 SUB PUSH2 0x2A4 JUMPI PUSH2 0x804 PUSH2 0x11D3 JUMP JUMPDEST PUSH1 0xFF DUP1 NOT PUSH1 0x5 SLOAD AND SWAP2 AND OR PUSH1 0x5 SSTORE DUP1 RETURN JUMPDEST DUP3 DUP5 CALLVALUE PUSH2 0x549 JUMPI PUSH1 0x20 CALLDATASIZE PUSH1 0x3 NOT ADD SLT PUSH2 0x549 JUMPI PUSH1 0x1 PUSH1 0x1 PUSH1 0xA0 SHL SUB PUSH2 0x838 PUSH2 0xD0E JUMP JUMPDEST AND SWAP2 DUP3 DUP3 MSTORE PUSH1 0x1 PUSH1 0x20 MSTORE DUP1 PUSH1 0xFF DUP2 DUP5 KECCAK256 SLOAD AND SWAP3 PUSH1 0x2 PUSH1 0x20 MSTORE PUSH2 0x85B DUP3 DUP3 KECCAK256 PUSH2 0xDB7 JUMP JUMPDEST SWAP5 DUP2 MSTORE PUSH1 0x3 PUSH1 0x20 MSTORE KECCAK256 SLOAD PUSH2 0x871 PUSH1 0x6 SLOAD DUP3 PUSH2 0xF86 JUMP JUMPDEST SWAP1 PUSH2 0x88F DUP4 MLOAD SWAP6 DUP7 SWAP6 ISZERO ISZERO DUP7 MSTORE PUSH1 0x80 PUSH1 0x20 DUP8 ADD MSTORE PUSH1 0x80 DUP7 ADD SWAP1 PUSH2 0xE5C JUMP JUMPDEST SWAP3 DUP5 ADD MSTORE PUSH1 0x60 DUP4 ADD MSTORE SUB SWAP1 RETURN JUMPDEST POP SWAP1 CALLVALUE PUSH2 0x1DE JUMPI PUSH1 0x20 SWAP3 DUP4 PUSH1 0x3 NOT CALLDATASIZE ADD SLT PUSH2 0x549 JUMPI DUP3 CALLDATALOAD PUSH8 0xFFFFFFFFFFFFFFFF DUP2 GT PUSH2 0x2A4 JUMPI PUSH2 0x8CF SWAP1 CALLDATASIZE SWAP1 DUP6 ADD PUSH2 0xF41 JUMP JUMPDEST SWAP2 SWAP1 PUSH2 0x8D9 PUSH2 0x122B JUMP JUMPDEST DUP3 ISZERO PUSH2 0x94C JUMPI SWAP1 DUP6 PUSH2 0x8EE DUP6 SWAP4 DUP6 CALLDATASIZE SWAP2 PUSH2 0xE9C JUMP JUMPDEST DUP2 DUP2 MLOAD SWAP2 ADD KECCAK256 SWAP4 LT ISZERO SWAP5 DUP6 PUSH2 0x908 JUMPI JUMPDEST POP POP POP POP MLOAD SWAP1 DUP2 MSTORE RETURN JUMPDEST DUP4 DUP3 MSTORE DUP7 MSTORE KECCAK256 PUSH1 0x1 PUSH1 0xFF NOT DUP3 SLOAD AND OR SWAP1 SSTORE DUP2 MLOAD SWAP1 DUP2 MSTORE PUSH32 0x9A7C779D96184C9EA44434A43C52DFF1BA8973F4294D19CC22C3906C41858F7F DUP5 CALLER SWAP3 LOG2 CODESIZE DUP2 DUP2 DUP1 PUSH2 0x8FE JUMP JUMPDEST DUP4 MLOAD PUSH3 0x461BCD PUSH1 0xE5 SHL DUP2 MSTORE DUP1 DUP7 ADD DUP8 SWAP1 MSTORE PUSH1 0xD PUSH1 0x24 DUP3 ADD MSTORE PUSH13 0x24B73B30B634B210383937B7B3 PUSH1 0x99 SHL PUSH1 0x44 DUP3 ADD MSTORE PUSH1 0x64 SWAP1 REVERT JUMPDEST POP POP CALLVALUE PUSH2 0x2A4 JUMPI DUP2 PUSH1 0x3 NOT CALLDATASIZE ADD SLT PUSH2 0x2A4 JUMPI PUSH1 0xFF PUSH1 0x20 SWAP3 SLOAD PUSH1 0xA0 SHR AND SWAP1 MLOAD SWAP1 ISZERO ISZERO DUP2 MSTORE RETURN JUMPDEST POP POP CALLVALUE PUSH2 0x2A4 JUMPI DUP2 PUSH1 0x3 NOT CALLDATASIZE ADD SLT PUSH2 0x2A4 JUMPI PUSH1 0x20 SWAP1 PUSH1 0x6 SLOAD SWAP1 MLOAD SWAP1 DUP2 MSTORE RETURN JUMPDEST POP CALLVALUE PUSH2 0x1DE JUMPI DUP3 PUSH1 0x3 NOT CALLDATASIZE ADD SLT PUSH2 0x1DE JUMPI PUSH2 0x9DC PUSH2 0x11D3 JUMP JUMPDEST DUP3 SLOAD SWAP1 PUSH1 0xFF DUP3 PUSH1 0xA0 SHR AND ISZERO PUSH2 0xA22 JUMPI POP PUSH1 0xFF PUSH1 0xA0 SHL NOT AND DUP3 SSTORE MLOAD CALLER DUP2 MSTORE PUSH32 0x5DB9EE0A495BF2E6FF9C91A7834C1BA4FDD244A5E8AA4E537BD38AEAE4B073AA SWAP1 PUSH1 0x20 SWAP1 LOG1 DUP1 RETURN JUMPDEST PUSH1 0x64 SWAP1 PUSH1 0x20 DUP5 MLOAD SWAP2 PUSH3 0x461BCD PUSH1 0xE5 SHL DUP4 MSTORE DUP3 ADD MSTORE PUSH1 0x14 PUSH1 0x24 DUP3 ADD MSTORE PUSH20 0x14185D5CD8589B194E881B9BDD081C185D5CD959 PUSH1 0x62 SHL PUSH1 0x44 DUP3 ADD MSTORE REVERT JUMPDEST POP POP CALLVALUE PUSH2 0x2A4 JUMPI PUSH1 0x20 CALLDATASIZE PUSH1 0x3 NOT ADD SLT PUSH2 0x2A4 JUMPI PUSH1 0x20 SWAP2 PUSH1 0xFF SWAP1 DUP3 SWAP1 PUSH1 0x1 PUSH1 0x1 PUSH1 0xA0 SHL SUB PUSH2 0xA87 PUSH2 0xD0E JUMP JUMPDEST AND DUP2 MSTORE PUSH1 0x1 DUP6 MSTORE KECCAK256 SLOAD AND SWAP1 MLOAD SWAP1 ISZERO ISZERO DUP2 MSTORE RETURN JUMPDEST POP POP CALLVALUE PUSH2 0x2A4 JUMPI DUP2 PUSH1 0x3 NOT CALLDATASIZE ADD SLT PUSH2 0x2A4 JUMPI PUSH1 0x20 SWAP1 PUSH1 0xFF PUSH1 0x5 SLOAD AND SWAP1 MLOAD SWAP1 ISZERO ISZERO DUP2 MSTORE RETURN JUMPDEST POP POP CALLVALUE PUSH2 0x2A4 JUMPI PUSH1 0x20 CALLDATASIZE PUSH1 0x3 NOT ADD SLT PUSH2 0x2A4 JUMPI PUSH1 0x20 SWAP2 DUP2 SWAP1 PUSH1 0x1 PUSH1 0x1 PUSH1 0xA0 SHL SUB PUSH2 0xAE6 PUSH2 0xD0E JUMP JUMPDEST AND DUP2 MSTORE PUSH1 0x3 DUP5 MSTORE KECCAK256 SLOAD SWAP1 MLOAD SWAP1 DUP2 MSTORE RETURN JUMPDEST POP CALLVALUE PUSH2 0x1DE JUMPI PUSH2 0xB05 CALLDATASIZE PUSH2 0xF01 JUMP JUMPDEST SWAP2 SWAP1 PUSH2 0xB0F PUSH2 0x11D3 JUMP JUMPDEST PUSH1 0x1 DUP1 PUSH1 0xA0 SHL SUB AND SWAP3 DUP4 DUP6 MSTORE PUSH1 0x1 PUSH1 0x20 SWAP3 PUSH1 0x1 DUP5 MSTORE DUP3 DUP8 KECCAK256 PUSH1 0x1 PUSH1 0xFF NOT DUP3 SLOAD AND OR SWAP1 SSTORE PUSH1 0x2 DUP5 MSTORE DUP3 DUP8 KECCAK256 SWAP2 DUP6 MLOAD SWAP2 PUSH8 0xFFFFFFFFFFFFFFFF DUP4 GT PUSH2 0xCA9 JUMPI POP PUSH2 0xB57 DUP4 SLOAD PUSH2 0xD29 JUMP JUMPDEST PUSH1 0x1F DUP2 GT PUSH2 0xC70 JUMPI JUMPDEST POP DUP5 SWAP1 PUSH1 0x1F DUP4 GT PUSH1 0x1 EQ PUSH2 0xBE6 JUMPI POP SWAP2 PUSH2 0xBB7 DUP3 PUSH32 0x7BBCC406088422F0DC6C8E376B2EEF6BD61CB55FB34224A12AF7FE2D897E383C SWAP8 SWAP7 SWAP6 SWAP4 PUSH2 0xBD5 SWAP6 DUP12 SWAP2 PUSH2 0xBDB JUMPI POP DUP2 PUSH1 0x1 SHL SWAP2 PUSH1 0x0 NOT SWAP1 PUSH1 0x3 SHL SHR NOT AND OR SWAP1 JUMP JUMPDEST SWAP1 SSTORE JUMPDEST DUP6 DUP8 MSTORE PUSH1 0x3 DUP4 MSTORE TIMESTAMP DUP2 DUP9 KECCAK256 SSTORE MLOAD SWAP3 DUP3 DUP5 SWAP4 DUP5 MSTORE DUP4 ADD SWAP1 PUSH2 0xE5C JUMP JUMPDEST SUB SWAP1 LOG2 DUP1 RETURN JUMPDEST SWAP1 POP DUP8 ADD MLOAD CODESIZE PUSH2 0x3D3 JUMP JUMPDEST SWAP1 PUSH1 0x1F NOT DUP4 AND DUP5 DUP11 MSTORE DUP7 DUP11 KECCAK256 SWAP3 DUP11 SWAP1 JUMPDEST DUP3 DUP3 LT PUSH2 0xC59 JUMPI POP POP SWAP3 PUSH2 0xBD5 SWAP5 SWAP3 PUSH1 0x1 SWAP3 DUP3 PUSH32 0x7BBCC406088422F0DC6C8E376B2EEF6BD61CB55FB34224A12AF7FE2D897E383C SWAP11 SWAP10 SWAP9 SWAP7 LT PUSH2 0xC40 JUMPI JUMPDEST POP POP DUP2 SHL ADD SWAP1 SSTORE PUSH2 0xBBA JUMP JUMPDEST DUP9 ADD MLOAD PUSH1 0x0 NOT PUSH1 0xF8 DUP5 PUSH1 0x3 SHL AND SHR NOT AND SWAP1 SSTORE CODESIZE DUP1 PUSH2 0xC34 JUMP JUMPDEST DUP10 DUP5 ADD MLOAD DUP6 SSTORE SWAP4 DUP5 ADD SWAP4 SWAP3 DUP9 ADD SWAP3 SWAP1 DUP9 ADD SWAP1 PUSH2 0xBF6 JUMP JUMPDEST PUSH2 0xC99 SWAP1 DUP5 DUP11 MSTORE DUP7 DUP11 KECCAK256 PUSH1 0x1F DUP6 ADD PUSH1 0x5 SHR DUP2 ADD SWAP2 DUP9 DUP7 LT PUSH2 0xC9F JUMPI JUMPDEST PUSH1 0x1F ADD PUSH1 0x5 SHR ADD SWAP1 PUSH2 0xF6F JUMP JUMPDEST CODESIZE PUSH2 0xB60 JUMP JUMPDEST SWAP1 SWAP2 POP DUP2 SWAP1 PUSH2 0xC8C JUMP JUMPDEST PUSH4 0x4E487B71 PUSH1 0xE0 SHL DUP10 MSTORE PUSH1 0x41 SWAP1 MSTORE PUSH1 0x24 DUP9 REVERT JUMPDEST POP POP CALLVALUE PUSH2 0x2A4 JUMPI PUSH1 0x20 CALLDATASIZE PUSH1 0x3 NOT ADD SLT PUSH2 0x2A4 JUMPI PUSH2 0xD0A SWAP2 PUSH2 0xCF7 SWAP1 DUP3 SWAP1 PUSH1 0x1 PUSH1 0x1 PUSH1 0xA0 SHL SUB PUSH2 0xCE9 PUSH2 0xD0E JUMP JUMPDEST AND DUP2 MSTORE PUSH1 0x2 PUSH1 0x20 MSTORE KECCAK256 PUSH2 0xDB7 JUMP JUMPDEST SWAP1 MLOAD SWAP2 DUP3 SWAP2 PUSH1 0x20 DUP4 MSTORE PUSH1 0x20 DUP4 ADD SWAP1 PUSH2 0xE5C JUMP JUMPDEST SUB SWAP1 RETURN JUMPDEST PUSH1 0x4 CALLDATALOAD SWAP1 PUSH1 0x1 PUSH1 0x1 PUSH1 0xA0 SHL SUB DUP3 AND DUP3 SUB PUSH2 0xD24 JUMPI JUMP JUMPDEST PUSH1 0x0 DUP1 REVERT JUMPDEST SWAP1 PUSH1 0x1 DUP3 DUP2 SHR SWAP3 AND DUP1 ISZERO PUSH2 0xD59 JUMPI JUMPDEST PUSH1 0x20 DUP4 LT EQ PUSH2 0xD43 JUMPI JUMP JUMPDEST PUSH4 0x4E487B71 PUSH1 0xE0 SHL PUSH1 0x0 MSTORE PUSH1 0x22 PUSH1 0x4 MSTORE PUSH1 0x24 PUSH1 0x0 REVERT JUMPDEST SWAP2 PUSH1 0x7F AND SWAP2 PUSH2 0xD38 JUMP JUMPDEST PUSH1 0x40 DUP2 ADD SWAP1 DUP2 LT PUSH8 0xFFFFFFFFFFFFFFFF DUP3 GT OR PUSH2 0xD7F JUMPI PUSH1 0x40 MSTORE JUMP JUMPDEST PUSH4 0x4E487B71 PUSH1 0xE0 SHL PUSH1 0x0 MSTORE PUSH1 0x41 PUSH1 0x4 MSTORE PUSH1 0x24 PUSH1 0x0 REVERT JUMPDEST SWAP1 PUSH1 0x1F DUP1 NOT SWAP2 ADD AND DUP2 ADD SWAP1 DUP2 LT PUSH8 0xFFFFFFFFFFFFFFFF DUP3 GT OR PUSH2 0xD7F JUMPI PUSH1 0x40 MSTORE JUMP JUMPDEST SWAP1 PUSH1 0x40 MLOAD SWAP2 DUP3 PUSH1 0x0 DUP3 SLOAD PUSH2 0xDCA DUP2 PUSH2 0xD29 JUMP JUMPDEST SWAP1 DUP2 DUP5 MSTORE PUSH1 0x20 SWAP5 PUSH1 0x1 SWAP2 PUSH1 0x1 DUP2 AND SWAP1 DUP2 PUSH1 0x0 EQ PUSH2 0xE3A JUMPI POP PUSH1 0x1 EQ PUSH2 0xDFB JUMPI JUMPDEST POP POP POP PUSH2 0xDF9 SWAP3 POP SUB DUP4 PUSH2 0xD95 JUMP JUMPDEST JUMP JUMPDEST PUSH1 0x0 SWAP1 DUP2 MSTORE DUP6 DUP2 KECCAK256 SWAP6 SWAP4 POP SWAP2 SWAP1 JUMPDEST DUP2 DUP4 LT PUSH2 0xE22 JUMPI POP POP PUSH2 0xDF9 SWAP4 POP DUP3 ADD ADD CODESIZE DUP1 DUP1 PUSH2 0xDEA JUMP JUMPDEST DUP6 SLOAD DUP9 DUP5 ADD DUP6 ADD MSTORE SWAP5 DUP6 ADD SWAP5 DUP8 SWAP5 POP SWAP2 DUP4 ADD SWAP2 PUSH2 0xE09 JUMP JUMPDEST SWAP3 POP POP POP PUSH2 0xDF9 SWAP5 SWAP3 POP PUSH1 0xFF NOT AND DUP3 DUP5 ADD MSTORE ISZERO ISZERO PUSH1 0x5 SHL DUP3 ADD ADD CODESIZE DUP1 DUP1 PUSH2 0xDEA JUMP JUMPDEST SWAP2 SWAP1 DUP3 MLOAD SWAP3 DUP4 DUP3 MSTORE PUSH1 0x0 JUMPDEST DUP5 DUP2 LT PUSH2 0xE88 JUMPI POP POP DUP3 PUSH1 0x0 PUSH1 0x20 DUP1 SWAP5 SWAP6 DUP5 ADD ADD MSTORE PUSH1 0x1F DUP1 NOT SWAP2 ADD AND ADD ADD SWAP1 JUMP JUMPDEST PUSH1 0x20 DUP2 DUP4 ADD DUP2 ADD MLOAD DUP5 DUP4 ADD DUP3 ADD MSTORE ADD PUSH2 0xE67 JUMP JUMPDEST SWAP3 SWAP2 SWAP3 PUSH8 0xFFFFFFFFFFFFFFFF DUP3 GT PUSH2 0xD7F JUMPI PUSH1 0x40 MLOAD SWAP2 PUSH2 0xEC6 PUSH1 0x1F DUP3 ADD PUSH1 0x1F NOT AND PUSH1 0x20 ADD DUP5 PUSH2 0xD95 JUMP JUMPDEST DUP3 SWAP5 DUP2 DUP5 MSTORE DUP2 DUP4 ADD GT PUSH2 0xD24 JUMPI DUP3 DUP2 PUSH1 0x20 SWAP4 DUP5 PUSH1 0x0 SWAP7 ADD CALLDATACOPY ADD ADD MSTORE JUMP JUMPDEST SWAP1 DUP1 PUSH1 0x1F DUP4 ADD SLT ISZERO PUSH2 0xD24 JUMPI DUP2 PUSH1 0x20 PUSH2 0xEFE SWAP4 CALLDATALOAD SWAP2 ADD PUSH2 0xE9C JUMP JUMPDEST SWAP1 JUMP JUMPDEST SWAP1 PUSH1 0x40 PUSH1 0x3 NOT DUP4 ADD SLT PUSH2 0xD24 JUMPI PUSH1 0x4 CALLDATALOAD PUSH1 0x1 PUSH1 0x1 PUSH1 0xA0 SHL SUB DUP2 AND DUP2 SUB PUSH2 0xD24 JUMPI SWAP2 PUSH1 0x24 CALLDATALOAD SWAP1 PUSH8 0xFFFFFFFFFFFFFFFF DUP3 GT PUSH2 0xD24 JUMPI PUSH2 0xEFE SWAP2 PUSH1 0x4 ADD PUSH2 0xEE3 JUMP JUMPDEST SWAP2 DUP2 PUSH1 0x1F DUP5 ADD SLT ISZERO PUSH2 0xD24 JUMPI DUP3 CALLDATALOAD SWAP2 PUSH8 0xFFFFFFFFFFFFFFFF DUP4 GT PUSH2 0xD24 JUMPI PUSH1 0x20 DUP4 DUP2 DUP7 ADD SWAP6 ADD ADD GT PUSH2 0xD24 JUMPI JUMP JUMPDEST DUP2 DUP2 LT PUSH2 0xF7A JUMPI POP POP JUMP JUMPDEST PUSH1 0x0 DUP2 SSTORE PUSH1 0x1 ADD PUSH2 0xF6F JUMP JUMPDEST SWAP2 SWAP1 DUP3 ADD DUP1 SWAP3 GT PUSH2 0xF93 JUMPI JUMP JUMPDEST PUSH4 0x4E487B71 PUSH1 0xE0 SHL PUSH1 0x0 MSTORE PUSH1 0x11 PUSH1 0x4 MSTORE PUSH1 0x24 PUSH1 0x0 REVERT JUMPDEST PUSH1 0x40 MLOAD SWAP1 PUSH2 0xFB6 DUP3 PUSH2 0xD63 JUMP JUMPDEST PUSH1 0xA DUP3 MSTORE PUSH10 0x1858D8DC99591A5D1959 PUSH1 0xB2 SHL PUSH1 0x20 DUP4 ADD MSTORE JUMP JUMPDEST PUSH1 0x40 MLOAD SWAP1 PUSH2 0xFDC DUP3 PUSH2 0xD63 JUMP JUMPDEST PUSH1 0xD DUP3 MSTORE PUSH13 0x1A5B9CDD1A5D1D5D1A5BDB985B PUSH1 0x9A SHL PUSH1 0x20 DUP4 ADD MSTORE JUMP JUMPDEST PUSH1 0x1 DUP1 PUSH1 0xA0 SHL SUB AND PUSH1 0x0 MSTORE PUSH1 0x20 SWAP1 PUSH1 0x1 DUP3 MSTORE PUSH1 0xFF PUSH1 0x40 PUSH1 0x0 KECCAK256 SLOAD AND ISZERO PUSH2 0x110E JUMPI PUSH1 0x2 DUP3 MSTORE PUSH2 0x1029 PUSH1 0x40 PUSH1 0x0 KECCAK256 PUSH2 0xDB7 JUMP JUMPDEST SWAP1 DUP1 MLOAD SWAP1 PUSH32 0xA5D86F0953C385EC886A62429AA968EB4ECB555F168F43EF1E9B73593B04825F DUP5 DUP3 ADD SWAP3 DUP4 KECCAK256 PUSH6 0x1C995D185A5B PUSH1 0xD2 SHL DUP7 PUSH1 0x40 MLOAD PUSH2 0x106B DUP2 PUSH2 0xD63 JUMP JUMPDEST PUSH1 0x6 DUP2 MSTORE ADD MSTORE SUB PUSH2 0x107F JUMPI POP POP POP POP PUSH1 0x1 SWAP1 JUMP JUMPDEST DUP1 MLOAD DUP3 KECCAK256 PUSH2 0x108B PUSH2 0xFA9 JUMP JUMPDEST DUP1 MLOAD SWAP1 DUP7 ADD KECCAK256 SUB PUSH2 0x10D9 JUMPI POP POP SWAP1 DUP2 MLOAD DUP2 DUP4 ADD SWAP1 DUP2 KECCAK256 PUSH2 0x10A9 PUSH2 0xFA9 JUMP JUMPDEST DUP4 DUP2 MLOAD SWAP2 ADD KECCAK256 EQ SWAP3 DUP4 ISZERO PUSH2 0x10BE JUMPI JUMPDEST POP POP POP SWAP1 JUMP JUMPDEST MLOAD SWAP1 KECCAK256 SWAP2 POP PUSH2 0x10CB PUSH2 0xFCF JUMP JUMPDEST DUP1 MLOAD SWAP2 ADD KECCAK256 EQ CODESIZE DUP1 DUP1 PUSH2 0x10B8 JUMP JUMPDEST MLOAD SWAP1 KECCAK256 PUSH2 0x10E4 PUSH2 0xFCF JUMP JUMPDEST DUP4 DUP2 MLOAD SWAP2 ADD KECCAK256 EQ PUSH2 0x10F6 JUMPI POP POP PUSH1 0x0 SWAP1 JUMP JUMPDEST DUP2 DUP2 MLOAD SWAP2 ADD KECCAK256 SWAP1 PUSH2 0x1105 PUSH2 0xFCF JUMP JUMPDEST DUP1 MLOAD SWAP2 ADD KECCAK256 EQ SWAP1 JUMP JUMPDEST POP POP PUSH1 0x0 SWAP1 JUMP JUMPDEST PUSH1 0x1 PUSH1 0x1 PUSH1 0xA0 SHL SUB AND PUSH1 0x0 SWAP1 DUP2 MSTORE PUSH1 0x1 PUSH1 0x20 MSTORE PUSH1 0x40 DUP2 KECCAK256 SLOAD SWAP1 SWAP3 SWAP2 SWAP1 PUSH1 0xFF AND ISZERO PUSH2 0x11A4 JUMPI PUSH1 0x3 PUSH1 0x20 MSTORE PUSH2 0x114F PUSH1 0x40 DUP5 KECCAK256 SLOAD PUSH1 0x6 SLOAD SWAP1 PUSH2 0xF86 JUMP JUMPDEST TIMESTAMP GT PUSH2 0x11A4 JUMPI PUSH1 0xFF PUSH1 0x5 SLOAD AND DUP1 PUSH2 0x119B JUMPI JUMPDEST PUSH2 0x116E JUMPI JUMPDEST POP POP POP PUSH1 0x1 SWAP1 JUMP JUMPDEST PUSH2 0x1179 SWAP2 CALLDATASIZE SWAP2 PUSH2 0xE9C JUMP JUMPDEST PUSH1 0x20 DUP2 MLOAD SWAP2 ADD KECCAK256 DUP2 MSTORE PUSH1 0x4 PUSH1 0x20 MSTORE PUSH1 0xFF PUSH1 0x40 DUP3 KECCAK256 SLOAD AND ISZERO PUSH2 0xEFE JUMPI DUP1 DUP1 PUSH2 0x1166 JUMP JUMPDEST POP DUP2 ISZERO ISZERO PUSH2 0x1161 JUMP JUMPDEST POP POP SWAP1 JUMP JUMPDEST DUP1 MLOAD DUP3 LT ISZERO PUSH2 0x11BD JUMPI PUSH1 0x20 SWAP2 PUSH1 0x5 SHL ADD ADD SWAP1 JUMP JUMPDEST PUSH4 0x4E487B71 PUSH1 0xE0 SHL PUSH1 0x0 MSTORE PUSH1 0x32 PUSH1 0x4 MSTORE PUSH1 0x24 PUSH1 0x0 REVERT JUMPDEST PUSH1 0x0 SLOAD PUSH1 0x1 PUSH1 0x1 PUSH1 0xA0 SHL SUB AND CALLER SUB PUSH2 0x11E7 JUMPI JUMP JUMPDEST PUSH1 0x64 PUSH1 0x40 MLOAD PUSH3 0x461BCD PUSH1 0xE5 SHL DUP2 MSTORE PUSH1 0x20 PUSH1 0x4 DUP3 ADD MSTORE PUSH1 0x20 PUSH1 0x24 DUP3 ADD MSTORE PUSH32 0x4F776E61626C653A2063616C6C6572206973206E6F7420746865206F776E6572 PUSH1 0x44 DUP3 ADD MSTORE REVERT JUMPDEST PUSH1 0xFF PUSH1 0x0 SLOAD PUSH1 0xA0 SHR AND PUSH2 0x123A JUMPI JUMP JUMPDEST PUSH1 0x40 MLOAD PUSH3 0x461BCD PUSH1 0xE5 SHL DUP2 MSTORE PUSH1 0x20 PUSH1 0x4 DUP3 ADD MSTORE PUSH1 0x10 PUSH1 0x24 DUP3 ADD MSTORE PUSH16 0x14185D5CD8589B194E881C185D5CD959 PUSH1 0x82 SHL PUSH1 0x44 DUP3 ADD MSTORE PUSH1 0x64 SWAP1 REVERT INVALID LOG2 PUSH5 0x6970667358 0x22 SLT KECCAK256 EQ DUP11 0xF8 0xCA DUP15 0xC PUSH9 0x9E4553D43B0C7610D 0xE LOG1 KECCAK256 SGT 0xE1 DUP8 ADDRESS SELFDESTRUCT 0xCF SELFBALANCE BLOCKHASH ISZERO LOG3 PUSH24 0x5BA064736F6C634300081800330000000000000000000000 "},"methodIdentifiers":{"addToWhitelist(address,string)":"1a533daa","addValidProofHash(bytes32)":"c150cf04","batchAddToWhitelist(address[],string)":"aff353e8","getUserKYCInfo(address)":"674c87e8","hasValidKYC(address)":"b6c69e38","isWhitelisted(address)":"3af32abf","kycExpiryDuration()":"3f6462b8","kycTier(address)":"002e21a7","kycTimestamp(address)":"1cad6954","meetsKYCTier(address,string)":"80d2b847","owner()":"8da5cb5b","pause()":"8456cb59","paused()":"5c975abb","removeFromWhitelist(address)":"8ab1d681","renounceOwnership()":"715018a6","requireZKProof()":"34bf39d6","setKYCExpiryDuration(uint256)":"71f8f4e7","setZKProofRequirement(bool)":"68272ecc","submitZKProof(bytes)":"66d6d4d2","transferOwnership(address)":"f2fde38b","unpause()":"3f4ba83a","validProofHashes(bytes32)":"c442e205","verifyKYC(address,bytes)":"ac970e2d"}}}}}