{"contracts/simplified/SimplifiedRWAMarketplace.sol":{"SimplifiedRWAMarketplace":{"abi":[{"inputs":[{"internalType":"address","name":"_paymentToken","type":"address"}],"stateMutability":"nonpayable","type":"constructor"},{"anonymous":false,"inputs":[{"indexed":true,"internalType":"uint256","name":"assetId","type":"uint256"},{"indexed":false,"internalType":"string","name":"name","type":"string"},{"indexed":false,"internalType":"uint256","name":"totalShares","type":"uint256"},{"indexed":false,"internalType":"uint256","name":"pricePerShare","type":"uint256"}],"name":"AssetRegistered","type":"event"},{"anonymous":false,"inputs":[{"indexed":true,"internalType":"address","name":"previousOwner","type":"address"},{"indexed":true,"internalType":"address","name":"newOwner","type":"address"}],"name":"OwnershipTransferred","type":"event"},{"anonymous":false,"inputs":[{"indexed":true,"internalType":"uint256","name":"assetId","type":"uint256"},{"indexed":true,"internalType":"address","name":"buyer","type":"address"},{"indexed":false,"internalType":"uint256","name":"shares","type":"uint256"},{"indexed":false,"internalType":"uint256","name":"cost","type":"uint256"}],"name":"SharesPurchased","type":"event"},{"inputs":[],"name":"assetCount","outputs":[{"internalType":"uint256","name":"","type":"uint256"}],"stateMutability":"view","type":"function"},{"inputs":[{"internalType":"uint256","name":"","type":"uint256"}],"name":"assets","outputs":[{"internalType":"string","name":"name","type":"string"},{"internalType":"string","name":"assetType","type":"string"},{"internalType":"uint256","name":"totalShares","type":"uint256"},{"internalType":"uint256","name":"availableShares","type":"uint256"},{"internalType":"uint256","name":"pricePerShare","type":"uint256"},{"internalType":"uint256","name":"expectedYield","type":"uint256"},{"internalType":"bool","name":"isActive","type":"bool"}],"stateMutability":"view","type":"function"},{"inputs":[],"name":"emergencyWithdraw","outputs":[],"stateMutability":"nonpayable","type":"function"},{"inputs":[],"name":"getAssetCount","outputs":[{"internalType":"uint256","name":"","type":"uint256"}],"stateMutability":"view","type":"function"},{"inputs":[{"internalType":"uint256","name":"assetId","type":"uint256"}],"name":"getAssetInfo","outputs":[{"internalType":"string","name":"name","type":"string"},{"internalType":"uint256","name":"totalShares","type":"uint256"},{"internalType":"uint256","name":"availableShares","type":"uint256"},{"internalType":"uint256","name":"pricePerShare","type":"uint256"},{"internalType":"uint256","name":"expectedYield","type":"uint256"}],"stateMutability":"view","type":"function"},{"inputs":[{"internalType":"address","name":"user","type":"address"}],"name":"getUserAssets","outputs":[{"internalType":"uint256[]","name":"","type":"uint256[]"}],"stateMutability":"view","type":"function"},{"inputs":[{"internalType":"address","name":"user","type":"address"},{"internalType":"uint256","name":"assetId","type":"uint256"}],"name":"getUserShares","outputs":[{"internalType":"uint256","name":"","type":"uint256"}],"stateMutability":"view","type":"function"},{"inputs":[],"name":"owner","outputs":[{"internalType":"address","name":"","type":"address"}],"stateMutability":"view","type":"function"},{"inputs":[],"name":"paymentToken","outputs":[{"internalType":"contract IERC20","name":"","type":"address"}],"stateMutability":"view","type":"function"},{"inputs":[{"internalType":"uint256","name":"assetId","type":"uint256"},{"internalType":"uint256","name":"shares","type":"uint256"}],"name":"purchaseShares","outputs":[],"stateMutability":"nonpayable","type":"function"},{"inputs":[],"name":"renounceOwnership","outputs":[],"stateMutability":"nonpayable","type":"function"},{"inputs":[{"internalType":"address","name":"newOwner","type":"address"}],"name":"transferOwnership","outputs":[],"stateMutability":"nonpayable","type":"function"},{"inputs":[{"internalType":"address","name":"","type":"address"},{"internalType":"uint256","name":"","type":"uint256"}],"name":"userAssets","outputs":[{"internalType":"uint256","name":"","type":"uint256"}],"stateMutability":"view","type":"function"},{"inputs":[{"internalType":"uint256","name":"","type":"uint256"},{"internalType":"address","name":"","type":"address"}],"name":"userShares","outputs":[{"internalType":"uint256","name":"","type":"uint256"}],"stateMutability":"view","type":"function"}],"evm":{"bytecode":{"linkReferences":{},"object":"60a0346200211e57601f62002ec738819003918201601f19168301916001600160401b03831184841017620013aa578084926020946040528339810103126200211e57516001600160a01b03808216918290036200211e57600160008181558154336001600160a01b0319821681179093556040519316907f8be0079c531659141344cd1fd0a4f28419497f9722a3daafe3b4186f6b6457e09080a38115620020dc5750608052620000b062002143565b601c81527f4d69616d69204265616368204c75787572792041706172746d656e74000000006020820152620000e462002143565b90600b82526a5265616c2045737461746560a81b60208301526200010762002123565b918183526020830152612710604083015261271060608301526802b5e3af16b1880000608083015261032060a0830152600160c083015260055460005260026020526040600020825192835160018060401b038111620013aa578254600181811c91168015620020d1575b60208210146200138957601f811162002088575b506020601f82116001146200201a5781929394956000926200200e575b50508160011b916000199060031b1c19161782555b60208101518051906001600160401b038211620013aa576001840154600181811c9116801562002003575b60208210146200138957601f811162001fb7575b50602090601f831160011462001f3d5791806006949260c09460009262001f31575b50508160011b916000199060031b1c19161760018501555b60408101516002850155606081015160038501556080810151600485015560a081015160058501550151151560ff801983850154169116179101556005546040516060815282519283606083015260005b84811062001f1a57838060008051602062002ea7833981519152856080818a600083828401015261271060208301526802b5e3af16b18800006040830152601f80199101168101030190a260001981146200128a5760018101600555620002e862002143565b601881527f436f72706f7261746520426f6e6420506f7274666f6c696f0000000000000000602082015260016200031e62002143565b92600c84526b141c9a5d985d19481119589d60a21b60208501526200034262002123565b938385526020850152614e206040850152614e2060608501526802b5e3af16b1880000608085015261028a60a08501528160c0850152016000526002602052604060002091805192835160018060401b038111620013aa578154600181811c9116801562001f0f575b60208210146200138957601f811162001ec6575b506020601f821160011462001e5857819293949560009262001e4c575b50508160011b916000199060031b1c19161781555b60208201518051906001600160401b038211620013aa576001830154600181811c9116801562001e41575b60208210146200138957601f811162001df5575b50602090601f831160011462001d7b57918060c0949260069460009262001d6f575b50508160011b916000199060031b1c19161760018201555b60408401516002820155606084015160038201556080840151600482015560a0840151600582015501910151151560ff801983541691161790556005546040516060815282519283606083015260005b84811062001d5857838060008051602062002ea7833981519152856080818a6000838284010152614e2060208301526802b5e3af16b18800006040830152601f80199101168101030190a260001981146200128a57600181016005556200052062002143565b601881527f52656e657761626c6520456e657267792050726f6a6563740000000000000000602082015260016200055662002143565b92600e84526d496e66726173747275637475726560901b60208501526200057c62002123565b938385526020850152613a986040850152613a9860608501526802b5e3af16b1880000608085015261039860a08501528160c0850152016000526002602052604060002091805192835160018060401b038111620013aa578154600181811c9116801562001d4d575b60208210146200138957601f811162001d04575b506020601f821160011462001c9657819293949560009262001c8a575b50508160011b916000199060031b1c19161781555b60208201518051906001600160401b038211620013aa576001830154600181811c9116801562001c7f575b60208210146200138957601f811162001c33575b50602090601f831160011462001bb957918060c0949260069460009262001bad575b50508160011b916000199060031b1c19161760018201555b60408401516002820155606084015160038201556080840151600482015560a0840151600582015501910151151560ff801983541691161790556005546040516060815282519283606083015260005b84811062001b9657838060008051602062002ea7833981519152856080818a6000838284010152613a9860208301526802b5e3af16b18800006040830152601f80199101168101030190a260001981146200128a57600181016005556200075a62002143565b601b81527f436f6d6d65726369616c205265616c204573746174652046756e640000000000602082015260016200079062002143565b92600b84526a5265616c2045737461746560a81b6020850152620007b362002123565b938385526020850152619c406040850152619c4060608501526802b5e3af16b188000060808501526102ee60a08501528160c0850152016000526002602052604060002091805192835160018060401b038111620013aa578154600181811c9116801562001b8b575b60208210146200138957601f811162001b42575b506020601f821160011462001ad457819293949560009262001ac8575b50508160011b916000199060031b1c19161781555b60208201518051906001600160401b038211620013aa576001830154600181811c9116801562001abd575b60208210146200138957601f811162001a71575b50602090601f8311600114620019f757918060c09492600694600092620019eb575b50508160011b916000199060031b1c19161760018201555b60408401516002820155606084015160038201556080840151600482015560a0840151600582015501910151151560ff801983541691161790556005546040516060815282519283606083015260005b848110620019d457838060008051602062002ea7833981519152856080818a6000838284010152619c4060208301526802b5e3af16b18800006040830152601f80199101168101030190a260001981146200128a57600181016005556200099162002143565b601c81527f4a6170616e6573652041727420436f6c6c656374696f6e2046756e640000000060208201526001620009c762002143565b92600b84526a416c7465726e617469766560a81b6020850152620009ea62002123565b938385526020850152611770604085015261177060608501526802b5e3af16b188000060808501526104b060a08501528160c0850152016000526002602052604060002091805192835160018060401b038111620013aa578154600181811c91168015620019c9575b60208210146200138957601f811162001980575b506020601f82116001146200191257819293949560009262001906575b50508160011b916000199060031b1c19161781555b60208201518051906001600160401b038211620013aa576001830154600181811c91168015620018fb575b60208210146200138957601f8111620018af575b50602090601f83116001146200183557918060c0949260069460009262001829575b50508160011b916000199060031b1c19161760018201555b60408401516002820155606084015160038201556080840151600482015560a0840151600582015501910151151560ff801983541691161790556005546040516060815282519283606083015260005b8481106200181257838060008051602062002ea7833981519152856080818a600083828401015261177060208301526802b5e3af16b18800006040830152601f80199101168101030190a260001981146200128a576001810160055562000bc862002143565b601d81527f4c6f676973746963732057617265686f75736520506f7274666f6c696f0000006020820152600162000bfe62002143565b92600b84526a5265616c2045737461746560a81b602085015262000c2162002123565b938385526020850152615dc06040850152615dc060608501526802b5e3af16b1880000608085015261030c60a08501528160c0850152016000526002602052604060002091805192835160018060401b038111620013aa578154600181811c9116801562001807575b60208210146200138957601f8111620017be575b506020601f82116001146200175057819293949560009262001744575b50508160011b916000199060031b1c19161781555b60208201518051906001600160401b038211620013aa576001830154600181811c9116801562001739575b60208210146200138957601f8111620016ed575b50602090601f83116001146200167357918060c0949260069460009262001667575b50508160011b916000199060031b1c19161760018201555b60408401516002820155606084015160038201556080840151600482015560a0840151600582015501910151151560ff801983541691161790556005546040516060815282519283606083015260005b8481106200165057838060008051602062002ea7833981519152856080818a6000838284010152615dc060208301526802b5e3af16b18800006040830152601f80199101168101030190a260001981146200128a576001810160055562000dff62002143565b601381527f50726976617465204372656469742046756e64000000000000000000000000006020820152600162000e3562002143565b92600c84526b141c9a5d985d19481119589d60a21b602085015262000e5962002123565b938385526020850152613e806040850152613e8060608501526802b5e3af16b1880000608085015261035260a08501528160c0850152016000526002602052604060002091805192835160018060401b038111620013aa578154600181811c9116801562001645575b60208210146200138957601f8111620015fc575b506020601f82116001146200158e57819293949560009262001582575b50508160011b916000199060031b1c19161781555b60208201518051906001600160401b038211620013aa576001830154600181811c9116801562001577575b60208210146200138957601f81116200152b575b50602090601f8311600114620014b157918060c09492600694600092620014a5575b50508160011b916000199060031b1c19161760018201555b60408401516002820155606084015160038201556080840151600482015560a0840151600582015501910151151560ff801983541691161790556005546040516060815282519283606083015260005b8481106200148e57838060008051602062002ea7833981519152856080818a6000838284010152613e8060208301526802b5e3af16b18800006040830152601f80199101168101030190a260001981146200128a57600181016005556200103762002143565b601781527f53747564656e7420486f7573696e6720436f6d706c6578000000000000000000602082015260016200106d62002143565b92600b84526a5265616c2045737461746560a81b60208501526200109062002123565b938385526020850152612ee06040850152612ee060608501526802b5e3af16b1880000608085015261037060a08501528160c0850152016000526002602052604060002091805192835160018060401b038111620013aa578154600181811c9116801562001483575b60208210146200138957601f81116200143a575b506020601f8211600114620013cc578192939495600092620013c0575b50508160011b916000199060031b1c19161781555b60208201518051906001600160401b038211620013aa576001830154600181811c911680156200139f575b60208210146200138957601f81116200133d575b50602090601f8311600114620012c357918060c09492600694600092620012b7575b50508160011b916000199060031b1c19161760018201555b60408401516002820155606084015160038201556080840151600482015560a0840151600582015501910151151560ff801983541691161790556005546040516060815282519283606083015260005b848110620012a057838060008051602062002ea7833981519152856080818a6000838284010152612ee060208301526802b5e3af16b18800006040830152601f80199101168101030190a260001981146200128a57600101600555604051610d439081620021648239608051818181610296015281816104a901526108c70152f35b634e487b7160e01b600052601160045260246000fd5b806020809284010151608082860101520162001208565b015190508780620011a0565b906001840160005260206000209160005b601f19851681106200132457509260c0949260019260069583601f198116106200130a575b505050811b016001820155620011b8565b015160001960f88460031b161c19169055878080620012f9565b91926020600181928685015181550194019201620012d4565b600184016000526020600020601f840160051c81016020851062001381575b601f830160051c82018110620013745750506200117e565b600081556001016200135c565b50806200135c565b634e487b7160e01b600052602260045260246000fd5b90607f16906200116a565b634e487b7160e01b600052604160045260246000fd5b0151905085806200112a565b8260005260206000209060005b601f198416811062001421575060019394959683601f1981161062001407575b505050811b0181556200113f565b015160001960f88460031b161c19169055858080620013f9565b9091602060018192858b015181550193019101620013d9565b826000526020600020601f830160051c8101602084106200147b575b601f830160051c820181106200146e5750506200110d565b6000815560010162001456565b508062001456565b90607f1690620010f9565b806020809284010151608082860101520162000fd1565b01519050878062000f69565b906001840160005260206000209160005b601f19851681106200151257509260c0949260019260069583601f19811610620014f8575b505050811b01600182015562000f81565b015160001960f88460031b161c19169055878080620014e7565b91926020600181928685015181550194019201620014c2565b600184016000526020600020601f840160051c8101602085106200156f575b601f830160051c820181106200156257505062000f47565b600081556001016200154a565b50806200154a565b90607f169062000f33565b01519050858062000ef3565b8260005260206000209060005b601f1984168110620015e3575060019394959683601f19811610620015c9575b505050811b01815562000f08565b015160001960f88460031b161c19169055858080620015bb565b9091602060018192858b0151815501930191016200159b565b826000526020600020601f830160051c8101602084106200163d575b601f830160051c820181106200163057505062000ed6565b6000815560010162001618565b508062001618565b90607f169062000ec2565b806020809284010151608082860101520162000d99565b01519050878062000d31565b906001840160005260206000209160005b601f1985168110620016d457509260c0949260019260069583601f19811610620016ba575b505050811b01600182015562000d49565b015160001960f88460031b161c19169055878080620016a9565b9192602060018192868501518155019401920162001684565b600184016000526020600020601f840160051c81016020851062001731575b601f830160051c820181106200172457505062000d0f565b600081556001016200170c565b50806200170c565b90607f169062000cfb565b01519050858062000cbb565b8260005260206000209060005b601f1984168110620017a5575060019394959683601f198116106200178b575b505050811b01815562000cd0565b015160001960f88460031b161c191690558580806200177d565b9091602060018192858b0151815501930191016200175d565b826000526020600020601f830160051c810160208410620017ff575b601f830160051c82018110620017f257505062000c9e565b60008155600101620017da565b5080620017da565b90607f169062000c8a565b806020809284010151608082860101520162000b62565b01519050878062000afa565b906001840160005260206000209160005b601f19851681106200189657509260c0949260019260069583601f198116106200187c575b505050811b01600182015562000b12565b015160001960f88460031b161c191690558780806200186b565b9192602060018192868501518155019401920162001846565b600184016000526020600020601f840160051c810160208510620018f3575b601f830160051c82018110620018e657505062000ad8565b60008155600101620018ce565b5080620018ce565b90607f169062000ac4565b01519050858062000a84565b8260005260206000209060005b601f198416811062001967575060019394959683601f198116106200194d575b505050811b01815562000a99565b015160001960f88460031b161c191690558580806200193f565b9091602060018192858b0151815501930191016200191f565b826000526020600020601f830160051c810160208410620019c1575b601f830160051c82018110620019b457505062000a67565b600081556001016200199c565b50806200199c565b90607f169062000a53565b80602080928401015160808286010152016200092b565b015190508780620008c3565b906001840160005260206000209160005b601f198516811062001a5857509260c0949260019260069583601f1981161062001a3e575b505050811b016001820155620008db565b015160001960f88460031b161c1916905587808062001a2d565b9192602060018192868501518155019401920162001a08565b600184016000526020600020601f840160051c81016020851062001ab5575b601f830160051c8201811062001aa8575050620008a1565b6000815560010162001a90565b508062001a90565b90607f16906200088d565b0151905085806200084d565b8260005260206000209060005b601f198416811062001b29575060019394959683601f1981161062001b0f575b505050811b01815562000862565b015160001960f88460031b161c1916905585808062001b01565b9091602060018192858b01518155019301910162001ae1565b826000526020600020601f830160051c81016020841062001b83575b601f830160051c8201811062001b7657505062000830565b6000815560010162001b5e565b508062001b5e565b90607f16906200081c565b8060208092840101516080828601015201620006f4565b0151905087806200068c565b906001840160005260206000209160005b601f198516811062001c1a57509260c0949260019260069583601f1981161062001c00575b505050811b016001820155620006a4565b015160001960f88460031b161c1916905587808062001bef565b9192602060018192868501518155019401920162001bca565b600184016000526020600020601f840160051c81016020851062001c77575b601f830160051c8201811062001c6a5750506200066a565b6000815560010162001c52565b508062001c52565b90607f169062000656565b01519050858062000616565b8260005260206000209060005b601f198416811062001ceb575060019394959683601f1981161062001cd1575b505050811b0181556200062b565b015160001960f88460031b161c1916905585808062001cc3565b9091602060018192858b01518155019301910162001ca3565b826000526020600020601f830160051c81016020841062001d45575b601f830160051c8201811062001d38575050620005f9565b6000815560010162001d20565b508062001d20565b90607f1690620005e5565b8060208092840101516080828601015201620004ba565b01519050878062000452565b906001840160005260206000209160005b601f198516811062001ddc57509260c0949260019260069583601f1981161062001dc2575b505050811b0160018201556200046a565b015160001960f88460031b161c1916905587808062001db1565b9192602060018192868501518155019401920162001d8c565b600184016000526020600020601f840160051c81016020851062001e39575b601f830160051c8201811062001e2c57505062000430565b6000815560010162001e14565b508062001e14565b90607f16906200041c565b015190508580620003dc565b8260005260206000209060005b601f198416811062001ead575060019394959683601f1981161062001e93575b505050811b018155620003f1565b015160001960f88460031b161c1916905585808062001e85565b9091602060018192858b01518155019301910162001e65565b826000526020600020601f830160051c81016020841062001f07575b601f830160051c8201811062001efa575050620003bf565b6000815560010162001ee2565b508062001ee2565b90607f1690620003ab565b806020809284010151608082860101520162000282565b01519050388062000219565b906001850160005260206000209160005b601f198516811062001f9e5750926006949260019260c09583601f1981161062001f84575b505050811b01600185015562000231565b015160001960f88460031b161c1916905538808062001f73565b9192602060018192868501518155019401920162001f4e565b600185016000526020600020601f840160051c81016020851062001ffb575b601f830160051c8201811062001fee575050620001f7565b6000815560010162001fd6565b508062001fd6565b90607f1690620001e3565b015190503880620001a3565b8360005260206000209060005b601f19841681106200206f575060019394959683601f1981161062002055575b505050811b018255620001b8565b015160001960f88460031b161c1916905538808062002047565b9091602060018192858b01518155019301910162002027565b836000526020600020601f830160051c810160208410620020c9575b601f830160051c82018110620020bc57505062000186565b60008155600101620020a4565b5080620020a4565b90607f169062000172565b62461bcd60e51b815260206004820152601560248201527f496e76616c6964207061796d656e7420746f6b656e00000000000000000000006044820152606490fd5b600080fd5b6040519060e082016001600160401b03811183821017620013aa57604052565b60408051919082016001600160401b03811183821017620013aa5760405256fe6080604081815260048036101561001557600080fd5b600092833560e01c9081633013ce29146108b3575080636a8a69aa1461085c578063715018a6146107ff578063765ff061146107505780638da5cb5b14610727578063a0aead4d14610202578063ad954878146106de578063cf35bdd014610644578063d2bcdc6014610386578063db2e21bc14610267578063ddd9d04514610225578063eafe7a7414610202578063f2fde38b146101375763f637d950146100bd57600080fd5b34610133576020366003190112610133578161011c9382356100e26005548210610a8a565b815260026020522060028101549160038201549082015490610108600584015493610977565b94805196879660a0885260a0880190610a4a565b946020870152850152606084015260808301520390f35b8280fd5b5034610133576020366003190112610133576101516108f6565b9061015a610ac8565b6001600160a01b039182169283156101b0575050600154826bffffffffffffffffffffffff60a01b821617600155167f8be0079c531659141344cd1fd0a4f28419497f9722a3daafe3b4186f6b6457e08380a380f35b906020608492519162461bcd60e51b8352820152602660248201527f4f776e61626c653a206e6577206f776e657220697320746865207a65726f206160448201526564647265737360d01b6064820152fd5b5050346102215781600319360112610221576020906005549051908152f35b5080fd5b505034610221578060031936011261022157806020926102436108f6565b6024358252600385528282206001600160a01b039091168252845220549051908152f35b50919034610221578160031936011261022157610282610ac8565b80516370a0823160e01b81523084820152907f0000000000000000000000000000000000000000000000000000000000000000906001600160a01b036020846024818487165afa93841561037c578594610344575b50836102e1578480f35b600154169281519363a9059cbb60e01b60208601526024850152604484015260448352608083019083821067ffffffffffffffff8311176103315761032894955052610b20565b80388080808480f35b634e487b7160e01b855260418652602485fd5b9093506020813d602011610374575b816103606020938361093f565b81010312610370575192386102d7565b8480fd5b3d9150610353565b82513d87823e3d90fd5b508290346102215782600319360112610221578035602493843592600285541461060357600285556103bb6005548410610a8a565b83156105cd578285526020600281528286209160ff6006840154161561059a576003830192835490878210610558578201549384880294888604036104f0578782039182116104f057558487526003825283872033885282528387205415610502575b8487526003825283872033885282528387208054908782018092116104f0575583516323b872dd60e01b838201523389820152306044820152606480820185905281529760a089019167ffffffffffffffff83118a8410176104df5750507fce81571c08c76465bdf390ad1abe80af8c51c6c4566e3485f9395f13d5ad6328949596976104cd9185527f0000000000000000000000000000000000000000000000000000000000000000610b20565b82519586528501523393a36001815580f35b634e487b7160e01b89526041905287fd5b634e487b7160e01b8952601183528989fd5b80825283872080549068010000000000000000821015610546579061052c91600182018155610911565b81549060031b9087821b91600019901b191617905561041e565b634e487b7160e01b8952604183528989fd5b855162461bcd60e51b8152808401859052601d818c01527f496e73756666696369656e742073686172657320617661696c61626c650000006044820152606490fd5b60108860649386519362461bcd60e51b85528401528201526f4173736574206e6f742061637469766560801b6044820152fd5b6012866020606494519362461bcd60e51b8552840152820152710536861726573206d757374206265203e20360741b6044820152fd5b601f866020606494519362461bcd60e51b85528401528201527f5265656e7472616e637947756172643a207265656e7472616e742063616c6c006044820152fd5b50903461013357602036600319011261013357806106b293833581526002602052209161067083610977565b9261067d60018201610977565b91600282015490600383015490830154916106c060ff6006600587015496015416958751998a9960e08b5260e08b0190610a4a565b9089820360208b0152610a4a565b958701526060860152608085015260a0840152151560c08301520390f35b50346101335781600319360112610133576024356001600160a01b03811691908290036107235792829160209435825260038552828220908252845220549051908152f35b8380fd5b50503461022157816003193601126102215760015490516001600160a01b039091168152602090f35b5082346107fc5760209182600319360112610221579192916001600160a01b036107786108f6565b1682528352818120908251808584549182815201908194845286842090845b8181106107e857505050816107ad91038261093f565b83519485948186019282875251809352850193925b8281106107d157505050500390f35b8351855286955093810193928101926001016107c2565b825484529288019260019283019201610797565b80fd5b83346107fc57806003193601126107fc57610818610ac8565b600180546001600160a01b0319811690915581906001600160a01b03167f8be0079c531659141344cd1fd0a4f28419497f9722a3daafe3b4186f6b6457e08280a380f35b5091346107fc57816003193601126107fc576108766108f6565b6001600160a01b03168152602092909252808220805460243593908410156107fc57506020926108a591610911565b91905490519160031b1c8152f35b8490346102215781600319360112610221577f00000000000000000000000000000000000000000000000000000000000000006001600160a01b03168152602090f35b600435906001600160a01b038216820361090c57565b600080fd5b80548210156109295760005260206000200190600090565b634e487b7160e01b600052603260045260246000fd5b90601f8019910116810190811067ffffffffffffffff82111761096157604052565b634e487b7160e01b600052604160045260246000fd5b9060405190600083549060018260011c9060018416968715610a40575b6020948584108914610a2c5787988489979899529081600014610a0a57506001146109cb575b5050506109c99250038361093f565b565b600090815285812095935091905b8183106109f25750506109c993508201013880806109ba565b855488840185015294850194879450918301916109d9565b925050506109c994925060ff191682840152151560051b8201013880806109ba565b634e487b7160e01b85526022600452602485fd5b91607f1691610994565b919082519283825260005b848110610a76575050826000602080949584010152601f8019910116010190565b602081830181015184830182015201610a55565b15610a9157565b60405162461bcd60e51b815260206004820152600f60248201526e105cdcd95d081b9bdd08199bdd5b99608a1b6044820152606490fd5b6001546001600160a01b03163303610adc57565b606460405162461bcd60e51b815260206004820152602060248201527f4f776e61626c653a2063616c6c6572206973206e6f7420746865206f776e65726044820152fd5b60018060a01b0316906040516040810167ffffffffffffffff9082811082821117610961576040526020938483527f5361666545524332303a206c6f772d6c6576656c2063616c6c206661696c6564858401526000808587829751910182855af1903d15610c65573d928311610c515790610bbb93929160405192610bae88601f19601f840116018561093f565b83523d868885013e610c70565b805191821591848315610c2d575b505050905015610bd65750565b6084906040519062461bcd60e51b82526004820152602a60248201527f5361666545524332303a204552433230206f7065726174696f6e20646964206e6044820152691bdd081cdd58d8d9595960b21b6064820152fd5b919381809450010312610221578201519081151582036107fc575080388084610bc9565b634e487b7160e01b85526041600452602485fd5b90610bbb9392506060915b91929015610cd25750815115610c84575090565b3b15610c8d5790565b60405162461bcd60e51b815260206004820152601d60248201527f416464726573733a2063616c6c20746f206e6f6e2d636f6e74726163740000006044820152606490fd5b825190915015610ce55750805190602001fd5b60405162461bcd60e51b815260206004820152908190610d09906024830190610a4a565b0390fdfea26469706673582212208e9f3e27be7e29d402676673188746cd624d7a4040391787405ddd993a2ed1b964736f6c634300081800339f83a681a533580aa6785ac573f703bf305e30628c3b3d0e31b50443a4336e73","opcodes":"PUSH1 0xA0 CALLVALUE PUSH3 0x211E JUMPI PUSH1 0x1F PUSH3 0x2EC7 CODESIZE DUP2 SWAP1 SUB SWAP2 DUP3 ADD PUSH1 0x1F NOT AND DUP4 ADD SWAP2 PUSH1 0x1 PUSH1 0x1 PUSH1 0x40 SHL SUB DUP4 GT DUP5 DUP5 LT OR PUSH3 0x13AA JUMPI DUP1 DUP5 SWAP3 PUSH1 0x20 SWAP5 PUSH1 0x40 MSTORE DUP4 CODECOPY DUP2 ADD SUB SLT PUSH3 0x211E JUMPI MLOAD PUSH1 0x1 PUSH1 0x1 PUSH1 0xA0 SHL SUB DUP1 DUP3 AND SWAP2 DUP3 SWAP1 SUB PUSH3 0x211E JUMPI PUSH1 0x1 PUSH1 0x0 DUP2 DUP2 SSTORE DUP2 SLOAD CALLER PUSH1 0x1 PUSH1 0x1 PUSH1 0xA0 SHL SUB NOT DUP3 AND DUP2 OR SWAP1 SWAP4 SSTORE PUSH1 0x40 MLOAD SWAP4 AND SWAP1 PUSH32 0x8BE0079C531659141344CD1FD0A4F28419497F9722A3DAAFE3B4186F6B6457E0 SWAP1 DUP1 LOG3 DUP2 ISZERO PUSH3 0x20DC JUMPI POP PUSH1 0x80 MSTORE PUSH3 0xB0 PUSH3 0x2143 JUMP JUMPDEST PUSH1 0x1C DUP2 MSTORE PUSH32 0x4D69616D69204265616368204C75787572792041706172746D656E7400000000 PUSH1 0x20 DUP3 ADD MSTORE PUSH3 0xE4 PUSH3 0x2143 JUMP JUMPDEST SWAP1 PUSH1 0xB DUP3 MSTORE PUSH11 0x5265616C20457374617465 PUSH1 0xA8 SHL PUSH1 0x20 DUP4 ADD MSTORE PUSH3 0x107 PUSH3 0x2123 JUMP JUMPDEST SWAP2 DUP2 DUP4 MSTORE PUSH1 0x20 DUP4 ADD MSTORE PUSH2 0x2710 PUSH1 0x40 DUP4 ADD MSTORE PUSH2 0x2710 PUSH1 0x60 DUP4 ADD MSTORE PUSH9 0x2B5E3AF16B1880000 PUSH1 0x80 DUP4 ADD MSTORE PUSH2 0x320 PUSH1 0xA0 DUP4 ADD MSTORE PUSH1 0x1 PUSH1 0xC0 DUP4 ADD MSTORE PUSH1 0x5 SLOAD PUSH1 0x0 MSTORE PUSH1 0x2 PUSH1 0x20 MSTORE PUSH1 0x40 PUSH1 0x0 KECCAK256 DUP3 MLOAD SWAP3 DUP4 MLOAD PUSH1 0x1 DUP1 PUSH1 0x40 SHL SUB DUP2 GT PUSH3 0x13AA JUMPI DUP3 SLOAD PUSH1 0x1 DUP2 DUP2 SHR SWAP2 AND DUP1 ISZERO PUSH3 0x20D1 JUMPI JUMPDEST PUSH1 0x20 DUP3 LT EQ PUSH3 0x1389 JUMPI PUSH1 0x1F DUP2 GT PUSH3 0x2088 JUMPI JUMPDEST POP PUSH1 0x20 PUSH1 0x1F DUP3 GT PUSH1 0x1 EQ PUSH3 0x201A JUMPI DUP2 SWAP3 SWAP4 SWAP5 SWAP6 PUSH1 0x0 SWAP3 PUSH3 0x200E JUMPI JUMPDEST POP POP DUP2 PUSH1 0x1 SHL SWAP2 PUSH1 0x0 NOT SWAP1 PUSH1 0x3 SHL SHR NOT AND OR DUP3 SSTORE JUMPDEST PUSH1 0x20 DUP2 ADD MLOAD DUP1 MLOAD SWAP1 PUSH1 0x1 PUSH1 0x1 PUSH1 0x40 SHL SUB DUP3 GT PUSH3 0x13AA JUMPI PUSH1 0x1 DUP5 ADD SLOAD PUSH1 0x1 DUP2 DUP2 SHR SWAP2 AND DUP1 ISZERO PUSH3 0x2003 JUMPI JUMPDEST PUSH1 0x20 DUP3 LT EQ PUSH3 0x1389 JUMPI PUSH1 0x1F DUP2 GT PUSH3 0x1FB7 JUMPI JUMPDEST POP PUSH1 0x20 SWAP1 PUSH1 0x1F DUP4 GT PUSH1 0x1 EQ PUSH3 0x1F3D JUMPI SWAP2 DUP1 PUSH1 0x6 SWAP5 SWAP3 PUSH1 0xC0 SWAP5 PUSH1 0x0 SWAP3 PUSH3 0x1F31 JUMPI JUMPDEST POP POP DUP2 PUSH1 0x1 SHL SWAP2 PUSH1 0x0 NOT SWAP1 PUSH1 0x3 SHL SHR NOT AND OR PUSH1 0x1 DUP6 ADD SSTORE JUMPDEST PUSH1 0x40 DUP2 ADD MLOAD PUSH1 0x2 DUP6 ADD SSTORE PUSH1 0x60 DUP2 ADD MLOAD PUSH1 0x3 DUP6 ADD SSTORE PUSH1 0x80 DUP2 ADD MLOAD PUSH1 0x4 DUP6 ADD SSTORE PUSH1 0xA0 DUP2 ADD MLOAD PUSH1 0x5 DUP6 ADD SSTORE ADD MLOAD ISZERO ISZERO PUSH1 0xFF DUP1 NOT DUP4 DUP6 ADD SLOAD AND SWAP2 AND OR SWAP2 ADD SSTORE PUSH1 0x5 SLOAD PUSH1 0x40 MLOAD PUSH1 0x60 DUP2 MSTORE DUP3 MLOAD SWAP3 DUP4 PUSH1 0x60 DUP4 ADD MSTORE PUSH1 0x0 JUMPDEST DUP5 DUP2 LT PUSH3 0x1F1A JUMPI DUP4 DUP1 PUSH1 0x0 DUP1 MLOAD PUSH1 0x20 PUSH3 0x2EA7 DUP4 CODECOPY DUP2 MLOAD SWAP2 MSTORE DUP6 PUSH1 0x80 DUP2 DUP11 PUSH1 0x0 DUP4 DUP3 DUP5 ADD ADD MSTORE PUSH2 0x2710 PUSH1 0x20 DUP4 ADD MSTORE PUSH9 0x2B5E3AF16B1880000 PUSH1 0x40 DUP4 ADD MSTORE PUSH1 0x1F DUP1 NOT SWAP2 ADD AND DUP2 ADD SUB ADD SWAP1 LOG2 PUSH1 0x0 NOT DUP2 EQ PUSH3 0x128A JUMPI PUSH1 0x1 DUP2 ADD PUSH1 0x5 SSTORE PUSH3 0x2E8 PUSH3 0x2143 JUMP JUMPDEST PUSH1 0x18 DUP2 MSTORE PUSH32 0x436F72706F7261746520426F6E6420506F7274666F6C696F0000000000000000 PUSH1 0x20 DUP3 ADD MSTORE PUSH1 0x1 PUSH3 0x31E PUSH3 0x2143 JUMP JUMPDEST SWAP3 PUSH1 0xC DUP5 MSTORE PUSH12 0x141C9A5D985D19481119589D PUSH1 0xA2 SHL PUSH1 0x20 DUP6 ADD MSTORE PUSH3 0x342 PUSH3 0x2123 JUMP JUMPDEST SWAP4 DUP4 DUP6 MSTORE PUSH1 0x20 DUP6 ADD MSTORE PUSH2 0x4E20 PUSH1 0x40 DUP6 ADD MSTORE PUSH2 0x4E20 PUSH1 0x60 DUP6 ADD MSTORE PUSH9 0x2B5E3AF16B1880000 PUSH1 0x80 DUP6 ADD MSTORE PUSH2 0x28A PUSH1 0xA0 DUP6 ADD MSTORE DUP2 PUSH1 0xC0 DUP6 ADD MSTORE ADD PUSH1 0x0 MSTORE PUSH1 0x2 PUSH1 0x20 MSTORE PUSH1 0x40 PUSH1 0x0 KECCAK256 SWAP2 DUP1 MLOAD SWAP3 DUP4 MLOAD PUSH1 0x1 DUP1 PUSH1 0x40 SHL SUB DUP2 GT PUSH3 0x13AA JUMPI DUP2 SLOAD PUSH1 0x1 DUP2 DUP2 SHR SWAP2 AND DUP1 ISZERO PUSH3 0x1F0F JUMPI JUMPDEST PUSH1 0x20 DUP3 LT EQ PUSH3 0x1389 JUMPI PUSH1 0x1F DUP2 GT PUSH3 0x1EC6 JUMPI JUMPDEST POP PUSH1 0x20 PUSH1 0x1F DUP3 GT PUSH1 0x1 EQ PUSH3 0x1E58 JUMPI DUP2 SWAP3 SWAP4 SWAP5 SWAP6 PUSH1 0x0 SWAP3 PUSH3 0x1E4C JUMPI JUMPDEST POP POP DUP2 PUSH1 0x1 SHL SWAP2 PUSH1 0x0 NOT SWAP1 PUSH1 0x3 SHL SHR NOT AND OR DUP2 SSTORE JUMPDEST PUSH1 0x20 DUP3 ADD MLOAD DUP1 MLOAD SWAP1 PUSH1 0x1 PUSH1 0x1 PUSH1 0x40 SHL SUB DUP3 GT PUSH3 0x13AA JUMPI PUSH1 0x1 DUP4 ADD SLOAD PUSH1 0x1 DUP2 DUP2 SHR SWAP2 AND DUP1 ISZERO PUSH3 0x1E41 JUMPI JUMPDEST PUSH1 0x20 DUP3 LT EQ PUSH3 0x1389 JUMPI PUSH1 0x1F DUP2 GT PUSH3 0x1DF5 JUMPI JUMPDEST POP PUSH1 0x20 SWAP1 PUSH1 0x1F DUP4 GT PUSH1 0x1 EQ PUSH3 0x1D7B JUMPI SWAP2 DUP1 PUSH1 0xC0 SWAP5 SWAP3 PUSH1 0x6 SWAP5 PUSH1 0x0 SWAP3 PUSH3 0x1D6F JUMPI JUMPDEST POP POP DUP2 PUSH1 0x1 SHL SWAP2 PUSH1 0x0 NOT SWAP1 PUSH1 0x3 SHL SHR NOT AND OR PUSH1 0x1 DUP3 ADD SSTORE JUMPDEST PUSH1 0x40 DUP5 ADD MLOAD PUSH1 0x2 DUP3 ADD SSTORE PUSH1 0x60 DUP5 ADD MLOAD PUSH1 0x3 DUP3 ADD SSTORE PUSH1 0x80 DUP5 ADD MLOAD PUSH1 0x4 DUP3 ADD SSTORE PUSH1 0xA0 DUP5 ADD MLOAD PUSH1 0x5 DUP3 ADD SSTORE ADD SWAP2 ADD MLOAD ISZERO ISZERO PUSH1 0xFF DUP1 NOT DUP4 SLOAD AND SWAP2 AND OR SWAP1 SSTORE PUSH1 0x5 SLOAD PUSH1 0x40 MLOAD PUSH1 0x60 DUP2 MSTORE DUP3 MLOAD SWAP3 DUP4 PUSH1 0x60 DUP4 ADD MSTORE PUSH1 0x0 JUMPDEST DUP5 DUP2 LT PUSH3 0x1D58 JUMPI DUP4 DUP1 PUSH1 0x0 DUP1 MLOAD PUSH1 0x20 PUSH3 0x2EA7 DUP4 CODECOPY DUP2 MLOAD SWAP2 MSTORE DUP6 PUSH1 0x80 DUP2 DUP11 PUSH1 0x0 DUP4 DUP3 DUP5 ADD ADD MSTORE PUSH2 0x4E20 PUSH1 0x20 DUP4 ADD MSTORE PUSH9 0x2B5E3AF16B1880000 PUSH1 0x40 DUP4 ADD MSTORE PUSH1 0x1F DUP1 NOT SWAP2 ADD AND DUP2 ADD SUB ADD SWAP1 LOG2 PUSH1 0x0 NOT DUP2 EQ PUSH3 0x128A JUMPI PUSH1 0x1 DUP2 ADD PUSH1 0x5 SSTORE PUSH3 0x520 PUSH3 0x2143 JUMP JUMPDEST PUSH1 0x18 DUP2 MSTORE PUSH32 0x52656E657761626C6520456E657267792050726F6A6563740000000000000000 PUSH1 0x20 DUP3 ADD MSTORE PUSH1 0x1 PUSH3 0x556 PUSH3 0x2143 JUMP JUMPDEST SWAP3 PUSH1 0xE DUP5 MSTORE PUSH14 0x496E667261737472756374757265 PUSH1 0x90 SHL PUSH1 0x20 DUP6 ADD MSTORE PUSH3 0x57C PUSH3 0x2123 JUMP JUMPDEST SWAP4 DUP4 DUP6 MSTORE PUSH1 0x20 DUP6 ADD MSTORE PUSH2 0x3A98 PUSH1 0x40 DUP6 ADD MSTORE PUSH2 0x3A98 PUSH1 0x60 DUP6 ADD MSTORE PUSH9 0x2B5E3AF16B1880000 PUSH1 0x80 DUP6 ADD MSTORE PUSH2 0x398 PUSH1 0xA0 DUP6 ADD MSTORE DUP2 PUSH1 0xC0 DUP6 ADD MSTORE ADD PUSH1 0x0 MSTORE PUSH1 0x2 PUSH1 0x20 MSTORE PUSH1 0x40 PUSH1 0x0 KECCAK256 SWAP2 DUP1 MLOAD SWAP3 DUP4 MLOAD PUSH1 0x1 DUP1 PUSH1 0x40 SHL SUB DUP2 GT PUSH3 0x13AA JUMPI DUP2 SLOAD PUSH1 0x1 DUP2 DUP2 SHR SWAP2 AND DUP1 ISZERO PUSH3 0x1D4D JUMPI JUMPDEST PUSH1 0x20 DUP3 LT EQ PUSH3 0x1389 JUMPI PUSH1 0x1F DUP2 GT PUSH3 0x1D04 JUMPI JUMPDEST POP PUSH1 0x20 PUSH1 0x1F DUP3 GT PUSH1 0x1 EQ PUSH3 0x1C96 JUMPI DUP2 SWAP3 SWAP4 SWAP5 SWAP6 PUSH1 0x0 SWAP3 PUSH3 0x1C8A JUMPI JUMPDEST POP POP DUP2 PUSH1 0x1 SHL SWAP2 PUSH1 0x0 NOT SWAP1 PUSH1 0x3 SHL SHR NOT AND OR DUP2 SSTORE JUMPDEST PUSH1 0x20 DUP3 ADD MLOAD DUP1 MLOAD SWAP1 PUSH1 0x1 PUSH1 0x1 PUSH1 0x40 SHL SUB DUP3 GT PUSH3 0x13AA JUMPI PUSH1 0x1 DUP4 ADD SLOAD PUSH1 0x1 DUP2 DUP2 SHR SWAP2 AND DUP1 ISZERO PUSH3 0x1C7F JUMPI JUMPDEST PUSH1 0x20 DUP3 LT EQ PUSH3 0x1389 JUMPI PUSH1 0x1F DUP2 GT PUSH3 0x1C33 JUMPI JUMPDEST POP PUSH1 0x20 SWAP1 PUSH1 0x1F DUP4 GT PUSH1 0x1 EQ PUSH3 0x1BB9 JUMPI SWAP2 DUP1 PUSH1 0xC0 SWAP5 SWAP3 PUSH1 0x6 SWAP5 PUSH1 0x0 SWAP3 PUSH3 0x1BAD JUMPI JUMPDEST POP POP DUP2 PUSH1 0x1 SHL SWAP2 PUSH1 0x0 NOT SWAP1 PUSH1 0x3 SHL SHR NOT AND OR PUSH1 0x1 DUP3 ADD SSTORE JUMPDEST PUSH1 0x40 DUP5 ADD MLOAD PUSH1 0x2 DUP3 ADD SSTORE PUSH1 0x60 DUP5 ADD MLOAD PUSH1 0x3 DUP3 ADD SSTORE PUSH1 0x80 DUP5 ADD MLOAD PUSH1 0x4 DUP3 ADD SSTORE PUSH1 0xA0 DUP5 ADD MLOAD PUSH1 0x5 DUP3 ADD SSTORE ADD SWAP2 ADD MLOAD ISZERO ISZERO PUSH1 0xFF DUP1 NOT DUP4 SLOAD AND SWAP2 AND OR SWAP1 SSTORE PUSH1 0x5 SLOAD PUSH1 0x40 MLOAD PUSH1 0x60 DUP2 MSTORE DUP3 MLOAD SWAP3 DUP4 PUSH1 0x60 DUP4 ADD MSTORE PUSH1 0x0 JUMPDEST DUP5 DUP2 LT PUSH3 0x1B96 JUMPI DUP4 DUP1 PUSH1 0x0 DUP1 MLOAD PUSH1 0x20 PUSH3 0x2EA7 DUP4 CODECOPY DUP2 MLOAD SWAP2 MSTORE DUP6 PUSH1 0x80 DUP2 DUP11 PUSH1 0x0 DUP4 DUP3 DUP5 ADD ADD MSTORE PUSH2 0x3A98 PUSH1 0x20 DUP4 ADD MSTORE PUSH9 0x2B5E3AF16B1880000 PUSH1 0x40 DUP4 ADD MSTORE PUSH1 0x1F DUP1 NOT SWAP2 ADD AND DUP2 ADD SUB ADD SWAP1 LOG2 PUSH1 0x0 NOT DUP2 EQ PUSH3 0x128A JUMPI PUSH1 0x1 DUP2 ADD PUSH1 0x5 SSTORE PUSH3 0x75A PUSH3 0x2143 JUMP JUMPDEST PUSH1 0x1B DUP2 MSTORE PUSH32 0x436F6D6D65726369616C205265616C204573746174652046756E640000000000 PUSH1 0x20 DUP3 ADD MSTORE PUSH1 0x1 PUSH3 0x790 PUSH3 0x2143 JUMP JUMPDEST SWAP3 PUSH1 0xB DUP5 MSTORE PUSH11 0x5265616C20457374617465 PUSH1 0xA8 SHL PUSH1 0x20 DUP6 ADD MSTORE PUSH3 0x7B3 PUSH3 0x2123 JUMP JUMPDEST SWAP4 DUP4 DUP6 MSTORE PUSH1 0x20 DUP6 ADD MSTORE PUSH2 0x9C40 PUSH1 0x40 DUP6 ADD MSTORE PUSH2 0x9C40 PUSH1 0x60 DUP6 ADD MSTORE PUSH9 0x2B5E3AF16B1880000 PUSH1 0x80 DUP6 ADD MSTORE PUSH2 0x2EE PUSH1 0xA0 DUP6 ADD MSTORE DUP2 PUSH1 0xC0 DUP6 ADD MSTORE ADD PUSH1 0x0 MSTORE PUSH1 0x2 PUSH1 0x20 MSTORE PUSH1 0x40 PUSH1 0x0 KECCAK256 SWAP2 DUP1 MLOAD SWAP3 DUP4 MLOAD PUSH1 0x1 DUP1 PUSH1 0x40 SHL SUB DUP2 GT PUSH3 0x13AA JUMPI DUP2 SLOAD PUSH1 0x1 DUP2 DUP2 SHR SWAP2 AND DUP1 ISZERO PUSH3 0x1B8B JUMPI JUMPDEST PUSH1 0x20 DUP3 LT EQ PUSH3 0x1389 JUMPI PUSH1 0x1F DUP2 GT PUSH3 0x1B42 JUMPI JUMPDEST POP PUSH1 0x20 PUSH1 0x1F DUP3 GT PUSH1 0x1 EQ PUSH3 0x1AD4 JUMPI DUP2 SWAP3 SWAP4 SWAP5 SWAP6 PUSH1 0x0 SWAP3 PUSH3 0x1AC8 JUMPI JUMPDEST POP POP DUP2 PUSH1 0x1 SHL SWAP2 PUSH1 0x0 NOT SWAP1 PUSH1 0x3 SHL SHR NOT AND OR DUP2 SSTORE JUMPDEST PUSH1 0x20 DUP3 ADD MLOAD DUP1 MLOAD SWAP1 PUSH1 0x1 PUSH1 0x1 PUSH1 0x40 SHL SUB DUP3 GT PUSH3 0x13AA JUMPI PUSH1 0x1 DUP4 ADD SLOAD PUSH1 0x1 DUP2 DUP2 SHR SWAP2 AND DUP1 ISZERO PUSH3 0x1ABD JUMPI JUMPDEST PUSH1 0x20 DUP3 LT EQ PUSH3 0x1389 JUMPI PUSH1 0x1F DUP2 GT PUSH3 0x1A71 JUMPI JUMPDEST POP PUSH1 0x20 SWAP1 PUSH1 0x1F DUP4 GT PUSH1 0x1 EQ PUSH3 0x19F7 JUMPI SWAP2 DUP1 PUSH1 0xC0 SWAP5 SWAP3 PUSH1 0x6 SWAP5 PUSH1 0x0 SWAP3 PUSH3 0x19EB JUMPI JUMPDEST POP POP DUP2 PUSH1 0x1 SHL SWAP2 PUSH1 0x0 NOT SWAP1 PUSH1 0x3 SHL SHR NOT AND OR PUSH1 0x1 DUP3 ADD SSTORE JUMPDEST PUSH1 0x40 DUP5 ADD MLOAD PUSH1 0x2 DUP3 ADD SSTORE PUSH1 0x60 DUP5 ADD MLOAD PUSH1 0x3 DUP3 ADD SSTORE PUSH1 0x80 DUP5 ADD MLOAD PUSH1 0x4 DUP3 ADD SSTORE PUSH1 0xA0 DUP5 ADD MLOAD PUSH1 0x5 DUP3 ADD SSTORE ADD SWAP2 ADD MLOAD ISZERO ISZERO PUSH1 0xFF DUP1 NOT DUP4 SLOAD AND SWAP2 AND OR SWAP1 SSTORE PUSH1 0x5 SLOAD PUSH1 0x40 MLOAD PUSH1 0x60 DUP2 MSTORE DUP3 MLOAD SWAP3 DUP4 PUSH1 0x60 DUP4 ADD MSTORE PUSH1 0x0 JUMPDEST DUP5 DUP2 LT PUSH3 0x19D4 JUMPI DUP4 DUP1 PUSH1 0x0 DUP1 MLOAD PUSH1 0x20 PUSH3 0x2EA7 DUP4 CODECOPY DUP2 MLOAD SWAP2 MSTORE DUP6 PUSH1 0x80 DUP2 DUP11 PUSH1 0x0 DUP4 DUP3 DUP5 ADD ADD MSTORE PUSH2 0x9C40 PUSH1 0x20 DUP4 ADD MSTORE PUSH9 0x2B5E3AF16B1880000 PUSH1 0x40 DUP4 ADD MSTORE PUSH1 0x1F DUP1 NOT SWAP2 ADD AND DUP2 ADD SUB ADD SWAP1 LOG2 PUSH1 0x0 NOT DUP2 EQ PUSH3 0x128A JUMPI PUSH1 0x1 DUP2 ADD PUSH1 0x5 SSTORE PUSH3 0x991 PUSH3 0x2143 JUMP JUMPDEST PUSH1 0x1C DUP2 MSTORE PUSH32 0x4A6170616E6573652041727420436F6C6C656374696F6E2046756E6400000000 PUSH1 0x20 DUP3 ADD MSTORE PUSH1 0x1 PUSH3 0x9C7 PUSH3 0x2143 JUMP JUMPDEST SWAP3 PUSH1 0xB DUP5 MSTORE PUSH11 0x416C7465726E6174697665 PUSH1 0xA8 SHL PUSH1 0x20 DUP6 ADD MSTORE PUSH3 0x9EA PUSH3 0x2123 JUMP JUMPDEST SWAP4 DUP4 DUP6 MSTORE PUSH1 0x20 DUP6 ADD MSTORE PUSH2 0x1770 PUSH1 0x40 DUP6 ADD MSTORE PUSH2 0x1770 PUSH1 0x60 DUP6 ADD MSTORE PUSH9 0x2B5E3AF16B1880000 PUSH1 0x80 DUP6 ADD MSTORE PUSH2 0x4B0 PUSH1 0xA0 DUP6 ADD MSTORE DUP2 PUSH1 0xC0 DUP6 ADD MSTORE ADD PUSH1 0x0 MSTORE PUSH1 0x2 PUSH1 0x20 MSTORE PUSH1 0x40 PUSH1 0x0 KECCAK256 SWAP2 DUP1 MLOAD SWAP3 DUP4 MLOAD PUSH1 0x1 DUP1 PUSH1 0x40 SHL SUB DUP2 GT PUSH3 0x13AA JUMPI DUP2 SLOAD PUSH1 0x1 DUP2 DUP2 SHR SWAP2 AND DUP1 ISZERO PUSH3 0x19C9 JUMPI JUMPDEST PUSH1 0x20 DUP3 LT EQ PUSH3 0x1389 JUMPI PUSH1 0x1F DUP2 GT PUSH3 0x1980 JUMPI JUMPDEST POP PUSH1 0x20 PUSH1 0x1F DUP3 GT PUSH1 0x1 EQ PUSH3 0x1912 JUMPI DUP2 SWAP3 SWAP4 SWAP5 SWAP6 PUSH1 0x0 SWAP3 PUSH3 0x1906 JUMPI JUMPDEST POP POP DUP2 PUSH1 0x1 SHL SWAP2 PUSH1 0x0 NOT SWAP1 PUSH1 0x3 SHL SHR NOT AND OR DUP2 SSTORE JUMPDEST PUSH1 0x20 DUP3 ADD MLOAD DUP1 MLOAD SWAP1 PUSH1 0x1 PUSH1 0x1 PUSH1 0x40 SHL SUB DUP3 GT PUSH3 0x13AA JUMPI PUSH1 0x1 DUP4 ADD SLOAD PUSH1 0x1 DUP2 DUP2 SHR SWAP2 AND DUP1 ISZERO PUSH3 0x18FB JUMPI JUMPDEST PUSH1 0x20 DUP3 LT EQ PUSH3 0x1389 JUMPI PUSH1 0x1F DUP2 GT PUSH3 0x18AF JUMPI JUMPDEST POP PUSH1 0x20 SWAP1 PUSH1 0x1F DUP4 GT PUSH1 0x1 EQ PUSH3 0x1835 JUMPI SWAP2 DUP1 PUSH1 0xC0 SWAP5 SWAP3 PUSH1 0x6 SWAP5 PUSH1 0x0 SWAP3 PUSH3 0x1829 JUMPI JUMPDEST POP POP DUP2 PUSH1 0x1 SHL SWAP2 PUSH1 0x0 NOT SWAP1 PUSH1 0x3 SHL SHR NOT AND OR PUSH1 0x1 DUP3 ADD SSTORE JUMPDEST PUSH1 0x40 DUP5 ADD MLOAD PUSH1 0x2 DUP3 ADD SSTORE PUSH1 0x60 DUP5 ADD MLOAD PUSH1 0x3 DUP3 ADD SSTORE PUSH1 0x80 DUP5 ADD MLOAD PUSH1 0x4 DUP3 ADD SSTORE PUSH1 0xA0 DUP5 ADD MLOAD PUSH1 0x5 DUP3 ADD SSTORE ADD SWAP2 ADD MLOAD ISZERO ISZERO PUSH1 0xFF DUP1 NOT DUP4 SLOAD AND SWAP2 AND OR SWAP1 SSTORE PUSH1 0x5 SLOAD PUSH1 0x40 MLOAD PUSH1 0x60 DUP2 MSTORE DUP3 MLOAD SWAP3 DUP4 PUSH1 0x60 DUP4 ADD MSTORE PUSH1 0x0 JUMPDEST DUP5 DUP2 LT PUSH3 0x1812 JUMPI DUP4 DUP1 PUSH1 0x0 DUP1 MLOAD PUSH1 0x20 PUSH3 0x2EA7 DUP4 CODECOPY DUP2 MLOAD SWAP2 MSTORE DUP6 PUSH1 0x80 DUP2 DUP11 PUSH1 0x0 DUP4 DUP3 DUP5 ADD ADD MSTORE PUSH2 0x1770 PUSH1 0x20 DUP4 ADD MSTORE PUSH9 0x2B5E3AF16B1880000 PUSH1 0x40 DUP4 ADD MSTORE PUSH1 0x1F DUP1 NOT SWAP2 ADD AND DUP2 ADD SUB ADD SWAP1 LOG2 PUSH1 0x0 NOT DUP2 EQ PUSH3 0x128A JUMPI PUSH1 0x1 DUP2 ADD PUSH1 0x5 SSTORE PUSH3 0xBC8 PUSH3 0x2143 JUMP JUMPDEST PUSH1 0x1D DUP2 MSTORE PUSH32 0x4C6F676973746963732057617265686F75736520506F7274666F6C696F000000 PUSH1 0x20 DUP3 ADD MSTORE PUSH1 0x1 PUSH3 0xBFE PUSH3 0x2143 JUMP JUMPDEST SWAP3 PUSH1 0xB DUP5 MSTORE PUSH11 0x5265616C20457374617465 PUSH1 0xA8 SHL PUSH1 0x20 DUP6 ADD MSTORE PUSH3 0xC21 PUSH3 0x2123 JUMP JUMPDEST SWAP4 DUP4 DUP6 MSTORE PUSH1 0x20 DUP6 ADD MSTORE PUSH2 0x5DC0 PUSH1 0x40 DUP6 ADD MSTORE PUSH2 0x5DC0 PUSH1 0x60 DUP6 ADD MSTORE PUSH9 0x2B5E3AF16B1880000 PUSH1 0x80 DUP6 ADD MSTORE PUSH2 0x30C PUSH1 0xA0 DUP6 ADD MSTORE DUP2 PUSH1 0xC0 DUP6 ADD MSTORE ADD PUSH1 0x0 MSTORE PUSH1 0x2 PUSH1 0x20 MSTORE PUSH1 0x40 PUSH1 0x0 KECCAK256 SWAP2 DUP1 MLOAD SWAP3 DUP4 MLOAD PUSH1 0x1 DUP1 PUSH1 0x40 SHL SUB DUP2 GT PUSH3 0x13AA JUMPI DUP2 SLOAD PUSH1 0x1 DUP2 DUP2 SHR SWAP2 AND DUP1 ISZERO PUSH3 0x1807 JUMPI JUMPDEST PUSH1 0x20 DUP3 LT EQ PUSH3 0x1389 JUMPI PUSH1 0x1F DUP2 GT PUSH3 0x17BE JUMPI JUMPDEST POP PUSH1 0x20 PUSH1 0x1F DUP3 GT PUSH1 0x1 EQ PUSH3 0x1750 JUMPI DUP2 SWAP3 SWAP4 SWAP5 SWAP6 PUSH1 0x0 SWAP3 PUSH3 0x1744 JUMPI JUMPDEST POP POP DUP2 PUSH1 0x1 SHL SWAP2 PUSH1 0x0 NOT SWAP1 PUSH1 0x3 SHL SHR NOT AND OR DUP2 SSTORE JUMPDEST PUSH1 0x20 DUP3 ADD MLOAD DUP1 MLOAD SWAP1 PUSH1 0x1 PUSH1 0x1 PUSH1 0x40 SHL SUB DUP3 GT PUSH3 0x13AA JUMPI PUSH1 0x1 DUP4 ADD SLOAD PUSH1 0x1 DUP2 DUP2 SHR SWAP2 AND DUP1 ISZERO PUSH3 0x1739 JUMPI JUMPDEST PUSH1 0x20 DUP3 LT EQ PUSH3 0x1389 JUMPI PUSH1 0x1F DUP2 GT PUSH3 0x16ED JUMPI JUMPDEST POP PUSH1 0x20 SWAP1 PUSH1 0x1F DUP4 GT PUSH1 0x1 EQ PUSH3 0x1673 JUMPI SWAP2 DUP1 PUSH1 0xC0 SWAP5 SWAP3 PUSH1 0x6 SWAP5 PUSH1 0x0 SWAP3 PUSH3 0x1667 JUMPI JUMPDEST POP POP DUP2 PUSH1 0x1 SHL SWAP2 PUSH1 0x0 NOT SWAP1 PUSH1 0x3 SHL SHR NOT AND OR PUSH1 0x1 DUP3 ADD SSTORE JUMPDEST PUSH1 0x40 DUP5 ADD MLOAD PUSH1 0x2 DUP3 ADD SSTORE PUSH1 0x60 DUP5 ADD MLOAD PUSH1 0x3 DUP3 ADD SSTORE PUSH1 0x80 DUP5 ADD MLOAD PUSH1 0x4 DUP3 ADD SSTORE PUSH1 0xA0 DUP5 ADD MLOAD PUSH1 0x5 DUP3 ADD SSTORE ADD SWAP2 ADD MLOAD ISZERO ISZERO PUSH1 0xFF DUP1 NOT DUP4 SLOAD AND SWAP2 AND OR SWAP1 SSTORE PUSH1 0x5 SLOAD PUSH1 0x40 MLOAD PUSH1 0x60 DUP2 MSTORE DUP3 MLOAD SWAP3 DUP4 PUSH1 0x60 DUP4 ADD MSTORE PUSH1 0x0 JUMPDEST DUP5 DUP2 LT PUSH3 0x1650 JUMPI DUP4 DUP1 PUSH1 0x0 DUP1 MLOAD PUSH1 0x20 PUSH3 0x2EA7 DUP4 CODECOPY DUP2 MLOAD SWAP2 MSTORE DUP6 PUSH1 0x80 DUP2 DUP11 PUSH1 0x0 DUP4 DUP3 DUP5 ADD ADD MSTORE PUSH2 0x5DC0 PUSH1 0x20 DUP4 ADD MSTORE PUSH9 0x2B5E3AF16B1880000 PUSH1 0x40 DUP4 ADD MSTORE PUSH1 0x1F DUP1 NOT SWAP2 ADD AND DUP2 ADD SUB ADD SWAP1 LOG2 PUSH1 0x0 NOT DUP2 EQ PUSH3 0x128A JUMPI PUSH1 0x1 DUP2 ADD PUSH1 0x5 SSTORE PUSH3 0xDFF PUSH3 0x2143 JUMP JUMPDEST PUSH1 0x13 DUP2 MSTORE PUSH32 0x50726976617465204372656469742046756E6400000000000000000000000000 PUSH1 0x20 DUP3 ADD MSTORE PUSH1 0x1 PUSH3 0xE35 PUSH3 0x2143 JUMP JUMPDEST SWAP3 PUSH1 0xC DUP5 MSTORE PUSH12 0x141C9A5D985D19481119589D PUSH1 0xA2 SHL PUSH1 0x20 DUP6 ADD MSTORE PUSH3 0xE59 PUSH3 0x2123 JUMP JUMPDEST SWAP4 DUP4 DUP6 MSTORE PUSH1 0x20 DUP6 ADD MSTORE PUSH2 0x3E80 PUSH1 0x40 DUP6 ADD MSTORE PUSH2 0x3E80 PUSH1 0x60 DUP6 ADD MSTORE PUSH9 0x2B5E3AF16B1880000 PUSH1 0x80 DUP6 ADD MSTORE PUSH2 0x352 PUSH1 0xA0 DUP6 ADD MSTORE DUP2 PUSH1 0xC0 DUP6 ADD MSTORE ADD PUSH1 0x0 MSTORE PUSH1 0x2 PUSH1 0x20 MSTORE PUSH1 0x40 PUSH1 0x0 KECCAK256 SWAP2 DUP1 MLOAD SWAP3 DUP4 MLOAD PUSH1 0x1 DUP1 PUSH1 0x40 SHL SUB DUP2 GT PUSH3 0x13AA JUMPI DUP2 SLOAD PUSH1 0x1 DUP2 DUP2 SHR SWAP2 AND DUP1 ISZERO PUSH3 0x1645 JUMPI JUMPDEST PUSH1 0x20 DUP3 LT EQ PUSH3 0x1389 JUMPI PUSH1 0x1F DUP2 GT PUSH3 0x15FC JUMPI JUMPDEST POP PUSH1 0x20 PUSH1 0x1F DUP3 GT PUSH1 0x1 EQ PUSH3 0x158E JUMPI DUP2 SWAP3 SWAP4 SWAP5 SWAP6 PUSH1 0x0 SWAP3 PUSH3 0x1582 JUMPI JUMPDEST POP POP DUP2 PUSH1 0x1 SHL SWAP2 PUSH1 0x0 NOT SWAP1 PUSH1 0x3 SHL SHR NOT AND OR DUP2 SSTORE JUMPDEST PUSH1 0x20 DUP3 ADD MLOAD DUP1 MLOAD SWAP1 PUSH1 0x1 PUSH1 0x1 PUSH1 0x40 SHL SUB DUP3 GT PUSH3 0x13AA JUMPI PUSH1 0x1 DUP4 ADD SLOAD PUSH1 0x1 DUP2 DUP2 SHR SWAP2 AND DUP1 ISZERO PUSH3 0x1577 JUMPI JUMPDEST PUSH1 0x20 DUP3 LT EQ PUSH3 0x1389 JUMPI PUSH1 0x1F DUP2 GT PUSH3 0x152B JUMPI JUMPDEST POP PUSH1 0x20 SWAP1 PUSH1 0x1F DUP4 GT PUSH1 0x1 EQ PUSH3 0x14B1 JUMPI SWAP2 DUP1 PUSH1 0xC0 SWAP5 SWAP3 PUSH1 0x6 SWAP5 PUSH1 0x0 SWAP3 PUSH3 0x14A5 JUMPI JUMPDEST POP POP DUP2 PUSH1 0x1 SHL SWAP2 PUSH1 0x0 NOT SWAP1 PUSH1 0x3 SHL SHR NOT AND OR PUSH1 0x1 DUP3 ADD SSTORE JUMPDEST PUSH1 0x40 DUP5 ADD MLOAD PUSH1 0x2 DUP3 ADD SSTORE PUSH1 0x60 DUP5 ADD MLOAD PUSH1 0x3 DUP3 ADD SSTORE PUSH1 0x80 DUP5 ADD MLOAD PUSH1 0x4 DUP3 ADD SSTORE PUSH1 0xA0 DUP5 ADD MLOAD PUSH1 0x5 DUP3 ADD SSTORE ADD SWAP2 ADD MLOAD ISZERO ISZERO PUSH1 0xFF DUP1 NOT DUP4 SLOAD AND SWAP2 AND OR SWAP1 SSTORE PUSH1 0x5 SLOAD PUSH1 0x40 MLOAD PUSH1 0x60 DUP2 MSTORE DUP3 MLOAD SWAP3 DUP4 PUSH1 0x60 DUP4 ADD MSTORE PUSH1 0x0 JUMPDEST DUP5 DUP2 LT PUSH3 0x148E JUMPI DUP4 DUP1 PUSH1 0x0 DUP1 MLOAD PUSH1 0x20 PUSH3 0x2EA7 DUP4 CODECOPY DUP2 MLOAD SWAP2 MSTORE DUP6 PUSH1 0x80 DUP2 DUP11 PUSH1 0x0 DUP4 DUP3 DUP5 ADD ADD MSTORE PUSH2 0x3E80 PUSH1 0x20 DUP4 ADD MSTORE PUSH9 0x2B5E3AF16B1880000 PUSH1 0x40 DUP4 ADD MSTORE PUSH1 0x1F DUP1 NOT SWAP2 ADD AND DUP2 ADD SUB ADD SWAP1 LOG2 PUSH1 0x0 NOT DUP2 EQ PUSH3 0x128A JUMPI PUSH1 0x1 DUP2 ADD PUSH1 0x5 SSTORE PUSH3 0x1037 PUSH3 0x2143 JUMP JUMPDEST PUSH1 0x17 DUP2 MSTORE PUSH32 0x53747564656E7420486F7573696E6720436F6D706C6578000000000000000000 PUSH1 0x20 DUP3 ADD MSTORE PUSH1 0x1 PUSH3 0x106D PUSH3 0x2143 JUMP JUMPDEST SWAP3 PUSH1 0xB DUP5 MSTORE PUSH11 0x5265616C20457374617465 PUSH1 0xA8 SHL PUSH1 0x20 DUP6 ADD MSTORE PUSH3 0x1090 PUSH3 0x2123 JUMP JUMPDEST SWAP4 DUP4 DUP6 MSTORE PUSH1 0x20 DUP6 ADD MSTORE PUSH2 0x2EE0 PUSH1 0x40 DUP6 ADD MSTORE PUSH2 0x2EE0 PUSH1 0x60 DUP6 ADD MSTORE PUSH9 0x2B5E3AF16B1880000 PUSH1 0x80 DUP6 ADD MSTORE PUSH2 0x370 PUSH1 0xA0 DUP6 ADD MSTORE DUP2 PUSH1 0xC0 DUP6 ADD MSTORE ADD PUSH1 0x0 MSTORE PUSH1 0x2 PUSH1 0x20 MSTORE PUSH1 0x40 PUSH1 0x0 KECCAK256 SWAP2 DUP1 MLOAD SWAP3 DUP4 MLOAD PUSH1 0x1 DUP1 PUSH1 0x40 SHL SUB DUP2 GT PUSH3 0x13AA JUMPI DUP2 SLOAD PUSH1 0x1 DUP2 DUP2 SHR SWAP2 AND DUP1 ISZERO PUSH3 0x1483 JUMPI JUMPDEST PUSH1 0x20 DUP3 LT EQ PUSH3 0x1389 JUMPI PUSH1 0x1F DUP2 GT PUSH3 0x143A JUMPI JUMPDEST POP PUSH1 0x20 PUSH1 0x1F DUP3 GT PUSH1 0x1 EQ PUSH3 0x13CC JUMPI DUP2 SWAP3 SWAP4 SWAP5 SWAP6 PUSH1 0x0 SWAP3 PUSH3 0x13C0 JUMPI JUMPDEST POP POP DUP2 PUSH1 0x1 SHL SWAP2 PUSH1 0x0 NOT SWAP1 PUSH1 0x3 SHL SHR NOT AND OR DUP2 SSTORE JUMPDEST PUSH1 0x20 DUP3 ADD MLOAD DUP1 MLOAD SWAP1 PUSH1 0x1 PUSH1 0x1 PUSH1 0x40 SHL SUB DUP3 GT PUSH3 0x13AA JUMPI PUSH1 0x1 DUP4 ADD SLOAD PUSH1 0x1 DUP2 DUP2 SHR SWAP2 AND DUP1 ISZERO PUSH3 0x139F JUMPI JUMPDEST PUSH1 0x20 DUP3 LT EQ PUSH3 0x1389 JUMPI PUSH1 0x1F DUP2 GT PUSH3 0x133D JUMPI JUMPDEST POP PUSH1 0x20 SWAP1 PUSH1 0x1F DUP4 GT PUSH1 0x1 EQ PUSH3 0x12C3 JUMPI SWAP2 DUP1 PUSH1 0xC0 SWAP5 SWAP3 PUSH1 0x6 SWAP5 PUSH1 0x0 SWAP3 PUSH3 0x12B7 JUMPI JUMPDEST POP POP DUP2 PUSH1 0x1 SHL SWAP2 PUSH1 0x0 NOT SWAP1 PUSH1 0x3 SHL SHR NOT AND OR PUSH1 0x1 DUP3 ADD SSTORE JUMPDEST PUSH1 0x40 DUP5 ADD MLOAD PUSH1 0x2 DUP3 ADD SSTORE PUSH1 0x60 DUP5 ADD MLOAD PUSH1 0x3 DUP3 ADD SSTORE PUSH1 0x80 DUP5 ADD MLOAD PUSH1 0x4 DUP3 ADD SSTORE PUSH1 0xA0 DUP5 ADD MLOAD PUSH1 0x5 DUP3 ADD SSTORE ADD SWAP2 ADD MLOAD ISZERO ISZERO PUSH1 0xFF DUP1 NOT DUP4 SLOAD AND SWAP2 AND OR SWAP1 SSTORE PUSH1 0x5 SLOAD PUSH1 0x40 MLOAD PUSH1 0x60 DUP2 MSTORE DUP3 MLOAD SWAP3 DUP4 PUSH1 0x60 DUP4 ADD MSTORE PUSH1 0x0 JUMPDEST DUP5 DUP2 LT PUSH3 0x12A0 JUMPI DUP4 DUP1 PUSH1 0x0 DUP1 MLOAD PUSH1 0x20 PUSH3 0x2EA7 DUP4 CODECOPY DUP2 MLOAD SWAP2 MSTORE DUP6 PUSH1 0x80 DUP2 DUP11 PUSH1 0x0 DUP4 DUP3 DUP5 ADD ADD MSTORE PUSH2 0x2EE0 PUSH1 0x20 DUP4 ADD MSTORE PUSH9 0x2B5E3AF16B1880000 PUSH1 0x40 DUP4 ADD MSTORE PUSH1 0x1F DUP1 NOT SWAP2 ADD AND DUP2 ADD SUB ADD SWAP1 LOG2 PUSH1 0x0 NOT DUP2 EQ PUSH3 0x128A JUMPI PUSH1 0x1 ADD PUSH1 0x5 SSTORE PUSH1 0x40 MLOAD PUSH2 0xD43 SWAP1 DUP2 PUSH3 0x2164 DUP3 CODECOPY PUSH1 0x80 MLOAD DUP2 DUP2 DUP2 PUSH2 0x296 ADD MSTORE DUP2 DUP2 PUSH2 0x4A9 ADD MSTORE PUSH2 0x8C7 ADD MSTORE RETURN JUMPDEST PUSH4 0x4E487B71 PUSH1 0xE0 SHL PUSH1 0x0 MSTORE PUSH1 0x11 PUSH1 0x4 MSTORE PUSH1 0x24 PUSH1 0x0 REVERT JUMPDEST DUP1 PUSH1 0x20 DUP1 SWAP3 DUP5 ADD ADD MLOAD PUSH1 0x80 DUP3 DUP7 ADD ADD MSTORE ADD PUSH3 0x1208 JUMP JUMPDEST ADD MLOAD SWAP1 POP DUP8 DUP1 PUSH3 0x11A0 JUMP JUMPDEST SWAP1 PUSH1 0x1 DUP5 ADD PUSH1 0x0 MSTORE PUSH1 0x20 PUSH1 0x0 KECCAK256 SWAP2 PUSH1 0x0 JUMPDEST PUSH1 0x1F NOT DUP6 AND DUP2 LT PUSH3 0x1324 JUMPI POP SWAP3 PUSH1 0xC0 SWAP5 SWAP3 PUSH1 0x1 SWAP3 PUSH1 0x6 SWAP6 DUP4 PUSH1 0x1F NOT DUP2 AND LT PUSH3 0x130A JUMPI JUMPDEST POP POP POP DUP2 SHL ADD PUSH1 0x1 DUP3 ADD SSTORE PUSH3 0x11B8 JUMP JUMPDEST ADD MLOAD PUSH1 0x0 NOT PUSH1 0xF8 DUP5 PUSH1 0x3 SHL AND SHR NOT AND SWAP1 SSTORE DUP8 DUP1 DUP1 PUSH3 0x12F9 JUMP JUMPDEST SWAP2 SWAP3 PUSH1 0x20 PUSH1 0x1 DUP2 SWAP3 DUP7 DUP6 ADD MLOAD DUP2 SSTORE ADD SWAP5 ADD SWAP3 ADD PUSH3 0x12D4 JUMP JUMPDEST PUSH1 0x1 DUP5 ADD PUSH1 0x0 MSTORE PUSH1 0x20 PUSH1 0x0 KECCAK256 PUSH1 0x1F DUP5 ADD PUSH1 0x5 SHR DUP2 ADD PUSH1 0x20 DUP6 LT PUSH3 0x1381 JUMPI JUMPDEST PUSH1 0x1F DUP4 ADD PUSH1 0x5 SHR DUP3 ADD DUP2 LT PUSH3 0x1374 JUMPI POP POP PUSH3 0x117E JUMP JUMPDEST PUSH1 0x0 DUP2 SSTORE PUSH1 0x1 ADD PUSH3 0x135C JUMP JUMPDEST POP DUP1 PUSH3 0x135C JUMP JUMPDEST PUSH4 0x4E487B71 PUSH1 0xE0 SHL PUSH1 0x0 MSTORE PUSH1 0x22 PUSH1 0x4 MSTORE PUSH1 0x24 PUSH1 0x0 REVERT JUMPDEST SWAP1 PUSH1 0x7F AND SWAP1 PUSH3 0x116A JUMP JUMPDEST PUSH4 0x4E487B71 PUSH1 0xE0 SHL PUSH1 0x0 MSTORE PUSH1 0x41 PUSH1 0x4 MSTORE PUSH1 0x24 PUSH1 0x0 REVERT JUMPDEST ADD MLOAD SWAP1 POP DUP6 DUP1 PUSH3 0x112A JUMP JUMPDEST DUP3 PUSH1 0x0 MSTORE PUSH1 0x20 PUSH1 0x0 KECCAK256 SWAP1 PUSH1 0x0 JUMPDEST PUSH1 0x1F NOT DUP5 AND DUP2 LT PUSH3 0x1421 JUMPI POP PUSH1 0x1 SWAP4 SWAP5 SWAP6 SWAP7 DUP4 PUSH1 0x1F NOT DUP2 AND LT PUSH3 0x1407 JUMPI JUMPDEST POP POP POP DUP2 SHL ADD DUP2 SSTORE PUSH3 0x113F JUMP JUMPDEST ADD MLOAD PUSH1 0x0 NOT PUSH1 0xF8 DUP5 PUSH1 0x3 SHL AND SHR NOT AND SWAP1 SSTORE DUP6 DUP1 DUP1 PUSH3 0x13F9 JUMP JUMPDEST SWAP1 SWAP2 PUSH1 0x20 PUSH1 0x1 DUP2 SWAP3 DUP6 DUP12 ADD MLOAD DUP2 SSTORE ADD SWAP4 ADD SWAP2 ADD PUSH3 0x13D9 JUMP JUMPDEST DUP3 PUSH1 0x0 MSTORE PUSH1 0x20 PUSH1 0x0 KECCAK256 PUSH1 0x1F DUP4 ADD PUSH1 0x5 SHR DUP2 ADD PUSH1 0x20 DUP5 LT PUSH3 0x147B JUMPI JUMPDEST PUSH1 0x1F DUP4 ADD PUSH1 0x5 SHR DUP3 ADD DUP2 LT PUSH3 0x146E JUMPI POP POP PUSH3 0x110D JUMP JUMPDEST PUSH1 0x0 DUP2 SSTORE PUSH1 0x1 ADD PUSH3 0x1456 JUMP JUMPDEST POP DUP1 PUSH3 0x1456 JUMP JUMPDEST SWAP1 PUSH1 0x7F AND SWAP1 PUSH3 0x10F9 JUMP JUMPDEST DUP1 PUSH1 0x20 DUP1 SWAP3 DUP5 ADD ADD MLOAD PUSH1 0x80 DUP3 DUP7 ADD ADD MSTORE ADD PUSH3 0xFD1 JUMP JUMPDEST ADD MLOAD SWAP1 POP DUP8 DUP1 PUSH3 0xF69 JUMP JUMPDEST SWAP1 PUSH1 0x1 DUP5 ADD PUSH1 0x0 MSTORE PUSH1 0x20 PUSH1 0x0 KECCAK256 SWAP2 PUSH1 0x0 JUMPDEST PUSH1 0x1F NOT DUP6 AND DUP2 LT PUSH3 0x1512 JUMPI POP SWAP3 PUSH1 0xC0 SWAP5 SWAP3 PUSH1 0x1 SWAP3 PUSH1 0x6 SWAP6 DUP4 PUSH1 0x1F NOT DUP2 AND LT PUSH3 0x14F8 JUMPI JUMPDEST POP POP POP DUP2 SHL ADD PUSH1 0x1 DUP3 ADD SSTORE PUSH3 0xF81 JUMP JUMPDEST ADD MLOAD PUSH1 0x0 NOT PUSH1 0xF8 DUP5 PUSH1 0x3 SHL AND SHR NOT AND SWAP1 SSTORE DUP8 DUP1 DUP1 PUSH3 0x14E7 JUMP JUMPDEST SWAP2 SWAP3 PUSH1 0x20 PUSH1 0x1 DUP2 SWAP3 DUP7 DUP6 ADD MLOAD DUP2 SSTORE ADD SWAP5 ADD SWAP3 ADD PUSH3 0x14C2 JUMP JUMPDEST PUSH1 0x1 DUP5 ADD PUSH1 0x0 MSTORE PUSH1 0x20 PUSH1 0x0 KECCAK256 PUSH1 0x1F DUP5 ADD PUSH1 0x5 SHR DUP2 ADD PUSH1 0x20 DUP6 LT PUSH3 0x156F JUMPI JUMPDEST PUSH1 0x1F DUP4 ADD PUSH1 0x5 SHR DUP3 ADD DUP2 LT PUSH3 0x1562 JUMPI POP POP PUSH3 0xF47 JUMP JUMPDEST PUSH1 0x0 DUP2 SSTORE PUSH1 0x1 ADD PUSH3 0x154A JUMP JUMPDEST POP DUP1 PUSH3 0x154A JUMP JUMPDEST SWAP1 PUSH1 0x7F AND SWAP1 PUSH3 0xF33 JUMP JUMPDEST ADD MLOAD SWAP1 POP DUP6 DUP1 PUSH3 0xEF3 JUMP JUMPDEST DUP3 PUSH1 0x0 MSTORE PUSH1 0x20 PUSH1 0x0 KECCAK256 SWAP1 PUSH1 0x0 JUMPDEST PUSH1 0x1F NOT DUP5 AND DUP2 LT PUSH3 0x15E3 JUMPI POP PUSH1 0x1 SWAP4 SWAP5 SWAP6 SWAP7 DUP4 PUSH1 0x1F NOT DUP2 AND LT PUSH3 0x15C9 JUMPI JUMPDEST POP POP POP DUP2 SHL ADD DUP2 SSTORE PUSH3 0xF08 JUMP JUMPDEST ADD MLOAD PUSH1 0x0 NOT PUSH1 0xF8 DUP5 PUSH1 0x3 SHL AND SHR NOT AND SWAP1 SSTORE DUP6 DUP1 DUP1 PUSH3 0x15BB JUMP JUMPDEST SWAP1 SWAP2 PUSH1 0x20 PUSH1 0x1 DUP2 SWAP3 DUP6 DUP12 ADD MLOAD DUP2 SSTORE ADD SWAP4 ADD SWAP2 ADD PUSH3 0x159B JUMP JUMPDEST DUP3 PUSH1 0x0 MSTORE PUSH1 0x20 PUSH1 0x0 KECCAK256 PUSH1 0x1F DUP4 ADD PUSH1 0x5 SHR DUP2 ADD PUSH1 0x20 DUP5 LT PUSH3 0x163D JUMPI JUMPDEST PUSH1 0x1F DUP4 ADD PUSH1 0x5 SHR DUP3 ADD DUP2 LT PUSH3 0x1630 JUMPI POP POP PUSH3 0xED6 JUMP JUMPDEST PUSH1 0x0 DUP2 SSTORE PUSH1 0x1 ADD PUSH3 0x1618 JUMP JUMPDEST POP DUP1 PUSH3 0x1618 JUMP JUMPDEST SWAP1 PUSH1 0x7F AND SWAP1 PUSH3 0xEC2 JUMP JUMPDEST DUP1 PUSH1 0x20 DUP1 SWAP3 DUP5 ADD ADD MLOAD PUSH1 0x80 DUP3 DUP7 ADD ADD MSTORE ADD PUSH3 0xD99 JUMP JUMPDEST ADD MLOAD SWAP1 POP DUP8 DUP1 PUSH3 0xD31 JUMP JUMPDEST SWAP1 PUSH1 0x1 DUP5 ADD PUSH1 0x0 MSTORE PUSH1 0x20 PUSH1 0x0 KECCAK256 SWAP2 PUSH1 0x0 JUMPDEST PUSH1 0x1F NOT DUP6 AND DUP2 LT PUSH3 0x16D4 JUMPI POP SWAP3 PUSH1 0xC0 SWAP5 SWAP3 PUSH1 0x1 SWAP3 PUSH1 0x6 SWAP6 DUP4 PUSH1 0x1F NOT DUP2 AND LT PUSH3 0x16BA JUMPI JUMPDEST POP POP POP DUP2 SHL ADD PUSH1 0x1 DUP3 ADD SSTORE PUSH3 0xD49 JUMP JUMPDEST ADD MLOAD PUSH1 0x0 NOT PUSH1 0xF8 DUP5 PUSH1 0x3 SHL AND SHR NOT AND SWAP1 SSTORE DUP8 DUP1 DUP1 PUSH3 0x16A9 JUMP JUMPDEST SWAP2 SWAP3 PUSH1 0x20 PUSH1 0x1 DUP2 SWAP3 DUP7 DUP6 ADD MLOAD DUP2 SSTORE ADD SWAP5 ADD SWAP3 ADD PUSH3 0x1684 JUMP JUMPDEST PUSH1 0x1 DUP5 ADD PUSH1 0x0 MSTORE PUSH1 0x20 PUSH1 0x0 KECCAK256 PUSH1 0x1F DUP5 ADD PUSH1 0x5 SHR DUP2 ADD PUSH1 0x20 DUP6 LT PUSH3 0x1731 JUMPI JUMPDEST PUSH1 0x1F DUP4 ADD PUSH1 0x5 SHR DUP3 ADD DUP2 LT PUSH3 0x1724 JUMPI POP POP PUSH3 0xD0F JUMP JUMPDEST PUSH1 0x0 DUP2 SSTORE PUSH1 0x1 ADD PUSH3 0x170C JUMP JUMPDEST POP DUP1 PUSH3 0x170C JUMP JUMPDEST SWAP1 PUSH1 0x7F AND SWAP1 PUSH3 0xCFB JUMP JUMPDEST ADD MLOAD SWAP1 POP DUP6 DUP1 PUSH3 0xCBB JUMP JUMPDEST DUP3 PUSH1 0x0 MSTORE PUSH1 0x20 PUSH1 0x0 KECCAK256 SWAP1 PUSH1 0x0 JUMPDEST PUSH1 0x1F NOT DUP5 AND DUP2 LT PUSH3 0x17A5 JUMPI POP PUSH1 0x1 SWAP4 SWAP5 SWAP6 SWAP7 DUP4 PUSH1 0x1F NOT DUP2 AND LT PUSH3 0x178B JUMPI JUMPDEST POP POP POP DUP2 SHL ADD DUP2 SSTORE PUSH3 0xCD0 JUMP JUMPDEST ADD MLOAD PUSH1 0x0 NOT PUSH1 0xF8 DUP5 PUSH1 0x3 SHL AND SHR NOT AND SWAP1 SSTORE DUP6 DUP1 DUP1 PUSH3 0x177D JUMP JUMPDEST SWAP1 SWAP2 PUSH1 0x20 PUSH1 0x1 DUP2 SWAP3 DUP6 DUP12 ADD MLOAD DUP2 SSTORE ADD SWAP4 ADD SWAP2 ADD PUSH3 0x175D JUMP JUMPDEST DUP3 PUSH1 0x0 MSTORE PUSH1 0x20 PUSH1 0x0 KECCAK256 PUSH1 0x1F DUP4 ADD PUSH1 0x5 SHR DUP2 ADD PUSH1 0x20 DUP5 LT PUSH3 0x17FF JUMPI JUMPDEST PUSH1 0x1F DUP4 ADD PUSH1 0x5 SHR DUP3 ADD DUP2 LT PUSH3 0x17F2 JUMPI POP POP PUSH3 0xC9E JUMP JUMPDEST PUSH1 0x0 DUP2 SSTORE PUSH1 0x1 ADD PUSH3 0x17DA JUMP JUMPDEST POP DUP1 PUSH3 0x17DA JUMP JUMPDEST SWAP1 PUSH1 0x7F AND SWAP1 PUSH3 0xC8A JUMP JUMPDEST DUP1 PUSH1 0x20 DUP1 SWAP3 DUP5 ADD ADD MLOAD PUSH1 0x80 DUP3 DUP7 ADD ADD MSTORE ADD PUSH3 0xB62 JUMP JUMPDEST ADD MLOAD SWAP1 POP DUP8 DUP1 PUSH3 0xAFA JUMP JUMPDEST SWAP1 PUSH1 0x1 DUP5 ADD PUSH1 0x0 MSTORE PUSH1 0x20 PUSH1 0x0 KECCAK256 SWAP2 PUSH1 0x0 JUMPDEST PUSH1 0x1F NOT DUP6 AND DUP2 LT PUSH3 0x1896 JUMPI POP SWAP3 PUSH1 0xC0 SWAP5 SWAP3 PUSH1 0x1 SWAP3 PUSH1 0x6 SWAP6 DUP4 PUSH1 0x1F NOT DUP2 AND LT PUSH3 0x187C JUMPI JUMPDEST POP POP POP DUP2 SHL ADD PUSH1 0x1 DUP3 ADD SSTORE PUSH3 0xB12 JUMP JUMPDEST ADD MLOAD PUSH1 0x0 NOT PUSH1 0xF8 DUP5 PUSH1 0x3 SHL AND SHR NOT AND SWAP1 SSTORE DUP8 DUP1 DUP1 PUSH3 0x186B JUMP JUMPDEST SWAP2 SWAP3 PUSH1 0x20 PUSH1 0x1 DUP2 SWAP3 DUP7 DUP6 ADD MLOAD DUP2 SSTORE ADD SWAP5 ADD SWAP3 ADD PUSH3 0x1846 JUMP JUMPDEST PUSH1 0x1 DUP5 ADD PUSH1 0x0 MSTORE PUSH1 0x20 PUSH1 0x0 KECCAK256 PUSH1 0x1F DUP5 ADD PUSH1 0x5 SHR DUP2 ADD PUSH1 0x20 DUP6 LT PUSH3 0x18F3 JUMPI JUMPDEST PUSH1 0x1F DUP4 ADD PUSH1 0x5 SHR DUP3 ADD DUP2 LT PUSH3 0x18E6 JUMPI POP POP PUSH3 0xAD8 JUMP JUMPDEST PUSH1 0x0 DUP2 SSTORE PUSH1 0x1 ADD PUSH3 0x18CE JUMP JUMPDEST POP DUP1 PUSH3 0x18CE JUMP JUMPDEST SWAP1 PUSH1 0x7F AND SWAP1 PUSH3 0xAC4 JUMP JUMPDEST ADD MLOAD SWAP1 POP DUP6 DUP1 PUSH3 0xA84 JUMP JUMPDEST DUP3 PUSH1 0x0 MSTORE PUSH1 0x20 PUSH1 0x0 KECCAK256 SWAP1 PUSH1 0x0 JUMPDEST PUSH1 0x1F NOT DUP5 AND DUP2 LT PUSH3 0x1967 JUMPI POP PUSH1 0x1 SWAP4 SWAP5 SWAP6 SWAP7 DUP4 PUSH1 0x1F NOT DUP2 AND LT PUSH3 0x194D JUMPI JUMPDEST POP POP POP DUP2 SHL ADD DUP2 SSTORE PUSH3 0xA99 JUMP JUMPDEST ADD MLOAD PUSH1 0x0 NOT PUSH1 0xF8 DUP5 PUSH1 0x3 SHL AND SHR NOT AND SWAP1 SSTORE DUP6 DUP1 DUP1 PUSH3 0x193F JUMP JUMPDEST SWAP1 SWAP2 PUSH1 0x20 PUSH1 0x1 DUP2 SWAP3 DUP6 DUP12 ADD MLOAD DUP2 SSTORE ADD SWAP4 ADD SWAP2 ADD PUSH3 0x191F JUMP JUMPDEST DUP3 PUSH1 0x0 MSTORE PUSH1 0x20 PUSH1 0x0 KECCAK256 PUSH1 0x1F DUP4 ADD PUSH1 0x5 SHR DUP2 ADD PUSH1 0x20 DUP5 LT PUSH3 0x19C1 JUMPI JUMPDEST PUSH1 0x1F DUP4 ADD PUSH1 0x5 SHR DUP3 ADD DUP2 LT PUSH3 0x19B4 JUMPI POP POP PUSH3 0xA67 JUMP JUMPDEST PUSH1 0x0 DUP2 SSTORE PUSH1 0x1 ADD PUSH3 0x199C JUMP JUMPDEST POP DUP1 PUSH3 0x199C JUMP JUMPDEST SWAP1 PUSH1 0x7F AND SWAP1 PUSH3 0xA53 JUMP JUMPDEST DUP1 PUSH1 0x20 DUP1 SWAP3 DUP5 ADD ADD MLOAD PUSH1 0x80 DUP3 DUP7 ADD ADD MSTORE ADD PUSH3 0x92B JUMP JUMPDEST ADD MLOAD SWAP1 POP DUP8 DUP1 PUSH3 0x8C3 JUMP JUMPDEST SWAP1 PUSH1 0x1 DUP5 ADD PUSH1 0x0 MSTORE PUSH1 0x20 PUSH1 0x0 KECCAK256 SWAP2 PUSH1 0x0 JUMPDEST PUSH1 0x1F NOT DUP6 AND DUP2 LT PUSH3 0x1A58 JUMPI POP SWAP3 PUSH1 0xC0 SWAP5 SWAP3 PUSH1 0x1 SWAP3 PUSH1 0x6 SWAP6 DUP4 PUSH1 0x1F NOT DUP2 AND LT PUSH3 0x1A3E JUMPI JUMPDEST POP POP POP DUP2 SHL ADD PUSH1 0x1 DUP3 ADD SSTORE PUSH3 0x8DB JUMP JUMPDEST ADD MLOAD PUSH1 0x0 NOT PUSH1 0xF8 DUP5 PUSH1 0x3 SHL AND SHR NOT AND SWAP1 SSTORE DUP8 DUP1 DUP1 PUSH3 0x1A2D JUMP JUMPDEST SWAP2 SWAP3 PUSH1 0x20 PUSH1 0x1 DUP2 SWAP3 DUP7 DUP6 ADD MLOAD DUP2 SSTORE ADD SWAP5 ADD SWAP3 ADD PUSH3 0x1A08 JUMP JUMPDEST PUSH1 0x1 DUP5 ADD PUSH1 0x0 MSTORE PUSH1 0x20 PUSH1 0x0 KECCAK256 PUSH1 0x1F DUP5 ADD PUSH1 0x5 SHR DUP2 ADD PUSH1 0x20 DUP6 LT PUSH3 0x1AB5 JUMPI JUMPDEST PUSH1 0x1F DUP4 ADD PUSH1 0x5 SHR DUP3 ADD DUP2 LT PUSH3 0x1AA8 JUMPI POP POP PUSH3 0x8A1 JUMP JUMPDEST PUSH1 0x0 DUP2 SSTORE PUSH1 0x1 ADD PUSH3 0x1A90 JUMP JUMPDEST POP DUP1 PUSH3 0x1A90 JUMP JUMPDEST SWAP1 PUSH1 0x7F AND SWAP1 PUSH3 0x88D JUMP JUMPDEST ADD MLOAD SWAP1 POP DUP6 DUP1 PUSH3 0x84D JUMP JUMPDEST DUP3 PUSH1 0x0 MSTORE PUSH1 0x20 PUSH1 0x0 KECCAK256 SWAP1 PUSH1 0x0 JUMPDEST PUSH1 0x1F NOT DUP5 AND DUP2 LT PUSH3 0x1B29 JUMPI POP PUSH1 0x1 SWAP4 SWAP5 SWAP6 SWAP7 DUP4 PUSH1 0x1F NOT DUP2 AND LT PUSH3 0x1B0F JUMPI JUMPDEST POP POP POP DUP2 SHL ADD DUP2 SSTORE PUSH3 0x862 JUMP JUMPDEST ADD MLOAD PUSH1 0x0 NOT PUSH1 0xF8 DUP5 PUSH1 0x3 SHL AND SHR NOT AND SWAP1 SSTORE DUP6 DUP1 DUP1 PUSH3 0x1B01 JUMP JUMPDEST SWAP1 SWAP2 PUSH1 0x20 PUSH1 0x1 DUP2 SWAP3 DUP6 DUP12 ADD MLOAD DUP2 SSTORE ADD SWAP4 ADD SWAP2 ADD PUSH3 0x1AE1 JUMP JUMPDEST DUP3 PUSH1 0x0 MSTORE PUSH1 0x20 PUSH1 0x0 KECCAK256 PUSH1 0x1F DUP4 ADD PUSH1 0x5 SHR DUP2 ADD PUSH1 0x20 DUP5 LT PUSH3 0x1B83 JUMPI JUMPDEST PUSH1 0x1F DUP4 ADD PUSH1 0x5 SHR DUP3 ADD DUP2 LT PUSH3 0x1B76 JUMPI POP POP PUSH3 0x830 JUMP JUMPDEST PUSH1 0x0 DUP2 SSTORE PUSH1 0x1 ADD PUSH3 0x1B5E JUMP JUMPDEST POP DUP1 PUSH3 0x1B5E JUMP JUMPDEST SWAP1 PUSH1 0x7F AND SWAP1 PUSH3 0x81C JUMP JUMPDEST DUP1 PUSH1 0x20 DUP1 SWAP3 DUP5 ADD ADD MLOAD PUSH1 0x80 DUP3 DUP7 ADD ADD MSTORE ADD PUSH3 0x6F4 JUMP JUMPDEST ADD MLOAD SWAP1 POP DUP8 DUP1 PUSH3 0x68C JUMP JUMPDEST SWAP1 PUSH1 0x1 DUP5 ADD PUSH1 0x0 MSTORE PUSH1 0x20 PUSH1 0x0 KECCAK256 SWAP2 PUSH1 0x0 JUMPDEST PUSH1 0x1F NOT DUP6 AND DUP2 LT PUSH3 0x1C1A JUMPI POP SWAP3 PUSH1 0xC0 SWAP5 SWAP3 PUSH1 0x1 SWAP3 PUSH1 0x6 SWAP6 DUP4 PUSH1 0x1F NOT DUP2 AND LT PUSH3 0x1C00 JUMPI JUMPDEST POP POP POP DUP2 SHL ADD PUSH1 0x1 DUP3 ADD SSTORE PUSH3 0x6A4 JUMP JUMPDEST ADD MLOAD PUSH1 0x0 NOT PUSH1 0xF8 DUP5 PUSH1 0x3 SHL AND SHR NOT AND SWAP1 SSTORE DUP8 DUP1 DUP1 PUSH3 0x1BEF JUMP JUMPDEST SWAP2 SWAP3 PUSH1 0x20 PUSH1 0x1 DUP2 SWAP3 DUP7 DUP6 ADD MLOAD DUP2 SSTORE ADD SWAP5 ADD SWAP3 ADD PUSH3 0x1BCA JUMP JUMPDEST PUSH1 0x1 DUP5 ADD PUSH1 0x0 MSTORE PUSH1 0x20 PUSH1 0x0 KECCAK256 PUSH1 0x1F DUP5 ADD PUSH1 0x5 SHR DUP2 ADD PUSH1 0x20 DUP6 LT PUSH3 0x1C77 JUMPI JUMPDEST PUSH1 0x1F DUP4 ADD PUSH1 0x5 SHR DUP3 ADD DUP2 LT PUSH3 0x1C6A JUMPI POP POP PUSH3 0x66A JUMP JUMPDEST PUSH1 0x0 DUP2 SSTORE PUSH1 0x1 ADD PUSH3 0x1C52 JUMP JUMPDEST POP DUP1 PUSH3 0x1C52 JUMP JUMPDEST SWAP1 PUSH1 0x7F AND SWAP1 PUSH3 0x656 JUMP JUMPDEST ADD MLOAD SWAP1 POP DUP6 DUP1 PUSH3 0x616 JUMP JUMPDEST DUP3 PUSH1 0x0 MSTORE PUSH1 0x20 PUSH1 0x0 KECCAK256 SWAP1 PUSH1 0x0 JUMPDEST PUSH1 0x1F NOT DUP5 AND DUP2 LT PUSH3 0x1CEB JUMPI POP PUSH1 0x1 SWAP4 SWAP5 SWAP6 SWAP7 DUP4 PUSH1 0x1F NOT DUP2 AND LT PUSH3 0x1CD1 JUMPI JUMPDEST POP POP POP DUP2 SHL ADD DUP2 SSTORE PUSH3 0x62B JUMP JUMPDEST ADD MLOAD PUSH1 0x0 NOT PUSH1 0xF8 DUP5 PUSH1 0x3 SHL AND SHR NOT AND SWAP1 SSTORE DUP6 DUP1 DUP1 PUSH3 0x1CC3 JUMP JUMPDEST SWAP1 SWAP2 PUSH1 0x20 PUSH1 0x1 DUP2 SWAP3 DUP6 DUP12 ADD MLOAD DUP2 SSTORE ADD SWAP4 ADD SWAP2 ADD PUSH3 0x1CA3 JUMP JUMPDEST DUP3 PUSH1 0x0 MSTORE PUSH1 0x20 PUSH1 0x0 KECCAK256 PUSH1 0x1F DUP4 ADD PUSH1 0x5 SHR DUP2 ADD PUSH1 0x20 DUP5 LT PUSH3 0x1D45 JUMPI JUMPDEST PUSH1 0x1F DUP4 ADD PUSH1 0x5 SHR DUP3 ADD DUP2 LT PUSH3 0x1D38 JUMPI POP POP PUSH3 0x5F9 JUMP JUMPDEST PUSH1 0x0 DUP2 SSTORE PUSH1 0x1 ADD PUSH3 0x1D20 JUMP JUMPDEST POP DUP1 PUSH3 0x1D20 JUMP JUMPDEST SWAP1 PUSH1 0x7F AND SWAP1 PUSH3 0x5E5 JUMP JUMPDEST DUP1 PUSH1 0x20 DUP1 SWAP3 DUP5 ADD ADD MLOAD PUSH1 0x80 DUP3 DUP7 ADD ADD MSTORE ADD PUSH3 0x4BA JUMP JUMPDEST ADD MLOAD SWAP1 POP DUP8 DUP1 PUSH3 0x452 JUMP JUMPDEST SWAP1 PUSH1 0x1 DUP5 ADD PUSH1 0x0 MSTORE PUSH1 0x20 PUSH1 0x0 KECCAK256 SWAP2 PUSH1 0x0 JUMPDEST PUSH1 0x1F NOT DUP6 AND DUP2 LT PUSH3 0x1DDC JUMPI POP SWAP3 PUSH1 0xC0 SWAP5 SWAP3 PUSH1 0x1 SWAP3 PUSH1 0x6 SWAP6 DUP4 PUSH1 0x1F NOT DUP2 AND LT PUSH3 0x1DC2 JUMPI JUMPDEST POP POP POP DUP2 SHL ADD PUSH1 0x1 DUP3 ADD SSTORE PUSH3 0x46A JUMP JUMPDEST ADD MLOAD PUSH1 0x0 NOT PUSH1 0xF8 DUP5 PUSH1 0x3 SHL AND SHR NOT AND SWAP1 SSTORE DUP8 DUP1 DUP1 PUSH3 0x1DB1 JUMP JUMPDEST SWAP2 SWAP3 PUSH1 0x20 PUSH1 0x1 DUP2 SWAP3 DUP7 DUP6 ADD MLOAD DUP2 SSTORE ADD SWAP5 ADD SWAP3 ADD PUSH3 0x1D8C JUMP JUMPDEST PUSH1 0x1 DUP5 ADD PUSH1 0x0 MSTORE PUSH1 0x20 PUSH1 0x0 KECCAK256 PUSH1 0x1F DUP5 ADD PUSH1 0x5 SHR DUP2 ADD PUSH1 0x20 DUP6 LT PUSH3 0x1E39 JUMPI JUMPDEST PUSH1 0x1F DUP4 ADD PUSH1 0x5 SHR DUP3 ADD DUP2 LT PUSH3 0x1E2C JUMPI POP POP PUSH3 0x430 JUMP JUMPDEST PUSH1 0x0 DUP2 SSTORE PUSH1 0x1 ADD PUSH3 0x1E14 JUMP JUMPDEST POP DUP1 PUSH3 0x1E14 JUMP JUMPDEST SWAP1 PUSH1 0x7F AND SWAP1 PUSH3 0x41C JUMP JUMPDEST ADD MLOAD SWAP1 POP DUP6 DUP1 PUSH3 0x3DC JUMP JUMPDEST DUP3 PUSH1 0x0 MSTORE PUSH1 0x20 PUSH1 0x0 KECCAK256 SWAP1 PUSH1 0x0 JUMPDEST PUSH1 0x1F NOT DUP5 AND DUP2 LT PUSH3 0x1EAD JUMPI POP PUSH1 0x1 SWAP4 SWAP5 SWAP6 SWAP7 DUP4 PUSH1 0x1F NOT DUP2 AND LT PUSH3 0x1E93 JUMPI JUMPDEST POP POP POP DUP2 SHL ADD DUP2 SSTORE PUSH3 0x3F1 JUMP JUMPDEST ADD MLOAD PUSH1 0x0 NOT PUSH1 0xF8 DUP5 PUSH1 0x3 SHL AND SHR NOT AND SWAP1 SSTORE DUP6 DUP1 DUP1 PUSH3 0x1E85 JUMP JUMPDEST SWAP1 SWAP2 PUSH1 0x20 PUSH1 0x1 DUP2 SWAP3 DUP6 DUP12 ADD MLOAD DUP2 SSTORE ADD SWAP4 ADD SWAP2 ADD PUSH3 0x1E65 JUMP JUMPDEST DUP3 PUSH1 0x0 MSTORE PUSH1 0x20 PUSH1 0x0 KECCAK256 PUSH1 0x1F DUP4 ADD PUSH1 0x5 SHR DUP2 ADD PUSH1 0x20 DUP5 LT PUSH3 0x1F07 JUMPI JUMPDEST PUSH1 0x1F DUP4 ADD PUSH1 0x5 SHR DUP3 ADD DUP2 LT PUSH3 0x1EFA JUMPI POP POP PUSH3 0x3BF JUMP JUMPDEST PUSH1 0x0 DUP2 SSTORE PUSH1 0x1 ADD PUSH3 0x1EE2 JUMP JUMPDEST POP DUP1 PUSH3 0x1EE2 JUMP JUMPDEST SWAP1 PUSH1 0x7F AND SWAP1 PUSH3 0x3AB JUMP JUMPDEST DUP1 PUSH1 0x20 DUP1 SWAP3 DUP5 ADD ADD MLOAD PUSH1 0x80 DUP3 DUP7 ADD ADD MSTORE ADD PUSH3 0x282 JUMP JUMPDEST ADD MLOAD SWAP1 POP CODESIZE DUP1 PUSH3 0x219 JUMP JUMPDEST SWAP1 PUSH1 0x1 DUP6 ADD PUSH1 0x0 MSTORE PUSH1 0x20 PUSH1 0x0 KECCAK256 SWAP2 PUSH1 0x0 JUMPDEST PUSH1 0x1F NOT DUP6 AND DUP2 LT PUSH3 0x1F9E JUMPI POP SWAP3 PUSH1 0x6 SWAP5 SWAP3 PUSH1 0x1 SWAP3 PUSH1 0xC0 SWAP6 DUP4 PUSH1 0x1F NOT DUP2 AND LT PUSH3 0x1F84 JUMPI JUMPDEST POP POP POP DUP2 SHL ADD PUSH1 0x1 DUP6 ADD SSTORE PUSH3 0x231 JUMP JUMPDEST ADD MLOAD PUSH1 0x0 NOT PUSH1 0xF8 DUP5 PUSH1 0x3 SHL AND SHR NOT AND SWAP1 SSTORE CODESIZE DUP1 DUP1 PUSH3 0x1F73 JUMP JUMPDEST SWAP2 SWAP3 PUSH1 0x20 PUSH1 0x1 DUP2 SWAP3 DUP7 DUP6 ADD MLOAD DUP2 SSTORE ADD SWAP5 ADD SWAP3 ADD PUSH3 0x1F4E JUMP JUMPDEST PUSH1 0x1 DUP6 ADD PUSH1 0x0 MSTORE PUSH1 0x20 PUSH1 0x0 KECCAK256 PUSH1 0x1F DUP5 ADD PUSH1 0x5 SHR DUP2 ADD PUSH1 0x20 DUP6 LT PUSH3 0x1FFB JUMPI JUMPDEST PUSH1 0x1F DUP4 ADD PUSH1 0x5 SHR DUP3 ADD DUP2 LT PUSH3 0x1FEE JUMPI POP POP PUSH3 0x1F7 JUMP JUMPDEST PUSH1 0x0 DUP2 SSTORE PUSH1 0x1 ADD PUSH3 0x1FD6 JUMP JUMPDEST POP DUP1 PUSH3 0x1FD6 JUMP JUMPDEST SWAP1 PUSH1 0x7F AND SWAP1 PUSH3 0x1E3 JUMP JUMPDEST ADD MLOAD SWAP1 POP CODESIZE DUP1 PUSH3 0x1A3 JUMP JUMPDEST DUP4 PUSH1 0x0 MSTORE PUSH1 0x20 PUSH1 0x0 KECCAK256 SWAP1 PUSH1 0x0 JUMPDEST PUSH1 0x1F NOT DUP5 AND DUP2 LT PUSH3 0x206F JUMPI POP PUSH1 0x1 SWAP4 SWAP5 SWAP6 SWAP7 DUP4 PUSH1 0x1F NOT DUP2 AND LT PUSH3 0x2055 JUMPI JUMPDEST POP POP POP DUP2 SHL ADD DUP3 SSTORE PUSH3 0x1B8 JUMP JUMPDEST ADD MLOAD PUSH1 0x0 NOT PUSH1 0xF8 DUP5 PUSH1 0x3 SHL AND SHR NOT AND SWAP1 SSTORE CODESIZE DUP1 DUP1 PUSH3 0x2047 JUMP JUMPDEST SWAP1 SWAP2 PUSH1 0x20 PUSH1 0x1 DUP2 SWAP3 DUP6 DUP12 ADD MLOAD DUP2 SSTORE ADD SWAP4 ADD SWAP2 ADD PUSH3 0x2027 JUMP JUMPDEST DUP4 PUSH1 0x0 MSTORE PUSH1 0x20 PUSH1 0x0 KECCAK256 PUSH1 0x1F DUP4 ADD PUSH1 0x5 SHR DUP2 ADD PUSH1 0x20 DUP5 LT PUSH3 0x20C9 JUMPI JUMPDEST PUSH1 0x1F DUP4 ADD PUSH1 0x5 SHR DUP3 ADD DUP2 LT PUSH3 0x20BC JUMPI POP POP PUSH3 0x186 JUMP JUMPDEST PUSH1 0x0 DUP2 SSTORE PUSH1 0x1 ADD PUSH3 0x20A4 JUMP JUMPDEST POP DUP1 PUSH3 0x20A4 JUMP JUMPDEST SWAP1 PUSH1 0x7F AND SWAP1 PUSH3 0x172 JUMP JUMPDEST PUSH3 0x461BCD PUSH1 0xE5 SHL DUP2 MSTORE PUSH1 0x20 PUSH1 0x4 DUP3 ADD MSTORE PUSH1 0x15 PUSH1 0x24 DUP3 ADD MSTORE PUSH32 0x496E76616C6964207061796D656E7420746F6B656E0000000000000000000000 PUSH1 0x44 DUP3 ADD MSTORE PUSH1 0x64 SWAP1 REVERT JUMPDEST PUSH1 0x0 DUP1 REVERT JUMPDEST PUSH1 0x40 MLOAD SWAP1 PUSH1 0xE0 DUP3 ADD PUSH1 0x1 PUSH1 0x1 PUSH1 0x40 SHL SUB DUP2 GT DUP4 DUP3 LT OR PUSH3 0x13AA JUMPI PUSH1 0x40 MSTORE JUMP JUMPDEST PUSH1 0x40 DUP1 MLOAD SWAP2 SWAP1 DUP3 ADD PUSH1 0x1 PUSH1 0x1 PUSH1 0x40 SHL SUB DUP2 GT DUP4 DUP3 LT OR PUSH3 0x13AA JUMPI PUSH1 0x40 MSTORE JUMP INVALID PUSH1 0x80 PUSH1 0x40 DUP2 DUP2 MSTORE PUSH1 0x4 DUP1 CALLDATASIZE LT ISZERO PUSH2 0x15 JUMPI PUSH1 0x0 DUP1 REVERT JUMPDEST PUSH1 0x0 SWAP3 DUP4 CALLDATALOAD PUSH1 0xE0 SHR SWAP1 DUP2 PUSH4 0x3013CE29 EQ PUSH2 0x8B3 JUMPI POP DUP1 PUSH4 0x6A8A69AA EQ PUSH2 0x85C JUMPI DUP1 PUSH4 0x715018A6 EQ PUSH2 0x7FF JUMPI DUP1 PUSH4 0x765FF061 EQ PUSH2 0x750 JUMPI DUP1 PUSH4 0x8DA5CB5B EQ PUSH2 0x727 JUMPI DUP1 PUSH4 0xA0AEAD4D EQ PUSH2 0x202 JUMPI DUP1 PUSH4 0xAD954878 EQ PUSH2 0x6DE JUMPI DUP1 PUSH4 0xCF35BDD0 EQ PUSH2 0x644 JUMPI DUP1 PUSH4 0xD2BCDC60 EQ PUSH2 0x386 JUMPI DUP1 PUSH4 0xDB2E21BC EQ PUSH2 0x267 JUMPI DUP1 PUSH4 0xDDD9D045 EQ PUSH2 0x225 JUMPI DUP1 PUSH4 0xEAFE7A74 EQ PUSH2 0x202 JUMPI DUP1 PUSH4 0xF2FDE38B EQ PUSH2 0x137 JUMPI PUSH4 0xF637D950 EQ PUSH2 0xBD JUMPI PUSH1 0x0 DUP1 REVERT JUMPDEST CALLVALUE PUSH2 0x133 JUMPI PUSH1 0x20 CALLDATASIZE PUSH1 0x3 NOT ADD SLT PUSH2 0x133 JUMPI DUP2 PUSH2 0x11C SWAP4 DUP3 CALLDATALOAD PUSH2 0xE2 PUSH1 0x5 SLOAD DUP3 LT PUSH2 0xA8A JUMP JUMPDEST DUP2 MSTORE PUSH1 0x2 PUSH1 0x20 MSTORE KECCAK256 PUSH1 0x2 DUP2 ADD SLOAD SWAP2 PUSH1 0x3 DUP3 ADD SLOAD SWAP1 DUP3 ADD SLOAD SWAP1 PUSH2 0x108 PUSH1 0x5 DUP5 ADD SLOAD SWAP4 PUSH2 0x977 JUMP JUMPDEST SWAP5 DUP1 MLOAD SWAP7 DUP8 SWAP7 PUSH1 0xA0 DUP9 MSTORE PUSH1 0xA0 DUP9 ADD SWAP1 PUSH2 0xA4A JUMP JUMPDEST SWAP5 PUSH1 0x20 DUP8 ADD MSTORE DUP6 ADD MSTORE PUSH1 0x60 DUP5 ADD MSTORE PUSH1 0x80 DUP4 ADD MSTORE SUB SWAP1 RETURN JUMPDEST DUP3 DUP1 REVERT JUMPDEST POP CALLVALUE PUSH2 0x133 JUMPI PUSH1 0x20 CALLDATASIZE PUSH1 0x3 NOT ADD SLT PUSH2 0x133 JUMPI PUSH2 0x151 PUSH2 0x8F6 JUMP JUMPDEST SWAP1 PUSH2 0x15A PUSH2 0xAC8 JUMP JUMPDEST PUSH1 0x1 PUSH1 0x1 PUSH1 0xA0 SHL SUB SWAP2 DUP3 AND SWAP3 DUP4 ISZERO PUSH2 0x1B0 JUMPI POP POP PUSH1 0x1 SLOAD DUP3 PUSH12 0xFFFFFFFFFFFFFFFFFFFFFFFF PUSH1 0xA0 SHL DUP3 AND OR PUSH1 0x1 SSTORE AND PUSH32 0x8BE0079C531659141344CD1FD0A4F28419497F9722A3DAAFE3B4186F6B6457E0 DUP4 DUP1 LOG3 DUP1 RETURN JUMPDEST SWAP1 PUSH1 0x20 PUSH1 0x84 SWAP3 MLOAD SWAP2 PUSH3 0x461BCD PUSH1 0xE5 SHL DUP4 MSTORE DUP3 ADD MSTORE PUSH1 0x26 PUSH1 0x24 DUP3 ADD MSTORE PUSH32 0x4F776E61626C653A206E6577206F776E657220697320746865207A65726F2061 PUSH1 0x44 DUP3 ADD MSTORE PUSH6 0x646472657373 PUSH1 0xD0 SHL PUSH1 0x64 DUP3 ADD MSTORE REVERT JUMPDEST POP POP CALLVALUE PUSH2 0x221 JUMPI DUP2 PUSH1 0x3 NOT CALLDATASIZE ADD SLT PUSH2 0x221 JUMPI PUSH1 0x20 SWAP1 PUSH1 0x5 SLOAD SWAP1 MLOAD SWAP1 DUP2 MSTORE RETURN JUMPDEST POP DUP1 REVERT JUMPDEST POP POP CALLVALUE PUSH2 0x221 JUMPI DUP1 PUSH1 0x3 NOT CALLDATASIZE ADD SLT PUSH2 0x221 JUMPI DUP1 PUSH1 0x20 SWAP3 PUSH2 0x243 PUSH2 0x8F6 JUMP JUMPDEST PUSH1 0x24 CALLDATALOAD DUP3 MSTORE PUSH1 0x3 DUP6 MSTORE DUP3 DUP3 KECCAK256 PUSH1 0x1 PUSH1 0x1 PUSH1 0xA0 SHL SUB SWAP1 SWAP2 AND DUP3 MSTORE DUP5 MSTORE KECCAK256 SLOAD SWAP1 MLOAD SWAP1 DUP2 MSTORE RETURN JUMPDEST POP SWAP2 SWAP1 CALLVALUE PUSH2 0x221 JUMPI DUP2 PUSH1 0x3 NOT CALLDATASIZE ADD SLT PUSH2 0x221 JUMPI PUSH2 0x282 PUSH2 0xAC8 JUMP JUMPDEST DUP1 MLOAD PUSH4 0x70A08231 PUSH1 0xE0 SHL DUP2 MSTORE ADDRESS DUP5 DUP3 ADD MSTORE SWAP1 PUSH32 0x0 SWAP1 PUSH1 0x1 PUSH1 0x1 PUSH1 0xA0 SHL SUB PUSH1 0x20 DUP5 PUSH1 0x24 DUP2 DUP5 DUP8 AND GAS STATICCALL SWAP4 DUP5 ISZERO PUSH2 0x37C JUMPI DUP6 SWAP5 PUSH2 0x344 JUMPI JUMPDEST POP DUP4 PUSH2 0x2E1 JUMPI DUP5 DUP1 RETURN JUMPDEST PUSH1 0x1 SLOAD AND SWAP3 DUP2 MLOAD SWAP4 PUSH4 0xA9059CBB PUSH1 0xE0 SHL PUSH1 0x20 DUP7 ADD MSTORE PUSH1 0x24 DUP6 ADD MSTORE PUSH1 0x44 DUP5 ADD MSTORE PUSH1 0x44 DUP4 MSTORE PUSH1 0x80 DUP4 ADD SWAP1 DUP4 DUP3 LT PUSH8 0xFFFFFFFFFFFFFFFF DUP4 GT OR PUSH2 0x331 JUMPI PUSH2 0x328 SWAP5 SWAP6 POP MSTORE PUSH2 0xB20 JUMP JUMPDEST DUP1 CODESIZE DUP1 DUP1 DUP1 DUP5 DUP1 RETURN JUMPDEST PUSH4 0x4E487B71 PUSH1 0xE0 SHL DUP6 MSTORE PUSH1 0x41 DUP7 MSTORE PUSH1 0x24 DUP6 REVERT JUMPDEST SWAP1 SWAP4 POP PUSH1 0x20 DUP2 RETURNDATASIZE PUSH1 0x20 GT PUSH2 0x374 JUMPI JUMPDEST DUP2 PUSH2 0x360 PUSH1 0x20 SWAP4 DUP4 PUSH2 0x93F JUMP JUMPDEST DUP2 ADD SUB SLT PUSH2 0x370 JUMPI MLOAD SWAP3 CODESIZE PUSH2 0x2D7 JUMP JUMPDEST DUP5 DUP1 REVERT JUMPDEST RETURNDATASIZE SWAP2 POP PUSH2 0x353 JUMP JUMPDEST DUP3 MLOAD RETURNDATASIZE DUP8 DUP3 RETURNDATACOPY RETURNDATASIZE SWAP1 REVERT JUMPDEST POP DUP3 SWAP1 CALLVALUE PUSH2 0x221 JUMPI DUP3 PUSH1 0x3 NOT CALLDATASIZE ADD SLT PUSH2 0x221 JUMPI DUP1 CALLDATALOAD PUSH1 0x24 SWAP4 DUP5 CALLDATALOAD SWAP3 PUSH1 0x2 DUP6 SLOAD EQ PUSH2 0x603 JUMPI PUSH1 0x2 DUP6 SSTORE PUSH2 0x3BB PUSH1 0x5 SLOAD DUP5 LT PUSH2 0xA8A JUMP JUMPDEST DUP4 ISZERO PUSH2 0x5CD JUMPI DUP3 DUP6 MSTORE PUSH1 0x20 PUSH1 0x2 DUP2 MSTORE DUP3 DUP7 KECCAK256 SWAP2 PUSH1 0xFF PUSH1 0x6 DUP5 ADD SLOAD AND ISZERO PUSH2 0x59A JUMPI PUSH1 0x3 DUP4 ADD SWAP3 DUP4 SLOAD SWAP1 DUP8 DUP3 LT PUSH2 0x558 JUMPI DUP3 ADD SLOAD SWAP4 DUP5 DUP9 MUL SWAP5 DUP9 DUP7 DIV SUB PUSH2 0x4F0 JUMPI DUP8 DUP3 SUB SWAP2 DUP3 GT PUSH2 0x4F0 JUMPI SSTORE DUP5 DUP8 MSTORE PUSH1 0x3 DUP3 MSTORE DUP4 DUP8 KECCAK256 CALLER DUP9 MSTORE DUP3 MSTORE DUP4 DUP8 KECCAK256 SLOAD ISZERO PUSH2 0x502 JUMPI JUMPDEST DUP5 DUP8 MSTORE PUSH1 0x3 DUP3 MSTORE DUP4 DUP8 KECCAK256 CALLER DUP9 MSTORE DUP3 MSTORE DUP4 DUP8 KECCAK256 DUP1 SLOAD SWAP1 DUP8 DUP3 ADD DUP1 SWAP3 GT PUSH2 0x4F0 JUMPI SSTORE DUP4 MLOAD PUSH4 0x23B872DD PUSH1 0xE0 SHL DUP4 DUP3 ADD MSTORE CALLER DUP10 DUP3 ADD MSTORE ADDRESS PUSH1 0x44 DUP3 ADD MSTORE PUSH1 0x64 DUP1 DUP3 ADD DUP6 SWAP1 MSTORE DUP2 MSTORE SWAP8 PUSH1 0xA0 DUP10 ADD SWAP2 PUSH8 0xFFFFFFFFFFFFFFFF DUP4 GT DUP11 DUP5 LT OR PUSH2 0x4DF JUMPI POP POP PUSH32 0xCE81571C08C76465BDF390AD1ABE80AF8C51C6C4566E3485F9395F13D5AD6328 SWAP5 SWAP6 SWAP7 SWAP8 PUSH2 0x4CD SWAP2 DUP6 MSTORE PUSH32 0x0 PUSH2 0xB20 JUMP JUMPDEST DUP3 MLOAD SWAP6 DUP7 MSTORE DUP6 ADD MSTORE CALLER SWAP4 LOG3 PUSH1 0x1 DUP2 SSTORE DUP1 RETURN JUMPDEST PUSH4 0x4E487B71 PUSH1 0xE0 SHL DUP10 MSTORE PUSH1 0x41 SWAP1 MSTORE DUP8 REVERT JUMPDEST PUSH4 0x4E487B71 PUSH1 0xE0 SHL DUP10 MSTORE PUSH1 0x11 DUP4 MSTORE DUP10 DUP10 REVERT JUMPDEST DUP1 DUP3 MSTORE DUP4 DUP8 KECCAK256 DUP1 SLOAD SWAP1 PUSH9 0x10000000000000000 DUP3 LT ISZERO PUSH2 0x546 JUMPI SWAP1 PUSH2 0x52C SWAP2 PUSH1 0x1 DUP3 ADD DUP2 SSTORE PUSH2 0x911 JUMP JUMPDEST DUP2 SLOAD SWAP1 PUSH1 0x3 SHL SWAP1 DUP8 DUP3 SHL SWAP2 PUSH1 0x0 NOT SWAP1 SHL NOT AND OR SWAP1 SSTORE PUSH2 0x41E JUMP JUMPDEST PUSH4 0x4E487B71 PUSH1 0xE0 SHL DUP10 MSTORE PUSH1 0x41 DUP4 MSTORE DUP10 DUP10 REVERT JUMPDEST DUP6 MLOAD PUSH3 0x461BCD PUSH1 0xE5 SHL DUP2 MSTORE DUP1 DUP5 ADD DUP6 SWAP1 MSTORE PUSH1 0x1D DUP2 DUP13 ADD MSTORE PUSH32 0x496E73756666696369656E742073686172657320617661696C61626C65000000 PUSH1 0x44 DUP3 ADD MSTORE PUSH1 0x64 SWAP1 REVERT JUMPDEST PUSH1 0x10 DUP9 PUSH1 0x64 SWAP4 DUP7 MLOAD SWAP4 PUSH3 0x461BCD PUSH1 0xE5 SHL DUP6 MSTORE DUP5 ADD MSTORE DUP3 ADD MSTORE PUSH16 0x4173736574206E6F7420616374697665 PUSH1 0x80 SHL PUSH1 0x44 DUP3 ADD MSTORE REVERT JUMPDEST PUSH1 0x12 DUP7 PUSH1 0x20 PUSH1 0x64 SWAP5 MLOAD SWAP4 PUSH3 0x461BCD PUSH1 0xE5 SHL DUP6 MSTORE DUP5 ADD MSTORE DUP3 ADD MSTORE PUSH18 0x536861726573206D757374206265203E203 PUSH1 0x74 SHL PUSH1 0x44 DUP3 ADD MSTORE REVERT JUMPDEST PUSH1 0x1F DUP7 PUSH1 0x20 PUSH1 0x64 SWAP5 MLOAD SWAP4 PUSH3 0x461BCD PUSH1 0xE5 SHL DUP6 MSTORE DUP5 ADD MSTORE DUP3 ADD MSTORE PUSH32 0x5265656E7472616E637947756172643A207265656E7472616E742063616C6C00 PUSH1 0x44 DUP3 ADD MSTORE REVERT JUMPDEST POP SWAP1 CALLVALUE PUSH2 0x133 JUMPI PUSH1 0x20 CALLDATASIZE PUSH1 0x3 NOT ADD SLT PUSH2 0x133 JUMPI DUP1 PUSH2 0x6B2 SWAP4 DUP4 CALLDATALOAD DUP2 MSTORE PUSH1 0x2 PUSH1 0x20 MSTORE KECCAK256 SWAP2 PUSH2 0x670 DUP4 PUSH2 0x977 JUMP JUMPDEST SWAP3 PUSH2 0x67D PUSH1 0x1 DUP3 ADD PUSH2 0x977 JUMP JUMPDEST SWAP2 PUSH1 0x2 DUP3 ADD SLOAD SWAP1 PUSH1 0x3 DUP4 ADD SLOAD SWAP1 DUP4 ADD SLOAD SWAP2 PUSH2 0x6C0 PUSH1 0xFF PUSH1 0x6 PUSH1 0x5 DUP8 ADD SLOAD SWAP7 ADD SLOAD AND SWAP6 DUP8 MLOAD SWAP10 DUP11 SWAP10 PUSH1 0xE0 DUP12 MSTORE PUSH1 0xE0 DUP12 ADD SWAP1 PUSH2 0xA4A JUMP JUMPDEST SWAP1 DUP10 DUP3 SUB PUSH1 0x20 DUP12 ADD MSTORE PUSH2 0xA4A JUMP JUMPDEST SWAP6 DUP8 ADD MSTORE PUSH1 0x60 DUP7 ADD MSTORE PUSH1 0x80 DUP6 ADD MSTORE PUSH1 0xA0 DUP5 ADD MSTORE ISZERO ISZERO PUSH1 0xC0 DUP4 ADD MSTORE SUB SWAP1 RETURN JUMPDEST POP CALLVALUE PUSH2 0x133 JUMPI DUP2 PUSH1 0x3 NOT CALLDATASIZE ADD SLT PUSH2 0x133 JUMPI PUSH1 0x24 CALLDATALOAD PUSH1 0x1 PUSH1 0x1 PUSH1 0xA0 SHL SUB DUP2 AND SWAP2 SWAP1 DUP3 SWAP1 SUB PUSH2 0x723 JUMPI SWAP3 DUP3 SWAP2 PUSH1 0x20 SWAP5 CALLDATALOAD DUP3 MSTORE PUSH1 0x3 DUP6 MSTORE DUP3 DUP3 KECCAK256 SWAP1 DUP3 MSTORE DUP5 MSTORE KECCAK256 SLOAD SWAP1 MLOAD SWAP1 DUP2 MSTORE RETURN JUMPDEST DUP4 DUP1 REVERT JUMPDEST POP POP CALLVALUE PUSH2 0x221 JUMPI DUP2 PUSH1 0x3 NOT CALLDATASIZE ADD SLT PUSH2 0x221 JUMPI PUSH1 0x1 SLOAD SWAP1 MLOAD PUSH1 0x1 PUSH1 0x1 PUSH1 0xA0 SHL SUB SWAP1 SWAP2 AND DUP2 MSTORE PUSH1 0x20 SWAP1 RETURN JUMPDEST POP DUP3 CALLVALUE PUSH2 0x7FC JUMPI PUSH1 0x20 SWAP2 DUP3 PUSH1 0x3 NOT CALLDATASIZE ADD SLT PUSH2 0x221 JUMPI SWAP2 SWAP3 SWAP2 PUSH1 0x1 PUSH1 0x1 PUSH1 0xA0 SHL SUB PUSH2 0x778 PUSH2 0x8F6 JUMP JUMPDEST AND DUP3 MSTORE DUP4 MSTORE DUP2 DUP2 KECCAK256 SWAP1 DUP3 MLOAD DUP1 DUP6 DUP5 SLOAD SWAP2 DUP3 DUP2 MSTORE ADD SWAP1 DUP2 SWAP5 DUP5 MSTORE DUP7 DUP5 KECCAK256 SWAP1 DUP5 JUMPDEST DUP2 DUP2 LT PUSH2 0x7E8 JUMPI POP POP POP DUP2 PUSH2 0x7AD SWAP2 SUB DUP3 PUSH2 0x93F JUMP JUMPDEST DUP4 MLOAD SWAP5 DUP6 SWAP5 DUP2 DUP7 ADD SWAP3 DUP3 DUP8 MSTORE MLOAD DUP1 SWAP4 MSTORE DUP6 ADD SWAP4 SWAP3 JUMPDEST DUP3 DUP2 LT PUSH2 0x7D1 JUMPI POP POP POP POP SUB SWAP1 RETURN JUMPDEST DUP4 MLOAD DUP6 MSTORE DUP7 SWAP6 POP SWAP4 DUP2 ADD SWAP4 SWAP3 DUP2 ADD SWAP3 PUSH1 0x1 ADD PUSH2 0x7C2 JUMP JUMPDEST DUP3 SLOAD DUP5 MSTORE SWAP3 DUP9 ADD SWAP3 PUSH1 0x1 SWAP3 DUP4 ADD SWAP3 ADD PUSH2 0x797 JUMP JUMPDEST DUP1 REVERT JUMPDEST DUP4 CALLVALUE PUSH2 0x7FC JUMPI DUP1 PUSH1 0x3 NOT CALLDATASIZE ADD SLT PUSH2 0x7FC JUMPI PUSH2 0x818 PUSH2 0xAC8 JUMP JUMPDEST PUSH1 0x1 DUP1 SLOAD PUSH1 0x1 PUSH1 0x1 PUSH1 0xA0 SHL SUB NOT DUP2 AND SWAP1 SWAP2 SSTORE DUP2 SWAP1 PUSH1 0x1 PUSH1 0x1 PUSH1 0xA0 SHL SUB AND PUSH32 0x8BE0079C531659141344CD1FD0A4F28419497F9722A3DAAFE3B4186F6B6457E0 DUP3 DUP1 LOG3 DUP1 RETURN JUMPDEST POP SWAP2 CALLVALUE PUSH2 0x7FC JUMPI DUP2 PUSH1 0x3 NOT CALLDATASIZE ADD SLT PUSH2 0x7FC JUMPI PUSH2 0x876 PUSH2 0x8F6 JUMP JUMPDEST PUSH1 0x1 PUSH1 0x1 PUSH1 0xA0 SHL SUB AND DUP2 MSTORE PUSH1 0x20 SWAP3 SWAP1 SWAP3 MSTORE DUP1 DUP3 KECCAK256 DUP1 SLOAD PUSH1 0x24 CALLDATALOAD SWAP4 SWAP1 DUP5 LT ISZERO PUSH2 0x7FC JUMPI POP PUSH1 0x20 SWAP3 PUSH2 0x8A5 SWAP2 PUSH2 0x911 JUMP JUMPDEST SWAP2 SWAP1 SLOAD SWAP1 MLOAD SWAP2 PUSH1 0x3 SHL SHR DUP2 MSTORE RETURN JUMPDEST DUP5 SWAP1 CALLVALUE PUSH2 0x221 JUMPI DUP2 PUSH1 0x3 NOT CALLDATASIZE ADD SLT PUSH2 0x221 JUMPI PUSH32 0x0 PUSH1 0x1 PUSH1 0x1 PUSH1 0xA0 SHL SUB AND DUP2 MSTORE PUSH1 0x20 SWAP1 RETURN JUMPDEST PUSH1 0x4 CALLDATALOAD SWAP1 PUSH1 0x1 PUSH1 0x1 PUSH1 0xA0 SHL SUB DUP3 AND DUP3 SUB PUSH2 0x90C JUMPI JUMP JUMPDEST PUSH1 0x0 DUP1 REVERT JUMPDEST DUP1 SLOAD DUP3 LT ISZERO PUSH2 0x929 JUMPI PUSH1 0x0 MSTORE PUSH1 0x20 PUSH1 0x0 KECCAK256 ADD SWAP1 PUSH1 0x0 SWAP1 JUMP JUMPDEST PUSH4 0x4E487B71 PUSH1 0xE0 SHL PUSH1 0x0 MSTORE PUSH1 0x32 PUSH1 0x4 MSTORE PUSH1 0x24 PUSH1 0x0 REVERT JUMPDEST SWAP1 PUSH1 0x1F DUP1 NOT SWAP2 ADD AND DUP2 ADD SWAP1 DUP2 LT PUSH8 0xFFFFFFFFFFFFFFFF DUP3 GT OR PUSH2 0x961 JUMPI PUSH1 0x40 MSTORE JUMP JUMPDEST PUSH4 0x4E487B71 PUSH1 0xE0 SHL PUSH1 0x0 MSTORE PUSH1 0x41 PUSH1 0x4 MSTORE PUSH1 0x24 PUSH1 0x0 REVERT JUMPDEST SWAP1 PUSH1 0x40 MLOAD SWAP1 PUSH1 0x0 DUP4 SLOAD SWAP1 PUSH1 0x1 DUP3 PUSH1 0x1 SHR SWAP1 PUSH1 0x1 DUP5 AND SWAP7 DUP8 ISZERO PUSH2 0xA40 JUMPI JUMPDEST PUSH1 0x20 SWAP5 DUP6 DUP5 LT DUP10 EQ PUSH2 0xA2C JUMPI DUP8 SWAP9 DUP5 DUP10 SWAP8 SWAP9 SWAP10 MSTORE SWAP1 DUP2 PUSH1 0x0 EQ PUSH2 0xA0A JUMPI POP PUSH1 0x1 EQ PUSH2 0x9CB JUMPI JUMPDEST POP POP POP PUSH2 0x9C9 SWAP3 POP SUB DUP4 PUSH2 0x93F JUMP JUMPDEST JUMP JUMPDEST PUSH1 0x0 SWAP1 DUP2 MSTORE DUP6 DUP2 KECCAK256 SWAP6 SWAP4 POP SWAP2 SWAP1 JUMPDEST DUP2 DUP4 LT PUSH2 0x9F2 JUMPI POP POP PUSH2 0x9C9 SWAP4 POP DUP3 ADD ADD CODESIZE DUP1 DUP1 PUSH2 0x9BA JUMP JUMPDEST DUP6 SLOAD DUP9 DUP5 ADD DUP6 ADD MSTORE SWAP5 DUP6 ADD SWAP5 DUP8 SWAP5 POP SWAP2 DUP4 ADD SWAP2 PUSH2 0x9D9 JUMP JUMPDEST SWAP3 POP POP POP PUSH2 0x9C9 SWAP5 SWAP3 POP PUSH1 0xFF NOT AND DUP3 DUP5 ADD MSTORE ISZERO ISZERO PUSH1 0x5 SHL DUP3 ADD ADD CODESIZE DUP1 DUP1 PUSH2 0x9BA JUMP JUMPDEST PUSH4 0x4E487B71 PUSH1 0xE0 SHL DUP6 MSTORE PUSH1 0x22 PUSH1 0x4 MSTORE PUSH1 0x24 DUP6 REVERT JUMPDEST SWAP2 PUSH1 0x7F AND SWAP2 PUSH2 0x994 JUMP JUMPDEST SWAP2 SWAP1 DUP3 MLOAD SWAP3 DUP4 DUP3 MSTORE PUSH1 0x0 JUMPDEST DUP5 DUP2 LT PUSH2 0xA76 JUMPI POP POP DUP3 PUSH1 0x0 PUSH1 0x20 DUP1 SWAP5 SWAP6 DUP5 ADD ADD MSTORE PUSH1 0x1F DUP1 NOT SWAP2 ADD AND ADD ADD SWAP1 JUMP JUMPDEST PUSH1 0x20 DUP2 DUP4 ADD DUP2 ADD MLOAD DUP5 DUP4 ADD DUP3 ADD MSTORE ADD PUSH2 0xA55 JUMP JUMPDEST ISZERO PUSH2 0xA91 JUMPI JUMP JUMPDEST PUSH1 0x40 MLOAD PUSH3 0x461BCD PUSH1 0xE5 SHL DUP2 MSTORE PUSH1 0x20 PUSH1 0x4 DUP3 ADD MSTORE PUSH1 0xF PUSH1 0x24 DUP3 ADD MSTORE PUSH15 0x105CDCD95D081B9BDD08199BDD5B99 PUSH1 0x8A SHL PUSH1 0x44 DUP3 ADD MSTORE PUSH1 0x64 SWAP1 REVERT JUMPDEST PUSH1 0x1 SLOAD PUSH1 0x1 PUSH1 0x1 PUSH1 0xA0 SHL SUB AND CALLER SUB PUSH2 0xADC JUMPI JUMP JUMPDEST PUSH1 0x64 PUSH1 0x40 MLOAD PUSH3 0x461BCD PUSH1 0xE5 SHL DUP2 MSTORE PUSH1 0x20 PUSH1 0x4 DUP3 ADD MSTORE PUSH1 0x20 PUSH1 0x24 DUP3 ADD MSTORE PUSH32 0x4F776E61626C653A2063616C6C6572206973206E6F7420746865206F776E6572 PUSH1 0x44 DUP3 ADD MSTORE REVERT JUMPDEST PUSH1 0x1 DUP1 PUSH1 0xA0 SHL SUB AND SWAP1 PUSH1 0x40 MLOAD PUSH1 0x40 DUP2 ADD PUSH8 0xFFFFFFFFFFFFFFFF SWAP1 DUP3 DUP2 LT DUP3 DUP3 GT OR PUSH2 0x961 JUMPI PUSH1 0x40 MSTORE PUSH1 0x20 SWAP4 DUP5 DUP4 MSTORE PUSH32 0x5361666545524332303A206C6F772D6C6576656C2063616C6C206661696C6564 DUP6 DUP5 ADD MSTORE PUSH1 0x0 DUP1 DUP6 DUP8 DUP3 SWAP8 MLOAD SWAP2 ADD DUP3 DUP6 GAS CALL SWAP1 RETURNDATASIZE ISZERO PUSH2 0xC65 JUMPI RETURNDATASIZE SWAP3 DUP4 GT PUSH2 0xC51 JUMPI SWAP1 PUSH2 0xBBB SWAP4 SWAP3 SWAP2 PUSH1 0x40 MLOAD SWAP3 PUSH2 0xBAE DUP9 PUSH1 0x1F NOT PUSH1 0x1F DUP5 ADD AND ADD DUP6 PUSH2 0x93F JUMP JUMPDEST DUP4 MSTORE RETURNDATASIZE DUP7 DUP9 DUP6 ADD RETURNDATACOPY PUSH2 0xC70 JUMP JUMPDEST DUP1 MLOAD SWAP2 DUP3 ISZERO SWAP2 DUP5 DUP4 ISZERO PUSH2 0xC2D JUMPI JUMPDEST POP POP POP SWAP1 POP ISZERO PUSH2 0xBD6 JUMPI POP JUMP JUMPDEST PUSH1 0x84 SWAP1 PUSH1 0x40 MLOAD SWAP1 PUSH3 0x461BCD PUSH1 0xE5 SHL DUP3 MSTORE PUSH1 0x4 DUP3 ADD MSTORE PUSH1 0x2A PUSH1 0x24 DUP3 ADD MSTORE PUSH32 0x5361666545524332303A204552433230206F7065726174696F6E20646964206E PUSH1 0x44 DUP3 ADD MSTORE PUSH10 0x1BDD081CDD58D8D95959 PUSH1 0xB2 SHL PUSH1 0x64 DUP3 ADD MSTORE REVERT JUMPDEST SWAP2 SWAP4 DUP2 DUP1 SWAP5 POP ADD SUB SLT PUSH2 0x221 JUMPI DUP3 ADD MLOAD SWAP1 DUP2 ISZERO ISZERO DUP3 SUB PUSH2 0x7FC JUMPI POP DUP1 CODESIZE DUP1 DUP5 PUSH2 0xBC9 JUMP JUMPDEST PUSH4 0x4E487B71 PUSH1 0xE0 SHL DUP6 MSTORE PUSH1 0x41 PUSH1 0x4 MSTORE PUSH1 0x24 DUP6 REVERT JUMPDEST SWAP1 PUSH2 0xBBB SWAP4 SWAP3 POP PUSH1 0x60 SWAP2 JUMPDEST SWAP2 SWAP3 SWAP1 ISZERO PUSH2 0xCD2 JUMPI POP DUP2 MLOAD ISZERO PUSH2 0xC84 JUMPI POP SWAP1 JUMP JUMPDEST EXTCODESIZE ISZERO PUSH2 0xC8D JUMPI SWAP1 JUMP JUMPDEST PUSH1 0x40 MLOAD PUSH3 0x461BCD PUSH1 0xE5 SHL DUP2 MSTORE PUSH1 0x20 PUSH1 0x4 DUP3 ADD MSTORE PUSH1 0x1D PUSH1 0x24 DUP3 ADD MSTORE PUSH32 0x416464726573733A2063616C6C20746F206E6F6E2D636F6E7472616374000000 PUSH1 0x44 DUP3 ADD MSTORE PUSH1 0x64 SWAP1 REVERT JUMPDEST DUP3 MLOAD SWAP1 SWAP2 POP ISZERO PUSH2 0xCE5 JUMPI POP DUP1 MLOAD SWAP1 PUSH1 0x20 ADD REVERT JUMPDEST PUSH1 0x40 MLOAD PUSH3 0x461BCD PUSH1 0xE5 SHL DUP2 MSTORE PUSH1 0x20 PUSH1 0x4 DUP3 ADD MSTORE SWAP1 DUP2 SWAP1 PUSH2 0xD09 SWAP1 PUSH1 0x24 DUP4 ADD SWAP1 PUSH2 0xA4A JUMP JUMPDEST SUB SWAP1 REVERT INVALID LOG2 PUSH5 0x6970667358 0x22 SLT KECCAK256 DUP15 SWAP16 RETURNDATACOPY 0x27 0xBE PUSH31 0x29D402676673188746CD624D7A4040391787405DDD993A2ED1B964736F6C63 NUMBER STOP ADDMOD XOR STOP CALLER SWAP16 DUP4 0xA6 DUP2 0xA5 CALLER PC EXP 0xA6 PUSH25 0x5AC573F703BF305E30628C3B3D0E31B50443A4336E73000000 "},"methodIdentifiers":{"assetCount()":"eafe7a74","assets(uint256)":"cf35bdd0","emergencyWithdraw()":"db2e21bc","getAssetCount()":"a0aead4d","getAssetInfo(uint256)":"f637d950","getUserAssets(address)":"765ff061","getUserShares(address,uint256)":"ddd9d045","owner()":"8da5cb5b","paymentToken()":"3013ce29","purchaseShares(uint256,uint256)":"d2bcdc60","renounceOwnership()":"715018a6","transferOwnership(address)":"f2fde38b","userAssets(address,uint256)":"6a8a69aa","userShares(uint256,address)":"ad954878"}}}}}