{
  "_format": "hh-sol-artifact-1",
  "contractName": "PrimeVault",
  "sourceName": "contracts/PrimeVault.sol",
  "abi": [
    {
      "inputs": [
        {
          "internalType": "address",
          "name": "_mETH",
          "type": "address"
        }
      ],
      "stateMutability": "nonpayable",
      "type": "constructor"
    },
    {
      "anonymous": false,
      "inputs": [
        {
          "indexed": true,
          "internalType": "address",
          "name": "user",
          "type": "address"
        },
        {
          "indexed": false,
          "internalType": "uint256",
          "name": "newCollateral",
          "type": "uint256"
        }
      ],
      "name": "CollateralUpdated",
      "type": "event"
    },
    {
      "anonymous": false,
      "inputs": [
        {
          "indexed": true,
          "internalType": "address",
          "name": "user",
          "type": "address"
        },
        {
          "indexed": false,
          "internalType": "uint256",
          "name": "creditAmount",
          "type": "uint256"
        }
      ],
      "name": "CreditUpdated",
      "type": "event"
    },
    {
      "anonymous": false,
      "inputs": [
        {
          "indexed": true,
          "internalType": "address",
          "name": "user",
          "type": "address"
        },
        {
          "indexed": false,
          "internalType": "uint256",
          "name": "amount",
          "type": "uint256"
        }
      ],
      "name": "Deposited",
      "type": "event"
    },
    {
      "anonymous": false,
      "inputs": [
        {
          "indexed": true,
          "internalType": "address",
          "name": "previousOwner",
          "type": "address"
        },
        {
          "indexed": true,
          "internalType": "address",
          "name": "newOwner",
          "type": "address"
        }
      ],
      "name": "OwnershipTransferred",
      "type": "event"
    },
    {
      "anonymous": false,
      "inputs": [
        {
          "indexed": false,
          "internalType": "address",
          "name": "account",
          "type": "address"
        }
      ],
      "name": "Paused",
      "type": "event"
    },
    {
      "anonymous": false,
      "inputs": [
        {
          "indexed": false,
          "internalType": "address",
          "name": "account",
          "type": "address"
        }
      ],
      "name": "Unpaused",
      "type": "event"
    },
    {
      "anonymous": false,
      "inputs": [
        {
          "indexed": true,
          "internalType": "address",
          "name": "user",
          "type": "address"
        },
        {
          "indexed": false,
          "internalType": "uint256",
          "name": "amount",
          "type": "uint256"
        }
      ],
      "name": "Withdrawn",
      "type": "event"
    },
    {
      "inputs": [],
      "name": "COLLATERAL_RATIO",
      "outputs": [
        {
          "internalType": "uint256",
          "name": "",
          "type": "uint256"
        }
      ],
      "stateMutability": "view",
      "type": "function"
    },
    {
      "inputs": [],
      "name": "MAX_LTV",
      "outputs": [
        {
          "internalType": "uint256",
          "name": "",
          "type": "uint256"
        }
      ],
      "stateMutability": "view",
      "type": "function"
    },
    {
      "inputs": [
        {
          "internalType": "address",
          "name": "",
          "type": "address"
        }
      ],
      "name": "creditUsed",
      "outputs": [
        {
          "internalType": "uint256",
          "name": "",
          "type": "uint256"
        }
      ],
      "stateMutability": "view",
      "type": "function"
    },
    {
      "inputs": [
        {
          "internalType": "uint256",
          "name": "amount",
          "type": "uint256"
        }
      ],
      "name": "deposit",
      "outputs": [],
      "stateMutability": "nonpayable",
      "type": "function"
    },
    {
      "inputs": [
        {
          "internalType": "address",
          "name": "user",
          "type": "address"
        }
      ],
      "name": "getAvailableCollateral",
      "outputs": [
        {
          "internalType": "uint256",
          "name": "",
          "type": "uint256"
        }
      ],
      "stateMutability": "view",
      "type": "function"
    },
    {
      "inputs": [
        {
          "internalType": "address",
          "name": "user",
          "type": "address"
        }
      ],
      "name": "getHealthFactor",
      "outputs": [
        {
          "internalType": "uint256",
          "name": "",
          "type": "uint256"
        }
      ],
      "stateMutability": "view",
      "type": "function"
    },
    {
      "inputs": [
        {
          "internalType": "address",
          "name": "user",
          "type": "address"
        }
      ],
      "name": "getMaxBorrowCapacity",
      "outputs": [
        {
          "internalType": "uint256",
          "name": "",
          "type": "uint256"
        }
      ],
      "stateMutability": "view",
      "type": "function"
    },
    {
      "inputs": [],
      "name": "mETH",
      "outputs": [
        {
          "internalType": "contract IERC20",
          "name": "",
          "type": "address"
        }
      ],
      "stateMutability": "view",
      "type": "function"
    },
    {
      "inputs": [],
      "name": "owner",
      "outputs": [
        {
          "internalType": "address",
          "name": "",
          "type": "address"
        }
      ],
      "stateMutability": "view",
      "type": "function"
    },
    {
      "inputs": [],
      "name": "pause",
      "outputs": [],
      "stateMutability": "nonpayable",
      "type": "function"
    },
    {
      "inputs": [],
      "name": "paused",
      "outputs": [
        {
          "internalType": "bool",
          "name": "",
          "type": "bool"
        }
      ],
      "stateMutability": "view",
      "type": "function"
    },
    {
      "inputs": [],
      "name": "renounceOwnership",
      "outputs": [],
      "stateMutability": "nonpayable",
      "type": "function"
    },
    {
      "inputs": [],
      "name": "totalCollateral",
      "outputs": [
        {
          "internalType": "uint256",
          "name": "",
          "type": "uint256"
        }
      ],
      "stateMutability": "view",
      "type": "function"
    },
    {
      "inputs": [],
      "name": "totalDeposited",
      "outputs": [
        {
          "internalType": "uint256",
          "name": "",
          "type": "uint256"
        }
      ],
      "stateMutability": "view",
      "type": "function"
    },
    {
      "inputs": [
        {
          "internalType": "address",
          "name": "newOwner",
          "type": "address"
        }
      ],
      "name": "transferOwnership",
      "outputs": [],
      "stateMutability": "nonpayable",
      "type": "function"
    },
    {
      "inputs": [],
      "name": "unpause",
      "outputs": [],
      "stateMutability": "nonpayable",
      "type": "function"
    },
    {
      "inputs": [
        {
          "internalType": "address",
          "name": "user",
          "type": "address"
        },
        {
          "internalType": "uint256",
          "name": "creditAmount",
          "type": "uint256"
        }
      ],
      "name": "updateCreditUsage",
      "outputs": [],
      "stateMutability": "nonpayable",
      "type": "function"
    },
    {
      "inputs": [
        {
          "internalType": "address",
          "name": "",
          "type": "address"
        }
      ],
      "name": "userCollateral",
      "outputs": [
        {
          "internalType": "uint256",
          "name": "",
          "type": "uint256"
        }
      ],
      "stateMutability": "view",
      "type": "function"
    },
    {
      "inputs": [
        {
          "internalType": "address",
          "name": "",
          "type": "address"
        }
      ],
      "name": "userDeposits",
      "outputs": [
        {
          "internalType": "uint256",
          "name": "",
          "type": "uint256"
        }
      ],
      "stateMutability": "view",
      "type": "function"
    },
    {
      "inputs": [
        {
          "internalType": "uint256",
          "name": "amount",
          "type": "uint256"
        }
      ],
      "name": "withdraw",
      "outputs": [],
      "stateMutability": "nonpayable",
      "type": "function"
    }
  ],
  "bytecode": "0x60a03461011c57601f61103d38819003918201601f19168301916001600160401b038311848410176101215780849260209460405283398101031261011c57516001600160a01b038082169182900361011c576001600081815581546001600160a81b0319811633600881811b610100600160a81b0316929092179094556040519491901c16907f8be0079c531659141344cd1fd0a4f28419497f9722a3daafe3b4186f6b6457e09080a381156100da5750608052604051610f05908161013882396080518181816104a2015281816108ff01526109a60152f35b62461bcd60e51b815260206004820152601460248201527f496e76616c6964206d45544820616464726573730000000000000000000000006044820152606490fd5b600080fd5b634e487b7160e01b600052604160045260246000fdfe608060408181526004918236101561001657600080fd5b600092833560e01c9182630ba36dcd146109d55750816329e84867146109915781632e1a7d4d146107cf5781633f4ba83a14610739578163432cd18e146106d55781634ac8eb5f146106b65781635c975abb14610692578163638458971461065c578163715018a6146105fb57816381bf8d3d146105df5781638456cb59146105855781638da5cb5b14610558578163b6b55f251461042d578163bb69bc71146103a0578163d9e69a0514610384578163e8e2160514610262578163f2fde38b1461018557508063f69f1e4a1461014e578063fe6bcd7c146101225763ff50abdc1461010157600080fd5b3461011e578160031936011261011e576020906005549051908152f35b5080fd5b503461011e57602036600319011261011e57602090610147610142610a09565b610b01565b9051908152f35b503461011e57602036600319011261011e5760209181906001600160a01b03610175610a09565b1681526003845220549051908152f35b90503461025e57602036600319011261025e576101a0610a09565b6101a8610c10565b6001600160a01b0381811693909290841561020c57505060018054610100600160a81b03198116600893841b610100600160a81b031617909155901c167f8be0079c531659141344cd1fd0a4f28419497f9722a3daafe3b4186f6b6457e08380a380f35b906020608492519162461bcd60e51b8352820152602660248201527f4f776e61626c653a206e6577206f776e657220697320746865207a65726f206160448201526564647265737360d01b6064820152fd5b8280fd5b90503461025e578160031936011261025e5761027c610a09565b9160243590610289610c10565b60968202928215948385046096148617156103685760018060a01b0316948587526102c260646020966003885204848920541015610aa8565b85875260038552828720541561037b5760648402908482046064141715610368576102fa605091878952600387528489205490610a88565b11610335578486528352808520829055519081527fb8b17c68dbe6cd120dd338473bf86b84c67e766feac2b583d29be17f3259599a9190a280f35b83606492519162461bcd60e51b8352820152600f60248201526e22bc31b2b2b2399036b0bc10262a2b60891b6044820152fd5b634e487b7160e01b875260118252602487fd5b506050866102fa565b50503461011e578160031936011261011e576020905160968152f35b82843461042a57602036600319011261042a576001600160a01b036103c3610a09565b168082528360205282822054609681029080820460961490151715610417576020945060649004908252600384528282205481811160001461040f576101479250610a65565b51908152f35b505090610409565b634e487b7160e01b835260118552602483fd5b80fd5b83833461011e57602036600319011261011e5782359061044b610b76565b610453610bcc565b61045e821515610a24565b80516323b872dd60e01b60208201523360248201523060448201526064808201849052815260a0810167ffffffffffffffff8111828210176105455782526104c6907f0000000000000000000000000000000000000000000000000000000000000000610c6b565b33835260026020528083206104dc838254610af4565b905533835260036020528083206104f4838254610af4565b905561050282600554610af4565b60055561051182600654610af4565b600655519081527f2da466a7b24304f47e87fa2e1e5a81b9831ce54fec19055ce277ca2f39ba42c460203392a26001815580f35b634e487b7160e01b855260418652602485fd5b50503461011e578160031936011261011e57600154905160089190911c6001600160a01b03168152602090f35b50503461011e578160031936011261011e5760207f62e78cea01bee320cd4e420270b5ea74000d11b0c9f74754ebdbfc544b05a258916105c3610c10565b6105cb610bcc565b600160ff198154161760015551338152a180f35b50503461011e578160031936011261011e576020905160508152f35b833461042a578060031936011261042a57610614610c10565b60018054610100600160a81b03198116909155819060081c6001600160a01b03167f8be0079c531659141344cd1fd0a4f28419497f9722a3daafe3b4186f6b6457e08280a380f35b90503461025e57602036600319011261025e5760209282916001600160a01b03610684610a09565b168252845220549051908152f35b50503461011e578160031936011261011e5760209060ff6001541690519015158152f35b50503461011e578160031936011261011e576020906006549051908152f35b9050823461042a57602036600319011261042a576001600160a01b036106f9610a09565b16815260036020528281205491605083029280840460501490151715610726576020836064865191048152f35b634e487b7160e01b825260119052602490fd5b90503461025e578260031936011261025e57610753610c10565b6001549060ff821615610795575060ff1916600155513381527f5db9ee0a495bf2e6ff9c91a7834c1ba4fdd244a5e8aa4e537bd38aeae4b073aa90602090a180f35b606490602084519162461bcd60e51b8352820152601460248201527314185d5cd8589b194e881b9bdd081c185d5cd95960621b6044820152fd5b83833461011e5760208060031936011261025e578335916107ee610b76565b6107f6610bcc565b610801831515610a24565b3384526002825282818520541061095757338452600382526108268382862054610a65565b338552858352818520546096810290808204609614901517156109445790606461085292041115610aa8565b33845260028252808420610867848254610a65565b90553384526003825280842061087e848254610a65565b905561088c83600554610a65565b60055561089b83600654610a65565b600655805163a9059cbb60e01b83820152336024820152604480820185905281526080810167ffffffffffffffff811182821017610931578291610923917f7084f5476618d8e60b11ef0d7d3f06914655adb8793e28ff7f018d4c76d505d59594527f0000000000000000000000000000000000000000000000000000000000000000610c6b565b519283523392a26001815580f35b634e487b7160e01b865260418752602486fd5b634e487b7160e01b865260118752602486fd5b5162461bcd60e51b8152808501919091526014602482015273496e73756666696369656e742062616c616e636560601b6044820152606490fd5b50503461011e578160031936011261011e57517f00000000000000000000000000000000000000000000000000000000000000006001600160a01b03168152602090f35b8490843461025e57602036600319011261025e576020926001600160a01b036109fc610a09565b1681526002845220548152f35b600435906001600160a01b0382168203610a1f57565b600080fd5b15610a2b57565b60405162461bcd60e51b81526020600482015260126024820152710416d6f756e74206d757374206265203e20360741b6044820152606490fd5b91908203918211610a7257565b634e487b7160e01b600052601160045260246000fd5b8115610a92570490565b634e487b7160e01b600052601260045260246000fd5b15610aaf57565b60405162461bcd60e51b815260206004820152601760248201527f496e73756666696369656e7420636f6c6c61746572616c0000000000000000006044820152606490fd5b91908201809211610a7257565b6001600160a01b03166000818152600460205260408120549092919015610b6e576003602052604083205490606482029180830460641490151715610b5a5783604091610b579495526004602052205490610a88565b90565b634e487b7160e01b84526011600452602484fd5b506000199150565b600260005414610b87576002600055565b60405162461bcd60e51b815260206004820152601f60248201527f5265656e7472616e637947756172643a207265656e7472616e742063616c6c006044820152606490fd5b60ff60015416610bd857565b60405162461bcd60e51b815260206004820152601060248201526f14185d5cd8589b194e881c185d5cd95960821b6044820152606490fd5b60015460081c6001600160a01b03163303610c2757565b606460405162461bcd60e51b815260206004820152602060248201527f4f776e61626c653a2063616c6c6572206973206e6f7420746865206f776e65726044820152fd5b6040805167ffffffffffffffff94936001600160a01b03909316929080830186811182821017610de55783526020938482527f5361666545524332303a206c6f772d6c6576656c2063616c6c206661696c6564858301526000808487829651910182855af13d15610dd4573d91888311610dc057601f1992865193603f81601f8401160116840199848b10908b1117610dac5786979899610d1696975283528286893d92013e610dfb565b805191821591858315610d88575b505050905015610d32575050565b60849250519062461bcd60e51b82526004820152602a60248201527f5361666545524332303a204552433230206f7065726174696f6e20646964206e6044820152691bdd081cdd58d8d9595960b21b6064820152fd5b91938180945001031261011e5783015190811515820361042a575080388085610d24565b634e487b7160e01b86526041600452602486fd5b634e487b7160e01b85526041600452602485fd5b610d16939495969750606091610dfb565b634e487b7160e01b600052604160045260246000fd5b91929015610e5d5750815115610e0f575090565b3b15610e185790565b60405162461bcd60e51b815260206004820152601d60248201527f416464726573733a2063616c6c20746f206e6f6e2d636f6e74726163740000006044820152606490fd5b825190915015610e705750805190602001fd5b6040519062461bcd60e51b82528160208060048301528251908160248401526000935b828510610eb6575050604492506000838284010152601f80199101168101030190fd5b8481018201518686016044015293810193859350610e9356fea26469706673582212204beaa927a94351e728d1fdb8f7113910e197f3cb92a113a1901df493c6b37d7164736f6c63430008180033",
  "linkReferences": {},
  "deployedLinkReferences": {}
}