{
  "_format": "hh-sol-artifact-1",
  "contractName": "MantleStakingVault",
  "sourceName": "contracts/simplified/MantleStakingVault.sol",
  "abi": [
    {
      "inputs": [],
      "stateMutability": "nonpayable",
      "type": "constructor"
    },
    {
      "anonymous": false,
      "inputs": [
        {
          "indexed": true,
          "internalType": "address",
          "name": "previousOwner",
          "type": "address"
        },
        {
          "indexed": true,
          "internalType": "address",
          "name": "newOwner",
          "type": "address"
        }
      ],
      "name": "OwnershipTransferred",
      "type": "event"
    },
    {
      "anonymous": false,
      "inputs": [
        {
          "indexed": true,
          "internalType": "address",
          "name": "user",
          "type": "address"
        },
        {
          "indexed": false,
          "internalType": "uint256",
          "name": "amount",
          "type": "uint256"
        }
      ],
      "name": "Staked",
      "type": "event"
    },
    {
      "anonymous": false,
      "inputs": [
        {
          "indexed": true,
          "internalType": "address",
          "name": "user",
          "type": "address"
        },
        {
          "indexed": false,
          "internalType": "uint256",
          "name": "amount",
          "type": "uint256"
        }
      ],
      "name": "Unstaked",
      "type": "event"
    },
    {
      "anonymous": false,
      "inputs": [
        {
          "indexed": true,
          "internalType": "address",
          "name": "user",
          "type": "address"
        },
        {
          "indexed": false,
          "internalType": "uint256",
          "name": "yield",
          "type": "uint256"
        }
      ],
      "name": "YieldClaimed",
      "type": "event"
    },
    {
      "inputs": [],
      "name": "BASIS_POINTS",
      "outputs": [
        {
          "internalType": "uint256",
          "name": "",
          "type": "uint256"
        }
      ],
      "stateMutability": "view",
      "type": "function"
    },
    {
      "inputs": [],
      "name": "SECONDS_PER_YEAR",
      "outputs": [
        {
          "internalType": "uint256",
          "name": "",
          "type": "uint256"
        }
      ],
      "stateMutability": "view",
      "type": "function"
    },
    {
      "inputs": [],
      "name": "STAKING_APY",
      "outputs": [
        {
          "internalType": "uint256",
          "name": "",
          "type": "uint256"
        }
      ],
      "stateMutability": "view",
      "type": "function"
    },
    {
      "inputs": [],
      "name": "claimYield",
      "outputs": [],
      "stateMutability": "nonpayable",
      "type": "function"
    },
    {
      "inputs": [],
      "name": "emergencyWithdraw",
      "outputs": [],
      "stateMutability": "nonpayable",
      "type": "function"
    },
    {
      "inputs": [],
      "name": "fundYieldPool",
      "outputs": [],
      "stateMutability": "payable",
      "type": "function"
    },
    {
      "inputs": [
        {
          "internalType": "address",
          "name": "user",
          "type": "address"
        }
      ],
      "name": "getStakeInfo",
      "outputs": [
        {
          "internalType": "uint256",
          "name": "stakedAmount",
          "type": "uint256"
        },
        {
          "internalType": "uint256",
          "name": "pendingYieldAmount",
          "type": "uint256"
        },
        {
          "internalType": "uint256",
          "name": "lastUpdate",
          "type": "uint256"
        }
      ],
      "stateMutability": "view",
      "type": "function"
    },
    {
      "inputs": [],
      "name": "getYieldPool",
      "outputs": [
        {
          "internalType": "uint256",
          "name": "",
          "type": "uint256"
        }
      ],
      "stateMutability": "view",
      "type": "function"
    },
    {
      "inputs": [],
      "name": "owner",
      "outputs": [
        {
          "internalType": "address",
          "name": "",
          "type": "address"
        }
      ],
      "stateMutability": "view",
      "type": "function"
    },
    {
      "inputs": [
        {
          "internalType": "address",
          "name": "user",
          "type": "address"
        }
      ],
      "name": "pendingYield",
      "outputs": [
        {
          "internalType": "uint256",
          "name": "",
          "type": "uint256"
        }
      ],
      "stateMutability": "view",
      "type": "function"
    },
    {
      "inputs": [],
      "name": "renounceOwnership",
      "outputs": [],
      "stateMutability": "nonpayable",
      "type": "function"
    },
    {
      "inputs": [],
      "name": "stake",
      "outputs": [],
      "stateMutability": "payable",
      "type": "function"
    },
    {
      "inputs": [
        {
          "internalType": "address",
          "name": "",
          "type": "address"
        }
      ],
      "name": "stakes",
      "outputs": [
        {
          "internalType": "uint256",
          "name": "stakedAmount",
          "type": "uint256"
        },
        {
          "internalType": "uint256",
          "name": "lastUpdateTime",
          "type": "uint256"
        },
        {
          "internalType": "uint256",
          "name": "accruedYield",
          "type": "uint256"
        }
      ],
      "stateMutability": "view",
      "type": "function"
    },
    {
      "inputs": [],
      "name": "totalStaked",
      "outputs": [
        {
          "internalType": "uint256",
          "name": "",
          "type": "uint256"
        }
      ],
      "stateMutability": "view",
      "type": "function"
    },
    {
      "inputs": [
        {
          "internalType": "address",
          "name": "newOwner",
          "type": "address"
        }
      ],
      "name": "transferOwnership",
      "outputs": [],
      "stateMutability": "nonpayable",
      "type": "function"
    },
    {
      "inputs": [
        {
          "internalType": "uint256",
          "name": "amount",
          "type": "uint256"
        }
      ],
      "name": "unstake",
      "outputs": [],
      "stateMutability": "nonpayable",
      "type": "function"
    }
  ],
  "bytecode": "0x6080806040523461005e57600160008181558154336001600160a01b0319821681179093556001600160a01b0316907f8be0079c531659141344cd1fd0a4f28419497f9722a3daafe3b4186f6b6457e09080a361098890816100648239f35b600080fdfe60406080815260048036101561001457600080fd5b600091823560e01c806313901cf61461074b57806316934fc4146106f65780632e17de78146105dc5780633a4b66f114610518578063406cf22914610407578063715018a6146103aa578063817b1cd21461038b5780638da5cb5b146103625780638e1d518b14610340578063c34531531461028d578063c7bf198014610252578063d6fd1c5214610235578063db2e21bc146101e5578063e1f1c4a7146101c8578063e6a69ab8146101a55763f2fde38b146100d057600080fd5b346101a15760203660031901126101a1576001600160a01b0382358181169391929084900361019d57610101610877565b831561014b575050600154826bffffffffffffffffffffffff60a01b821617600155167f8be0079c531659141344cd1fd0a4f28419497f9722a3daafe3b4186f6b6457e08380a380f35b906020608492519162461bcd60e51b8352820152602660248201527f4f776e61626c653a206e6577206f776e657220697320746865207a65726f206160448201526564647265737360d01b6064820152fd5b8480fd5b8280fd5b8382346101c457816003193601126101c457602090516301e133808152f35b5080fd5b8382346101c457816003193601126101c457602090516127108152f35b8382346101c457816003193601126101c4576101ff610877565b8180808060018060a01b0360015416479082821561022c575bf115610222575080f35b51903d90823e3d90fd5b506108fc610218565b8382346101c457816003193601126101c457602090516101a48152f35b5090346101a15760203660031901126101a15735916001600160a01b038316830361028a5750610283602092610792565b9051908152f35b80fd5b508290346101c45760203660031901126101c45782356001600160a01b03811680820361033c578352600260205281832093825193606085019185831067ffffffffffffffff841117610329575050829161030791610325945285549485815283600260018901549860208401998a520154910152610792565b93519051938493846040919493926060820195825260208201520152565b0390f35b634e487b7160e01b825260419052602490fd5b8380fd5b8382346101c457816003193601126101c4576020906102834760035490610762565b8382346101c457816003193601126101c45760015490516001600160a01b039091168152602090f35b8382346101c457816003193601126101c4576020906003549051908152f35b833461028a578060031936011261028a576103c3610877565b600180546001600160a01b0319811690915581906001600160a01b03167f8be0079c531659141344cd1fd0a4f28419497f9722a3daafe3b4186f6b6457e08280a380f35b50346101a157826003193601126101a1576104206108cf565b61042933610925565b3383526002602052600281842001549182156104e257338452600260205283600283822001558247106104a0575082808080853382f11561049557519081527fc04825ba3f383b602255d2a13065a68e325c65c9e0ed5d031ea2b06f641873af60203392a26001815580f35b51913d9150823e3d90fd5b6020606492519162461bcd60e51b8352820152601760248201527f496e73756666696369656e74207969656c6420706f6f6c0000000000000000006044820152fd5b6020606492519162461bcd60e51b835282015260116024820152704e6f207969656c6420746f20636c61696d60781b6044820152fd5b5090826003193601126101a15761052d6108cf565b34156105a5575061053d33610925565b3382526002602052808220610553348254610785565b90553382526002602052426001828420015561057134600354610785565b600355513481527f9e71bc8eea02a63969f509818f2dafb9254532904319f9dbda79b67bd34a5f3d60203392a26001815580f35b6020606492519162461bcd60e51b8352820152601260248201527110d85b9b9bdd081cdd185ad9480c0813539560721b6044820152fd5b5090346101a15760208060031936011261033c578135916105fb6108cf565b82156106c2573385526002825282848620541061068c575061061c33610925565b33845260028152828420610631838254610762565b905561063f82600354610762565b60035583808080853382f115610680577f0f5bb82176feb1b5e747e28471aa92156a04d9f3ab9f45f28e2d704232b93f759192519283523392a26001815580f35b505051903d90823e3d90fd5b60649184519162461bcd60e51b83528201526012602482015271496e73756666696369656e74207374616b6560701b6044820152fd5b60649184519162461bcd60e51b8352820152601060248201526f043616e6e6f7420756e7374616b6520360841b6044820152fd5b5090346101a15760203660031901126101a157356001600160a01b038116908190036101a157825260026020818152928290208054600182015491909201549251918252928101929092526040820152606090f35b838060031936011261028a5761075f610877565b80f35b9190820391821161076f57565b634e487b7160e01b600052601160045260246000fd5b9190820180921161076f57565b6001600160a01b0316600090815260026020526040808220905190916060820167ffffffffffffffff811183821017610863576040528254928383526002600182015491826020860152015460408401948186521561085b57506107f69042610762565b91516101a4808202918083048214811517156108475784020292818404149015171561083357509064496cebb80061083092049051610785565b90565b634e487b7160e01b81526011600452602490fd5b634e487b7160e01b84526011600452602484fd5b935050505090565b634e487b7160e01b82526041600452602482fd5b6001546001600160a01b0316330361088b57565b606460405162461bcd60e51b815260206004820152602060248201527f4f776e61626c653a2063616c6c6572206973206e6f7420746865206f776e65726044820152fd5b6002600054146108e0576002600055565b60405162461bcd60e51b815260206004820152601f60248201527f5265656e7472616e637947756172643a207265656e7472616e742063616c6c006044820152606490fd5b61092e81610792565b9060018060a01b03166000526002602052604060002090600282015560014291015556fea26469706673582212207a6bd916e2de2ea2911457a3a219665e4fd38ddd6cb14139738328bbad20e81464736f6c63430008180033",
  "linkReferences": {},
  "deployedLinkReferences": {}
}