{
  "_format": "hh-sol-artifact-1",
  "contractName": "MockMETH",
  "sourceName": "contracts/mocks/MockMETH.sol",
  "abi": [
    {
      "inputs": [],
      "stateMutability": "nonpayable",
      "type": "constructor"
    },
    {
      "anonymous": false,
      "inputs": [
        {
          "indexed": true,
          "internalType": "address",
          "name": "owner",
          "type": "address"
        },
        {
          "indexed": true,
          "internalType": "address",
          "name": "spender",
          "type": "address"
        },
        {
          "indexed": false,
          "internalType": "uint256",
          "name": "value",
          "type": "uint256"
        }
      ],
      "name": "Approval",
      "type": "event"
    },
    {
      "anonymous": false,
      "inputs": [
        {
          "indexed": true,
          "internalType": "address",
          "name": "previousOwner",
          "type": "address"
        },
        {
          "indexed": true,
          "internalType": "address",
          "name": "newOwner",
          "type": "address"
        }
      ],
      "name": "OwnershipTransferred",
      "type": "event"
    },
    {
      "anonymous": false,
      "inputs": [
        {
          "indexed": true,
          "internalType": "address",
          "name": "user",
          "type": "address"
        },
        {
          "indexed": false,
          "internalType": "uint256",
          "name": "amount",
          "type": "uint256"
        }
      ],
      "name": "Staked",
      "type": "event"
    },
    {
      "anonymous": false,
      "inputs": [
        {
          "indexed": true,
          "internalType": "address",
          "name": "to",
          "type": "address"
        },
        {
          "indexed": false,
          "internalType": "uint256",
          "name": "amount",
          "type": "uint256"
        }
      ],
      "name": "TokensMinted",
      "type": "event"
    },
    {
      "anonymous": false,
      "inputs": [
        {
          "indexed": true,
          "internalType": "address",
          "name": "from",
          "type": "address"
        },
        {
          "indexed": true,
          "internalType": "address",
          "name": "to",
          "type": "address"
        },
        {
          "indexed": false,
          "internalType": "uint256",
          "name": "value",
          "type": "uint256"
        }
      ],
      "name": "Transfer",
      "type": "event"
    },
    {
      "anonymous": false,
      "inputs": [
        {
          "indexed": true,
          "internalType": "address",
          "name": "user",
          "type": "address"
        },
        {
          "indexed": false,
          "internalType": "uint256",
          "name": "yield",
          "type": "uint256"
        }
      ],
      "name": "YieldClaimed",
      "type": "event"
    },
    {
      "inputs": [],
      "name": "ANNUAL_YIELD_RATE",
      "outputs": [
        {
          "internalType": "uint256",
          "name": "",
          "type": "uint256"
        }
      ],
      "stateMutability": "view",
      "type": "function"
    },
    {
      "inputs": [],
      "name": "BASIS_POINTS",
      "outputs": [
        {
          "internalType": "uint256",
          "name": "",
          "type": "uint256"
        }
      ],
      "stateMutability": "view",
      "type": "function"
    },
    {
      "inputs": [],
      "name": "SECONDS_PER_YEAR",
      "outputs": [
        {
          "internalType": "uint256",
          "name": "",
          "type": "uint256"
        }
      ],
      "stateMutability": "view",
      "type": "function"
    },
    {
      "inputs": [
        {
          "internalType": "address",
          "name": "owner",
          "type": "address"
        },
        {
          "internalType": "address",
          "name": "spender",
          "type": "address"
        }
      ],
      "name": "allowance",
      "outputs": [
        {
          "internalType": "uint256",
          "name": "",
          "type": "uint256"
        }
      ],
      "stateMutability": "view",
      "type": "function"
    },
    {
      "inputs": [
        {
          "internalType": "address",
          "name": "spender",
          "type": "address"
        },
        {
          "internalType": "uint256",
          "name": "amount",
          "type": "uint256"
        }
      ],
      "name": "approve",
      "outputs": [
        {
          "internalType": "bool",
          "name": "",
          "type": "bool"
        }
      ],
      "stateMutability": "nonpayable",
      "type": "function"
    },
    {
      "inputs": [
        {
          "internalType": "address",
          "name": "account",
          "type": "address"
        }
      ],
      "name": "balanceOf",
      "outputs": [
        {
          "internalType": "uint256",
          "name": "",
          "type": "uint256"
        }
      ],
      "stateMutability": "view",
      "type": "function"
    },
    {
      "inputs": [],
      "name": "claimYield",
      "outputs": [],
      "stateMutability": "nonpayable",
      "type": "function"
    },
    {
      "inputs": [],
      "name": "decimals",
      "outputs": [
        {
          "internalType": "uint8",
          "name": "",
          "type": "uint8"
        }
      ],
      "stateMutability": "view",
      "type": "function"
    },
    {
      "inputs": [
        {
          "internalType": "address",
          "name": "spender",
          "type": "address"
        },
        {
          "internalType": "uint256",
          "name": "subtractedValue",
          "type": "uint256"
        }
      ],
      "name": "decreaseAllowance",
      "outputs": [
        {
          "internalType": "bool",
          "name": "",
          "type": "bool"
        }
      ],
      "stateMutability": "nonpayable",
      "type": "function"
    },
    {
      "inputs": [],
      "name": "faucet",
      "outputs": [],
      "stateMutability": "nonpayable",
      "type": "function"
    },
    {
      "inputs": [
        {
          "internalType": "address",
          "name": "user",
          "type": "address"
        }
      ],
      "name": "getStakingInfo",
      "outputs": [
        {
          "internalType": "uint256",
          "name": "stakedAmount",
          "type": "uint256"
        },
        {
          "internalType": "uint256",
          "name": "pendingYieldAmount",
          "type": "uint256"
        },
        {
          "internalType": "uint256",
          "name": "lastUpdate",
          "type": "uint256"
        }
      ],
      "stateMutability": "view",
      "type": "function"
    },
    {
      "inputs": [
        {
          "internalType": "address",
          "name": "spender",
          "type": "address"
        },
        {
          "internalType": "uint256",
          "name": "addedValue",
          "type": "uint256"
        }
      ],
      "name": "increaseAllowance",
      "outputs": [
        {
          "internalType": "bool",
          "name": "",
          "type": "bool"
        }
      ],
      "stateMutability": "nonpayable",
      "type": "function"
    },
    {
      "inputs": [
        {
          "internalType": "address",
          "name": "to",
          "type": "address"
        },
        {
          "internalType": "uint256",
          "name": "amount",
          "type": "uint256"
        }
      ],
      "name": "mintForDemo",
      "outputs": [],
      "stateMutability": "nonpayable",
      "type": "function"
    },
    {
      "inputs": [],
      "name": "name",
      "outputs": [
        {
          "internalType": "string",
          "name": "",
          "type": "string"
        }
      ],
      "stateMutability": "view",
      "type": "function"
    },
    {
      "inputs": [],
      "name": "owner",
      "outputs": [
        {
          "internalType": "address",
          "name": "",
          "type": "address"
        }
      ],
      "stateMutability": "view",
      "type": "function"
    },
    {
      "inputs": [
        {
          "internalType": "address",
          "name": "user",
          "type": "address"
        }
      ],
      "name": "pendingYield",
      "outputs": [
        {
          "internalType": "uint256",
          "name": "",
          "type": "uint256"
        }
      ],
      "stateMutability": "view",
      "type": "function"
    },
    {
      "inputs": [],
      "name": "renounceOwnership",
      "outputs": [],
      "stateMutability": "nonpayable",
      "type": "function"
    },
    {
      "inputs": [
        {
          "internalType": "uint256",
          "name": "rebaseAmount",
          "type": "uint256"
        }
      ],
      "name": "simulateRebase",
      "outputs": [],
      "stateMutability": "nonpayable",
      "type": "function"
    },
    {
      "inputs": [
        {
          "internalType": "uint256",
          "name": "amount",
          "type": "uint256"
        }
      ],
      "name": "stake",
      "outputs": [],
      "stateMutability": "nonpayable",
      "type": "function"
    },
    {
      "inputs": [
        {
          "internalType": "address",
          "name": "",
          "type": "address"
        }
      ],
      "name": "stakingInfo",
      "outputs": [
        {
          "internalType": "uint256",
          "name": "stakedAmount",
          "type": "uint256"
        },
        {
          "internalType": "uint256",
          "name": "lastUpdateTime",
          "type": "uint256"
        },
        {
          "internalType": "uint256",
          "name": "accruedYield",
          "type": "uint256"
        }
      ],
      "stateMutability": "view",
      "type": "function"
    },
    {
      "inputs": [],
      "name": "symbol",
      "outputs": [
        {
          "internalType": "string",
          "name": "",
          "type": "string"
        }
      ],
      "stateMutability": "view",
      "type": "function"
    },
    {
      "inputs": [],
      "name": "totalSupply",
      "outputs": [
        {
          "internalType": "uint256",
          "name": "",
          "type": "uint256"
        }
      ],
      "stateMutability": "view",
      "type": "function"
    },
    {
      "inputs": [
        {
          "internalType": "address",
          "name": "to",
          "type": "address"
        },
        {
          "internalType": "uint256",
          "name": "amount",
          "type": "uint256"
        }
      ],
      "name": "transfer",
      "outputs": [
        {
          "internalType": "bool",
          "name": "",
          "type": "bool"
        }
      ],
      "stateMutability": "nonpayable",
      "type": "function"
    },
    {
      "inputs": [
        {
          "internalType": "address",
          "name": "from",
          "type": "address"
        },
        {
          "internalType": "address",
          "name": "to",
          "type": "address"
        },
        {
          "internalType": "uint256",
          "name": "amount",
          "type": "uint256"
        }
      ],
      "name": "transferFrom",
      "outputs": [
        {
          "internalType": "bool",
          "name": "",
          "type": "bool"
        }
      ],
      "stateMutability": "nonpayable",
      "type": "function"
    },
    {
      "inputs": [
        {
          "internalType": "address",
          "name": "newOwner",
          "type": "address"
        }
      ],
      "name": "transferOwnership",
      "outputs": [],
      "stateMutability": "nonpayable",
      "type": "function"
    }
  ],
  "bytecode": "0x60803462000439576040906001600160401b03908083018281118282101762000423578352600f81526020906e09adec6d6409ac2dce8d8ca408aa89608b1b828201528351908482018281108582111762000423578552600493848352630da8aa8960e31b848401528151928184116200040e576003908154946001948587811c9716801562000403575b88881014620003ee578190601f9788811162000398575b508890888311600114620003315760009262000325575b505060001982851b1c191690851b1782555b8051928311620003105786548481811c9116801562000305575b87821014620002f057858111620002a5575b5085908584116001146200023a579383949184926000956200022e575b50501b92600019911b1c19161783555b60058054336001600160a01b03198216811790925585519291906001600160a01b03167f8be0079c531659141344cd1fd0a4f28419497f9722a3daafe3b4186f6b6457e0600080a33315620001f157505060025469d3c21bcecceda100000092838201809211620001dc57506000917fddf252ad1be2c89b69c2b068fc378daa952ba7f163c4a11628f55a4df523b3ef9160025533835282815284832084815401905584519384523393a3516111da90816200043f8239f35b601190634e487b7160e01b6000525260246000fd5b6064928462461bcd60e51b845283015260248201527f45524332303a206d696e7420746f20746865207a65726f2061646472657373006044820152fd5b01519350388062000113565b9190601f198416928860005284886000209460005b8a898383106200028d575050501062000272575b50505050811b01835562000123565b01519060f884600019921b161c191690553880808062000263565b8686015189559097019694850194889350016200024f565b87600052866000208680860160051c820192898710620002e6575b0160051c019085905b828110620002d9575050620000f6565b60008155018590620002c9565b92508192620002c0565b602288634e487b7160e01b6000525260246000fd5b90607f1690620000e4565b604187634e487b7160e01b6000525260246000fd5b015190503880620000b8565b90879350601f19831691866000528a6000209260005b8c82821062000381575050841162000368575b505050811b018255620000ca565b015160001983871b60f8161c191690553880806200035a565b8385015186558b9790950194938401930162000347565b90915084600052886000208880850160051c8201928b8610620003e4575b918991869594930160051c01915b828110620003d4575050620000a1565b60008155859450899101620003c4565b92508192620003b6565b602289634e487b7160e01b6000525260246000fd5b96607f16966200008a565b604186634e487b7160e01b6000525260246000fd5b634e487b7160e01b600052604160045260246000fd5b600080fdfe6080604081815260048036101561001557600080fd5b600092833560e01c90816306fdde0314610b5657508063095ea7b314610b2c57806318160ddd14610b0d57806323b872dd14610a43578063313ce56714610a2757806339509351146109d7578063406cf2291461092857806359cb8126146108ff57806370a08231146108c8578063715018a61461086b5780638da5cb5b1461084257806394eecb50146107e657806395d89b41146106e4578063a457c2d714610640578063a694fc3a14610547578063a9059cbb14610516578063aa4704f31461048c578063c7bf19801461045f578063d3def50714610442578063dd62ed3e146103f9578063de5f72fd146102a9578063e1f1c4a71461028c578063e6a69ab81461026d578063f25e9886146102045763f2fde38b1461013657600080fd5b346102005760203660031901126102005761014f610c91565b9061015861114c565b6001600160a01b039182169283156101ae575050600554826bffffffffffffffffffffffff60a01b821617600555167f8be0079c531659141344cd1fd0a4f28419497f9722a3daafe3b4186f6b6457e08380a380f35b906020608492519162461bcd60e51b8352820152602660248201527f4f776e61626c653a206e6577206f776e657220697320746865207a65726f206160448201526564647265737360d01b6064820152fd5b8280fd5b5050346102695780600319360112610269577f3f2c9d57c068687834f0de942a9babb9e5acab57d516d3480a3c16ee165a42736020610241610c91565b6024359361024d61114c565b61025785836110a9565b519384526001600160a01b031692a280f35b5080fd5b505034610269578160031936011261026957602090516301e133808152f35b505034610269578160031936011261026957602090516127108152f35b50919034610269578160031936011261026957338252602082815268056bc75e2d631000008284205410156103b757331561037557600254916802b5e3af16b18800009283810180911161036257907f3f2c9d57c068687834f0de942a9babb9e5acab57d516d3480a3c16ee165a427392916002553385528482528085208481540190558051848152857fddf252ad1be2c89b69c2b068fc378daa952ba7f163c4a11628f55a4df523b3ef843393a3519283523392a280f35b634e487b7160e01b855260118652602485fd5b8390606492519162461bcd60e51b8352820152601f60248201527f45524332303a206d696e7420746f20746865207a65726f2061646472657373006044820152fd5b8390606492519162461bcd60e51b8352820152601860248201527f416c7265616479206861766520656e6f756768206d45544800000000000000006044820152fd5b50503461026957806003193601126102695780602092610417610c91565b61041f610cac565b6001600160a01b0391821683526001865283832091168252845220549051908152f35b505034610269578160031936011261026957602090516101a48152f35b50503461026957602036600319011261026957602090610485610480610c91565b610d39565b9051908152f35b8284346105135760203660031901126105135761050f826104ab610c91565b6001600160a01b0381168452600660205292208351909390926104f1906104d185610cc2565b85549485815283600260018901549860208401998a520154910152610d39565b93519051938493846040919493926060820195825260208201520152565b0390f35b80fd5b505034610269578060031936011261026957602090610540610536610c91565b6024359033610f0e565b5160018152f35b509034610200576020908160031936011261063c57823592831561060a573385528483528382862054106105d25750907f9e71bc8eea02a63969f509818f2dafb9254532904319f9dbda79b67bd34a5f3d916105a23361107c565b338552600682528085206105b7858254610d16565b9055338552600682524260018287200155519283523392a280f35b82606492519162461bcd60e51b83528201526014602482015273496e73756666696369656e742062616c616e636560601b6044820152fd5b82606492519162461bcd60e51b8352820152600e60248201526d043616e6e6f74207374616b6520360941b6044820152fd5b8380fd5b50823461051357826003193601126105135761065a610c91565b918360243592338152600160205281812060018060a01b0386168252602052205490828210610693576020856105408585038733610e0c565b608490602086519162461bcd60e51b8352820152602560248201527f45524332303a2064656372656173656420616c6c6f77616e63652062656c6f77604482015264207a65726f60d81b6064820152fd5b5091903461026957816003193601126102695780519180938054916001908360011c92600185169485156107dc575b60209586861081146107c9578589529081156107a5575060011461074d575b61050f8787610743828c0383610cf4565b5191829182610c48565b81529295507f8a35acfbc15ff81a39ae7d344fd709f28e8600b4aa8c65c6b64bfe7fe36bd19b5b828410610792575050508261050f9461074392820101943880610732565b8054868501880152928601928101610774565b60ff19168887015250505050151560051b83010192506107438261050f3880610732565b634e487b7160e01b845260228352602484fd5b93607f1693610713565b505034610269576020366003190112610269579081906001600160a01b0361080c610c91565b1681526006602052209061050f825491600260018501549401549051938493846040919493926060820195825260208201520152565b50503461026957816003193601126102695760055490516001600160a01b039091168152602090f35b833461051357806003193601126105135761088461114c565b600580546001600160a01b0319811690915581906001600160a01b03167f8be0079c531659141344cd1fd0a4f28419497f9722a3daafe3b4186f6b6457e08280a380f35b5050346102695760203660031901126102695760209181906001600160a01b036108f0610c91565b16815280845220549051908152f35b838234610269576020366003190112610269576109259061091e61114c565b35306110a9565b80f35b5090346102005782600319360112610200576109433361107c565b3383526006602052600281842001549182156109a157503383526006602052826002828220015561097482336110a9565b519081527fc04825ba3f383b602255d2a13065a68e325c65c9e0ed5d031ea2b06f641873af60203392a280f35b6020606492519162461bcd60e51b835282015260116024820152704e6f207969656c6420746f20636c61696d60781b6044820152fd5b505034610269578060031936011261026957610540602092610a206109fa610c91565b338352600186528483206001600160a01b03821684528652918490205460243590610d16565b9033610e0c565b5050346102695781600319360112610269576020905160128152f35b5082903461026957606036600319011261026957610a5f610c91565b610a67610cac565b91846044359460018060a01b038416815260016020528181203382526020522054906000198203610aa1575b602086610540878787610f0e565b848210610aca5750918391610abf6020969561054095033383610e0c565b919394819350610a93565b606490602087519162461bcd60e51b8352820152601d60248201527f45524332303a20696e73756666696369656e7420616c6c6f77616e63650000006044820152fd5b5050346102695781600319360112610269576020906002549051908152f35b505034610269578060031936011261026957602090610540610b4c610c91565b6024359033610e0c565b929190503461063c578360031936011261063c57600354600181811c9186908281168015610c3e575b6020958686108214610c2b5750848852908115610c095750600114610bb0575b61050f8686610743828b0383610cf4565b929550600383527fc2575a0e9e593c00f959f8c92f12db2869c3395a3b0502d05e2516446f71f85b5b828410610bf6575050508261050f94610743928201019438610b9f565b8054868501880152928601928101610bd9565b60ff191687860152505050151560051b83010192506107438261050f38610b9f565b634e487b7160e01b845260229052602483fd5b93607f1693610b7f565b6020808252825181830181905290939260005b828110610c7d57505060409293506000838284010152601f8019910116010190565b818101860151848201604001528501610c5b565b600435906001600160a01b0382168203610ca757565b600080fd5b602435906001600160a01b0382168203610ca757565b6060810190811067ffffffffffffffff821117610cde57604052565b634e487b7160e01b600052604160045260246000fd5b90601f8019910116810190811067ffffffffffffffff821117610cde57604052565b91908201809211610d2357565b634e487b7160e01b600052601160045260246000fd5b6001600160a01b031660009081526006602052604080822090519091610d5e82610cc2565b82549283835260026001820154918260208601520154604084019481865215610e045750420391428311610df057516101a480820291808304821481151715610ddc57840202928184041490151715610dc857509064496cebb800610dc592049051610d16565b90565b634e487b7160e01b81526011600452602490fd5b634e487b7160e01b84526011600452602484fd5b634e487b7160e01b82526011600452602482fd5b935050505090565b6001600160a01b03908116918215610ebd5716918215610e6d5760207f8c5be1e5ebec7d5bd14f71427d1e84f3dd0314c0f7b2291e5b200ac8c7c3b925918360005260018252604060002085600052825280604060002055604051908152a3565b60405162461bcd60e51b815260206004820152602260248201527f45524332303a20617070726f766520746f20746865207a65726f206164647265604482015261737360f01b6064820152608490fd5b60405162461bcd60e51b8152602060048201526024808201527f45524332303a20617070726f76652066726f6d20746865207a65726f206164646044820152637265737360e01b6064820152608490fd5b6001600160a01b039081169182156110295716918215610fd857600082815280602052604081205491808310610f8457604082827fddf252ad1be2c89b69c2b068fc378daa952ba7f163c4a11628f55a4df523b3ef958760209652828652038282205586815220818154019055604051908152a3565b60405162461bcd60e51b815260206004820152602660248201527f45524332303a207472616e7366657220616d6f756e7420657863656564732062604482015265616c616e636560d01b6064820152608490fd5b60405162461bcd60e51b815260206004820152602360248201527f45524332303a207472616e7366657220746f20746865207a65726f206164647260448201526265737360e81b6064820152608490fd5b60405162461bcd60e51b815260206004820152602560248201527f45524332303a207472616e736665722066726f6d20746865207a65726f206164604482015264647265737360d81b6064820152608490fd5b61108581610d39565b9060018060a01b031660005260066020526040600020906002820155600142910155565b6001600160a01b0316908115611107577fddf252ad1be2c89b69c2b068fc378daa952ba7f163c4a11628f55a4df523b3ef6020826110eb600094600254610d16565b60025584845283825260408420818154019055604051908152a3565b60405162461bcd60e51b815260206004820152601f60248201527f45524332303a206d696e7420746f20746865207a65726f2061646472657373006044820152606490fd5b6005546001600160a01b0316330361116057565b606460405162461bcd60e51b815260206004820152602060248201527f4f776e61626c653a2063616c6c6572206973206e6f7420746865206f776e65726044820152fdfea2646970667358221220844009cb1e55160edb2db63184cf99c52b9886ce5d085ff142575984cb5404d564736f6c63430008180033",
  "linkReferences": {},
  "deployedLinkReferences": {}
}