{
  "_format": "hh-sol-artifact-1",
  "contractName": "CreditIssuer",
  "sourceName": "contracts/CreditIssuer.sol",
  "abi": [
    {
      "inputs": [
        {
          "internalType": "address",
          "name": "_vault",
          "type": "address"
        },
        {
          "internalType": "address",
          "name": "_usdy",
          "type": "address"
        },
        {
          "internalType": "address",
          "name": "_usdt0",
          "type": "address"
        }
      ],
      "stateMutability": "nonpayable",
      "type": "constructor"
    },
    {
      "anonymous": false,
      "inputs": [
        {
          "indexed": true,
          "internalType": "address",
          "name": "user",
          "type": "address"
        },
        {
          "indexed": false,
          "internalType": "uint256",
          "name": "amount",
          "type": "uint256"
        },
        {
          "indexed": false,
          "internalType": "uint256",
          "name": "fee",
          "type": "uint256"
        }
      ],
      "name": "CreditIssued",
      "type": "event"
    },
    {
      "anonymous": false,
      "inputs": [
        {
          "indexed": true,
          "internalType": "address",
          "name": "user",
          "type": "address"
        },
        {
          "indexed": false,
          "internalType": "uint256",
          "name": "amount",
          "type": "uint256"
        },
        {
          "indexed": false,
          "internalType": "uint256",
          "name": "interest",
          "type": "uint256"
        }
      ],
      "name": "CreditRepaid",
      "type": "event"
    },
    {
      "anonymous": false,
      "inputs": [
        {
          "indexed": true,
          "internalType": "address",
          "name": "user",
          "type": "address"
        },
        {
          "indexed": false,
          "internalType": "uint256",
          "name": "interest",
          "type": "uint256"
        }
      ],
      "name": "InterestAccrued",
      "type": "event"
    },
    {
      "anonymous": false,
      "inputs": [
        {
          "indexed": true,
          "internalType": "address",
          "name": "previousOwner",
          "type": "address"
        },
        {
          "indexed": true,
          "internalType": "address",
          "name": "newOwner",
          "type": "address"
        }
      ],
      "name": "OwnershipTransferred",
      "type": "event"
    },
    {
      "anonymous": false,
      "inputs": [
        {
          "indexed": false,
          "internalType": "address",
          "name": "account",
          "type": "address"
        }
      ],
      "name": "Paused",
      "type": "event"
    },
    {
      "anonymous": false,
      "inputs": [
        {
          "indexed": false,
          "internalType": "address",
          "name": "account",
          "type": "address"
        }
      ],
      "name": "Unpaused",
      "type": "event"
    },
    {
      "inputs": [],
      "name": "RATE_DENOMINATOR",
      "outputs": [
        {
          "internalType": "uint256",
          "name": "",
          "type": "uint256"
        }
      ],
      "stateMutability": "view",
      "type": "function"
    },
    {
      "inputs": [],
      "name": "SECONDS_PER_YEAR",
      "outputs": [
        {
          "internalType": "uint256",
          "name": "",
          "type": "uint256"
        }
      ],
      "stateMutability": "view",
      "type": "function"
    },
    {
      "inputs": [
        {
          "internalType": "address",
          "name": "",
          "type": "address"
        }
      ],
      "name": "creditIssued",
      "outputs": [
        {
          "internalType": "uint256",
          "name": "",
          "type": "uint256"
        }
      ],
      "stateMutability": "view",
      "type": "function"
    },
    {
      "inputs": [
        {
          "internalType": "address",
          "name": "user",
          "type": "address"
        }
      ],
      "name": "getTotalDebt",
      "outputs": [
        {
          "internalType": "uint256",
          "name": "",
          "type": "uint256"
        }
      ],
      "stateMutability": "view",
      "type": "function"
    },
    {
      "inputs": [
        {
          "internalType": "address",
          "name": "",
          "type": "address"
        }
      ],
      "name": "interestAccrued",
      "outputs": [
        {
          "internalType": "uint256",
          "name": "",
          "type": "uint256"
        }
      ],
      "stateMutability": "view",
      "type": "function"
    },
    {
      "inputs": [],
      "name": "interestRate",
      "outputs": [
        {
          "internalType": "uint256",
          "name": "",
          "type": "uint256"
        }
      ],
      "stateMutability": "view",
      "type": "function"
    },
    {
      "inputs": [
        {
          "internalType": "uint256",
          "name": "amount",
          "type": "uint256"
        }
      ],
      "name": "issueCredit",
      "outputs": [],
      "stateMutability": "nonpayable",
      "type": "function"
    },
    {
      "inputs": [
        {
          "internalType": "address",
          "name": "",
          "type": "address"
        }
      ],
      "name": "lastUpdate",
      "outputs": [
        {
          "internalType": "uint256",
          "name": "",
          "type": "uint256"
        }
      ],
      "stateMutability": "view",
      "type": "function"
    },
    {
      "inputs": [],
      "name": "originationFee",
      "outputs": [
        {
          "internalType": "uint256",
          "name": "",
          "type": "uint256"
        }
      ],
      "stateMutability": "view",
      "type": "function"
    },
    {
      "inputs": [],
      "name": "owner",
      "outputs": [
        {
          "internalType": "address",
          "name": "",
          "type": "address"
        }
      ],
      "stateMutability": "view",
      "type": "function"
    },
    {
      "inputs": [],
      "name": "pause",
      "outputs": [],
      "stateMutability": "nonpayable",
      "type": "function"
    },
    {
      "inputs": [],
      "name": "paused",
      "outputs": [
        {
          "internalType": "bool",
          "name": "",
          "type": "bool"
        }
      ],
      "stateMutability": "view",
      "type": "function"
    },
    {
      "inputs": [],
      "name": "renounceOwnership",
      "outputs": [],
      "stateMutability": "nonpayable",
      "type": "function"
    },
    {
      "inputs": [
        {
          "internalType": "uint256",
          "name": "amount",
          "type": "uint256"
        }
      ],
      "name": "repayCredit",
      "outputs": [],
      "stateMutability": "nonpayable",
      "type": "function"
    },
    {
      "inputs": [],
      "name": "totalCreditIssued",
      "outputs": [
        {
          "internalType": "uint256",
          "name": "",
          "type": "uint256"
        }
      ],
      "stateMutability": "view",
      "type": "function"
    },
    {
      "inputs": [],
      "name": "totalInterestCollected",
      "outputs": [
        {
          "internalType": "uint256",
          "name": "",
          "type": "uint256"
        }
      ],
      "stateMutability": "view",
      "type": "function"
    },
    {
      "inputs": [
        {
          "internalType": "address",
          "name": "newOwner",
          "type": "address"
        }
      ],
      "name": "transferOwnership",
      "outputs": [],
      "stateMutability": "nonpayable",
      "type": "function"
    },
    {
      "inputs": [],
      "name": "unpause",
      "outputs": [],
      "stateMutability": "nonpayable",
      "type": "function"
    },
    {
      "inputs": [
        {
          "internalType": "address",
          "name": "user",
          "type": "address"
        }
      ],
      "name": "updateInterest",
      "outputs": [],
      "stateMutability": "nonpayable",
      "type": "function"
    },
    {
      "inputs": [
        {
          "internalType": "uint256",
          "name": "_interestRate",
          "type": "uint256"
        },
        {
          "internalType": "uint256",
          "name": "_originationFee",
          "type": "uint256"
        }
      ],
      "name": "updateRates",
      "outputs": [],
      "stateMutability": "nonpayable",
      "type": "function"
    },
    {
      "inputs": [],
      "name": "usdt0",
      "outputs": [
        {
          "internalType": "contract IERC20",
          "name": "",
          "type": "address"
        }
      ],
      "stateMutability": "view",
      "type": "function"
    },
    {
      "inputs": [],
      "name": "usdy",
      "outputs": [
        {
          "internalType": "contract IERC20",
          "name": "",
          "type": "address"
        }
      ],
      "stateMutability": "view",
      "type": "function"
    },
    {
      "inputs": [],
      "name": "vault",
      "outputs": [
        {
          "internalType": "contract PrimeVault",
          "name": "",
          "type": "address"
        }
      ],
      "stateMutability": "view",
      "type": "function"
    }
  ],
  "bytecode": "0x60e03461016d57601f61122b38819003918201601f19168301916001600160401b038311848410176101725780849260609460405283398101031261016d5761004781610188565b90610060604061005960208401610188565b9201610188565b90600160005560015460018060a01b038094610100600160a81b033360081b1660018060a81b03198416176001556040519282339160081c167f8be0079c531659141344cd1fd0a4f28419497f9722a3daafe3b4186f6b6457e0600080a361012c600755601e600855169081151580610162575b1561012c5750608052821660a0521660c05260405161108e908161019d8239608051818181610133015281816101b60152610a26015260a0518181816102f10152818161061a0152610af9015260c051816105d60152f35b62461bcd60e51b8152602060048201526011602482015270496e76616c69642061646472657373657360781b6044820152606490fd5b5084831615156100d4565b600080fd5b634e487b7160e01b600052604160045260246000fd5b51906001600160a01b038216820361016d5756fe6040608081526004908136101561001557600080fd5b600091823560e01c90816305713ae51461093a5781633abb7a49146109005781633f4ba83a1461086a5781634d44ac4f1461081e5781634f3f1958146107e45781635c975abb146107c05781636f783313146107a1578163715018a61461073c5781637b3c5da71461070c5781637c3a00fd146106ed5781637efad8e0146106d05781638456cb59146106765781638da5cb5b1461064957816398d506e914610605578163a9d3c87f146105c1578163b5aca570146105a2578163b8bb5c4214610583578163cb03fb1e14610549578163e6a69ab81461052a578163f1469382146104ad578163f2fde38b146103ce578163f754848314610166575063fbfa77cf1461012057600080fd5b34610162578160031936011261016257517f00000000000000000000000000000000000000000000000000000000000000006001600160a01b03168152602090f35b5080fd5b919050346103ca576020908160031936011261034957823592610187610c6a565b61018f610cc0565b61019a841515610b9a565b6101a333610d04565b815163219668c760e11b815233828201527f00000000000000000000000000000000000000000000000000000000000000006001600160a01b0316908481602481855afa9081156103c057879161038f575b503387526002855261020a8685892054610bdb565b1161034d57859061271061022060085488610c57565b049261024f61022f8589610bfe565b9733855260028852868520610245828254610bdb565b9055600554610bdb565b6005553383526002865284832054823b1561034957855163e8e2160560e01b815233928101928352602083019190915291839183919082908490829060400103925af1801561033f57610327575b5050815163a9059cbb60e01b84820152336024820152604480820186905281527ff8cddf2eaf16af6f7a9735a8bed50968cabcef91b322eecbde3805d8d8377da49390610315906102ef606482610c35565b7f0000000000000000000000000000000000000000000000000000000000000000610e34565b82519485528401523392a26001815580f35b61033090610c0b565b61033b57843861029d565b8480fd5b84513d84823e3d90fd5b8380fd5b5082606492519162461bcd60e51b8352820152601760248201527f4578636565647320626f72726f772063617061636974790000000000000000006044820152fd5b90508481813d83116103b9575b6103a68183610c35565b810103126103b55751386101f5565b8680fd5b503d61039c565b84513d89823e3d90fd5b8280fd5b9050346103ca5760203660031901126103ca5780356001600160a01b03818116939092908483036104a957610401610dd9565b841561045757505060018054610100600160a81b03198116600893841b610100600160a81b031617909155901c167f8be0079c531659141344cd1fd0a4f28419497f9722a3daafe3b4186f6b6457e0600080a380f35b906020608492519162461bcd60e51b8352820152602660248201527f4f776e61626c653a206e6577206f776e657220697320746865207a65726f206160448201526564647265737360d01b6064820152fd5b8580fd5b9050346103ca57816003193601126103ca57803590602435926104ce610dd9565b6107d08311158061051e575b156104ea57505060075560085580f35b906020606492519162461bcd60e51b8352820152600e60248201526d0a4c2e8cae640e8dede40d0d2ced60931b6044820152fd5b506101f48411156104da565b505034610162578160031936011261016257602090516301e133808152f35b9050346103ca5760203660031901126103ca5780356001600160a01b03811690819003610349579282916020948252845220549051908152f35b5050346101625781600319360112610162576020906008549051908152f35b5050346101625781600319360112610162576020906005549051908152f35b505034610162578160031936011261016257517f00000000000000000000000000000000000000000000000000000000000000006001600160a01b03168152602090f35b505034610162578160031936011261016257517f00000000000000000000000000000000000000000000000000000000000000006001600160a01b03168152602090f35b505034610162578160031936011261016257600154905160089190911c6001600160a01b03168152602090f35b50503461016257816003193601126101625760207f62e78cea01bee320cd4e420270b5ea74000d11b0c9f74754ebdbfc544b05a258916106b4610dd9565b6106bc610cc0565b600160ff198154161760015551338152a180f35b505034610162578160031936011261016257602090516127108152f35b5050346101625781600319360112610162576020906007549051908152f35b83903461016257602036600319011261016257356001600160a01b03811681036101625761073990610d04565b80f35b833461079e578060031936011261079e57610755610dd9565b60018054610100600160a81b0319811690915560009060081c6001600160a01b03167f8be0079c531659141344cd1fd0a4f28419497f9722a3daafe3b4186f6b6457e08280a380f35b80fd5b5050346101625781600319360112610162576020906006549051908152f35b50503461016257816003193601126101625760209060ff6001541690519015158152f35b9050346103ca5760203660031901126103ca57356001600160a01b038116908190036103ca57828291602094526002845220549051908152f35b9050346103ca5760203660031901126103ca57356001600160a01b038116908190036103ca578261086391602094526002845282808220549160038652205490610bdb565b9051908152f35b9050346103ca57826003193601126103ca57610884610dd9565b6001549060ff8216156108c6575060ff1916600155513381527f5db9ee0a495bf2e6ff9c91a7834c1ba4fdd244a5e8aa4e537bd38aeae4b073aa90602090a180f35b606490602084519162461bcd60e51b8352820152601460248201527314185d5cd8589b194e881b9bdd081c185d5cd95960621b6044820152fd5b9050346103ca5760203660031901126103ca57356001600160a01b038116908190036103ca57828291602094526003845220549051908152f35b8391503461016257602092836003193601126103ca5781359361095b610c6a565b610963610cc0565b8461096f811515610b9a565b338552600282528285205415610b635761098833610d04565b338552600282526109a483862054600384528487205490610bdb565b809111610b5b575b50338452600381528184205480861115610b5357905b6109cc8287610bfe565b93338652600382528386206109e2848254610bfe565b9055338652600282528386206109f9868254610bfe565b9055610a0785600554610bfe565b600555610a1683600654610bdb565b60065533865260028252838620547f00000000000000000000000000000000000000000000000000000000000000006001600160a01b031690813b15610b4f57855163e8e2160560e01b815233848201908152602081019290925291889183919082908490829060400103925af18015610b4557610b32575b508351966323b872dd60e01b8389015233602489015230604489015260648801526064875260a087019087821067ffffffffffffffff831117610b1d57507fb95876ab9ace5646b4685d6b36bc4806a5f9a96bd381783fed703c8f3e6d292c9495966103159185527f0000000000000000000000000000000000000000000000000000000000000000610e34565b604190634e487b7160e01b6000525260246000fd5b610b3e90969196610c0b565b9487610a8f565b85513d89823e3d90fd5b8780fd5b5084906109c2565b9450856109ac565b50905162461bcd60e51b81529182015260126024820152714e6f2063726564697420746f20726570617960701b6044820152606490fd5b15610ba157565b60405162461bcd60e51b81526020600482015260126024820152710416d6f756e74206d757374206265203e20360741b6044820152606490fd5b91908201809211610be857565b634e487b7160e01b600052601160045260246000fd5b91908203918211610be857565b67ffffffffffffffff8111610c1f57604052565b634e487b7160e01b600052604160045260246000fd5b90601f8019910116810190811067ffffffffffffffff821117610c1f57604052565b81810292918115918404141715610be857565b600260005414610c7b576002600055565b60405162461bcd60e51b815260206004820152601f60248201527f5265656e7472616e637947756172643a207265656e7472616e742063616c6c006044820152606490fd5b60ff60015416610ccc57565b60405162461bcd60e51b815260206004820152601060248201526f14185d5cd8589b194e881c185d5cd95960821b6044820152606490fd5b6001600160a01b031660008181526004602090815260408083208054919391908115610dcf5750610d359042610bfe565b9283158015610dbd575b610db65764496cebb800610d8a7f5e804d42ae3b860f881d11cb44a4bb1f2f0d5b3d081f5539a32d6f97b629d9789587855260028652610d858486205460075490610c57565b610c57565b049185815260038452818120610da1848254610bdb565b905585815260048452814291205551908152a2565b5050505050565b50848252600283528082205415610d3f565b4290555050505050565b60015460081c6001600160a01b03163303610df057565b606460405162461bcd60e51b815260206004820152602060248201527f4f776e61626c653a2063616c6c6572206973206e6f7420746865206f776e65726044820152fd5b60018060a01b0316906040516040810167ffffffffffffffff9082811082821117610c1f576040526020938483527f5361666545524332303a206c6f772d6c6576656c2063616c6c206661696c6564858401526000808587829751910182855af1903d15610f79573d928311610f655790610ecf93929160405192610ec288601f19601f8401160185610c35565b83523d868885013e610f84565b805191821591848315610f41575b505050905015610eea5750565b6084906040519062461bcd60e51b82526004820152602a60248201527f5361666545524332303a204552433230206f7065726174696f6e20646964206e6044820152691bdd081cdd58d8d9595960b21b6064820152fd5b9193818094500103126101625782015190811515820361079e575080388084610edd565b634e487b7160e01b85526041600452602485fd5b90610ecf9392506060915b91929015610fe65750815115610f98575090565b3b15610fa15790565b60405162461bcd60e51b815260206004820152601d60248201527f416464726573733a2063616c6c20746f206e6f6e2d636f6e74726163740000006044820152606490fd5b825190915015610ff95750805190602001fd5b6040519062461bcd60e51b82528160208060048301528251908160248401526000935b82851061103f575050604492506000838284010152601f80199101168101030190fd5b848101820151868601604401529381019385935061101c56fea2646970667358221220e07820d372a3484ce66338299a1fbf7998afdbeba6e359ded90dbe052823a1b464736f6c63430008180033",
  "linkReferences": {},
  "deployedLinkReferences": {}
}