{
  "_format": "hh-sol-artifact-1",
  "contractName": "RWAMarketplace",
  "sourceName": "contracts/RWAMarketplace.sol",
  "abi": [
    {
      "inputs": [
        {
          "internalType": "address",
          "name": "_usdy",
          "type": "address"
        },
        {
          "internalType": "address",
          "name": "_usdt0",
          "type": "address"
        },
        {
          "internalType": "address",
          "name": "_admin",
          "type": "address"
        }
      ],
      "stateMutability": "nonpayable",
      "type": "constructor"
    },
    {
      "anonymous": false,
      "inputs": [
        {
          "indexed": true,
          "internalType": "address",
          "name": "account",
          "type": "address"
        },
        {
          "indexed": true,
          "internalType": "address",
          "name": "operator",
          "type": "address"
        },
        {
          "indexed": false,
          "internalType": "bool",
          "name": "approved",
          "type": "bool"
        }
      ],
      "name": "ApprovalForAll",
      "type": "event"
    },
    {
      "anonymous": false,
      "inputs": [
        {
          "indexed": true,
          "internalType": "uint256",
          "name": "assetId",
          "type": "uint256"
        },
        {
          "indexed": false,
          "internalType": "string",
          "name": "name",
          "type": "string"
        },
        {
          "indexed": true,
          "internalType": "address",
          "name": "creator",
          "type": "address"
        },
        {
          "indexed": false,
          "internalType": "uint256",
          "name": "totalValue",
          "type": "uint256"
        }
      ],
      "name": "AssetCreated",
      "type": "event"
    },
    {
      "anonymous": false,
      "inputs": [
        {
          "indexed": false,
          "internalType": "address",
          "name": "account",
          "type": "address"
        }
      ],
      "name": "Paused",
      "type": "event"
    },
    {
      "anonymous": false,
      "inputs": [
        {
          "indexed": true,
          "internalType": "bytes32",
          "name": "role",
          "type": "bytes32"
        },
        {
          "indexed": true,
          "internalType": "bytes32",
          "name": "previousAdminRole",
          "type": "bytes32"
        },
        {
          "indexed": true,
          "internalType": "bytes32",
          "name": "newAdminRole",
          "type": "bytes32"
        }
      ],
      "name": "RoleAdminChanged",
      "type": "event"
    },
    {
      "anonymous": false,
      "inputs": [
        {
          "indexed": true,
          "internalType": "bytes32",
          "name": "role",
          "type": "bytes32"
        },
        {
          "indexed": true,
          "internalType": "address",
          "name": "account",
          "type": "address"
        },
        {
          "indexed": true,
          "internalType": "address",
          "name": "sender",
          "type": "address"
        }
      ],
      "name": "RoleGranted",
      "type": "event"
    },
    {
      "anonymous": false,
      "inputs": [
        {
          "indexed": true,
          "internalType": "bytes32",
          "name": "role",
          "type": "bytes32"
        },
        {
          "indexed": true,
          "internalType": "address",
          "name": "account",
          "type": "address"
        },
        {
          "indexed": true,
          "internalType": "address",
          "name": "sender",
          "type": "address"
        }
      ],
      "name": "RoleRevoked",
      "type": "event"
    },
    {
      "anonymous": false,
      "inputs": [
        {
          "indexed": true,
          "internalType": "uint256",
          "name": "assetId",
          "type": "uint256"
        },
        {
          "indexed": true,
          "internalType": "address",
          "name": "buyer",
          "type": "address"
        },
        {
          "indexed": false,
          "internalType": "uint256",
          "name": "shares",
          "type": "uint256"
        },
        {
          "indexed": false,
          "internalType": "uint256",
          "name": "cost",
          "type": "uint256"
        }
      ],
      "name": "SharesPurchased",
      "type": "event"
    },
    {
      "anonymous": false,
      "inputs": [
        {
          "indexed": true,
          "internalType": "address",
          "name": "operator",
          "type": "address"
        },
        {
          "indexed": true,
          "internalType": "address",
          "name": "from",
          "type": "address"
        },
        {
          "indexed": true,
          "internalType": "address",
          "name": "to",
          "type": "address"
        },
        {
          "indexed": false,
          "internalType": "uint256[]",
          "name": "ids",
          "type": "uint256[]"
        },
        {
          "indexed": false,
          "internalType": "uint256[]",
          "name": "values",
          "type": "uint256[]"
        }
      ],
      "name": "TransferBatch",
      "type": "event"
    },
    {
      "anonymous": false,
      "inputs": [
        {
          "indexed": true,
          "internalType": "address",
          "name": "operator",
          "type": "address"
        },
        {
          "indexed": true,
          "internalType": "address",
          "name": "from",
          "type": "address"
        },
        {
          "indexed": true,
          "internalType": "address",
          "name": "to",
          "type": "address"
        },
        {
          "indexed": false,
          "internalType": "uint256",
          "name": "id",
          "type": "uint256"
        },
        {
          "indexed": false,
          "internalType": "uint256",
          "name": "value",
          "type": "uint256"
        }
      ],
      "name": "TransferSingle",
      "type": "event"
    },
    {
      "anonymous": false,
      "inputs": [
        {
          "indexed": false,
          "internalType": "string",
          "name": "value",
          "type": "string"
        },
        {
          "indexed": true,
          "internalType": "uint256",
          "name": "id",
          "type": "uint256"
        }
      ],
      "name": "URI",
      "type": "event"
    },
    {
      "anonymous": false,
      "inputs": [
        {
          "indexed": false,
          "internalType": "address",
          "name": "account",
          "type": "address"
        }
      ],
      "name": "Unpaused",
      "type": "event"
    },
    {
      "anonymous": false,
      "inputs": [
        {
          "indexed": true,
          "internalType": "uint256",
          "name": "assetId",
          "type": "uint256"
        },
        {
          "indexed": true,
          "internalType": "address",
          "name": "user",
          "type": "address"
        },
        {
          "indexed": false,
          "internalType": "uint256",
          "name": "amount",
          "type": "uint256"
        }
      ],
      "name": "YieldClaimed",
      "type": "event"
    },
    {
      "anonymous": false,
      "inputs": [
        {
          "indexed": true,
          "internalType": "uint256",
          "name": "assetId",
          "type": "uint256"
        },
        {
          "indexed": false,
          "internalType": "uint256",
          "name": "amount",
          "type": "uint256"
        }
      ],
      "name": "YieldDistributed",
      "type": "event"
    },
    {
      "inputs": [],
      "name": "DEFAULT_ADMIN_ROLE",
      "outputs": [
        {
          "internalType": "bytes32",
          "name": "",
          "type": "bytes32"
        }
      ],
      "stateMutability": "view",
      "type": "function"
    },
    {
      "inputs": [],
      "name": "FEE_DENOMINATOR",
      "outputs": [
        {
          "internalType": "uint256",
          "name": "",
          "type": "uint256"
        }
      ],
      "stateMutability": "view",
      "type": "function"
    },
    {
      "inputs": [],
      "name": "INSTITUTION_ROLE",
      "outputs": [
        {
          "internalType": "bytes32",
          "name": "",
          "type": "bytes32"
        }
      ],
      "stateMutability": "view",
      "type": "function"
    },
    {
      "inputs": [],
      "name": "YIELD_DISTRIBUTOR_ROLE",
      "outputs": [
        {
          "internalType": "bytes32",
          "name": "",
          "type": "bytes32"
        }
      ],
      "stateMutability": "view",
      "type": "function"
    },
    {
      "inputs": [
        {
          "internalType": "uint256",
          "name": "",
          "type": "uint256"
        }
      ],
      "name": "assets",
      "outputs": [
        {
          "internalType": "string",
          "name": "name",
          "type": "string"
        },
        {
          "internalType": "string",
          "name": "assetType",
          "type": "string"
        },
        {
          "internalType": "uint256",
          "name": "totalValue",
          "type": "uint256"
        },
        {
          "internalType": "uint256",
          "name": "totalShares",
          "type": "uint256"
        },
        {
          "internalType": "uint256",
          "name": "availableShares",
          "type": "uint256"
        },
        {
          "internalType": "uint256",
          "name": "pricePerShare",
          "type": "uint256"
        },
        {
          "internalType": "uint256",
          "name": "expectedYield",
          "type": "uint256"
        },
        {
          "internalType": "address",
          "name": "creator",
          "type": "address"
        },
        {
          "internalType": "bool",
          "name": "isActive",
          "type": "bool"
        },
        {
          "internalType": "uint256",
          "name": "createdAt",
          "type": "uint256"
        }
      ],
      "stateMutability": "view",
      "type": "function"
    },
    {
      "inputs": [
        {
          "internalType": "address",
          "name": "account",
          "type": "address"
        },
        {
          "internalType": "uint256",
          "name": "id",
          "type": "uint256"
        }
      ],
      "name": "balanceOf",
      "outputs": [
        {
          "internalType": "uint256",
          "name": "",
          "type": "uint256"
        }
      ],
      "stateMutability": "view",
      "type": "function"
    },
    {
      "inputs": [
        {
          "internalType": "address[]",
          "name": "accounts",
          "type": "address[]"
        },
        {
          "internalType": "uint256[]",
          "name": "ids",
          "type": "uint256[]"
        }
      ],
      "name": "balanceOfBatch",
      "outputs": [
        {
          "internalType": "uint256[]",
          "name": "",
          "type": "uint256[]"
        }
      ],
      "stateMutability": "view",
      "type": "function"
    },
    {
      "inputs": [
        {
          "internalType": "uint256",
          "name": "assetId",
          "type": "uint256"
        }
      ],
      "name": "claimYield",
      "outputs": [],
      "stateMutability": "nonpayable",
      "type": "function"
    },
    {
      "inputs": [
        {
          "internalType": "string",
          "name": "name",
          "type": "string"
        },
        {
          "internalType": "string",
          "name": "assetType",
          "type": "string"
        },
        {
          "internalType": "uint256",
          "name": "totalValue",
          "type": "uint256"
        },
        {
          "internalType": "uint256",
          "name": "totalShares",
          "type": "uint256"
        },
        {
          "internalType": "uint256",
          "name": "pricePerShare",
          "type": "uint256"
        },
        {
          "internalType": "uint256",
          "name": "expectedYield",
          "type": "uint256"
        }
      ],
      "name": "createAsset",
      "outputs": [
        {
          "internalType": "uint256",
          "name": "",
          "type": "uint256"
        }
      ],
      "stateMutability": "nonpayable",
      "type": "function"
    },
    {
      "inputs": [
        {
          "internalType": "uint256",
          "name": "assetId",
          "type": "uint256"
        },
        {
          "internalType": "uint256",
          "name": "yieldAmount",
          "type": "uint256"
        }
      ],
      "name": "distributeYield",
      "outputs": [],
      "stateMutability": "nonpayable",
      "type": "function"
    },
    {
      "inputs": [
        {
          "internalType": "uint256",
          "name": "id",
          "type": "uint256"
        }
      ],
      "name": "exists",
      "outputs": [
        {
          "internalType": "bool",
          "name": "",
          "type": "bool"
        }
      ],
      "stateMutability": "view",
      "type": "function"
    },
    {
      "inputs": [
        {
          "internalType": "uint256",
          "name": "assetId",
          "type": "uint256"
        }
      ],
      "name": "getAsset",
      "outputs": [
        {
          "components": [
            {
              "internalType": "string",
              "name": "name",
              "type": "string"
            },
            {
              "internalType": "string",
              "name": "assetType",
              "type": "string"
            },
            {
              "internalType": "uint256",
              "name": "totalValue",
              "type": "uint256"
            },
            {
              "internalType": "uint256",
              "name": "totalShares",
              "type": "uint256"
            },
            {
              "internalType": "uint256",
              "name": "availableShares",
              "type": "uint256"
            },
            {
              "internalType": "uint256",
              "name": "pricePerShare",
              "type": "uint256"
            },
            {
              "internalType": "uint256",
              "name": "expectedYield",
              "type": "uint256"
            },
            {
              "internalType": "address",
              "name": "creator",
              "type": "address"
            },
            {
              "internalType": "bool",
              "name": "isActive",
              "type": "bool"
            },
            {
              "internalType": "uint256",
              "name": "createdAt",
              "type": "uint256"
            }
          ],
          "internalType": "struct RWAMarketplace.RWAAsset",
          "name": "",
          "type": "tuple"
        }
      ],
      "stateMutability": "view",
      "type": "function"
    },
    {
      "inputs": [
        {
          "internalType": "uint256",
          "name": "assetId",
          "type": "uint256"
        },
        {
          "internalType": "address",
          "name": "user",
          "type": "address"
        }
      ],
      "name": "getClaimableYield",
      "outputs": [
        {
          "internalType": "uint256",
          "name": "",
          "type": "uint256"
        }
      ],
      "stateMutability": "view",
      "type": "function"
    },
    {
      "inputs": [
        {
          "internalType": "bytes32",
          "name": "role",
          "type": "bytes32"
        }
      ],
      "name": "getRoleAdmin",
      "outputs": [
        {
          "internalType": "bytes32",
          "name": "",
          "type": "bytes32"
        }
      ],
      "stateMutability": "view",
      "type": "function"
    },
    {
      "inputs": [
        {
          "internalType": "address",
          "name": "user",
          "type": "address"
        }
      ],
      "name": "getUserAssets",
      "outputs": [
        {
          "internalType": "uint256[]",
          "name": "",
          "type": "uint256[]"
        }
      ],
      "stateMutability": "view",
      "type": "function"
    },
    {
      "inputs": [
        {
          "internalType": "bytes32",
          "name": "role",
          "type": "bytes32"
        },
        {
          "internalType": "address",
          "name": "account",
          "type": "address"
        }
      ],
      "name": "grantRole",
      "outputs": [],
      "stateMutability": "nonpayable",
      "type": "function"
    },
    {
      "inputs": [
        {
          "internalType": "bytes32",
          "name": "role",
          "type": "bytes32"
        },
        {
          "internalType": "address",
          "name": "account",
          "type": "address"
        }
      ],
      "name": "hasRole",
      "outputs": [
        {
          "internalType": "bool",
          "name": "",
          "type": "bool"
        }
      ],
      "stateMutability": "view",
      "type": "function"
    },
    {
      "inputs": [
        {
          "internalType": "address",
          "name": "account",
          "type": "address"
        },
        {
          "internalType": "address",
          "name": "operator",
          "type": "address"
        }
      ],
      "name": "isApprovedForAll",
      "outputs": [
        {
          "internalType": "bool",
          "name": "",
          "type": "bool"
        }
      ],
      "stateMutability": "view",
      "type": "function"
    },
    {
      "inputs": [],
      "name": "nextAssetId",
      "outputs": [
        {
          "internalType": "uint256",
          "name": "",
          "type": "uint256"
        }
      ],
      "stateMutability": "view",
      "type": "function"
    },
    {
      "inputs": [],
      "name": "pause",
      "outputs": [],
      "stateMutability": "nonpayable",
      "type": "function"
    },
    {
      "inputs": [],
      "name": "paused",
      "outputs": [
        {
          "internalType": "bool",
          "name": "",
          "type": "bool"
        }
      ],
      "stateMutability": "view",
      "type": "function"
    },
    {
      "inputs": [],
      "name": "platformFee",
      "outputs": [
        {
          "internalType": "uint256",
          "name": "",
          "type": "uint256"
        }
      ],
      "stateMutability": "view",
      "type": "function"
    },
    {
      "inputs": [
        {
          "internalType": "uint256",
          "name": "assetId",
          "type": "uint256"
        },
        {
          "internalType": "uint256",
          "name": "shares",
          "type": "uint256"
        }
      ],
      "name": "purchaseShares",
      "outputs": [],
      "stateMutability": "nonpayable",
      "type": "function"
    },
    {
      "inputs": [
        {
          "internalType": "bytes32",
          "name": "role",
          "type": "bytes32"
        },
        {
          "internalType": "address",
          "name": "account",
          "type": "address"
        }
      ],
      "name": "renounceRole",
      "outputs": [],
      "stateMutability": "nonpayable",
      "type": "function"
    },
    {
      "inputs": [
        {
          "internalType": "bytes32",
          "name": "role",
          "type": "bytes32"
        },
        {
          "internalType": "address",
          "name": "account",
          "type": "address"
        }
      ],
      "name": "revokeRole",
      "outputs": [],
      "stateMutability": "nonpayable",
      "type": "function"
    },
    {
      "inputs": [
        {
          "internalType": "address",
          "name": "from",
          "type": "address"
        },
        {
          "internalType": "address",
          "name": "to",
          "type": "address"
        },
        {
          "internalType": "uint256[]",
          "name": "ids",
          "type": "uint256[]"
        },
        {
          "internalType": "uint256[]",
          "name": "amounts",
          "type": "uint256[]"
        },
        {
          "internalType": "bytes",
          "name": "data",
          "type": "bytes"
        }
      ],
      "name": "safeBatchTransferFrom",
      "outputs": [],
      "stateMutability": "nonpayable",
      "type": "function"
    },
    {
      "inputs": [
        {
          "internalType": "address",
          "name": "from",
          "type": "address"
        },
        {
          "internalType": "address",
          "name": "to",
          "type": "address"
        },
        {
          "internalType": "uint256",
          "name": "id",
          "type": "uint256"
        },
        {
          "internalType": "uint256",
          "name": "amount",
          "type": "uint256"
        },
        {
          "internalType": "bytes",
          "name": "data",
          "type": "bytes"
        }
      ],
      "name": "safeTransferFrom",
      "outputs": [],
      "stateMutability": "nonpayable",
      "type": "function"
    },
    {
      "inputs": [
        {
          "internalType": "address",
          "name": "operator",
          "type": "address"
        },
        {
          "internalType": "bool",
          "name": "approved",
          "type": "bool"
        }
      ],
      "name": "setApprovalForAll",
      "outputs": [],
      "stateMutability": "nonpayable",
      "type": "function"
    },
    {
      "inputs": [
        {
          "internalType": "bytes4",
          "name": "interfaceId",
          "type": "bytes4"
        }
      ],
      "name": "supportsInterface",
      "outputs": [
        {
          "internalType": "bool",
          "name": "",
          "type": "bool"
        }
      ],
      "stateMutability": "view",
      "type": "function"
    },
    {
      "inputs": [],
      "name": "totalAssetsCreated",
      "outputs": [
        {
          "internalType": "uint256",
          "name": "",
          "type": "uint256"
        }
      ],
      "stateMutability": "view",
      "type": "function"
    },
    {
      "inputs": [
        {
          "internalType": "uint256",
          "name": "id",
          "type": "uint256"
        }
      ],
      "name": "totalSupply",
      "outputs": [
        {
          "internalType": "uint256",
          "name": "",
          "type": "uint256"
        }
      ],
      "stateMutability": "view",
      "type": "function"
    },
    {
      "inputs": [],
      "name": "unpause",
      "outputs": [],
      "stateMutability": "nonpayable",
      "type": "function"
    },
    {
      "inputs": [
        {
          "internalType": "uint256",
          "name": "_platformFee",
          "type": "uint256"
        },
        {
          "internalType": "uint256",
          "name": "_yieldFee",
          "type": "uint256"
        }
      ],
      "name": "updateFees",
      "outputs": [],
      "stateMutability": "nonpayable",
      "type": "function"
    },
    {
      "inputs": [
        {
          "internalType": "uint256",
          "name": "",
          "type": "uint256"
        }
      ],
      "name": "uri",
      "outputs": [
        {
          "internalType": "string",
          "name": "",
          "type": "string"
        }
      ],
      "stateMutability": "view",
      "type": "function"
    },
    {
      "inputs": [],
      "name": "usdt0",
      "outputs": [
        {
          "internalType": "contract IERC20",
          "name": "",
          "type": "address"
        }
      ],
      "stateMutability": "view",
      "type": "function"
    },
    {
      "inputs": [],
      "name": "usdy",
      "outputs": [
        {
          "internalType": "contract IERC20",
          "name": "",
          "type": "address"
        }
      ],
      "stateMutability": "view",
      "type": "function"
    },
    {
      "inputs": [
        {
          "internalType": "address",
          "name": "",
          "type": "address"
        },
        {
          "internalType": "uint256",
          "name": "",
          "type": "uint256"
        }
      ],
      "name": "userAssets",
      "outputs": [
        {
          "internalType": "uint256",
          "name": "",
          "type": "uint256"
        }
      ],
      "stateMutability": "view",
      "type": "function"
    },
    {
      "inputs": [
        {
          "internalType": "uint256",
          "name": "",
          "type": "uint256"
        },
        {
          "internalType": "address",
          "name": "",
          "type": "address"
        }
      ],
      "name": "userShares",
      "outputs": [
        {
          "internalType": "uint256",
          "name": "",
          "type": "uint256"
        }
      ],
      "stateMutability": "view",
      "type": "function"
    },
    {
      "inputs": [],
      "name": "yieldFee",
      "outputs": [
        {
          "internalType": "uint256",
          "name": "",
          "type": "uint256"
        }
      ],
      "stateMutability": "view",
      "type": "function"
    },
    {
      "inputs": [
        {
          "internalType": "uint256",
          "name": "",
          "type": "uint256"
        }
      ],
      "name": "yieldPool",
      "outputs": [
        {
          "internalType": "uint256",
          "name": "",
          "type": "uint256"
        }
      ],
      "stateMutability": "view",
      "type": "function"
    }
  ],
  "bytecode": "0x60c034620003bf57601f6200397938819003918201601f1916830192916001600160401b039182851184861017620003a9578160609285926040978852833981010312620003bf576200005282620003c4565b91602091620000708562000068858501620003c4565b9301620003c4565b92855191606083019083821090821117620003a9578652602e82527f68747470733a2f2f6170692e6d616e746c657072696d652e78797a2f6d657461818301526d3230ba3097bdb4b23e973539b7b760911b86830152600254916001928381811c911680156200039e575b838210146200038857601f811162000353575b5081906002600052826000209160005b84868183106200033e5750505001516001600160901b0319169055605d60025560048290556005805460ff19908116909155600b83905560fa600d556103e8600e556001600160a01b039590939086168015158062000332575b15620002fa579086916080521660a052600080526006948582528660002094169384600052815260ff86600020541615620002c0575b7f01f18e249044142f95a61b39bad5f99f3c70699c83bb85a1ad87fe9e68bd85d1806000528582528660002085600052825260ff8760002054161562000285575b507f30cc2fcab974a5a2540213c549fc919ac7160838938e5a3a04b40906b512611a94856000528082528660002085600052825260ff8760002054161562000248575b865161357f9081620003da8239608051818181610372015281816108f0015281816115be0152611b11015260a0518161144d0152f35b856000528152856000209084600052528460002091825416179055339160008051602062003959833981519152600080a438808080808062000212565b806000528582528660002085600052825286600020838582541617905584339160008051602062003959833981519152600080a438620001cf565b600080528481528560002084600052815285600020828482541617905533846000600080516020620039598339815191528180a46200018e565b875162461bcd60e51b8152600481018490526011602482015270496e76616c69642061646472657373657360781b6044820152606490fd5b50868616151562000158565b839582939486015181550194019101620000fe565b6002600052836002601f85600020930160051c830192015b8281106200037b575050620000ee565b600081550184906200036b565b634e487b7160e01b600052602260045260246000fd5b90607f1690620000db565b634e487b7160e01b600052604160045260246000fd5b600080fd5b51906001600160a01b0382168203620003bf5756fe6080604052600436101561001257600080fd5b60003560e01c8062fdd58e146123cd57806301ffc9a714612345578063034f4083146123275780630e89341c146122445780631b929c2114612209578063248a9ca3146121da57806325b76fcb146121ac57806326232a2e1461218e5780632eb2c2d614611d8f5780632f2ff15d14611cdc57806336568abe14611c4a5780633f4ba83a14611bb657806340bd2e2314611a555780634e1273f4146118bc5780634f558e79146118865780635c975abb146118635780636a8a69aa1461180b5780636db794371461179a578063765ff0611461170b5780637c18b7c1146116d05780638456cb5914611676578063847232ff146116585780638ed913181461163a57806391d14854146115ed57806398d506e9146115a8578063a217fddf1461158c578063a22cb465146114a8578063a42eedd31461147c578063a9d3c87f14611437578063ad954878146113ef578063bd85b039146113c3578063cf35bdd0146112fc578063d07bf89c14610a6a578063d2bcdc60146107db578063d547741f1461079c578063d73792a91461077f578063e985e9c514610729578063eac8f5b814610584578063f007e9d5146102715763f242432a146101d357600080fd5b3461026c5760a036600319011261026c576101ec6123f4565b6101f461240a565b90608435916001600160401b03831161026c57610218610244933690600401612588565b916001600160a01b0381163381148015610246575b6102379150612826565b6064359160443591612df6565b005b50600052600160205260406000203360005260205261023760ff6040600020541661022d565b600080fd5b3461026c5761027f3661261b565b3360009081527fd9bb1939f85d43309468431e8e1669162d1467466e941a0cd8fdbafe509b54d260209081526040909120549091907f30cc2fcab974a5a2540213c549fc919ac7160838938e5a3a04b40906b512611a9060ff16156103dd57506102e7612d0d565b6102ef612d63565b61030e610309846000526003602052604060002054151590565b6128b9565b80156103a457907ffe4996cd48c364c468cee70dd6b9061874ff01b05c5ea49311cbcabd9b9cb6159161039661035361271061034c600e5485612795565b0483612889565b918560005260098452604060002061036c8482546128f7565b905530337f000000000000000000000000000000000000000000000000000000000000000061310f565b604051908152a26001600455005b60405162461bcd60e51b815260048101839052601160248201527005969656c64206d757374206265203e203607c1b6044820152606490fd5b826103e733613409565b916040516103f4816124ba565b6042815282810191606036843781511561056e576030835381516001906001101561056e57607860218401536041905b8082116105145750506104d15761049d936104ac9260489260405196879376020b1b1b2b9b9a1b7b73a3937b61d1030b1b1b7bab73a1604d1b88860152610474815180928a603789019101612420565b8401917001034b99036b4b9b9b4b733903937b6329607d1b603784015251809386840190612420565b010360288101855201836124d5565b6104cd60405192839262461bcd60e51b845260048401526024830190612443565b0390fd5b6064836040519062461bcd60e51b825280600483015260248201527f537472696e67733a20686578206c656e67746820696e73756666696369656e746044820152fd5b9091600f8116601081101561056e576f181899199a1a9b1b9c1cb0b131b232b360811b901a61054384866133f8565b5360041c918015610558576000190190610424565b634e487b7160e01b600052601160045260246000fd5b634e487b7160e01b600052603260045260246000fd5b3461026c57602036600319011261026c5760043560006101206040516105a981612468565b60608152606060208201528260408201528260608201528260808201528260a08201528260c08201528260e08201528261010082015201526105fb610309826000526003602052604060002054151590565b6000526007602052604060002060086040519161061783612468565b6106208161266b565b835261062e6001820161266b565b6020840152600281015460408401526003810154606084015260048101546080840152600581015460a0840152600681015460c084015260ff600782015460018060a01b03811660e086015260a01c16151561010084015201546101208201526040518091602082526101206106cb6106b583516101406020870152610160860190612443565b6020840151858203601f19016040870152612443565b916040810151606085015260608101516080850152608081015160a085015260a081015160c085015260c081015160e085015260018060a01b0360e08201511661010085015261010081015115158285015201516101408301520390f35b3461026c57604036600319011261026c576107426123f4565b61074a61240a565b9060018060a01b03809116600052600160205260406000209116600052602052602060ff604060002054166040519015158152f35b3461026c57600036600319011261026c5760206040516127108152f35b3461026c57604036600319011261026c576102446004356107bb61240a565b908060005260066020526107d6600160406000200154612b8b565b612c97565b3461026c576107e93661261b565b906107f2612d0d565b6107fa612d63565b8115610a305761081a610309826000526003602052604060002054151590565b806000526020600781526040600020906007820160ff815460a01c16156109f85760048301928354908682106109bd57600561085891015487612795565b9361087c8761087661271061086f600d548a612795565b0488612889565b93612889565b9055846000526008835260406000203360005283526040600020541561095a575b610924918560005260088452604060002033600052845260406000206108c48882546128f7565b905560018060a01b036108ee818354168989604051926108e384612484565b600084523390612df6565b7f00000000000000000000000000000000000000000000000000000000000000009161091c8730338661310f565b541690612da7565b6040519384528301527fce81571c08c76465bdf390ad1abe80af8c51c6c4566e3485f9395f13d5ad632860403393a36001600455005b600a8352604060002091825492680100000000000000008410156109a7578361098b91600161092496018155612603565b81549060031b9088821b91600019901b1916179055915061089d565b634e487b7160e01b600052604160045260246000fd5b60405162461bcd60e51b8152600481018590526013602482015272496e73756666696369656e742073686172657360681b6044820152606490fd5b60405162461bcd60e51b815260048101839052601060248201526f4173736574206e6f742061637469766560801b6044820152606490fd5b60405162461bcd60e51b81526020600482015260126024820152710536861726573206d757374206265203e20360741b6044820152606490fd5b3461026c5760c036600319011261026c576004356001600160401b03811161026c57610a9a903690600401612588565b6024356001600160401b03811161026c57610ab9903690600401612588565b3360009081527f0f5ebfc79a247caa5341c6c26665ab10f62cc21ed8c33e4100d935330c29521d60205260409020549091907f01f18e249044142f95a61b39bad5f99f3c70699c83bb85a1ad87fe9e68bd85d19060ff16156111a95750610b1e612d63565b60643515158061119e575b1561116457610b3c608435606435612795565b6044350361112e57600b5491610b51836128aa565b600b5560405190610b6182612468565b828252602082015260443560408201526064356060820152606435608082015260843560a082015260a43560c08201523360e082015260016101008201524261012082015282600052600760205260406000209080518051906001600160401b0382116109a7578190610bd48554612631565b601f81116110de575b50602090601f831160011461107257600092611067575b50508160011b916000199060031b1c19161782555b60208101518051906001600160401b0382116109a757610c2c6001850154612631565b601f8111611020575b50602090601f8311600114610faa5791806008949261012094600092610f9f575b50508160011b916000199060031b1c19161760018501555b60408101516002850155606081015160038501556080810151600485015560a0810151600585015560c081015160068501556007840160018060a01b0360e08301511681549060ff60a01b610100850151151560a01b16916affffffffffffffffffffff60a81b1617179055015191015560405190610cec82612484565b600082523315610f5057610cff836133d3565b90610d0b6064356133d3565b9360005b8351811015610d515780610d2560019288612896565b51610d308287612896565b516000526003602052610d4960406000209182546128f7565b905501610d0f565b50838160005260006020526040600020336000526020526040600020610d7a60643582546128f7565b90556040518281526064356020820152600033917fc3d58168c5ae7397731d063d5bbf3d657854427343f4c083240f7aacaa2d0f6260403392a4333b610e36575b5060209181600052600883526040600020336000528352606435604060002055610de6600c546128aa565b600c55817feb91049e6a13023471019ba0940258b38c0bc930a2f1cb2efd078737d59781b4610e2060405193604085526040850190612443565b92604435868201528033940390a3604051908152f35b60405160208180610e7863f23a6e6160e01b9586835233600484015260006024840152876044840152606435606484015260a0608484015260a4830190612443565b03816000335af160009181610f1f575b50610ef057610e956131d0565b6308c379a014610eb9575b60405162461bcd60e51b8152806104cd6004820161325c565b610ec16131ee565b80610ecc5750610ea0565b60405162461bcd60e51b8152602060048201529081906104cd906024830190612443565b6001600160e01b03191603610f06576020610dbb565b60405162461bcd60e51b8152806104cd60048201613187565b610f4291925060203d602011610f49575b610f3a81836124d5565b810190613167565b9085610e88565b503d610f30565b60405162461bcd60e51b815260206004820152602160248201527f455243313135353a206d696e7420746f20746865207a65726f206164647265736044820152607360f81b6064820152608490fd5b015190508880610c56565b906001850160005260206000209160005b601f1985168110611008575092600894926001926101209583601f19811610610fef575b505050811b016001850155610c6e565b015160001960f88460031b161c19169055888080610fdf565b91926020600181928685015181550194019201610fbb565b600185016000526020600020601f840160051c810160208510611060575b601f830160051c82018110611054575050610c35565b6000815560010161103e565b508061103e565b015190508680610bf4565b9250846000526020600020906000935b601f19841685106110c3576001945083601f198116106110aa575b505050811b018255610c09565b015160001960f88460031b161c1916905586808061109d565b81810151835560209485019460019093019290910190611082565b909150846000526020600020601f840160051c810160208510611127575b90849392915b601f830160051c82018110611118575050610bdd565b60008155859450600101611102565b50806110fc565b60405162461bcd60e51b815260206004820152600e60248201526d0acc2d8eaca40dad2e6dac2e8c6d60931b6044820152606490fd5b60405162461bcd60e51b8152602060048201526012602482015271496e76616c696420706172616d657465727360701b6044820152606490fd5b506084351515610b29565b6111b233613409565b604051916111bf836124ba565b604283526020830190606036833783511561056e576030825383516001906001101561056e57607860218601536041905b8082116112b857505061127457604861124592611254926104cd9560405195869376020b1b1b2b9b9a1b7b73a3937b61d1030b1b1b7bab73a1604d1b6020860152610474815180926020603789019101612420565b010360288101845201826124d5565b60405162461bcd60e51b8152602060048201529182916024830190612443565b606460405162461bcd60e51b815260206004820152602060248201527f537472696e67733a20686578206c656e67746820696e73756666696369656e746044820152fd5b9091600f8116601081101561056e576f181899199a1a9b1b9c1cb0b131b232b360811b901a6112e784886133f8565b5360041c9180156105585760001901906111f0565b3461026c57602036600319011261026c57600435600052600760205261137760406000206113298161266b565b906113366001820161266b565b60ff6002830154926003810154600482015460058301549060068401549261138560086007870154960154976040519b8c9b8c6101408091528d0190612443565b908b820360208d0152612443565b9760408a01526060890152608088015260a087015260c086015260018060a01b03811660e086015260a01c1615156101008401526101208301520390f35b3461026c57602036600319011261026c5760043560005260036020526020604060002054604051908152f35b3461026c57604036600319011261026c5761140861240a565b600435600052600860205260406000209060018060a01b03166000526020526020604060002054604051908152f35b3461026c57600036600319011261026c576040517f00000000000000000000000000000000000000000000000000000000000000006001600160a01b03168152602090f35b3461026c57602036600319011261026c5760043560005260096020526020604060002054604051908152f35b3461026c57604036600319011261026c576114c16123f4565b6024359081151580920361026c576001600160a01b03169033821461153557336000526001602052604060002082600052602052604060002060ff1981541660ff83161790556040519081527f17307eab39ab6107e8899845ad3d59bd9653f200f220920489ca2b5937696c3160203392a3005b60405162461bcd60e51b815260206004820152602960248201527f455243313135353a2073657474696e6720617070726f76616c20737461747573604482015268103337b91039b2b63360b91b6064820152608490fd5b3461026c57600036600319011261026c57602060405160008152f35b3461026c57600036600319011261026c576040517f00000000000000000000000000000000000000000000000000000000000000006001600160a01b03168152602090f35b3461026c57604036600319011261026c5761160661240a565b600435600052600660205260406000209060018060a01b0316600052602052602060ff604060002054166040519015158152f35b3461026c57600036600319011261026c576020600b54604051908152f35b3461026c57600036600319011261026c576020600c54604051908152f35b3461026c57600036600319011261026c5761168f6129bd565b611697612d63565b600160ff1960055416176005557f62e78cea01bee320cd4e420270b5ea74000d11b0c9f74754ebdbfc544b05a2586020604051338152a1005b3461026c57600036600319011261026c5760206040517f30cc2fcab974a5a2540213c549fc919ac7160838938e5a3a04b40906b512611a8152f35b3461026c5760208060031936011261026c576001600160a01b0361172d6123f4565b16600052600a8152604060002090604051808383829554938481520190600052836000209260005b858282106117845750505061176c925003836124d5565b6117806040519282849384528301906125cf565b0390f35b8554845260019586019588955093019201611755565b3461026c576117a83661261b565b906117b16129bd565b6103e8811115806117ff575b156117ca57600d55600e55005b60405162461bcd60e51b815260206004820152600d60248201526c08ccacae640e8dede40d0d2ced609b1b6044820152606490fd5b506107d08211156117bd565b3461026c57604036600319011261026c576118246123f4565b6001600160a01b03166000908152600a602052604090208054602435919082101561026c5760209161185591612603565b90546040519160031b1c8152f35b3461026c57600036600319011261026c57602060ff600554166040519015158152f35b3461026c57602036600319011261026c5760206118b26004356000526003602052604060002054151590565b6040519015158152f35b3461026c57604036600319011261026c576004356001600160401b0380821161026c573660238301121561026c578160040135906118f9826124f6565b9261190760405194856124d5565b82845260209260248486019160051b8301019136831161026c57602401905b828210611a365750505060243590811161026c5761194890369060040161250d565b82518151036119df5782519261195d846124f6565b9361196b60405195866124d5565b80855261197a601f19916124f6565b01368486013760005b81518110156119c8576001906119b76001600160a01b036119a48386612896565b51166119b08387612896565b5190612710565b6119c18288612896565b5201611983565b5050506117806040519282849384528301906125cf565b60405162461bcd60e51b815260048101839052602960248201527f455243313135353a206163636f756e747320616e6420696473206c656e677468604482015268040dad2e6dac2e8c6d60bb1b6064820152608490fd5b81356001600160a01b038116810361026c578152908401908401611926565b3461026c5760208060031936011261026c57600435611a72612d0d565b611a7a612d63565b806000526008825260406000203360005282526040600020548015611b7f57816000526007835260036040600020015490600984526040600020548015611b455791611aea611aef927f1448cb68839238fd008abe5bad73d996f9849e020313466fa9f3476d98006df294612795565b6127a8565b9282600052600981526040600020611b08858254612889565b9055611b3584337f0000000000000000000000000000000000000000000000000000000000000000612da7565b6040519384523393a36001600455005b60405162461bcd60e51b81526004810186905260126024820152714e6f207969656c6420617661696c61626c6560701b6044820152606490fd5b60405162461bcd60e51b815260048101849052600f60248201526e139bc81cda185c995cc81bdddb9959608a1b6044820152606490fd5b3461026c57600036600319011261026c57611bcf6129bd565b60055460ff811615611c0e5760ff19166005557f5db9ee0a495bf2e6ff9c91a7834c1ba4fdd244a5e8aa4e537bd38aeae4b073aa6020604051338152a1005b60405162461bcd60e51b815260206004820152601460248201527314185d5cd8589b194e881b9bdd081c185d5cd95960621b6044820152606490fd5b3461026c57604036600319011261026c57611c6361240a565b336001600160a01b03821603611c7f5761024490600435612c97565b60405162461bcd60e51b815260206004820152602f60248201527f416363657373436f6e74726f6c3a2063616e206f6e6c792072656e6f756e636560448201526e103937b632b9903337b91039b2b63360891b6064820152608490fd5b3461026c57604036600319011261026c57600435611cf861240a565b816000526006602052611d12600160406000200154612b8b565b81600052600660205260406000209060018060a01b0316908160005260205260ff6040600020541615611d4157005b8160005260066020526040600020816000526020526040600020600160ff1982541617905533917f2f8788117e7eff1d82e926ec794901d17c78024a50270940304540a733656f0d600080a4005b3461026c5760031960a03682011261026c57611da96123f4565b90611db261240a565b6001600160401b039060443582811161026c57611dd390369060040161250d565b9160643581811161026c57611dec90369060040161250d565b9260849160843590811161026c57611e08903690600401612588565b946001600160a01b039287841633148015612163575b611e2790612826565b825186510361210d5783851615611e3e8115612904565b848916156120b4575b611ffa575b5060005b8251811015611ee75780611e6660019285612896565b51611e718289612896565b519080600052602090600082526040600020888d16600052825282604060002054611e9e8282101561295e565b82600052600084528d8a604060002091166000528452036040600020556000526000815260406000209087891660005252611edf60406000209182546128f7565b905501611e50565b509493929360405160408152611f0060408201846125cf565b908082036020820152848716917f4a39dc06d4c0dbc64b70af90fd698a233a518aa5d07e595d983b8c0526c8f7fb868b169280611f3e33948b6125cf565b0390a4843b611f4957005b60405163bc197c8160e01b808252336004830152978416602482015260a060448201529586948593611f7f9060a48601906125cf565b82858203016064860152611f92916125cf565b90838203016084840152611fa591612443565b03921691815a602094600091f160009181611fd9575b50611fc857610e956131d0565b6001600160e01b03191603610f0657005b611ff391925060203d602011610f4957610f3a81836124d5565b9083611fbb565b9692600096929491965b85518110156120a7576120178187612896565b51906120238189612896565b518260005260036020526040600020548181106120525760019360005260036020520360406000205501612004565b60405162461bcd60e51b815260206004820152602860248201527f455243313135353a206275726e20616d6f756e74206578636565647320746f74604482015267616c537570706c7960c01b60648201528c90fd5b5092965092909487611e4c565b9794929693919060005b885181101561210057806120d46001928a612896565b516120df828c612896565b5160005260036020526120f860406000209182546128f7565b9055016120be565b5090919396929497611e47565b60405162461bcd60e51b815260206004820152602860248201527f455243313135353a2069647320616e6420616d6f756e7473206c656e677468206044820152670dad2e6dac2e8c6d60c31b6064820152608490fd5b508388166000526001602052604060002033600052602052611e2760ff604060002054169050611e1e565b3461026c57600036600319011261026c576020600d54604051908152f35b3461026c57604036600319011261026c5760206121d26121ca61240a565b6004356127c8565b604051908152f35b3461026c57602036600319011261026c5760043560005260066020526020600160406000200154604051908152f35b3461026c57600036600319011261026c5760206040517f01f18e249044142f95a61b39bad5f99f3c70699c83bb85a1ad87fe9e68bd85d18152f35b3461026c5760208060031936011261026c57604051906000826002549161226a83612631565b92838352600190856001821691826000146123075750506001146122aa575b50612296925003836124d5565b611780604051928284938452830190612443565b84915060026000527f405787fa12a823e0f2b7631cc41b3ba8828b3321ca811111fa75cd3aa3bb5ace906000915b8583106122ef575050612296935082010185612289565b805483890185015287945086939092019181016122d8565b60ff19168582015261229695151560051b85010192508791506122899050565b3461026c57600036600319011261026c576020600e54604051908152f35b3461026c57602036600319011261026c5760043563ffffffff60e01b811680910361026c57602090637965db0b60e01b811490811561238a575b506040519015158152f35b636cdb3d1360e11b8114915081156123bc575b81156123ab575b508261237f565b6301ffc9a760e01b149050826123a4565b6303a24d0760e21b8114915061239d565b3461026c57604036600319011261026c5760206121d26123eb6123f4565b60243590612710565b600435906001600160a01b038216820361026c57565b602435906001600160a01b038216820361026c57565b60005b8381106124335750506000910152565b8181015183820152602001612423565b9060209161245c81518092818552858086019101612420565b601f01601f1916010190565b61014081019081106001600160401b038211176109a757604052565b602081019081106001600160401b038211176109a757604052565b604081019081106001600160401b038211176109a757604052565b608081019081106001600160401b038211176109a757604052565b90601f801991011681019081106001600160401b038211176109a757604052565b6001600160401b0381116109a75760051b60200190565b9080601f8301121561026c576020908235612527816124f6565b9361253560405195866124d5565b81855260208086019260051b82010192831161026c57602001905b82821061255e575050505090565b81358152908301908301612550565b6001600160401b0381116109a757601f01601f191660200190565b81601f8201121561026c5780359061259f8261256d565b926125ad60405194856124d5565b8284526020838301011161026c57816000926020809301838601378301015290565b90815180825260208080930193019160005b8281106125ef575050505090565b8351855293810193928101926001016125e1565b805482101561056e5760005260206000200190600090565b604090600319011261026c576004359060243590565b90600182811c92168015612661575b602083101461264b57565b634e487b7160e01b600052602260045260246000fd5b91607f1691612640565b9060405191826000825461267e81612631565b908184526020946001916001811690816000146126ee57506001146126af575b5050506126ad925003836124d5565b565b600090815285812095935091905b8183106126d65750506126ad935082010138808061269e565b855488840185015294850194879450918301916126bd565b925050506126ad94925060ff191682840152151560051b82010138808061269e565b6001600160a01b031690811561273d57600052600060205260406000209060005260205260406000205490565b60405162461bcd60e51b815260206004820152602a60248201527f455243313135353a2061646472657373207a65726f206973206e6f742061207660448201526930b634b21037bbb732b960b11b6064820152608490fd5b8181029291811591840414171561055857565b81156127b2570490565b634e487b7160e01b600052601260045260246000fd5b6000918183526008602052604083209060018060a01b03168352602052604082205490811561282157612815839260039261281e9552600760205260408085209460096020522054612795565b910154906127a8565b90565b505090565b1561282d57565b60405162461bcd60e51b815260206004820152602e60248201527f455243313135353a2063616c6c6572206973206e6f7420746f6b656e206f776e60448201526d195c881bdc88185c1c1c9bdd995960921b6064820152608490fd5b9190820391821161055857565b805182101561056e5760209160051b010190565b60001981146105585760010190565b156128c057565b60405162461bcd60e51b815260206004820152600f60248201526e105cdcd95d081b9bdd08199bdd5b99608a1b6044820152606490fd5b9190820180921161055857565b1561290b57565b60405162461bcd60e51b815260206004820152602560248201527f455243313135353a207472616e7366657220746f20746865207a65726f206164604482015264647265737360d81b6064820152608490fd5b1561296557565b60405162461bcd60e51b815260206004820152602a60248201527f455243313135353a20696e73756666696369656e742062616c616e636520666f60448201526939103a3930b739b332b960b11b6064820152608490fd5b3360009081527f54cdd369e4e8a8515e52ca72ec816c2101831ad1f18bf44102ed171459c9b4f8602090815260408083205490929060ff16156129ff57505050565b612a0833613409565b9080845190612a16826124ba565b60428252848201926060368537825115612b77576030845382519060019160011015612b775790607860218501536041915b818311612b0957505050612ac75760486104cd938693612aab93612a9c985198899376020b1b1b2b9b9a1b7b73a3937b61d1030b1b1b7bab73a1604d1b8a860152610474815180928c603789019101612420565b010360288101875201856124d5565b5192839262461bcd60e51b845260048401526024830190612443565b60648486519062461bcd60e51b825280600483015260248201527f537472696e67733a20686578206c656e67746820696e73756666696369656e746044820152fd5b909192600f81166010811015612b63576f181899199a1a9b1b9c1cb0b131b232b360811b901a612b3985876133f8565b5360041c928015612b4f57600019019190612a48565b634e487b7160e01b82526011600452602482fd5b634e487b7160e01b83526032600452602483fd5b634e487b7160e01b81526032600452602490fd5b60009080825260209060068252604092838120338252835260ff848220541615612bb55750505050565b612bbe33613409565b91845190612bcb826124ba565b60428252848201926060368537825115612b77576030845382519060019160011015612b775790607860218501536041915b818311612c5157505050612ac75760486104cd938693612aab93612a9c985198899376020b1b1b2b9b9a1b7b73a3937b61d1030b1b1b7bab73a1604d1b8a860152610474815180928c603789019101612420565b909192600f81166010811015612b63576f181899199a1a9b1b9c1cb0b131b232b360811b901a612c8185876133f8565b5360041c928015612b4f57600019019190612bfd565b906000918083526006602052604083209160018060a01b03169182845260205260ff604084205416612cc857505050565b8083526006602052604083208284526020526040832060ff1981541690557ff6391f5c32d9c69d2a47ea670b442974b53935d1edc7fd64eb21e047a839171b339380a4565b600260045414612d1e576002600455565b60405162461bcd60e51b815260206004820152601f60248201527f5265656e7472616e637947756172643a207265656e7472616e742063616c6c006044820152606490fd5b60ff60055416612d6f57565b60405162461bcd60e51b815260206004820152601060248201526f14185d5cd8589b194e881c185d5cd95960821b6044820152606490fd5b60405163a9059cbb60e01b60208201526001600160a01b03909216602483015260448083019390935291815260808101916001600160401b038311828410176109a7576126ad926040526132b1565b909391926001600160a01b0380861680159492939091612e168615612904565b612e1f876133d3565b90612e29866133d3565b92169586156130af575b612fe8575b505060009285845260209584875260409788862087875288528289872054612e628282101561295e565b838852878a528a88208989528a5203898720558186528588528886208487528852888620612e918482546128f7565b905583878a51848152858b8201527fc3d58168c5ae7397731d063d5bbf3d657854427343f4c083240f7aacaa2d0f628c3392a43b612ed4575b5050505050505050565b91849391612f1c9588999a98948b519788958694859363f23a6e6160e01b9c8d865233600487015260248601526044850152606484015260a0608484015260a4830190612443565b03925af1909181612fc9575b50612f8f57505050612f386131d0565b6308c379a014612f5b575b505162461bcd60e51b8152806104cd6004820161325c565b612f636131ee565b9081612f6f5750612f43565b6104cd835192839262461bcd60e51b845260048401526024830190612443565b919392506001600160e01b031990911603612fb257503880808080808080612eca565b5162461bcd60e51b8152806104cd60048201613187565b612fe1919250853d8711610f4957610f3a81836124d5565b9038612f28565b95926000989592979491985b875181101561309e576130078189612896565b51613012828c612896565b5181600052600391602092808452604093846000205492848410613049579060019695949392916000525203906000205501612ff4565b855162461bcd60e51b815260048101839052602860248201527f455243313135353a206275726e20616d6f756e74206578636565647320746f74604482015267616c537570706c7960c01b6064820152608490fd5b509295509295909396503880612e38565b9793600099959197939692999660005b89518110156130ff57806130d56001928e612896565b516130e0828d612896565b518b5260036020526130f760408c209182546128f7565b9055016130bf565b5093979195999296509397612e33565b6040516323b872dd60e01b60208201526001600160a01b03928316602482015292909116604483015260648083019390935291815260a08101918183106001600160401b038411176109a7576126ad926040526132b1565b9081602091031261026c57516001600160e01b03198116810361026c5790565b60809060208152602860208201527f455243313135353a204552433131353552656365697665722072656a656374656040820152676420746f6b656e7360c01b60608201520190565b60009060033d116131dd57565b905060046000803e60005160e01c90565b600060443d1061281e57604051600319913d83016004833e81516001600160401b03918282113d60248401111761324b57818401948551938411613253573d8501016020848701011161324b575061281e929101602001906124d5565b949350505050565b50949350505050565b60809060208152603460208201527f455243313135353a207472616e7366657220746f206e6f6e2d455243313135356040820152732932b1b2b4bb32b91034b6b83632b6b2b73a32b960611b60608201520190565b60018060a01b03169061332e6040516132c98161249f565b6020938482527f5361666545524332303a206c6f772d6c6576656c2063616c6c206661696c6564858301526000808587829751910182855af13d156133cb573d916133138361256d565b9261332160405194856124d5565b83523d868885013e6134d4565b8051918215918483156133a0575b5050509050156133495750565b6084906040519062461bcd60e51b82526004820152602a60248201527f5361666545524332303a204552433230206f7065726174696f6e20646964206e6044820152691bdd081cdd58d8d9595960b21b6064820152fd5b9193818094500103126133c7578201519081151582036133c457508038808461333c565b80fd5b5080fd5b6060916134d4565b604051906133e08261249f565b6001825260208201602036823782511561056e575290565b90815181101561056e570160200190565b60405190606082018281106001600160401b038211176109a757604052602a825260208201604036823782511561056e576030905381516001906001101561056e57607860218401536029905b8082116134665750506112745790565b9091600f811660108110156134bf576f181899199a1a9b1b9c1cb0b131b232b360811b901a61349584866133f8565b5360041c9180156134aa576000190190613456565b60246000634e487b7160e01b81526011600452fd5b60246000634e487b7160e01b81526032600452fd5b9192901561353657508151156134e8575090565b3b156134f15790565b60405162461bcd60e51b815260206004820152601d60248201527f416464726573733a2063616c6c20746f206e6f6e2d636f6e74726163740000006044820152606490fd5b825190915015610ecc5750805190602001fdfea26469706673582212201d1ca7e85805c555e05a679fa4e26c4cb568e917c21948a58c146296d610d26b64736f6c634300081800332f8788117e7eff1d82e926ec794901d17c78024a50270940304540a733656f0d",
  "linkReferences": {},
  "deployedLinkReferences": {}
}