{
  "_format": "hh-sol-artifact-1",
  "contractName": "ComplianceModule",
  "sourceName": "contracts/ComplianceModule.sol",
  "abi": [
    {
      "inputs": [],
      "stateMutability": "nonpayable",
      "type": "constructor"
    },
    {
      "anonymous": false,
      "inputs": [
        {
          "indexed": true,
          "internalType": "address",
          "name": "previousOwner",
          "type": "address"
        },
        {
          "indexed": true,
          "internalType": "address",
          "name": "newOwner",
          "type": "address"
        }
      ],
      "name": "OwnershipTransferred",
      "type": "event"
    },
    {
      "anonymous": false,
      "inputs": [
        {
          "indexed": false,
          "internalType": "address",
          "name": "account",
          "type": "address"
        }
      ],
      "name": "Paused",
      "type": "event"
    },
    {
      "anonymous": false,
      "inputs": [
        {
          "indexed": false,
          "internalType": "address",
          "name": "account",
          "type": "address"
        }
      ],
      "name": "Unpaused",
      "type": "event"
    },
    {
      "anonymous": false,
      "inputs": [
        {
          "indexed": true,
          "internalType": "address",
          "name": "user",
          "type": "address"
        }
      ],
      "name": "UserRemoved",
      "type": "event"
    },
    {
      "anonymous": false,
      "inputs": [
        {
          "indexed": true,
          "internalType": "address",
          "name": "user",
          "type": "address"
        },
        {
          "indexed": false,
          "internalType": "string",
          "name": "tier",
          "type": "string"
        }
      ],
      "name": "UserWhitelisted",
      "type": "event"
    },
    {
      "anonymous": false,
      "inputs": [
        {
          "indexed": true,
          "internalType": "address",
          "name": "user",
          "type": "address"
        },
        {
          "indexed": false,
          "internalType": "bytes32",
          "name": "proofHash",
          "type": "bytes32"
        }
      ],
      "name": "ZKProofSubmitted",
      "type": "event"
    },
    {
      "inputs": [
        {
          "internalType": "address",
          "name": "user",
          "type": "address"
        },
        {
          "internalType": "string",
          "name": "tier",
          "type": "string"
        }
      ],
      "name": "addToWhitelist",
      "outputs": [],
      "stateMutability": "nonpayable",
      "type": "function"
    },
    {
      "inputs": [
        {
          "internalType": "bytes32",
          "name": "proofHash",
          "type": "bytes32"
        }
      ],
      "name": "addValidProofHash",
      "outputs": [],
      "stateMutability": "nonpayable",
      "type": "function"
    },
    {
      "inputs": [
        {
          "internalType": "address[]",
          "name": "users",
          "type": "address[]"
        },
        {
          "internalType": "string",
          "name": "tier",
          "type": "string"
        }
      ],
      "name": "batchAddToWhitelist",
      "outputs": [],
      "stateMutability": "nonpayable",
      "type": "function"
    },
    {
      "inputs": [
        {
          "internalType": "address",
          "name": "user",
          "type": "address"
        }
      ],
      "name": "getUserKYCInfo",
      "outputs": [
        {
          "internalType": "bool",
          "name": "whitelisted",
          "type": "bool"
        },
        {
          "internalType": "string",
          "name": "tier",
          "type": "string"
        },
        {
          "internalType": "uint256",
          "name": "timestamp",
          "type": "uint256"
        },
        {
          "internalType": "uint256",
          "name": "expiresAt",
          "type": "uint256"
        }
      ],
      "stateMutability": "view",
      "type": "function"
    },
    {
      "inputs": [
        {
          "internalType": "address",
          "name": "user",
          "type": "address"
        }
      ],
      "name": "hasValidKYC",
      "outputs": [
        {
          "internalType": "bool",
          "name": "",
          "type": "bool"
        }
      ],
      "stateMutability": "view",
      "type": "function"
    },
    {
      "inputs": [
        {
          "internalType": "address",
          "name": "",
          "type": "address"
        }
      ],
      "name": "isWhitelisted",
      "outputs": [
        {
          "internalType": "bool",
          "name": "",
          "type": "bool"
        }
      ],
      "stateMutability": "view",
      "type": "function"
    },
    {
      "inputs": [],
      "name": "kycExpiryDuration",
      "outputs": [
        {
          "internalType": "uint256",
          "name": "",
          "type": "uint256"
        }
      ],
      "stateMutability": "view",
      "type": "function"
    },
    {
      "inputs": [
        {
          "internalType": "address",
          "name": "",
          "type": "address"
        }
      ],
      "name": "kycTier",
      "outputs": [
        {
          "internalType": "string",
          "name": "",
          "type": "string"
        }
      ],
      "stateMutability": "view",
      "type": "function"
    },
    {
      "inputs": [
        {
          "internalType": "address",
          "name": "",
          "type": "address"
        }
      ],
      "name": "kycTimestamp",
      "outputs": [
        {
          "internalType": "uint256",
          "name": "",
          "type": "uint256"
        }
      ],
      "stateMutability": "view",
      "type": "function"
    },
    {
      "inputs": [
        {
          "internalType": "address",
          "name": "user",
          "type": "address"
        },
        {
          "internalType": "string",
          "name": "requiredTier",
          "type": "string"
        }
      ],
      "name": "meetsKYCTier",
      "outputs": [
        {
          "internalType": "bool",
          "name": "",
          "type": "bool"
        }
      ],
      "stateMutability": "view",
      "type": "function"
    },
    {
      "inputs": [],
      "name": "owner",
      "outputs": [
        {
          "internalType": "address",
          "name": "",
          "type": "address"
        }
      ],
      "stateMutability": "view",
      "type": "function"
    },
    {
      "inputs": [],
      "name": "pause",
      "outputs": [],
      "stateMutability": "nonpayable",
      "type": "function"
    },
    {
      "inputs": [],
      "name": "paused",
      "outputs": [
        {
          "internalType": "bool",
          "name": "",
          "type": "bool"
        }
      ],
      "stateMutability": "view",
      "type": "function"
    },
    {
      "inputs": [
        {
          "internalType": "address",
          "name": "user",
          "type": "address"
        }
      ],
      "name": "removeFromWhitelist",
      "outputs": [],
      "stateMutability": "nonpayable",
      "type": "function"
    },
    {
      "inputs": [],
      "name": "renounceOwnership",
      "outputs": [],
      "stateMutability": "nonpayable",
      "type": "function"
    },
    {
      "inputs": [],
      "name": "requireZKProof",
      "outputs": [
        {
          "internalType": "bool",
          "name": "",
          "type": "bool"
        }
      ],
      "stateMutability": "view",
      "type": "function"
    },
    {
      "inputs": [
        {
          "internalType": "uint256",
          "name": "duration",
          "type": "uint256"
        }
      ],
      "name": "setKYCExpiryDuration",
      "outputs": [],
      "stateMutability": "nonpayable",
      "type": "function"
    },
    {
      "inputs": [
        {
          "internalType": "bool",
          "name": "required",
          "type": "bool"
        }
      ],
      "name": "setZKProofRequirement",
      "outputs": [],
      "stateMutability": "nonpayable",
      "type": "function"
    },
    {
      "inputs": [
        {
          "internalType": "bytes",
          "name": "zkProof",
          "type": "bytes"
        }
      ],
      "name": "submitZKProof",
      "outputs": [
        {
          "internalType": "bool",
          "name": "",
          "type": "bool"
        }
      ],
      "stateMutability": "nonpayable",
      "type": "function"
    },
    {
      "inputs": [
        {
          "internalType": "address",
          "name": "newOwner",
          "type": "address"
        }
      ],
      "name": "transferOwnership",
      "outputs": [],
      "stateMutability": "nonpayable",
      "type": "function"
    },
    {
      "inputs": [],
      "name": "unpause",
      "outputs": [],
      "stateMutability": "nonpayable",
      "type": "function"
    },
    {
      "inputs": [
        {
          "internalType": "bytes32",
          "name": "",
          "type": "bytes32"
        }
      ],
      "name": "validProofHashes",
      "outputs": [
        {
          "internalType": "bool",
          "name": "",
          "type": "bool"
        }
      ],
      "stateMutability": "view",
      "type": "function"
    },
    {
      "inputs": [
        {
          "internalType": "address",
          "name": "user",
          "type": "address"
        },
        {
          "internalType": "bytes",
          "name": "zkProof",
          "type": "bytes"
        }
      ],
      "name": "verifyKYC",
      "outputs": [
        {
          "internalType": "bool",
          "name": "",
          "type": "bool"
        }
      ],
      "stateMutability": "view",
      "type": "function"
    }
  ],
  "bytecode": "0x60808060405234610070576000543360018060a01b0382167f8be0079c531659141344cd1fd0a4f28419497f9722a3daafe3b4186f6b6457e0600080a36001600160a81b0319163360ff60a01b1916176000556005805460ff191690556301e133806006556112a890816100768239f35b600080fdfe6040608081526004908136101561001557600080fd5b600091823560e01c80622e21a714610cbc5780631a533daa14610af65780631cad695414610abe57806334bf39d614610a9a5780633af32abf14610a5c5780633f4ba83a146109c35780633f6462b8146109a45780635c975abb1461097f57806366d6d4d21461089c578063674c87e81461081557806368272ecc146107de578063715018a61461078457806371f8f4e71461070957806380d2b847146106ed5780638456cb591461068e5780638ab1d681146105c45780638da5cb5b1461059c578063ac970e2d1461054c578063aff353e8146102a8578063b6c69e381461023e578063c150cf041461020d578063c442e205146101e25763f2fde38b1461011d57600080fd5b346101de5760203660031901126101de57610136610d0e565b9061013f6111d3565b6001600160a01b0391821692831561018c57505082546001600160a01b0319811683178455167f8be0079c531659141344cd1fd0a4f28419497f9722a3daafe3b4186f6b6457e08380a380f35b906020608492519162461bcd60e51b8352820152602660248201527f4f776e61626c653a206e6577206f776e657220697320746865207a65726f206160448201526564647265737360d01b6064820152fd5b8280fd5b50346101de5760203660031901126101de57816020938260ff93358252855220541690519015158152f35b50346101de5760203660031901126101de576102276111d3565b803583526020528120805460ff1916600117905580f35b5050346102a45760203660031901126102a457602091906001600160a01b03610265610d0e565b1682526001835260ff81832054169182610283575b50519015158152f35b8192509061029a9160038552205460065490610f86565b421115903861027a565b5080fd5b5090346101de57806003193601126101de5781359267ffffffffffffffff9081851161054957366023860112156105495784840135602491838211610536576005958260051b976020988751946103018b830187610d95565b855260248a8601918301019136831161053257602401905b82821061050f575050506024358581116101de5761033a9036908301610ee3565b946103436111d3565b825b845181101561050b576001600160a01b038061036183886111a9565b511685526001808c52898620805460ff1916821790558161038284896111a9565b5116865260028c52898620908951908582116104f9579082918e6103a98f97969554610d29565b96601f978881116104c3575b505080968311600114610457575050806103e7916001968a9161044c575b508160011b916000199060031b1c19161790565b90555b806103f583896111a9565b5116865260038c52428a87205561040c82886111a9565b51167f7bbcc406088422f0dc6c8e376b2eef6bd61cb55fb34224a12af7fe2d897e383c6104438d8c5191818392835282018d610e5c565b0390a201610345565b90508c0151386103d3565b9092939495601f198316858b528d838c20938c915b8383106104ac57505050908360019897969594939210610493575b5050811b0190556103ea565b8d015160001960f88460031b161c191690553880610487565b84015185559386019392830192908101908f61046c565b6104e991868d52838d20908a808801821c8301938689106104f0575b01901c0190610f6f565b8e386103b5565b935082936104df565b634e487b7160e01b8852604187528988fd5b8380f35b81356001600160a01b038116810361052e578152908a01908a01610319565b8580fd5b8480fd5b634e487b7160e01b815260418652602490fd5b80fd5b50346101de57816003193601126101de57610565610d0e565b926024359067ffffffffffffffff821161054957509261058d61059392602095369101610f41565b91611115565b90519015158152f35b5050346102a457816003193601126102a457905490516001600160a01b039091168152602090f35b5050346102a45760203660031901126102a457816105e0610d0e565b6105e86111d3565b60018060a01b031691828252600160205280822060ff1981541690556002602052818181206106178154610d29565b80610651575b505083905260036020528120557fe9dce8c992623ce791725b21e857e33248d1f190a25b5168313420eebdaae99d8280a280f35b82601f8211600114610669575050555b81388061061d565b9091808252610687601f60208420940160051c840160018501610f6f565b5555610661565b5050346102a457816003193601126102a45760207f62e78cea01bee320cd4e420270b5ea74000d11b0c9f74754ebdbfc544b05a258916106cc6111d3565b6106d461122b565b835460ff60a01b1916600160a01b17845551338152a180f35b5050346102a45760209061059361070336610f01565b90610ff8565b50346101de5760203660031901126101de578035916107266111d3565b62278d0083101580610776575b1561074057505060065580f35b906020606492519162461bcd60e51b8352820152601060248201526f24b73b30b634b210323ab930ba34b7b760811b6044820152fd5b506305a39a80831115610733565b833461054957806003193601126105495761079d6111d3565b80546001600160a01b03198116825581906001600160a01b03167f8be0079c531659141344cd1fd0a4f28419497f9722a3daafe3b4186f6b6457e08280a380f35b8382346102a45760203660031901126102a457358015158091036102a4576108046111d3565b60ff80196005541691161760055580f35b828434610549576020366003190112610549576001600160a01b03610838610d0e565b169182825260016020528060ff818420541692600260205261085b828220610db7565b9481526003602052205461087160065482610f86565b9061088f835195869515158652608060208701526080860190610e5c565b9284015260608301520390f35b5090346101de576020928360031936011261054957823567ffffffffffffffff81116102a4576108cf9036908501610f41565b91906108d961122b565b821561094c5790856108ee8593853691610e9c565b8181519101209310159485610908575b5050505051908152f35b838252865220600160ff1982541617905581519081527f9a7c779d96184c9ea44434a43c52dff1ba8973f4294d19cc22c3906c41858f7f843392a2388181806108fe565b835162461bcd60e51b8152808601879052600d60248201526c24b73b30b634b210383937b7b360991b6044820152606490fd5b5050346102a457816003193601126102a45760ff6020925460a01c1690519015158152f35b5050346102a457816003193601126102a4576020906006549051908152f35b50346101de57826003193601126101de576109dc6111d3565b82549060ff8260a01c1615610a22575060ff60a01b19168255513381527f5db9ee0a495bf2e6ff9c91a7834c1ba4fdd244a5e8aa4e537bd38aeae4b073aa90602090a180f35b606490602084519162461bcd60e51b8352820152601460248201527314185d5cd8589b194e881b9bdd081c185d5cd95960621b6044820152fd5b5050346102a45760203660031901126102a45760209160ff9082906001600160a01b03610a87610d0e565b1681526001855220541690519015158152f35b5050346102a457816003193601126102a45760209060ff6005541690519015158152f35b5050346102a45760203660031901126102a45760209181906001600160a01b03610ae6610d0e565b1681526003845220549051908152f35b50346101de57610b0536610f01565b9190610b0f6111d3565b60018060a01b031692838552600160209260018452828720600160ff19825416179055600284528287209185519167ffffffffffffffff8311610ca95750610b578354610d29565b601f8111610c70575b508490601f8311600114610be6575091610bb7827f7bbcc406088422f0dc6c8e376b2eef6bd61cb55fb34224a12af7fe2d897e383c97969593610bd5958b91610bdb57508160011b916000199060031b1c19161790565b90555b85875260038352428188205551928284938452830190610e5c565b0390a280f35b9050870151386103d3565b90601f198316848a52868a20928a905b828210610c5957505092610bd59492600192827f7bbcc406088422f0dc6c8e376b2eef6bd61cb55fb34224a12af7fe2d897e383c9a99989610610c40575b5050811b019055610bba565b88015160001960f88460031b161c191690553880610c34565b898401518555938401939288019290880190610bf6565b610c9990848a52868a20601f850160051c810191888610610c9f575b601f0160051c0190610f6f565b38610b60565b9091508190610c8c565b634e487b7160e01b895260419052602488fd5b5050346102a45760203660031901126102a457610d0a91610cf79082906001600160a01b03610ce9610d0e565b168152600260205220610db7565b9051918291602083526020830190610e5c565b0390f35b600435906001600160a01b0382168203610d2457565b600080fd5b90600182811c92168015610d59575b6020831014610d4357565b634e487b7160e01b600052602260045260246000fd5b91607f1691610d38565b6040810190811067ffffffffffffffff821117610d7f57604052565b634e487b7160e01b600052604160045260246000fd5b90601f8019910116810190811067ffffffffffffffff821117610d7f57604052565b90604051918260008254610dca81610d29565b90818452602094600191600181169081600014610e3a5750600114610dfb575b505050610df992500383610d95565b565b600090815285812095935091905b818310610e22575050610df99350820101388080610dea565b85548884018501529485019487945091830191610e09565b92505050610df994925060ff191682840152151560051b820101388080610dea565b919082519283825260005b848110610e88575050826000602080949584010152601f8019910116010190565b602081830181015184830182015201610e67565b92919267ffffffffffffffff8211610d7f5760405191610ec6601f8201601f191660200184610d95565b829481845281830111610d24578281602093846000960137010152565b9080601f83011215610d2457816020610efe93359101610e9c565b90565b906040600319830112610d24576004356001600160a01b0381168103610d2457916024359067ffffffffffffffff8211610d2457610efe91600401610ee3565b9181601f84011215610d245782359167ffffffffffffffff8311610d245760208381860195010111610d2457565b818110610f7a575050565b60008155600101610f6f565b91908201809211610f9357565b634e487b7160e01b600052601160045260246000fd5b60405190610fb682610d63565b600a8252691858d8dc99591a5d195960b21b6020830152565b60405190610fdc82610d63565b600d82526c1a5b9cdd1a5d1d5d1a5bdb985b609a1b6020830152565b60018060a01b03166000526020906001825260ff604060002054161561110e57600282526110296040600020610db7565b908051907fa5d86f0953c385ec886a62429aa968eb4ecb555f168f43ef1e9b73593b04825f848201928320651c995d185a5b60d21b8660405161106b81610d63565b6006815201520361107f5750505050600190565b8051822061108b610fa9565b805190860120036110d95750509081518183019081206110a9610fa9565b838151910120149283156110be575b50505090565b51902091506110cb610fcf565b8051910120143880806110b8565b5190206110e4610fcf565b838151910120146110f6575050600090565b81815191012090611105610fcf565b80519101201490565b5050600090565b6001600160a01b03166000908152600160205260408120549092919060ff16156111a457600360205261114f604084205460065490610f86565b42116111a45760ff600554168061119b575b61116e575b505050600190565b611179913691610e9c565b602081519101208152600460205260ff60408220541615610efe578080611166565b50811515611161565b505090565b80518210156111bd5760209160051b010190565b634e487b7160e01b600052603260045260246000fd5b6000546001600160a01b031633036111e757565b606460405162461bcd60e51b815260206004820152602060248201527f4f776e61626c653a2063616c6c6572206973206e6f7420746865206f776e65726044820152fd5b60ff60005460a01c1661123a57565b60405162461bcd60e51b815260206004820152601060248201526f14185d5cd8589b194e881c185d5cd95960821b6044820152606490fdfea2646970667358221220148af8ca8e0c6809e4553d43b0c7610d0ea12013e18730ffcf474015a3775ba064736f6c63430008180033",
  "linkReferences": {},
  "deployedLinkReferences": {}
}