{
  "_format": "hh-sol-artifact-1",
  "contractName": "MockUSDY",
  "sourceName": "contracts/mocks/MockUSDY.sol",
  "abi": [
    {
      "inputs": [],
      "stateMutability": "nonpayable",
      "type": "constructor"
    },
    {
      "anonymous": false,
      "inputs": [
        {
          "indexed": true,
          "internalType": "address",
          "name": "owner",
          "type": "address"
        },
        {
          "indexed": true,
          "internalType": "address",
          "name": "spender",
          "type": "address"
        },
        {
          "indexed": false,
          "internalType": "uint256",
          "name": "value",
          "type": "uint256"
        }
      ],
      "name": "Approval",
      "type": "event"
    },
    {
      "anonymous": false,
      "inputs": [
        {
          "indexed": true,
          "internalType": "address",
          "name": "minter",
          "type": "address"
        }
      ],
      "name": "AuthorizedMinterAdded",
      "type": "event"
    },
    {
      "anonymous": false,
      "inputs": [
        {
          "indexed": true,
          "internalType": "address",
          "name": "minter",
          "type": "address"
        }
      ],
      "name": "AuthorizedMinterRemoved",
      "type": "event"
    },
    {
      "anonymous": false,
      "inputs": [
        {
          "indexed": true,
          "internalType": "address",
          "name": "previousOwner",
          "type": "address"
        },
        {
          "indexed": true,
          "internalType": "address",
          "name": "newOwner",
          "type": "address"
        }
      ],
      "name": "OwnershipTransferred",
      "type": "event"
    },
    {
      "anonymous": false,
      "inputs": [
        {
          "indexed": true,
          "internalType": "address",
          "name": "from",
          "type": "address"
        },
        {
          "indexed": true,
          "internalType": "address",
          "name": "to",
          "type": "address"
        },
        {
          "indexed": false,
          "internalType": "uint256",
          "name": "value",
          "type": "uint256"
        }
      ],
      "name": "Transfer",
      "type": "event"
    },
    {
      "anonymous": false,
      "inputs": [
        {
          "indexed": true,
          "internalType": "address",
          "name": "user",
          "type": "address"
        },
        {
          "indexed": false,
          "internalType": "uint256",
          "name": "yield",
          "type": "uint256"
        }
      ],
      "name": "YieldAccrued",
      "type": "event"
    },
    {
      "inputs": [],
      "name": "ANNUAL_YIELD_RATE",
      "outputs": [
        {
          "internalType": "uint256",
          "name": "",
          "type": "uint256"
        }
      ],
      "stateMutability": "view",
      "type": "function"
    },
    {
      "inputs": [],
      "name": "BASIS_POINTS",
      "outputs": [
        {
          "internalType": "uint256",
          "name": "",
          "type": "uint256"
        }
      ],
      "stateMutability": "view",
      "type": "function"
    },
    {
      "inputs": [],
      "name": "SECONDS_PER_YEAR",
      "outputs": [
        {
          "internalType": "uint256",
          "name": "",
          "type": "uint256"
        }
      ],
      "stateMutability": "view",
      "type": "function"
    },
    {
      "inputs": [
        {
          "internalType": "address",
          "name": "minter",
          "type": "address"
        }
      ],
      "name": "addAuthorizedMinter",
      "outputs": [],
      "stateMutability": "nonpayable",
      "type": "function"
    },
    {
      "inputs": [
        {
          "internalType": "address",
          "name": "owner",
          "type": "address"
        },
        {
          "internalType": "address",
          "name": "spender",
          "type": "address"
        }
      ],
      "name": "allowance",
      "outputs": [
        {
          "internalType": "uint256",
          "name": "",
          "type": "uint256"
        }
      ],
      "stateMutability": "view",
      "type": "function"
    },
    {
      "inputs": [
        {
          "internalType": "address",
          "name": "spender",
          "type": "address"
        },
        {
          "internalType": "uint256",
          "name": "amount",
          "type": "uint256"
        }
      ],
      "name": "approve",
      "outputs": [
        {
          "internalType": "bool",
          "name": "",
          "type": "bool"
        }
      ],
      "stateMutability": "nonpayable",
      "type": "function"
    },
    {
      "inputs": [
        {
          "internalType": "address",
          "name": "",
          "type": "address"
        }
      ],
      "name": "authorizedMinters",
      "outputs": [
        {
          "internalType": "bool",
          "name": "",
          "type": "bool"
        }
      ],
      "stateMutability": "view",
      "type": "function"
    },
    {
      "inputs": [
        {
          "internalType": "address",
          "name": "account",
          "type": "address"
        }
      ],
      "name": "balanceOf",
      "outputs": [
        {
          "internalType": "uint256",
          "name": "",
          "type": "uint256"
        }
      ],
      "stateMutability": "view",
      "type": "function"
    },
    {
      "inputs": [
        {
          "internalType": "address",
          "name": "from",
          "type": "address"
        },
        {
          "internalType": "uint256",
          "name": "amount",
          "type": "uint256"
        }
      ],
      "name": "burn",
      "outputs": [],
      "stateMutability": "nonpayable",
      "type": "function"
    },
    {
      "inputs": [],
      "name": "claimYield",
      "outputs": [],
      "stateMutability": "nonpayable",
      "type": "function"
    },
    {
      "inputs": [],
      "name": "decimals",
      "outputs": [
        {
          "internalType": "uint8",
          "name": "",
          "type": "uint8"
        }
      ],
      "stateMutability": "view",
      "type": "function"
    },
    {
      "inputs": [
        {
          "internalType": "address",
          "name": "spender",
          "type": "address"
        },
        {
          "internalType": "uint256",
          "name": "subtractedValue",
          "type": "uint256"
        }
      ],
      "name": "decreaseAllowance",
      "outputs": [
        {
          "internalType": "bool",
          "name": "",
          "type": "bool"
        }
      ],
      "stateMutability": "nonpayable",
      "type": "function"
    },
    {
      "inputs": [],
      "name": "faucet",
      "outputs": [],
      "stateMutability": "nonpayable",
      "type": "function"
    },
    {
      "inputs": [
        {
          "internalType": "address",
          "name": "user",
          "type": "address"
        }
      ],
      "name": "getYieldInfo",
      "outputs": [
        {
          "internalType": "uint256",
          "name": "balance",
          "type": "uint256"
        },
        {
          "internalType": "uint256",
          "name": "pendingYieldAmount",
          "type": "uint256"
        },
        {
          "internalType": "uint256",
          "name": "lastUpdate",
          "type": "uint256"
        }
      ],
      "stateMutability": "view",
      "type": "function"
    },
    {
      "inputs": [
        {
          "internalType": "address",
          "name": "spender",
          "type": "address"
        },
        {
          "internalType": "uint256",
          "name": "addedValue",
          "type": "uint256"
        }
      ],
      "name": "increaseAllowance",
      "outputs": [
        {
          "internalType": "bool",
          "name": "",
          "type": "bool"
        }
      ],
      "stateMutability": "nonpayable",
      "type": "function"
    },
    {
      "inputs": [
        {
          "internalType": "address",
          "name": "to",
          "type": "address"
        },
        {
          "internalType": "uint256",
          "name": "amount",
          "type": "uint256"
        }
      ],
      "name": "mint",
      "outputs": [],
      "stateMutability": "nonpayable",
      "type": "function"
    },
    {
      "inputs": [],
      "name": "name",
      "outputs": [
        {
          "internalType": "string",
          "name": "",
          "type": "string"
        }
      ],
      "stateMutability": "view",
      "type": "function"
    },
    {
      "inputs": [],
      "name": "owner",
      "outputs": [
        {
          "internalType": "address",
          "name": "",
          "type": "address"
        }
      ],
      "stateMutability": "view",
      "type": "function"
    },
    {
      "inputs": [
        {
          "internalType": "address",
          "name": "user",
          "type": "address"
        }
      ],
      "name": "pendingYield",
      "outputs": [
        {
          "internalType": "uint256",
          "name": "",
          "type": "uint256"
        }
      ],
      "stateMutability": "view",
      "type": "function"
    },
    {
      "inputs": [
        {
          "internalType": "address",
          "name": "minter",
          "type": "address"
        }
      ],
      "name": "removeAuthorizedMinter",
      "outputs": [],
      "stateMutability": "nonpayable",
      "type": "function"
    },
    {
      "inputs": [],
      "name": "renounceOwnership",
      "outputs": [],
      "stateMutability": "nonpayable",
      "type": "function"
    },
    {
      "inputs": [],
      "name": "symbol",
      "outputs": [
        {
          "internalType": "string",
          "name": "",
          "type": "string"
        }
      ],
      "stateMutability": "view",
      "type": "function"
    },
    {
      "inputs": [],
      "name": "totalSupply",
      "outputs": [
        {
          "internalType": "uint256",
          "name": "",
          "type": "uint256"
        }
      ],
      "stateMutability": "view",
      "type": "function"
    },
    {
      "inputs": [
        {
          "internalType": "address",
          "name": "to",
          "type": "address"
        },
        {
          "internalType": "uint256",
          "name": "amount",
          "type": "uint256"
        }
      ],
      "name": "transfer",
      "outputs": [
        {
          "internalType": "bool",
          "name": "",
          "type": "bool"
        }
      ],
      "stateMutability": "nonpayable",
      "type": "function"
    },
    {
      "inputs": [
        {
          "internalType": "address",
          "name": "from",
          "type": "address"
        },
        {
          "internalType": "address",
          "name": "to",
          "type": "address"
        },
        {
          "internalType": "uint256",
          "name": "amount",
          "type": "uint256"
        }
      ],
      "name": "transferFrom",
      "outputs": [
        {
          "internalType": "bool",
          "name": "",
          "type": "bool"
        }
      ],
      "stateMutability": "nonpayable",
      "type": "function"
    },
    {
      "inputs": [
        {
          "internalType": "address",
          "name": "newOwner",
          "type": "address"
        }
      ],
      "name": "transferOwnership",
      "outputs": [],
      "stateMutability": "nonpayable",
      "type": "function"
    },
    {
      "inputs": [
        {
          "internalType": "address",
          "name": "",
          "type": "address"
        }
      ],
      "name": "yieldInfo",
      "outputs": [
        {
          "internalType": "uint256",
          "name": "balance",
          "type": "uint256"
        },
        {
          "internalType": "uint256",
          "name": "lastUpdateTime",
          "type": "uint256"
        },
        {
          "internalType": "uint256",
          "name": "accruedYield",
          "type": "uint256"
        }
      ],
      "stateMutability": "view",
      "type": "function"
    }
  ],
  "bytecode": "0x60803462000447576040906001600160401b03908083018281118282101762000431578352601981526020907f4d6f636b204f6e646f20555320446f6c6c6172205969656c6400000000000000828201528351908482018281108582111762000431578552600493848352635553445960e01b848401528151928184116200041c576003908154946001948587811c9716801562000411575b88881014620003fc578190601f97888111620003a6575b5088908883116001146200033f5760009262000333575b505060001982851b1c191690851b1782555b80519283116200031e5786548481811c9116801562000313575b87821014620002fe57858111620002b3575b50859085841160011462000248579383949184926000956200023c575b50501b92600019911b1c19161783555b60058054336001600160a01b03198216811790925585519291906001600160a01b03167f8be0079c531659141344cd1fd0a4f28419497f9722a3daafe3b4186f6b6457e0600080a33315620001ff57505060025469d3c21bcecceda100000092838201809211620001ea57506000917fddf252ad1be2c89b69c2b068fc378daa952ba7f163c4a11628f55a4df523b3ef9160025533835282815284832084815401905584519384523393a3516114bf90816200044d8239f35b601190634e487b7160e01b6000525260246000fd5b6064928462461bcd60e51b845283015260248201527f45524332303a206d696e7420746f20746865207a65726f2061646472657373006044820152fd5b01519350388062000121565b9190601f198416928860005284886000209460005b8a898383106200029b575050501062000280575b50505050811b01835562000131565b01519060f884600019921b161c191690553880808062000271565b8686015189559097019694850194889350016200025d565b87600052866000208680860160051c820192898710620002f4575b0160051c019085905b828110620002e757505062000104565b60008155018590620002d7565b92508192620002ce565b602288634e487b7160e01b6000525260246000fd5b90607f1690620000f2565b604187634e487b7160e01b6000525260246000fd5b015190503880620000c6565b90879350601f19831691866000528a6000209260005b8c8282106200038f575050841162000376575b505050811b018255620000d8565b015160001983871b60f8161c1916905538808062000368565b8385015186558b9790950194938401930162000355565b90915084600052886000208880850160051c8201928b8610620003f2575b918991869594930160051c01915b828110620003e2575050620000af565b60008155859450899101620003d2565b92508192620003c4565b602289634e487b7160e01b6000525260246000fd5b96607f169662000098565b604186634e487b7160e01b6000525260246000fd5b634e487b7160e01b600052604160045260246000fd5b600080fdfe6080604081815260048036101561001557600080fd5b600092833560e01c90816306fdde0314610dc757508063095ea7b314610d9d5780630c5f54dc14610d1a5780631616669b14610cbe57806318160ddd14610c9f57806323b872dd14610b6b578063313ce56714610b4f5780633950935114610aff578063406cf22914610a5057806340c10f19146109e3578063475ae0391461097d5780635f710f5c1461091457806370a08231146108dd578063715018a6146108805780638da5cb5b1461085757806395d89b41146107515780639dc29fac146105a7578063a457c2d7146104f9578063a9059cbb14610467578063aa2fe91b14610429578063c7bf1980146103fc578063d3def507146103df578063dd62ed3e14610396578063de5f72fd1461025a578063e1f1c4a71461023d578063e6a69ab81461021a5763f2fde38b1461014c57600080fd5b3461021657602036600319011261021657610165610f06565b9061016e6112b5565b6001600160a01b039182169283156101c4575050600554826bffffffffffffffffffffffff60a01b821617600555167f8be0079c531659141344cd1fd0a4f28419497f9722a3daafe3b4186f6b6457e08380a380f35b906020608492519162461bcd60e51b8352820152602660248201527f4f776e61626c653a206e6577206f776e657220697320746865207a65726f206160448201526564647265737360d01b6064820152fd5b8280fd5b505034610239578160031936011261023957602090516301e133808152f35b5080fd5b505034610239578160031936011261023957602090516127108152f35b50919034610239578160031936011261023957338252602082815269021e19e0c9bab24000008284205410156103545733156103125760025469010f0cf064dd59200000908181018091116102ff5760025533845283825282842081815401905582518181528460008051602061146a833981519152843393a33384526006825282842080549182018092116102ff5790600692915533845252600142918320015580f35b634e487b7160e01b855260118652602485fd5b8390606492519162461bcd60e51b8352820152601f60248201527f45524332303a206d696e7420746f20746865207a65726f2061646472657373006044820152fd5b8390606492519162461bcd60e51b8352820152601860248201527f416c7265616479206861766520656e6f756768205553445900000000000000006044820152fd5b505034610239578060031936011261023957806020926103b4610f06565b6103bc610f21565b6001600160a01b0391821683526001865283832091168252845220549051908152f35b505034610239578160031936011261023957602090516101c28152f35b5050346102395760203660031901126102395760209061042261041d610f06565b610fff565b9051908152f35b5050346102395760203660031901126102395760209160ff9082906001600160a01b03610454610f06565b1681526007855220541690519015158152f35b5050346102395780600319360112610239576020916104e882610488610f06565b9260243593610496336111c1565b61049f816111c1565b6104aa85823361130d565b338252600687528282205485808211156104f1576104c791610f8b565b33835260068852838320556001600160a01b03168152208054909290610fae565b90555160018152f35b5050816104c7565b5082346105a457826003193601126105a457610513610f06565b918360243592338152600160205281812060018060a01b03861682526020522054908282106105535760208561054c85850387336110bf565b5160018152f35b608490602086519162461bcd60e51b8352820152602560248201527f45524332303a2064656372656173656420616c6c6f77616e63652062656c6f77604482015264207a65726f60d81b6064820152fd5b80fd5b5090346102165780600319360112610216576105c1610f06565b602435338552602091600783526105dd60ff8588205416610fbb565b6105e6816111c1565b6001600160a01b03168086528583528386205490949082116107175784156106ca57848652858352838620549082821061067c575090806006939286885287845203848720558060025403600255858560008051602061146a833981519152848751858152a38486528282528386205490808211156106735761066891610f8b565b935b85525282205580f35b5050849361066a565b845162461bcd60e51b8152908101849052602260248201527f45524332303a206275726e20616d6f756e7420657863656564732062616c616e604482015261636560f01b6064820152608490fd5b835162461bcd60e51b8152908101839052602160248201527f45524332303a206275726e2066726f6d20746865207a65726f206164647265736044820152607360f81b6064820152608490fd5b835162461bcd60e51b81529081018390526014602482015273496e73756666696369656e742062616c616e636560601b6044820152606490fd5b5091903461023957816003193601126102395780519180938054916001908360011c926001851694851561084d575b602095868610811461083a5785895290811561081657506001146107be575b6107ba87876107b0828c0383610f69565b5191829182610ebd565b0390f35b81529295507f8a35acfbc15ff81a39ae7d344fd709f28e8600b4aa8c65c6b64bfe7fe36bd19b5b82841061080357505050826107ba946107b09282010194388061079f565b80548685018801529286019281016107e5565b60ff19168887015250505050151560051b83010192506107b0826107ba388061079f565b634e487b7160e01b845260228352602484fd5b93607f1693610780565b50503461023957816003193601126102395760055490516001600160a01b039091168152602090f35b83346105a457806003193601126105a4576108996112b5565b600580546001600160a01b0319811690915581906001600160a01b03167f8be0079c531659141344cd1fd0a4f28419497f9722a3daafe3b4186f6b6457e08280a380f35b5050346102395760203660031901126102395760209181906001600160a01b03610905610f06565b16815280845220549051908152f35b5050346102395760203660031901126102395761092f610f06565b6109376112b5565b6001600160a01b03168083526007602052908220805460ff191660011790557fe6be4d6cc04eb0219337b22db08c688969a9ec8e34d9a0a2ba38a114e050f1ae8280a280f35b50503461023957602036600319011261023957610998610f06565b6109a06112b5565b6001600160a01b03168083526007602052908220805460ff191690557fc6711413797b8a562634e98c95d50e7619d39702ed5b82ce335dc93546c3a88c8280a280f35b505034610239578060031936011261023957610a4b610a00610f06565b91602435923385526007602052610a1c60ff8387205416610fbb565b610a25816111c1565b610a2f8482611224565b6001600160a01b03168452600660205283208054909290610fae565b905580f35b509034610216578260031936011261021657610a6b336111c1565b338352600660205260028184200154918215610ac9575033835260066020528260028282200155610a9c8233611224565b519081527f8258a59886e03bdb78e5ddb9566b8ad4957a1747e8d15fd0b4a24274f35cf31760203392a280f35b6020606492519162461bcd60e51b835282015260116024820152704e6f207969656c6420746f20636c61696d60781b6044820152fd5b50503461023957806003193601126102395761054c602092610b48610b22610f06565b338352600186528483206001600160a01b03821684528652918490205460243590610fae565b90336110bf565b5050346102395781600319360112610239576020905160128152f35b5091346105a45760603660031901126105a457610b86610f06565b9082610b90610f21565b91604435938493610ba0826111c1565b610ba9816111c1565b6001600160a01b0382811680855260016020818152878720338852815287872054909b9395929390918201610c27575b50506104e89683610be99261130d565b80845260068952848420548780821115610c1e57610c0691610f8b565b905b8452600689528484205516815220918254610fae565b50508390610c08565b9193959790809395975010610c5c575091610be987856104e8989694610c52838d9a980333836110bf565b9250819850610bd9565b885162461bcd60e51b81529081018a9052601d60248201527f45524332303a20696e73756666696369656e7420616c6c6f77616e63650000006044820152606490fd5b5050346102395781600319360112610239576020906002549051908152f35b505034610239576020366003190112610239579081906001600160a01b03610ce4610f06565b168152600660205220906107ba825491600260018501549401549051938493846040919493926060820195825260208201520152565b8284346105a45760203660031901126105a4576107ba82610d39610f06565b6001600160a01b038116845260066020529220835190939092610d7f90610d5f85610f37565b85549485815283600260018901549860208401998a520154910152610fff565b93519051938493846040919493926060820195825260208201520152565b50503461023957806003193601126102395760209061054c610dbd610f06565b60243590336110bf565b9291905034610eb95783600319360112610eb957600354600181811c9186908281168015610eaf575b6020958686108214610e9c5750848852908115610e7a5750600114610e21575b6107ba86866107b0828b0383610f69565b929550600383527fc2575a0e9e593c00f959f8c92f12db2869c3395a3b0502d05e2516446f71f85b5b828410610e6757505050826107ba946107b0928201019438610e10565b8054868501880152928601928101610e4a565b60ff191687860152505050151560051b83010192506107b0826107ba38610e10565b634e487b7160e01b845260229052602483fd5b93607f1693610df0565b8380fd5b6020808252825181830181905290939260005b828110610ef257505060409293506000838284010152601f8019910116010190565b818101860151848201604001528501610ed0565b600435906001600160a01b0382168203610f1c57565b600080fd5b602435906001600160a01b0382168203610f1c57565b6060810190811067ffffffffffffffff821117610f5357604052565b634e487b7160e01b600052604160045260246000fd5b90601f8019910116810190811067ffffffffffffffff821117610f5357604052565b91908203918211610f9857565b634e487b7160e01b600052601160045260246000fd5b91908201809211610f9857565b15610fc257565b60405162461bcd60e51b81526020600482015260156024820152742737ba1030baba3437b934bd32b21036b4b73a32b960591b6044820152606490fd5b6001600160a01b03166000908152600660205260408082209051909161102482610f37565b825492838352600260018201549182602086015201546040840194818652156110b757506110529042610f8b565b91516101c2808202918083048214811517156110a35784020292818404149015171561108f57509064496cebb80061108c92049051610fae565b90565b634e487b7160e01b81526011600452602490fd5b634e487b7160e01b84526011600452602484fd5b935050505090565b6001600160a01b0390811691821561117057169182156111205760207f8c5be1e5ebec7d5bd14f71427d1e84f3dd0314c0f7b2291e5b200ac8c7c3b925918360005260018252604060002085600052825280604060002055604051908152a3565b60405162461bcd60e51b815260206004820152602260248201527f45524332303a20617070726f766520746f20746865207a65726f206164647265604482015261737360f01b6064820152608490fd5b60405162461bcd60e51b8152602060048201526024808201527f45524332303a20617070726f76652066726f6d20746865207a65726f206164646044820152637265737360e01b6064820152608490fd5b6111ca81610fff565b9060018060a01b0316908160005260066020526040600020816002820155600142910155806111f7575050565b60207f8258a59886e03bdb78e5ddb9566b8ad4957a1747e8d15fd0b4a24274f35cf31791604051908152a2565b6001600160a01b03169081156112705760008051602061146a833981519152602082611254600094600254610fae565b60025584845283825260408420818154019055604051908152a3565b60405162461bcd60e51b815260206004820152601f60248201527f45524332303a206d696e7420746f20746865207a65726f2061646472657373006044820152606490fd5b6005546001600160a01b031633036112c957565b606460405162461bcd60e51b815260206004820152602060248201527f4f776e61626c653a2063616c6c6572206973206e6f7420746865206f776e65726044820152fd5b6001600160a01b0390811691821561141657169182156113c557600082815280602052604081205491808310611371576040828260008051602061146a833981519152958760209652828652038282205586815220818154019055604051908152a3565b60405162461bcd60e51b815260206004820152602660248201527f45524332303a207472616e7366657220616d6f756e7420657863656564732062604482015265616c616e636560d01b6064820152608490fd5b60405162461bcd60e51b815260206004820152602360248201527f45524332303a207472616e7366657220746f20746865207a65726f206164647260448201526265737360e81b6064820152608490fd5b60405162461bcd60e51b815260206004820152602560248201527f45524332303a207472616e736665722066726f6d20746865207a65726f206164604482015264647265737360d81b6064820152608490fdfeddf252ad1be2c89b69c2b068fc378daa952ba7f163c4a11628f55a4df523b3efa2646970667358221220b406d14c8c2a9bc564ad24c8f8b7f41ef8837c78aab0929eb173b6207b35da2164736f6c63430008180033",
  "linkReferences": {},
  "deployedLinkReferences": {}
}